:020000040800F2
:1000000000000120F94F0008714D00087D4D0008E7
:10001000834D0008894D00088F4D00080000000046
:10002000000000000000000000000000954D0008E6
:10003000A14D000800000000AD4D0008B94D0008BA
:10004000495000084950000849500008495000082C
:10005000495000084950000849500008495000081C
:10006000495000084950000849500008495000080C
:1000700049500008495000084950000849500008FC
:1000800049500008495000084950000849500008EC
:1000900049500008495000084950000849500008DC
:1000A00049500008495000084950000849500008CC
:1000B00049500008000000000000000049500008FE
:1000C00049500008495000084950000849500008AC
:1000D000495000084950000849500008495000089C
:1000E00049500008495000080000000000000000CE
:1000F0000000000000000000000000000000000000
:1001000000000000495000080000000049500008AD
:10011000000000000000000049500008495000089D
:10012000495000084950000849500008495000084B
:10013000495000080000000000000000000000001E
:1001400049500008495000084950000800000000CC
:10015000495000084950000849500008495000081B
:1001600049500008495000084950000800000000AC
:10017000495000084950000800000000000000003D
:10018000495000084950000849500008000000008C
:1001900010B5054C237833B9044B13B10448AFF3C1
:1001A00000800123237010BD7000002000000000BB
:1001B0004060000808B5034B1BB103490348AFF387
:1001C000008008BD000000007400002040600008AE
:1001D0004FF0FF0C1CEAD0521EBF1CEAD15392EA2A
:1001E0000C0F93EA0C0F6FD01A4480EA010C400206
:1001F00018BF5FEA41211ED04FF0006343EA501060
:1002000043EA5111A0FB01310CF00040B1F5000FA1
:100210003EBF490041EAD3715B0040EA010062F150
:100220007F02FD2A1DD8B3F1004F40EBC25008BF3A
:1002300020F00100704790F0000F0CF0004C08BF58
:1002400049024CEA502040EA51207F3AC2BFD2F125
:10025000FF0340EAC250704740F400004FF0000333
:10026000013A5DDC12F1190FDCBF00F0004070476D
:10027000C2F10002410021FA02F1C2F1200200FAAB
:1002800002FC5FEA310040F1000053EA4C0308BF72
:1002900020EADC70704792F0000F00F0004C02BFC3
:1002A000400010F4000F013AF9D040EA0C0093F03E
:1002B000000F01F0004C02BF490011F4000F013B98
:1002C000F9D041EA0C018FE70CEAD15392EA0C0F06
:1002D00018BF93EA0C0F0AD030F0004C18BF31F071
:1002E000004CD8D180EA010000F00040704790F047
:1002F000000F17BF90F0004F084691F0000F91F0EB
:10030000004F14D092EA0C0F01D142020FD193EAB0
:100310000C0F03D14B0218BF084608D180EA010038
:1003200000F0004040F0FE4040F40000704740F014
:10033000FE4040F44000704781F0004102E000BF01
:1003400083F0004330B54FEA41044FEA430594EA95
:10035000050F08BF90EA020F1FBF54EA000C55EAD0
:10036000020C7FEA645C7FEA655C00F0E2804FEAA1
:100370005454D4EB5555B8BF6D420CDD2C4480EA83
:10038000020281EA030382EA000083EA010180EAB3
:10039000020281EA0303362D88BF30BD11F0004F01
:1003A0004FEA01314FF4801C4CEA113102D0404237
:1003B00061EB410113F0004F4FEA03334CEA133372
:1003C00002D0524263EB430394EA050F00F0A7808A
:1003D000A4F10104D5F1200E0DDB02FA0EFC22FA85
:1003E00005F2801841F1000103FA0EF2801843FA79
:1003F00005F359410EE0A5F120050EF1200E012A6A
:1004000003FA0EFC28BF4CF0020C43FA05F3C018A7
:1004100051EBE37101F0004507D54FF0000EDCF120
:10042000000C7EEB00006EEB0101B1F5801F1BD3C9
:10043000B1F5001F0CD349085FEA30004FEA3C0CCD
:1004400004F101044FEA445212F5800F80F09A80C3
:10045000BCF1004F08BF5FEA500C50F1000041EBC7
:10046000045141EA050130BD5FEA4C0C404141EBCB
:100470000101013C28BFB1F5801FE9D291F0000FC6
:1004800004BF01460020B1FA81F308BF2033A3F175
:100490000B03B3F120020CDA0C3208DD02F1140C6C
:1004A000C2F10C0201FA0CF021FA02F10CE002F1A7
:1004B0001402D8BFC2F1200C01FA02F120FA0CFCA0
:1004C000DCBF41EA0C019040E41AA2BF01EB0451E9
:1004D000294330BD6FEA04041F3C1CDA0C340EDCE7
:1004E00004F11404C4F1200220FA04F001FA02F32A
:1004F00040EA030021FA04F345EA030130BDC4F1E8
:100500000C04C4F1200220FA02F001FA04F340EADC
:100510000300294630BD21FA04F0294630BD94F08D
:10052000000F83F4801306BF81F480110134013D74
:100530004EE77FEA645C18BF7FEA655C29D094EAE5
:10054000050F08BF90EA020F05D054EA000C04BF63
:100550001946104630BD91EA030F1EBF002100204E
:1005600030BD5FEA545C05D14000494128BF41F0ED
:10057000004130BD14F580043CBF01F5801130BD51
:1005800001F0004545F0FE4141F470014FF00000DC
:1005900030BD7FEA645C1ABF194610467FEA655C8D
:1005A0001CBF0B46024650EA013406BF52EA03352F
:1005B00091EA030F41F4002130BD00BF90F0000F1D
:1005C00004BF0021704730B54FF4806404F1320459
:1005D0004FF000054FF0000150E700BF90F0000F12
:1005E00004BF0021704730B54FF4806404F1320439
:1005F00010F0004548BF40424FF000013EE700BF09
:1006000042004FEAE2014FEA31014FEA02701FBF98
:1006100012F07F4393F07F4F81F06051704732F0CA
:100620007F4208BF704793F07F4F04BF41F4002121
:10063000704730B54FF4607401F0004521F000417F
:100640001CE700BF50EA010208BF704730B54FF009
:1006500000050AE050EA010208BF704730B511F00A
:10066000004502D5404261EB41014FF4806404F142
:1006700032045FEA915C3FF4D8AE4FF003025FEAC8
:10068000DC0C18BF03325FEADC0C18BF033202EB4C
:10069000DC02C2F1200300FA03FC20FA02F001FAA6
:1006A00003FE40EA0E0021FA02F11444BDE600BF49
:1006B00070B54FF0FF0C4CF4E06C1CEA11541DBFF8
:1006C0001CEA135594EA0C0F95EA0C0F00F0DEF8C3
:1006D0002C4481EA030621EA4C5123EA4C5350EAA8
:1006E000013518BF52EA033541F4801143F48013F9
:1006F00038D0A0FB02CE4FF00005E1FB02E506F08A
:100700000042E0FB03E54FF00006E1FB03569CF0DE
:10071000000F18BF4EF0010EA4F1FF04B6F5007FE4
:1007200064F5407404D25FEA4E0E6D4146EB060656
:1007300042EAC62141EA55514FEAC52040EA5E50DF
:100740004FEACE2EB4F1FD0C88BFBCF5E06F1ED889
:10075000BEF1004F08BF5FEA500E50F1000041EBC0
:10076000045170BD06F0004646EA010140EA02006D
:1007700081EA0301B4EB5C04C2BFD4EB0C0541EA8F
:10078000045170BD41F480114FF0000E013C00F3A4
:10079000AB8014F1360FDEBF002001F0004170BDC8
:1007A000C4F10004203C35DA0C341BDC04F11404E1
:1007B000C4F1200500FA05F320FA04F001FA05F26D
:1007C00040EA020001F0004221F0004110EBD3703A
:1007D00021FA04F642EB06015EEA430E08BF20EA66
:1007E000D37070BDC4F10C04C4F1200500FA04F309
:1007F00020FA05F001FA04F240EA020001F000419B
:1008000010EBD37041F100015EEA430E08BF20EA0D
:10081000D37070BDC4F1200500FA05F24EEA020E55
:1008200020FA04F301FA05F243EA020321FA04F084
:1008300001F0004121FA04F220EA020000EBD3703B
:100840005EEA430E08BF20EAD37070BD94F0000F3B
:100850000FD101F00046400041EB010111F4801F6F
:1008600008BF013CF7D041EA060195F0000F18BF20
:10087000704703F00046520043EB030313F4801F5C
:1008800008BF013DF7D043EA0603704794EA0C0F16
:100890000CEA135518BF95EA0C0F0CD050EA41062C
:1008A00018BF52EA4306D1D181EA030101F00041A9
:1008B0004FF0000070BD50EA410606BF10461946D1
:1008C00052EA430619D094EA0C0F02D150EA0136DD
:1008D00013D195EA0C0F05D152EA03361CBF10461E
:1008E00019460AD181EA030101F0004141F0FE41BD
:1008F00041F470014FF0000070BD41F0FE4141F441
:10090000780170BD70B54FF0FF0C4CF4E06C1CEA40
:1009100011541DBF1CEA135594EA0C0F95EA0C0FF5
:1009200000F0A7F8A4EB050481EA030E52EA0335B0
:100930004FEA013100F088804FEA03334FF08055D1
:1009400045EA131343EA12634FEA022245EA1115FE
:1009500045EA10654FEA00260EF000419D4208BFAF
:10096000964244F1FD0404F5407402D25B084FEA5C
:100970003202B61A65EB03055B084FEA32024FF408
:1009800080104FF4002CB6EB020E75EB030E22BF65
:10099000B61A754640EA0C005B084FEA3202B6EB25
:1009A000020E75EB030E22BFB61A754640EA5C00D4
:1009B0005B084FEA3202B6EB020E75EB030E22BF64
:1009C000B61A754640EA9C005B084FEA3202B6EB65
:1009D000020E75EB030E22BFB61A754640EADC0024
:1009E00055EA060E18D04FEA051545EA16754FEA86
:1009F00006164FEAC30343EA52734FEAC2025FEAA4
:100A00001C1CC0D111F4801F0BD141EA00014FF032
:100A100000004FF0004CB6E711F4801F04BF014303
:100A20000020B4F1FD0C88BFBCF5E06F3FF6AFAE1F
:100A3000B5EB030C04BFB6EB020C5FEA500C50F1AF
:100A4000000041EB045170BD0EF0004E4EEA113132
:100A500014EB5C04C2BFD4EB0C0541EA045170BD39
:100A600041F480114FF0000E013C90E645EA060E7D
:100A70008DE60CEA135594EA0C0F08BF95EA0C0FAB
:100A80003FF43BAF94EA0C0F0AD150EA01347FF4F3
:100A900034AF95EA0C0F7FF425AF104619462CE7CA
:100AA00095EA0C0F06D152EA03353FF4FDAE10462D
:100AB000194622E750EA410618BF52EA43067FF47E
:100AC000C5AE50EA41047FF40DAF52EA43057FF40E
:100AD000EBAE12E74FEA4102B2F1E04324BFB3F5B7
:100AE000001CDCF1FE5C0DD901F0004C4FEAC002A5
:100AF0004CEA5070B2F1004F40EB830008BF20F089
:100B00000100704711F0804F21D113F13872BCBF42
:100B100001F00040704741F480114FEA5252C2F197
:100B20001802C2F1200C10FA0CF320FA02F018BFE0
:100B300040F001004FEAC1234FEAD32303FA0CFC33
:100B400040EA0C0023FA02F34FEA4303CCE77FEAC2
:100B5000625307D150EA01331EBF4FF0FE4040F40C
:100B60004000704701F0004040F0FE4040F40000BB
:100B7000704700BF80F0004002E000BF81F00041FC
:100B800042001FBF5FEA410392EA030F7FEA226C33
:100B90007FEA236C6AD04FEA1262D2EB1363C1BFC3
:100BA000D218414048404140B8BF5B42192B88BF32
:100BB000704710F0004F40F4000020F07F4018BF55
:100BC000404211F0004F41F4000121F07F4118BF75
:100BD000494292EA030F3FD0A2F1010241FA03FC1D
:100BE00010EB0C00C3F1200301FA03F100F0004305
:100BF00002D5494260EB4000B0F5000F13D3B0F1CD
:100C0000807F06D340084FEA310102F10102FE2A3B
:100C100051D2B1F1004F40EBC25008BF20F00100AB
:100C200040EA03007047490040EB0000013A28BF4A
:100C3000B0F5000FEDD2B0FA80FCACF1080CB2EBCD
:100C40000C0200FA0CF0AABF00EBC250524218434B
:100C5000BCBFD0401843704792F0000F81F40001F0
:100C600006BF80F400000132013BB5E74FEA4103C3
:100C70007FEA226C18BF7FEA236C21D092EA030F2F
:100C800004D092F0000F08BF0846704790EA010FA9
:100C90001CBF0020704712F07F4F04D1400028BFD6
:100CA00040F00040704712F100723CBF00F50000B8
:100CB000704700F0004343F0FE4040F400007047EE
:100CC0007FEA226216BF08467FEA2363014642029A
:100CD00006BF5FEA412390EA010F40F480007047AD
:100CE0004FF0000304E000BF10F0004348BF404253
:100CF0005FEA000C08BF704743F0964301464FF08F
:100D000000001CE050EA010208BF70474FF00003EA
:100D10000AE000BF50EA010208BF704711F000432B
:100D200002D5404261EB41015FEA010C02BF8446FB
:100D30000146002043F0B64308BFA3F18053A3F55A
:100D40000003BCFA8CF2083AA3EBC25310DB01FAA1
:100D500002FC634400FA02FCC2F12002BCF1004F25
:100D600020FA02F243EB020008BF20F001007047B6
:100D700002F1200201FA02FCC2F1200250EA4C000A
:100D800021FA02F243EB020008BF20EADC70704750
:100D90004FEA4002B2F1FE4F0FD34FF09E03B3EB88
:100DA00012620DD94FEA002343F0004310F0004FC8
:100DB00023FA02F018BF404270474FF0000070471E
:100DC00012F1610F01D1420205D110F0004008BFBD
:100DD0006FF0004070474FF00000704753B94AB9B8
:100DE000002908BF00281CBF4FF0FF314FF0FF3033
:100DF00000F06CB9ADF1080C6DE904CE00F006F816
:100E0000DDF804E0DDE9022304B070472DE9F04786
:100E1000089E0D4604468E46002B40F082808A4292
:100E2000174646D9B2FA82F24AB1C2F1200105FA58
:100E300002F320FA01F1974041EA030E94404FEA91
:100E40001748230CBEFBF8FCB9B208FB1CEE43EAC2
:100E50000E430CFB01F098420AD9FB180CF1FF3548
:100E600080F01681984240F21381ACF1020C3B44B1
:100E70001B1AA4B2B3FBF8F008FB103344EA034496
:100E800000FB01F1A14209D93C1900F1FF3380F0C8
:100E90000181A14240F2FE8002383C44641A40EADB
:100EA0000C4000211EB1D4400023C6E90043BDE838
:100EB000F08702B9FFDEB2FA82F2002A4FD1CB1BD3
:100EC0004FEA174E1FFA87F80121B3FBFEFC250CF1
:100ED0000EFB1C3345EA034508FB0CF3AB4207D974
:100EE0007D190CF1FF3002D2AB4200F2E78084465C
:100EF000ED1AA3B2B5FBFEF00EFB105543EA054414
:100F000008FB00F8A04507D93C1900F1FF3302D2D5
:100F1000A04500F2D7801846A4EB080440EA0C4034
:100F2000C0E78B4208D9002E00F0AF800021C6E94F
:100F300000050846BDE8F087B3FA83F100294BD1DC
:100F4000AB4202D3824200F2B780841A65EB0303FE
:100F500001209E46002EAAD0C6E9004EA7E7C2F1A6
:100F6000200C01FA02F3974020FA0CF04FEA174EDA
:100F700021FA0CFC1843BCFBFEF1050C0EFB11CC56
:100F80001FFA87F845EA0C4501FB08F3AB4204FA67
:100F900002F409D97D1901F1FF3C80F08B80AB424E
:100FA00040F2888002393D44EB1A85B2B3FBFEF073
:100FB0000EFB103345EA034500FB08F3AB4207D9AB
:100FC0007D1900F1FF3C71D2AB426FD902383D442C
:100FD000EB1A40EA014178E7C1F1200C8B4022FA7C
:100FE0000CF71F4320FA0CF405FA01F34FEA174EF1
:100FF00025FA0CF51C43230CB5FBFEF91FFA87F804
:101000000EFB195543EA054509FB08FAAA4502FA01
:1010100001F200FA01F308D97D1909F1FF3047D236
:10102000AA4545D9A9F102093D44A5EB0A05A4B298
:10103000B5FBFEF00EFB105544EA054400FB08F832
:10104000A04507D93C1900F1FF352DD2A0452BD979
:1010500002383C4440EA0940A4EB0804A0FB0289A2
:101060004C45C6464D4619D316D05EB1B3EB0E02C1
:1010700064EB050404FA0CFCCA404CEA0202CC40C2
:10108000C6E900240021BDE8F087314630460EE76E
:10109000AC46EDE6184601E74345E6D2B8EB020E52
:1010A00069EB07050138E0E72846D3E760468FE79C
:1010B0008146BAE7614677E708464BE7ACF1020C98
:1010C0003D4415E702383C4426E700BF704700BFA7
:1010D00001F0FF01102A2BDB10F0070F08D010F8E9
:1010E000013B013A8B422DD010F0070F42B3F6D1ED
:1010F000F0B441EA012141EA014122F007047FF006
:1011000000070023F0E80256083C85EA010586EA5C
:10111000010685FA47F5A3FA87F586FA47F6A5FA98
:1011200087F68EB9EED1F0BC01F0FF0102F00702A4
:1011300032B110F8013B013A83EA010313B1F8D14F
:101140000020704701387047002D06BF3546033830
:10115000073815F0010F07D1013015F4807F02BF69
:10116000013015F4C03F0130F0BC0138704700BFBA
:1011700080B582B000AF0023FB71032001F0D0F8EE
:10118000002000F00DF80346002B02D00123FB7174
:1011900001E003F0CBFDFB7918460837BD4680BD62
:1011A00080B584B000AF78600023FB73164B1B68DA
:1011B000002B22D0154B1A68134B1B684FF47A7121
:1011C000B1FBF3F3B2FBF3F3184601F0D0F803469A
:1011D000002B0FD17B680F2B09D8002279684FF0C4
:1011E000FF3001F0A8F80A4A7B68136007E001238A
:1011F000FB7304E00123FB7301E00123FB73FB7B22
:1012000018461037BD4680BD0400002008000020AD
:101210000000002080B400AF054B1A68054B1B6826
:101220001344034A136000BFBD4680BC704700BF33
:101230008C0000200400002080B400AF024B1B682B
:101240001846BD4680BC70478C00002080B584B035
:1012500000AF7860FFF7F0FFB8607B68FB60FB6869
:10126000B3F1FF3F04D0094B1B68FA681344FB60DD
:1012700000BFFFF7E1FF0246BB68D31AFA689A4243
:10128000F7D800BF00BF1037BD4680BD0400002066
:1012900080B483B000AF786039607B689B6823F4CA
:1012A0007C123B681A437B689A6000BF0C37BD46CE
:1012B00080BC704780B483B000AF786039607B68D1
:1012C0009B6823F0E0723B681A437B689A6000BF1A
:1012D0000C37BD4680BC704780B483B000AF7860E7
:1012E0007B689B6803F0E07318460C37BD4680BCF2
:1012F0007047000090B484B000AFF860B9607A60C5
:101300003B60FB6860331A46BB689B0013441C4675
:101310002268084B13407A6802F0F8413A680A43A1
:10132000134343F00043236000BF1037BD4690BC19
:10133000704700BF00F0FF0390B482B000AF786048
:1013400039607B6860331A463B689B0013441C4637
:10135000236803F0F84318460837BD4690BC704731
:1013600090B484B000AFF860B9607A60FB68603315
:101370001A46BB689B0013441C46236823F00042B6
:101380007B681343236000BF1037BD4690BC704795
:1013900080B483B000AF78607B68DB6803F440639F
:1013A000002B01D1012300E0002318460C37BD4675
:1013B00080BC704790B484B000AFF860B9607A60C8
:1013C000FB6830331A46BB681B0A9B0003F00C0312
:1013D00013441C462268BB6803F01F031F2101FA57
:1013E00003F3DB431A407B689B0E03F01F01BB68CD
:1013F00003F01F0301FA03F31343236000BF103708
:10140000BD4690BC704790B484B000AFF860B9603E
:101410007A60FB6814331A46BB685B0E9B0003F0CE
:10142000040313441C462268BB681B0D03F01F0312
:10143000072101FA03F3DB431A40BB681B0D03F0DD
:101440001F03796801FA03F31343236000BF1037C9
:10145000BD4690BC7047000080B485B000AFF86016
:10146000B9607A60FB68D3F8B020BB68C3F312039D
:10147000DB431A407B6803F018030749D940BB6877
:101480000B40C3F312031A43FB68C3F8B02000BF3C
:101490001437BD4680BC7047FFFF070080B483B09F
:1014A00000AF78607B689B6823F0204323F03F0304
:1014B0007A68936000BF0C37BD4680BC704780B42B
:1014C00083B000AF78607B689B6803F00053B3F192
:1014D000005F01D1012300E0002318460C37BD4610
:1014E00080BC704780B483B000AF78607B689B6835
:1014F00023F0104323F03F0343F080527B689A604F
:1015000000BF0C37BD4680BC704780B483B000AFCD
:1015100078607B689B6803F08053B3F1805F01D1F2
:10152000012300E0002318460C37BD4680BC7047FD
:1015300080B483B000AF78607B689B6823F0004381
:1015400023F03F0343F001027B689A6000BF0C3731
:10155000BD4680BC704780B483B000AF78607B68C4
:101560009B6803F00103012B01D1012300E000235C
:1015700018460C37BD4680BC704780B483B000AFBE
:1015800078607B689B6823F0004323F03F0343F0BF
:1015900004027B689A6000BF0C37BD4680BC704770
:1015A00080B483B000AF78607B689B6803F004036D
:1015B000042B01D1012300E0002318460C37BD465F
:1015C00080BC704780B483B000AF78607B689B6854
:1015D00003F00803082B01D1012300E00023184683
:1015E0000C37BD4680BC704780B588B000AF7860CE
:1015F0000023FB770023BB607B68002B01D1012314
:101600002AE17B681B69002B7B685B6D002B09D18D
:10161000786803F0BBF87B6800229A657B6800223B
:1016200083F850207B681B681846FFF748FF034685
:10163000002B04D07B681B681846FFF72FFF7B68E0
:101640001B681846FFF761FF0346002B13D17B6828
:101650001B681846FFF746FF814B1B689B09814AB0
:10166000A2FB03239B09BB6002E0BB68013BBB609C
:10167000BB68002BF9D17B681B681846FFF745FF54
:101680000346002B0DD17B685B6D43F010027B6835
:101690005A657B689B6D43F001027B689A65012364
:1016A000FB777B681B681846FFF77AFF78617B68D9
:1016B0005B6D03F01003002B40F0C5807B69002BAD
:1016C00040F0C1807B685B6D23F4817343F00202BC
:1016D0007B685A657B681B681846FFF73CFF03462A
:1016E000002B0BD16048FFF736FF0346002B05D1D6
:1016F0007B685B6819465D48FFF7CAFD7B685B7EC7
:101700005A037B685B6B1A437B68DB681A437B6810
:101710009B681A437B6893F820301B041343BB611A
:101720007B6893F82030012B06D17B685B6A013B14
:101730005B04BA691343BB617B689B6A002B09D0C9
:101740007B689B6A03F470727B68DB6A1343BA6937
:101750001343BB617B681B68DA68454B13407A68AA
:101760001268B9690B43D3607B681B681846FFF7A2
:1017700017FF38617B681B681846FFF723FFF86086
:101780003B69002B3DD1FB68002B3AD17B681B7E67
:101790009A037B6893F830305B001343BB617B682E
:1017A0001B68DB6823F4804323F002037A68126825
:1017B000B9690B43D3607B6893F83830012B18D19B
:1017C0007B681B681B6923F4FF6323F004037A68BA
:1017D000D16B7A68126C11437A68526C11437A6843
:1017E000926C0A431A437B681B6842F001021A613B
:1017F00007E07B681B681A697B681B6822F001029E
:101800001A617B681B69012B0CD17B681B681B6B01
:1018100023F00F017B68DB695A1E7B681B680A4353
:101820001A6307E07B681B681A6B7B681B6822F0F1
:101830000F021A637B685B6D23F0030343F0010220
:101840007B685A6507E07B685B6D43F010027B683C
:101850005A650123FB77FB7F18462037BD4680BDC4
:1018600008000020632D3E050000045000030450D2
:1018700007C0F0FF80B584B000AF78607B681B685C
:101880001846FFF78DFE0346002B4FD17B6893F877
:101890005030012B01D102234BE07B68012283F8F9
:1018A0005020786800F032FC0346FB73FB7B002B72
:1018B00037D17B685B6D23F4706323F0010343F43D
:1018C00080727B685A657B685B6D03F48053B3F567
:1018D000805F06D17B689B6D23F006027B689A656A
:1018E00002E07B6800229A657B681B681C221A60F4
:1018F0007B68002283F850207B681B68DB6803F05C
:101900000073002B07D07B685B6D23F4405343F4D6
:1019100080527B685A657B681B681846FFF72DFE6E
:1019200006E07B68002283F8502001E00223FB736D
:10193000FB7B18461037BD4680BD80B586B000AF32
:10194000786039607B685B69082B02D108237B6172
:1019500010E07B681B68DB6803F00103002B07D0F5
:101960007B685B6D43F020027B685A65012368E069
:1019700004237B61FFF760FC38611AE03B68B3F138
:10198000FF3F16D0FFF758FC02463B69D31A3A686E
:101990009A4202D33B68002B0BD17B685B6D43F00E
:1019A00004027B685A657B68002283F85020032379
:1019B00047E07B681B681A687B691340002BDDD009
:1019C0007B685B6D43F400727B685A657B681B68BB
:1019D0001846FFF7DDFC0346002B1CD07B685B7EBE
:1019E000002B18D17B681B681B6803F00803082BC9
:1019F00011D17B685B6D23F480727B685A657B68CC
:101A00005B6D03F48053002B05D17B685B6D43F065
:101A100001027B685A657B681B68DB68FB607B6939
:101A2000082B04D17B681B6808221A6008E0FB6859
:101A300003F48043002B03D17B681B680C221A60DF
:101A4000002318461837BD4680BD80B483B000AF70
:101A500078607B681B681B6C18460C37BD4680BCE1
:101A60007047000080B5A6B000AF786039600023F1
:101A700087F897300023BB607B6893F85030012BC8
:101A800001D1022338E37B68012283F850207B6870
:101A90001B681846FFF784FD0346002B40F01D83AA
:101AA0003B685B68052B24D83B685B68023B032BD3
:101AB0001BD801A252F823F0C91A0008D11A000855
:101AC000D91A0008E11A00083B680C225A6011E09C
:101AD0003B6812225A600DE03B6818225A6009E008
:101AE0003B684FF480725A6004E03B6806225A60FB
:101AF00000E000BF7B6818683B6859683B681B685A
:101B00001A46FFF757FC7B681B681846FFF748FD2D
:101B1000C7F890007B681B681846FFF753FDC7F8AD
:101B20008C00D7F89030002B40F04881D7F88C30EB
:101B3000002B40F043817B6818683B6819683B685C
:101B40009B681A46FFF75FFC3B685A697B681B6815
:101B5000DB68DB0803F003035B0002FA03F3C7F85A
:101B600088303B681B69042B0AD07B6818683B6887
:101B700019693B681A68D7F88830FFF7BBFB1DE18D
:101B80007B681B6800211846FFF7D6FB0346C3F3AA
:101B90001203002B0AD17B681B6800211846FFF74F
:101BA000CBFB03469B0E03F01F0212E07B681B6811
:101BB00000211846FFF7C0FB0346C7F88030D7F86E
:101BC000803093FAA3F3FB67FB6FB3FA83F3DBB2C6
:101BD0001A463B681B68C3F31203002B05D13B6810
:101BE0001B689B0E03F01F030AE03B681B68BB6782
:101BF000BB6F93FAA3F37B677B6FB3FA83F3DBB21C
:101C00009A4206D17B681B68002200211846FFF724
:101C1000A7FB7B681B6801211846FFF78DFB034675
:101C2000C3F31203002B0AD17B681B6801211846FD
:101C3000FFF782FB03469B0E03F01F0210E07B6858
:101C40001B6801211846FFF777FB03463B673B6F94
:101C500093FAA3F3FB66FB6EB3FA83F3DBB21A4687
:101C60003B681B68C3F31203002B05D13B681B685C
:101C70009B0E03F01F030AE03B681B68BB66BB6E4C
:101C800093FAA3F37B667B6EB3FA83F3DBB29A42DB
:101C900006D17B681B68002201211846FFF760FB14
:101CA0007B681B6802211846FFF746FB0346C3F317
:101CB0001203002B0AD17B681B6802211846FFF72C
:101CC0003BFB03469B0E03F01F0210E07B681B6882
:101CD00002211846FFF730FB03463B663B6E93FA42
:101CE000A3F3FB65FB6DB3FA83F3DBB21A463B68E3
:101CF0001B68C3F31203002B05D13B681B689B0EC6
:101D000003F01F030AE03B681B68BB65BB6D93FAD9
:101D1000A3F37B657B6DB3FA83F3DBB29A4206D102
:101D20007B681B68002202211846FFF719FB7B68BD
:101D30001B6803211846FFF7FFFA0346C3F312039B
:101D4000002B0AD17B681B6803211846FFF7F4FAC1
:101D500003469B0E03F01F0210E07B681B68032103
:101D60001846FFF7E9FA03463B653B6D93FAA3F388
:101D7000FB64FB6CB3FA83F3DBB21A463B681B6867
:101D8000C3F31203002B05D13B681B689B0E03F0C5
:101D90001F030AE03B681B68BB64BB6C93FAA3F3A8
:101DA0007B647B6CB3FA83F3DBB29A4206D17B6827
:101DB0001B68002203211846FFF7D2FA7B681B68D4
:101DC0001846FFF7C8FB0346002B40F00C817B68E8
:101DD00018683B6819683B68DB681A46FFF73CFBEC
:101DE0003B68DB68A84A934240F0FD807B68186836
:101DF0003B681B68C3F31203002B0BD13B681B68C5
:101E00009B0E013303F01F03092B94BF0123002312
:101E1000DBB212E03B681B683B643B6C93FAA3F3B4
:101E2000FB63FB6BB3FA83F3DBB2013303F01F03F5
:101E3000092B94BF01230023DBB2002B64D03B6845
:101E40001B68C3F31203002B07D13B681B689B0E72
:101E500001339B0603F0F8420EE03B681B68BB634E
:101E6000BB6B93FAA3F37B637B6BB3FA83F3DBB2B5
:101E700001339B0603F0F8423B681B68C3F312036F
:101E8000002B09D13B681B689B0E013303F01F0335
:101E9000012101FA03F310E03B681B683B633B6BD5
:101EA00093FAA3F3FB62FB6AB3FA83F3DBB2013369
:101EB00003F01F03012101FA03F342EA03013B6827
:101EC0001B68C3F31203002B0AD13B681B689B0EEF
:101ED000013303F01F0213465B0013441B0511E09E
:101EE0003B681B68BB62BB6A93FAA3F37B627B6AA5
:101EF000B3FA83F3DBB2013303F01F0213465B0036
:101F000013441B050B4369E03B681B68C3F31203D2
:101F1000002B07D13B681B689B0E01339B0603F027
:101F2000F8420EE03B681B683B623B6A93FAA3F3FE
:101F3000FB61FB69B3FA83F3DBB201339B0603F069
:101F4000F8423B681B68C3F31203002B09D13B68BE
:101F50001B689B0E013303F01F03012101FA03F3F9
:101F600010E03B681B68BB61BB6993FAA3F37B611C
:101F70007B69B3FA83F3DBB2013303F01F03012162
:101F800001FA03F342EA03013B681B68C3F312033F
:101F9000002B0DD13B681B689B0E013303F01F0221
:101FA00013465B0013441E3B1B0543F0007314E013
:101FB0003B681B683B613B6993FAA3F3FB60FB68DA
:101FC000B3FA83F3DBB2013303F01F0213465B0065
:101FD00013441E3B1B0543F000730B433A689268A1
:101FE0001946FFF710FA3B681A68284B1340002B7C
:101FF0007CD02748FFF770F9C7F884003B681B685E
:10200000244A934226D1D7F8843003F40003002BEE
:1020100020D17B681B68204A934267D1D7F884306F
:1020200043F4000319461A48FFF744F91B4B1B6899
:102030009B091B4AA2FB03239A0913465B00134426
:102040009B00BB6002E0BB68013BBB60BB68002B30
:10205000F9D14BE03B681B68124A934224D1D7F870
:10206000843003F08073002B1ED17B681B680A4A02
:1020700093423BD1D7F8843043F08073194604482B
:10208000FFF718F932E000BF00007F400000088031
:1020900000030450000052C7000004500800002054
:1020A000632D3E05000084CB3B681B68144A9342B5
:1020B0001CD1D7F8843003F48003002B16D17B6841
:1020C0001B68104A934211D1D7F8843043F480033F
:1020D00019460D48FFF7EEF808E07B685B6D43F0AA
:1020E00020027B685A65012387F897307B680022BD
:1020F00083F8502097F8973018469837BD4680BD32
:1021000001000080000004500003045080B584B03A
:1021100000AF78607B681B681846FFF71CFA03461F
:10212000002B46D17B681B689A68244B1340002B18
:102130000DD07B685B6D43F010027B685A657B684D
:102140009B6D43F001027B689A65012332E07B6856
:102150001B681846FFF7ECF9FFF76EF8F86021E00E
:102160007B681B681846FFF7F6F90346002B04D17D
:102170007B681B681846FFF7DBF9FFF75DF802463E
:10218000FB68D31A022B0DD97B685B6D43F01002FC
:102190007B685A657B689B6D43F001027B689A659A
:1021A000012307E07B681B681B6803F00103012B18
:1021B000D6D1002318461037BD4680BD3F000080B1
:1021C00080B485B000AF78607B6803F00703FB60E4
:1021D0000C4BDB68BB60BA684FF6FF031340BB6073
:1021E000FB681A02BB68134343F0BF6343F4003338
:1021F000BB60044ABB68D36000BF1437BD4680BCD7
:10220000704700BF00ED00E080B400AF044BDB6816
:102210001B0A03F007031846BD4680BC704700BF89
:1022200000ED00E080B483B000AF03463960FB717D
:1022300097F90730002B0ADB3B68DAB20C4997F9B3
:1022400007301201D2B20B4483F800230AE03B6846
:10225000DAB20849FB7903F00F03043B1201D2B252
:102260000B441A7600BF0C37BD4680BC704700BFD8
:1022700000E100E000ED00E080B489B000AFF8605C
:10228000B9607A60FB6803F00703FB61FB69C3F187
:102290000703042B28BF0423BB61FB690433062B0F
:1022A00002D9FB69033B00E000237B614FF0FF3262
:1022B000BB6902FA03F3DA43BB681A407B699A40B0
:1022C0004FF0FF317B6901FA03F3D9437B680B4080
:1022D000134318462437BD4680BC704780B582B092
:1022E00000AF78607B68013BB3F1807F01D30123AD
:1022F0000FE00A4A7B68013B53600F214FF0FF302B
:10230000FFF790FF054B00229A60044B07221A60EA
:10231000002318460837BD4680BD00BF10E000E02E
:1023200080B582B000AF78607868FFF749FF00BFE2
:102330000837BD4680BD80B586B000AF0346B960A2
:102340007A60FB7300237B61FFF75EFF78617A6838
:10235000B9687869FFF790FF024697F90F30114688
:102360001846FFF75FFF00BF1837BD4680BD80B538
:1023700082B000AF78607868FFF7B0FF0346184678
:102380000837BD4680BD80B582B000AF78607B68FD
:10239000002B01D1012314E07B681B79DBB2002BF9
:1023A00005D17B6800225A71786802F061FA7B6877
:1023B00002221A717B6800221A617B6801221A715D
:1023C000002318460837BD4680BD80B483B000AFF7
:1023D000786039607B685B79012B01D102233BE097
:1023E0007B6801225A717B6802221A717B681B6824
:1023F00019683B6803F0100301229A407B681B6850
:102400000A431A603B68002B0FD17B681B681B686E
:1024100003F03C03042B18D17B681B685A687B6867
:102420001B6842F001025A600FE07B681B681B6862
:1024300003F47013B3F5802F07D17B681B685A68CB
:102440007B681B6842F002025A607B6801221A71A5
:102450007B6800225A71002318460C37BD4680BCA9
:10246000704780B487B000AFF860B9607A603B60B5
:1024700000237B61FB681B687B61BB68002B05D177
:102480007A697B68134408337B6104E07A697B686E
:10249000134414337B617B691A463B681360002345
:1024A00018461C37BD4680BC704780B588B000AF69
:1024B000F860B9607A600023FB61FB685B79012BEF
:1024C00001D1022307E1FB6801225A71FB68022255
:1024D0001A71BB681B68042B74D17B68002B37D141
:1024E000FEF7AAFEF86111E0FEF7A6FE0246FB69C0
:1024F000D31A012B0AD9FB681B6943F00802FB6859
:102500001A61FB6803221A710323E4E0FB681B686D
:102510005B6B03F40043002BE6D10120FEF796FE2F
:10252000FB681B68BA6892691A641EE0FEF784FEB5
:102530000246FB69D31A012B0AD9FB681B6943F0D9
:102540000802FB681A61FB6803221A710323C2E0C8
:10255000FB681B685B6B002BE8DB0120FEF776FE57
:10256000FB681B68BA6892695A64FB681B689A6CBE
:102570007B6803F0100340F2FF3101FA03F3DB4301
:1025800002EA0301BB68DA697B6803F010039A4032
:10259000FB681B680A439A64FB681B68DA6C7B68FB
:1025A00003F01003FF2101FA03F3DB4302EA030106
:1025B000BB681A6A7B6803F010039A40FB681B68CB
:1025C0000A43DA64BB681B69012B1DD1FB681B68D9
:1025D0009B6BBB617B6803F010031F2202FA03F3BD
:1025E000DB43BA691340BB61BB685B697B617B6895
:1025F00003F010037A6902FA03F3BA691343BB616B
:10260000FB681B68BA699A63FB681B68DB6BBB617C
:102610007B6803F01003072202FA03F3DB43BA6975
:102620001340BB61BB681A68BB689B681A43BB68F0
:10263000DB6813437B617B6803F010037A6902FA5D
:1026400003F3BA691343BB61FB681B68BA69DA63B9
:10265000FB681B6819687B6803F010034FF4804225
:1026600002FA03F3DA43FB681B680A401A60FB684E
:102670001B681B68BB617B6803F0100340F6FC72AB
:1026800002FA03F3DB43BA691340BB61BB685B68C2
:102690007B617B6803F010037A6902FA03F3BA697D
:1026A0001343BB61FB681B68BA691A60FB681B684F
:1026B00019687B6803F01003C02202FA03F3DA43BF
:1026C000FB681B680A401A60FB6801221A71FB68EC
:1026D00000225A71002318462037BD4680BD0000F5
:1026E00080B487B000AF7860396000237B6154E12B
:1026F0003B681A6801217B6901FA03F31340FB6010
:10270000FB68002B00F046813B685B68022B03D01E
:102710003B685B68122B23D17B69DA087B6808323F
:1027200053F822303B617B6903F007039B000F22C3
:1027300002FA03F3DB433A6913403B613B681A69D1
:102740007B6903F007039B0002FA03F33A69134322
:102750003B617B69DA087B680832396943F82210EB
:102760007B681B683B617B695B00032202FA03F311
:10277000DB433A6913403B613B685B6803F003024B
:102780007B695B0002FA03F33A6913433B617B68A0
:102790003A691A603B685B68012B0BD03B685B6849
:1027A000022B07D03B685B68112B03D03B685B684A
:1027B000122B30D17B689B683B617B695B000322F5
:1027C00002FA03F3DB433A6913403B613B68DA6882
:1027D0007B695B0002FA03F33A6913433B617B6850
:1027E0003A699A607B685B683B6101227B6902FA07
:1027F00003F3DB433A6913403B613B685B681B09A9
:1028000003F001027B6902FA03F33A6913433B6167
:102810007B683A695A607B68DB683B617B695B0077
:10282000032202FA03F3DB433A6913403B613B683E
:102830009A687B695B0002FA03F33A6913433B61D0
:102840007B683A69DA603B685B6803F08053002B71
:1028500000F0A080584B1B6E574A43F001031366EB
:10286000554B1B6E03F00103BB60BB68534A7B6989
:102870009B08023352F823303B617B6903F003036A
:102880009B000F2202FA03F3DB433A6913403B61DA
:102890007B68B3F1904F19D07B68494A934213D0BB
:1028A0007B68484A93420DD07B68474A934207D0E1
:1028B0007B68464A934201D1042308E0072306E0DF
:1028C000032304E0022302E0012300E000237A69ED
:1028D00002F00302920093403A6913433B61374987
:1028E0007B699B0802333A6941F82320384B1B6807
:1028F0003B61FB68DB433A6913403B613B685B68C3
:1029000003F48033002B03D03A69FB6813433B6127
:102910002F4A3B6913602E4B5B683B61FB68DB43CE
:102920003A6913403B613B685B6803F40033002B5A
:1029300003D03A69FB6813433B61254A3B69536006
:10294000234B9B683B61FB68DB433A6913403B6167
:102950003B685B6803F48013002B03D03A69FB6883
:1029600013433B611A4A3B699360194BDB683B6137
:10297000FB68DB433A6913403B613B685B6803F4E7
:102980000013002B03D03A69FB6813433B61104AE4
:102990003B69D3607B6901337B613B681A687B6963
:1029A00022FA03F3002B7FF4A3AE00BF00BF1C3755
:1029B000BD4680BC704700BF0010024000000140CF
:1029C0000004004800080048000C004800100048BF
:1029D0000004014080B400AF034B1B6803F4C063E4
:1029E0001846BD4680BC70470070004080B485B07A
:1029F00000AF78607B68B3F5007F30D1224B1B6855
:102A000003F4C063B3F5007F38D01F4B1B6823F479
:102A1000C0631D4A43F4007313601C4B1B683222D1
:102A200002FB03F31A4AA2FB03239B0C0133FB6056
:102A300002E0FB68013BFB60134B5B6903F48063BE
:102A4000B3F5806F02D1FB68002BF2D10E4B5B69AE
:102A500003F48063B3F5806F10D103230FE00A4BBA
:102A60001B6803F4C063B3F5806F07D0064B1B6887
:102A700023F4C063044A43F48063136000231846C0
:102A80001437BD4680BC704700700040080000202D
:102A900083DE1B4380B588B000AF78607B68002B75
:102AA00001D10123DBE3A44B9B6803F00C03BB6162
:102AB000A14BDB6803F003037B617B681B6803F0B9
:102AC0001003002B00F0E180BB69002B07D0BB692D
:102AD0000C2B40F088807B69012B40F08480964B62
:102AE0001B6803F00203002B05D07B689B69002B59
:102AF00001D10123B3E37B681A6A8F4B1B6803F093
:102B00000803002B04D08C4B1B6803F0F00305E096
:102B1000894BD3F894301B0903F0F003934223D27E
:102B20007B681B6A184600F045FD0346002B01D068
:102B3000012394E3804B1B687F4A43F00803136032
:102B40007D4B1B6823F0F0027B681B6A7A491343B4
:102B50000B60794B5B6823F47F427B68DB691B0267
:102B6000754913434B6022E0734B1B68724A43F074
:102B700008031360704B1B6823F0F0027B681B6A2C
:102B80006D4913430B606C4B5B6823F47F427B6899
:102B9000DB691B02684913434B607B681B6A18465C
:102BA00000F008FD0346002B01D0012357E300F09D
:102BB00041FC0246604B9B681B0903F00F035F4911
:102BC000CB5C03F01F0322FA03F35D4A13605D4BF5
:102BD0001B681846FEF7E4FA0346FB73FB7B002BE9
:102BE00052D0FB7B3BE37B689B69002B32D0524B7E
:102BF0001B68514A43F001031360FEF71DFB386167
:102C000008E0FEF719FB02463B69D31A022B01D9F3
:102C1000032324E3484B1B6803F00203002BF0D08E
:102C2000454B1B68444A43F008031360424B1B6842
:102C300023F0F0027B681B6A3F4913430B603E4B55
:102C40005B6823F47F427B68DB691B023A491343CC
:102C50004B601AE0384B1B68374A23F001031360BE
:102C6000FEF7EAFA386108E0FEF7E6FA02463B6949
:102C7000D31A022B01D90323F1E22F4B1B6803F077
:102C80000203002BF0D100E000BF7B681B6803F05B
:102C90000103002B74D0BB69082B05D0BB690C2B3A
:102CA0000ED17B69032B0BD1234B1B6803F400333C
:102CB000002B64D07B685B68002B60D10123CEE2DF
:102CC0007B685B68B3F5803F06D11B4B1B681A4AD3
:102CD00043F4803313601DE07B685B68B3F5A02F7D
:102CE0000CD1154B1B68144A43F480231360124B1C
:102CF0001B68114A43F4803313600BE00E4B1B68D2
:102D00000D4A23F4803313600B4B1B680A4A23F4EB
:102D1000802313607B685B68002B1CD0FEF78CFA65
:102D2000386111E0FEF788FA02463B69D31A642B3A
:102D30000AD9032393E200BF001002409460000808
:102D40000800002000000020AE4B1B6803F4003395
:102D5000002BE7D014E0FEF76FFA386108E0FEF7C9
:102D60006BFA02463B69D31A642B01D9032376E23E
:102D7000A44B1B6803F40033002BF0D100E000BF2C
:102D80007B681B6803F00203002B60D0BB69042B37
:102D900005D0BB690C2B19D17B69022B16D1994B3D
:102DA0001B6803F48063002B05D07B68DB68002B75
:102DB00001D1012353E2934B5B6823F0F8527B6807
:102DC0001B691B068F4913434B6040E07B68DB683F
:102DD000002B23D08B4B1B688A4A43F4807313600B
:102DE000FEF72AFA386108E0FEF726FA02463B6948
:102DF000D31A022B01D9032331E2824B1B6803F45F
:102E00008063002BF0D07F4B5B6823F0F8527B6827
:102E10001B691B067B4913434B6018E0794B1B6809
:102E2000784A23F480731360FEF706FA386108E0ED
:102E3000FEF702FA02463B69D31A022B01D903239B
:102E40000DE2704B1B6803F48063002BF0D17B68AC
:102E50001B6803F00803002B3CD07B685B69002BE8
:102E60001CD0684BD3F89430664A43F00103C2F893
:102E70009430FEF7E1F9386108E0FEF7DDF902462B
:102E80003B69D31A022B01D90323E8E15D4BD3F848
:102E9000943003F00203002BEFD01BE0594BD3F822
:102EA0009430584A23F00103C2F89430FEF7C4F975
:102EB000386108E0FEF7C0F902463B69D31A022BDD
:102EC00001D90323CBE14F4BD3F8943003F0020335
:102ED000002BEFD17B681B6803F00403002B00F08C
:102EE000A5800023FB77474B9B6D03F08053002B9D
:102EF0000DD1444B9B6D434A43F080539365414B46
:102F00009B6D03F08053BB60BB680123FB773E4B96
:102F10001B6803F48073002B18D13B4B1B683A4AA3
:102F200043F480731360FEF787F9386108E0FEF719
:102F300083F902463B69D31A022B01D903238EE1A0
:102F4000314B1B6803F48073002BF0D07B689B68C7
:102F5000012B08D12B4BD3F890302A4A43F00103C0
:102F6000C2F8903024E07B689B68052B10D1254B7C
:102F7000D3F89030234A43F00403C2F89030214B39
:102F8000D3F890301F4A43F00103C2F890300FE0AD
:102F90001C4BD3F890301B4A23F00103C2F8903049
:102FA000184BD3F89030174A23F00403C2F890303E
:102FB0007B689B68002B16D0FEF73EF938610AE06B
:102FC000FEF73AF902463B69D31A41F2883293423E
:102FD00001D9032343E10B4BD3F8903003F00203F4
:102FE000002BEDD019E0FEF727F938610EE0FEF76F
:102FF00023F902463B69D31A41F28832934205D93C
:1030000003232CE10010024000700040964BD3F8DF
:10301000903003F00203002BE9D1FB7F012B05D197
:10302000914B9B6D904A23F0805393657B681B689E
:1030300003F02003002B3CD07B685B6A002B1CD084
:10304000894BD3F89830884A43F00103C2F898308E
:10305000FEF7F2F8386108E0FEF7EEF802463B6949
:10306000D31A022B01D90323F9E07F4BD3F8983010
:1030700003F00203002BEFD01BE07B4BD3F898301A
:10308000794A23F00103C2F89830FEF7D5F8386189
:1030900008E0FEF7D1F802463B69D31A022B01D9AA
:1030A0000323DCE0704BD3F8983003F00203002BCD
:1030B000EFD17B689B6A002B00F0D080BB690C2BA2
:1030C00000F08D807B689B6A022B5AD1664B1B688F
:1030D000654A23F080731360FEF7AEF8386108E0AC
:1030E000FEF7AAF802463B69D31A022B01D9032343
:1030F000B5E05D4B1B6803F00073002BF0D15A4B19
:10310000DA685A4B13407A68D16A7A68126B013ACE
:10311000120111437A68526B120211437A68D26B22
:103120005208013A520511437A68126C5208013A6A
:10313000520611437A68926BD2060A434A491343F6
:10314000CB60494B1B68484A43F080731360464B81
:10315000DB68454A43F08073D360FEF76DF8386151
:1031600008E0FEF769F802463B69D31A022B01D941
:10317000032374E03C4B1B6803F00073002BF0D07A
:103180006CE0394B1B68384A23F080731360364B70
:103190001B6803F00063002B05D1334BDB68324A18
:1031A00023F00303D360304BDB682F4A23F088738E
:1031B00023F48033D360FEF73FF8386108E0FEF770
:1031C0003BF802463B69D31A022B01D9032346E0A0
:1031D000254B1B6803F00073002BF0D13EE07B68A9
:1031E0009B6A012B01D1012339E01F4BDB687B6116
:1031F0007B6903F003027B68DB6A9A422CD17B690E
:1032000003F070027B681B6B013B1B019A4223D1C8
:103210007B6903F4FE427B685B6B1B029A421BD105
:103220007B6903F078427B689B6BDB069A4213D183
:103230007B6903F4C0027B68DB6B5B08013B5B05C9
:103240009A4209D17B6903F0C0627B681B6C5B0802
:10325000013B5B069A4201D0012300E0002318469F
:103260002037BD4680BD00BF001002408C809D010C
:1032700080B584B000AF786039607B68002B01D1E5
:103280000123C8E0664B1B6803F007033A689A42C3
:1032900010D9634B1B6823F0070261493B68134355
:1032A0000B605F4B1B6803F007033A689A4201D03A
:1032B0000123B0E07B681B6803F00103002B4CD0B6
:1032C0007B685B68032B07D1564B1B6803F00073C8
:1032D000002B21D101239EE07B685B68022B07D184
:1032E000504B1B6803F40033002B15D1012392E0EF
:1032F0007B685B68002B07D14A4B1B6803F0020315
:10330000002B09D1012386E0464B1B6803F4806340
:10331000002B01D101237EE0424B9B6823F0030286
:103320007B685B683F4913438B60FDF785FFF8605E
:103330000AE0FDF781FF0246FB68D31A41F28832AA
:10334000934201D9032366E0364B9B6803F00C02DD
:103350007B685B689B009A42EBD17B681B6803F03B
:103360000203002B08D02F4B9B6823F0F0027B68F0
:103370009B682C4913438B60294B1B6803F00703A0
:103380003A689A4210D2264B1B6823F00702244960
:103390003B6813430B60224B1B6803F007033A683A
:1033A0009A4201D0012336E07B681B6803F00403D6
:1033B000002B08D01B4B9B6823F4E0627B68DB6822
:1033C000184913438B607B681B6803F00803002BCC
:1033D00009D0144B9B6823F460527B681B69DB00A7
:1033E000104913438B6000F025F802460D4B9B6893
:1033F0001B0903F00F030C49CB5C03F01F0322FAF7
:1034000003F30A4A13600A4B1B681846FDF7C8FE0F
:103410000346FB72FB7A18461037BD4680BD00BFDD
:1034200000200240001002409460000808000020C4
:103430000000002080B489B000AF0023FB610023AE
:10344000BB613D4B9B6803F00C033B613A4BDB686F
:1034500003F00303FB603B69002B05D03B690C2B99
:1034600021D1FB68012B1ED1334B1B6803F00803ED
:10347000002B07D1304BD3F894301B0A03F00F0315
:10348000FB6105E02C4B1B681B0903F00F03FB617C
:103490002A4AFB6952F82330FB613B69002B0DD1AE
:1034A000FB69BB610AE03B69042B02D1244BBB6181
:1034B00004E03B69082B01D1224BBB613B690C2B1B
:1034C00034D11D4BDB6803F00303BB60BB68022BE8
:1034D00003D0BB68032B03D005E0194B7B6105E0EB
:1034E000184B7B6102E0FB697B6100BF124BDB681C
:1034F0001B0903F0070301337B600F4BDB681B0ADA
:1035000003F07F037A6902FB03F27B68B2FBF3F3FB
:103510007B61094BDB685B0E03F0030301335B0047
:103520003B607A693B68B2FBF3F3BB61BB69184649
:103530002437BD4680BC704700100240AC600008D4
:103540000024F40000127A0080B400AF024B1B6824
:103550001846BD4680BC70470800002080B500AF0B
:10356000FFF7F2FF0246064B9B681B0A03F00703B6
:103570000449CB5C03F01F0322FA03F3184680BD15
:1035800000100240A460000880B500AFFFF7DCFF28
:103590000246064B9B68DB0A03F007030449CB5C39
:1035A00003F01F0322FA03F3184680BD0010024007
:1035B000A460000880B586B000AF786000233B614E
:1035C0002A4B9B6D03F08053002B03D0FFF702FAC8
:1035D000786114E0254B9B6D244A43F0805393653A
:1035E000224B9B6D03F08053FB60FB68FFF7F2F901
:1035F00078611E4B9B6D1D4A23F0805393657B6958
:10360000B3F5007F0BD17B68802B19D97B68A02B89
:1036100002D902233B6113E001233B6110E07B6888
:10362000802B02D903233B610AE07B68802B02D107
:1036300002233B6104E07B68702B01D101233B61D5
:103640000B4B1B6823F0070209493B6913430B60CE
:10365000074B1B6803F007033A699A4201D0012324
:1036600000E0002318461837BD4680BD0010024018
:103670000020024080B586B000AF78600023FB7464
:103680000023BB747B681B6803F40063002B31D0FC
:103690007B685B6CB3F5400F1AD0B3F5400F14D8BC
:1036A000002B09D0B3F5000F0FD15D4BDB685C4AEE
:1036B00043F48033D3600CE07B6804330021184668
:1036C00000F0F0F90346FB7403E00123FB7400E013
:1036D00000BFFB7C002B0BD1514BD3F8883023F477
:1036E00040027B685B6C4E491343C1F8883001E0AF
:1036F000FB7CBB747B681B6803F40033002B00F079
:103700009E8000237B74464B9B6D03F08053002BFF
:1037100001D1012300E00023002B0DD0404B9B6D15
:103720003F4A43F0805393653D4B9B6D03F08053BC
:10373000BB60BB6801237B743A4B1B68394A43F476
:1037400080731360FDF778FDF86009E0FDF774FD04
:103750000246FB68D31A022B02D90323FB7405E04F
:10376000304B1B6803F48073002BEFD0FB7C002BE5
:103770005AD12B4BD3F8903003F440737B617B69B3
:10378000002B1ED07B689B6D7A699A4219D0244B1E
:10379000D3F8903023F440737B61214BD3F8903001
:1037A0001F4A43F48033C2F890301D4BD3F8903059
:1037B0001B4A23F48033C2F89030194A7B69C2F85F
:1037C00090307B6903F00103002B16D0FDF734FD28
:1037D000F8600BE0FDF730FD0246FB68D31A41F2BA
:1037E0008832934202D90323FB7406E00C4BD3F8D2
:1037F000903003F00203002BECD0FB7C002B0BD1AC
:10380000074BD3F8903023F440727B689B6D0449DA
:103810001343C1F8903009E0FB7CBB7406E000BFA5
:103820000010024000700040FB7CBB747B7C012BCD
:1038300005D19B4B9B6D9A4A23F0805393657B681F
:103840001B6803F00103002B0AD0954BD3F8883096
:1038500023F003027B681B6A91491343C1F8883047
:103860007B681B6803F00203002B0AD08C4BD3F853
:10387000883023F00C027B685B6A89491343C1F8E6
:1038800088307B681B6803F00403002B0AD0844B4C
:10389000D3F8883023F030027B689B6A8049134359
:1038A000C1F888307B681B6803F02003002B0AD026
:1038B0007B4BD3F8883023F440627B68DB6A78491D
:1038C0001343C1F888307B681B6803F40073002B36
:1038D0000AD0734BD3F8883023F440227B68DB6B2B
:1038E0006F491343C1F888307B681B6803F4806319
:1038F000002B0AD06A4BD3F8883023F440127B683F
:103900001B6C67491343C1F888307B681B6803F060
:103910004003002B0AD0624BD3F8883023F4405286
:103920007B681B6B5E491343C1F888307B681B685A
:1039300003F08003002B0AD0594BD3F8883023F4CE
:1039400040427B685B6B56491343C1F888307B6803
:103950001B6803F48073002B0AD0514BD3F88830D6
:1039600023F440327B689B6B4D491343C1F8883088
:103970007B681B6803F40023002B28D0484BD3F846
:10398000883023F040627B689B6C45491343C1F843
:1039900088307B689B6CB3F1006F06D1404BDB68CD
:1039A0003F4A43F48013D36011E07B689B6CB3F112
:1039B000806F0CD17B6804330121184600F072F847
:1039C0000346FB74FB7C002B01D0FB7CBB747B6843
:1039D0001B6803F48023002B28D0314BD3F88830A8
:1039E00023F040627B68DB6C2D491343C1F88830BB
:1039F0007B68DB6CB3F1006F06D1294BDB68284A8A
:103A000043F48013D36011E07B68DB6CB3F1806F0B
:103A10000CD17B6804330121184600F043F80346BB
:103A2000FB74FB7C002B01D0FB7CBB747B681B68A8
:103A300003F48043002B1CD0194BD3F8883023F0BB
:103A400040527B681B6D16491343C1F888307B6870
:103A50001B6DB3F1805F0CD17B68043302211846E3
:103A600000F020F80346FB74FB7C002B01D0FB7CAC
:103A7000BB747B681B6803F40043002B0AD0084B1F
:103A8000D3F8883023F080427B685B6D0449134390
:103A9000C1F88830BB7C18461837BD4680BD00BFD2
:103AA0000010024080B584B000AF78603960002318
:103AB000FB73744BDB6803F00303002B18D0714BCE
:103AC000DB6803F003027B681B689A420DD17B68B8
:103AD0001B68002B09D06B4BDB681B0903F0070345
:103AE0005A1C7B685B689A4247D00123FB7344E011
:103AF0007B681B68032B18D0032B25D8012B02D021
:103B0000022B09D020E05F4B1B6803F00203002B5F
:103B10001DD10123FB731AE05A4B1B6803F4806329
:103B2000002B16D10123FB7313E0564B1B6803F4E3
:103B30000033002B0FD1534B1B6803F48023002B61
:103B400009D10123FB7306E00123FB7304E000BFEE
:103B500002E000BF00E000BFFB7B002B0DD1494B12
:103B6000DB6823F073027B6819687B685B68013B44
:103B70001B010B4343491343CB60FB7B002B7CD1E0
:103B8000404B1B683F4A23F080631360FDF754FBF2
:103B9000B86009E0FDF750FB0246BB68D31A022B60
:103BA00002D90323FB7305E0364B1B6803F0006367
:103BB000002BEFD1FB7B002B5FD13B68002B10D19A
:103BC000304B1B6923F0784323F4FE437A689268F4
:103BD00011027A68D268D2060A432A4913430B615C
:103BE00027E03B68012B12D1264B1B6923F4C0034D
:103BF00023F4FE437A68926811027A6812695208C7
:103C0000013A52050A431F4913430B6111E01D4B52
:103C10001B6923F0C06323F4FE437A6892681102A3
:103C20007A6852695208013A52060A431549134309
:103C30000B61144B1B68134A43F080631360FDF75C
:103C4000FBFAB86009E0FDF7F7FA0246BB68D31A41
:103C5000022B02D90323FB7305E00A4B1B6803F018
:103C60000063002BEFD0FB7B002B06D1054B1A69BC
:103C70007B689B69034913430B61FB7B1846103734
:103C8000BD4680BD0010024080B582B000AF7860B4
:103C90007B68002B01D1012340E07B685B6F002B28
:103CA00006D17B68002283F87020786801F060F903
:103CB0007B6824225A677B681B681A687B681B68CC
:103CC00022F001021A60786800F0C0F80346012B68
:103CD00001D1012322E07B685B6A002B02D0786867
:103CE00000F0C2FB7B681B685A687B681B6822F483
:103CF00090425A607B681B689A687B681B6822F058
:103D00002A029A607B681B681A687B681B6842F00D
:103D100001021A60786800F048FC0346184608372C
:103D2000BD4680BD80B58AB002AFF860B9603B6027
:103D30001346FB80FB685B6F202B40F08180BB68E3
:103D4000002B02D0FB88002B01D1012379E0FB6816
:103D500093F87030012B01D1022372E0FB6801223D
:103D600083F87020FB680022DA67FB6821225A671B
:103D7000FDF762FA7861FB68FA88A3F85020FB68C7
:103D8000FA88A3F85220FB689B68B3F5805F08D1DE
:103D9000FB681B69002B04D10023FB61BB68BB617E
:103DA00003E0BB68FB610023BB612DE03B6800932F
:103DB0007B6900228021F86800F03CFC0346002B60
:103DC00001D003233DE0FB69002B0BD1BB691A88AE
:103DD000FB681B68C2F3080292B21A85BB69023302
:103DE000BB6108E0FB691A78FB681B6892B21A8510
:103DF000FB690133FB61FB68B3F852309BB2013BB6
:103E00009AB2FB68A3F85220FB68B3F852309BB219
:103E1000002BCBD13B6800937B6900224021F868DE
:103E200000F008FC0346002B01D0032309E0FB68E7
:103E300020225A67FB68002283F87020002300E0EC
:103E4000022318462037BD4680BD00002DE9B04F43
:103E50008AB000AFF8600023FB610023FB760023EB
:103E60007B61FB689A68FB681B691A43FB685B69A6
:103E70001A43FB68DB6913437B62FB681B681A68A3
:103E8000BB4B1340FA681268796A0B431360FB68F6
:103E90001B685B6823F44051FB68DA68FB681B68A9
:103EA0000A435A60FB689B697B62FB681B68B14AE6
:103EB000934204D0FB681B6A7A6A13437B62FB68F7
:103EC0001B689B6823F43061FB681B687A6A0A43AD
:103ED0009A60FB681B68A84A934225D1A74BD3F888
:103EE000883003F00303032B1AD801A252F823F001
:103EF000013F0008113F0008093F0008193F000872
:103F0000012387F82330ABE0022387F82330A7E0B2
:103F1000042387F82330A3E0082387F823309FE0A9
:103F2000102387F823309BE0FB681B68944A934278
:103F300038D1924BD3F8883003F00C030C2B2DD8DA
:103F400001A252F823F000BF7D3F00089D3F00080A
:103F50009D3F00089D3F00088D3F00089D3F0008E1
:103F60009D3F00089D3F0008853F00089D3F0008D9
:103F70009D3F00089D3F0008953F0008002387F8FB
:103F800023306DE0022387F8233069E0042387F8AB
:103F9000233065E0082387F8233061E0102387F899
:103FA00023305DE0FB681B68764A934225D1734B52
:103FB000D3F8883003F03003302B16D0302B18D8CC
:103FC000202B0AD0202B14D8002B02D0102B08D085
:103FD0000FE0002387F8233042E0022387F82330E4
:103FE0003EE0042387F823303AE0082387F82330A3
:103FF00036E0102387F8233032E0FB681B685D4A07
:1040000093422AD15D4BD3F8883003F44063B3F573
:10401000406F1AD0B3F5406F1BD8B3F5006F0CD0CA
:10402000B3F5006F15D8002B03D0B3F5806F08D01F
:104030000FE0002387F8233012E0022387F82330B3
:104040000EE0042387F823300AE0082387F82330A2
:1040500006E0102387F8233002E0102387F823308E
:10406000FB681B68434A934240F0FC8097F823307A
:10407000082B24D801A252F823F000BFA140000869
:10408000BF400008A9400008BF400008AF4000083A
:10409000BF400008BF400008BF400008B74000080C
:1040A000FFF75CFA78610DE0374B7B610AE0FFF7C0
:1040B000C1F9786106E04FF400437B6102E001231F
:1040C000FB7600BF7B69002B00F0BF81FB685A685C
:1040D00013465B0013447A699A4205D3FB685B6818
:1040E0001B037A699A4202D90123FB76ADE197F866
:1040F0002330082B00F2A38001A252F823F000BF66
:10410000254100083F4200088D4100083F42000859
:10411000C34100083F4200083F4200083F420008F8
:104120000F420008FFF71AFA034618464FF0000145
:104130004FF000024FF000030B0243EA106302024B
:10414000F9684968490808464FF0000114183C60B6
:104150004B417B60FB685B681A464FF00003D7E970
:104160000001FCF73BFE02460B461346FB6169E08B
:10417000F369FFEF0080004000380140001002406A
:1041800000440040004800400024F400FB685B68E5
:104190005B081A464FF00003B2484FF0000112EBE3
:1041A000000A43EB010BFB685B681A464FF0000303
:1041B00050465946FCF712FE02460B461346FB6179
:1041C00040E0FFF737F9034618464FF000014FF083
:1041D00000024FF000030B0243EA10630202F96889
:1041E0004968490808464FF0000112EB000843EB0C
:1041F0000109FB685B681A464FF0000340464946D8
:10420000FCF7ECFD02460B461346FB611AE0FB6827
:104210005B685B081A464FF0000312F5000443F197
:104220000005FB685B681A464FF0000320462946EC
:10423000FCF7D4FD02460B461346FB6102E0012366
:10424000FB7600BFFB69B3F5407F08D3FB69B3F58C
:10425000801F04D2FB681B68FA69DA60F5E001236D
:10426000FB76F2E0FB68DB69B3F5004F7FD197F88E
:104270002330082B5BD801A252F823F0A14200089A
:10428000BF420008DD4200082F430008F942000841
:104290002F4300082F4300082F430008174300084E
:1042A000FFF75CF903465A00FB685B685B081A4439
:1042B000FB685B68B2FBF3F39BB2FB613AE0FFF78C
:1042C00063F903465A00FB685B685B081A44FB68A5
:1042D0005B68B2FBF3F39BB2FB612BE0FB685B68AE
:1042E0005B0803F1F47303F59043FA685268B3FB7B
:1042F000F2F39BB2FB611DE0FFF79CF803465A0006
:10430000FB685B685B081A44FB685B68B2FBF3F30D
:104310009BB2FB610EE0FB685B685B0803F58032D3
:10432000FB685B68B2FBF3F39BB2FB6102E0012325
:10433000FB7600BFFB690F2B16D9FB69B3F5803FF5
:1043400012D2FB699BB223F00F037B82FB695B08EF
:104350009BB203F007039AB27B8A13437B82FB680C
:104360001B687A8ADA6070E00123FB766DE097F8CB
:104370002330082B58D801A252F823F0A14300089B
:10438000BD430008D943000829440008F54300084C
:104390002944000829440008294400081144000861
:1043A000FFF7DCF80246FB685B685B081A44FB68B1
:1043B0005B68B2FBF3F39BB2FB6138E0FFF7E4F814
:1043C0000246FB685B685B081A44FB685B68B2FBEB
:1043D000F3F39BB2FB612AE0FB685B685B0803F5C3
:1043E000740303F51053FA685268B3FBF2F39BB2FF
:1043F000FB611CE0FFF71EF80246FB685B685B0888
:104400001A44FB685B68B2FBF3F39BB2FB610EE0FE
:10441000FB685B685B0803F50042FB685B68B2FB06
:10442000F3F39BB2FB6102E00123FB7600BFFB6963
:104430000F2B08D9FB69B3F5803F04D2FB681B68DA
:10444000FA69DA6001E00123FB76FB6800221A6654
:10445000FB6800225A66FB7E18462837BD46BDE839
:10446000B08F00BF000024F480B483B000AF786048
:104470007B685B6A03F00103002B0AD07B681B6832
:104480005B6823F400317B689A6A7B681B680A4387
:104490005A607B685B6A03F00203002B0AD07B68DA
:1044A0001B685B6823F480317B68DA6A7B681B6871
:1044B0000A435A607B685B6A03F00403002B0AD04E
:1044C0007B681B685B6823F480217B681A6B7B68C0
:1044D0001B680A435A607B685B6A03F00803002B81
:1044E0000AD07B681B685B6823F400417B685A6BC9
:1044F0007B681B680A435A607B685B6A03F01003A1
:10450000002B0AD07B681B689B6823F480517B6872
:104510009A6B7B681B680A439A607B685B6A03F04E
:104520002003002B0AD07B681B689B6823F4005192
:104530007B68DA6B7B681B680A439A607B685B6AFE
:1045400003F04003002B1AD07B681B685B6823F4E0
:1045500080117B681A6C7B681B680A435A607B6811
:104560001B6CB3F5801F0AD17B681B685B6823F462
:10457000C0017B685A6C7B681B680A435A607B6881
:104580005B6A03F08003002B0AD07B681B685B68C2
:1045900023F400217B689A6C7B681B680A435A608D
:1045A00000BF0C37BD4680BC704780B586B002AFF7
:1045B00078607B680022DA67FCF73EFEF8607B6873
:1045C0001B681B6803F00803082B0ED16FF07E43B5
:1045D0000093FB6800224FF40011786800F02AF87D
:1045E0000346002B01D0032320E07B681B681B6877
:1045F00003F00403042B0ED16FF07E430093FB689D
:1046000000224FF48001786800F014F80346002B74
:1046100001D003230AE07B6820225A677B682022AE
:104620009A677B68002283F87020002318461037B1
:10463000BD4680BD80B584B000AFF860B9603B6016
:104640001346FB712AE0BB69B3F1FF3F26D0FCF7AC
:10465000F3FD02463B68D31ABA699A4202D3BB699A
:10466000002B1BD1FB681B681A68FB681B6822F4CF
:10467000D0721A60FB681B689A68FB681B6822F09E
:1046800001029A60FB6820225A67FB6820229A6721
:10469000FB68002283F8702003230FE0FB681B688F
:1046A000DA69BB681340BA689A420CBF0123002341
:1046B000DBB21A46FB799A42C5D000231846103760
:1046C000BD4680BD80B586B000AF3B4600221A6073
:1046D0005A609A60DA601A615A61294B294A1A6055
:1046E000274B00225A60264B00229A60244B00225E
:1046F000DA60234B00221A61214B04225A61204BBD
:1047000000221A761E4B00225A761D4B0122DA61D6
:104710001B4B002283F82020194B00229A62184B71
:104720000022DA62164B002283F83020144B00225C
:104730005A63134B002283F838201148FCF754FFCA
:104740000346002B01D000F0EBFA0F4B3B60062331
:104750007B600023BB607F23FB6004233B6100235D
:104760007B613B4619460648FDF77CF90346002B62
:1047700001D000F0D5FA00BF1837BD4680BD00BF9C
:1047800090000020000004500800900C80B58AB012
:1047900000AF786007F1140300221A605A609A6033
:1047A000DA601A617B681B68154A934223D1154B66
:1047B000DB6C144A43F40053D364124BDB6C03F4F8
:1047C00000533B613B690F4BDB6C0E4A43F0040323
:1047D000D3640C4BDB6C03F00403FB60FB68042325
:1047E0007B610B23BB610023FB6107F114031946B6
:1047F0000548FDF775FF00BF2837BD4680BD00BFE7
:1048000000000450001002400008004880B58AB043
:1048100000AF3B1D24220021184600F041FC124B42
:10482000124A1A601048FDF7AEFD0346002B01D076
:1048300000F076FA00237B600023BB600023FB605E
:1048400000233B6100237B613B1D10221946064873
:10485000FDF72BFE0346002B01D000F061FA00BFEC
:104860002837BD4680BD00BFF40000200074004022
:1048700080B58AB000AF786007F1140300221A6097
:104880005A609A60DA601A617B681B68154A934225
:1048900024D1154B9B6D144A43F000539365124B82
:1048A0009B6D03F000533B613B690F4BDB6C0E4A81
:1048B00043F00103D3640C4BDB6C03F00103FB609A
:1048C000FB6820237B610323BB610023FB6107F1AD
:1048D000140319464FF09040FDF702FF00BF283740
:1048E000BD4680BD007400400010024080B485B019
:1048F00000AF144BDB6C134A43F00403D364114B39
:10490000DB6C03F00403FB60FB680E4BDB6C0D4AB1
:1049100043F08003D3640B4BDB6C03F08003BB607C
:10492000BB68084BDB6C074A43F00103D364054BBB
:10493000DB6C03F001037B607B6800BF1437BD466E
:1049400080BC70470010024080B584B000AFF860B2
:10495000B9607A607B689AB24FF6FF73B968044811
:10496000FFF7E0F97B6818461037BD4680BD00BFF1
:104970000C01002080B58EB004AF78607868FCF739
:1049800007FA03467B62786AFCF7AEF903461946DC
:104990007868FCF7F3F803465E491846FBF718FC05
:1049A00003461846FCF7F4F902465B4B83FB0213FF
:1049B0009910D317C91A0B469B000B445B00D31AFE
:1049C0003B62786AFCF790F9034619467868FCF771
:1049D000D5F8034651491846FBF7FAFB034618463B
:1049E000FCF7D6F902464C4B83FB02139910D31700
:1049F000C91A0B469B000B445B00D31AFB61786A13
:104A0000FCF772F9034619467868FCF7B7F80346D5
:104A100043491846FBF7DCFB03461846FCF7B8F998
:104A200002463D4B83FB02139910D317C91A0B465C
:104A30009B000B445B00D31ABB61786AFCF754F906
:104A4000034619467868FCF799F803463549184635
:104A5000FBF7BEFB03461846FCF79AF902462E4BBD
:104A600083FB02139910D317C91A0B469B000B4402
:104A70005B00D31A7B61786AFCF736F90346194666
:104A80007868FCF77BF8034627491846FBF7A0FB3C
:104A900003461846FCF77CF902461F4B83FB0213C2
:104AA0009910D317C91A0B469B000B445B00D31A0D
:104AB0003B61786AFCF718F9034619467868FCF7F9
:104AC0005DF8034619491846FBF782FB0346184672
:104AD000FCF75EF90246104B83FB02139910D317C3
:104AE000C91A0B469B000B445B00D31AFB60FB68A2
:104AF00003933B6902937B690193BB690093FB6954
:104B00003A6A796A0A4800F0D3FA00BF2837BD46EE
:104B100080BD00BF00002041676666660000C84295
:104B200000007A4400401C460050C34700247449EA
:104B3000586000080000000080B582B000AF00237C
:104B4000FB800023BB804FF000033B60FCF710FBB1
:104B500000F068F8FFF7CAFEFFF7B4FDFFF756FE56
:104B600000F0D6F92A4800F029FB10212948FDF76A
:104B70002CFC0023FB803FE0FB880022102125480D
:104B8000FDF76FFC0220FCF761FBFB88C3F3090310
:104B90009BB2002B2DD12048FCF76CFE32211E4821
:104BA000FCF7CBFE1C48FCF750FF0346BB80BB88DC
:104BB0001846FBF703FD4FF00002184BFBF7A2FE6F
:104BC00002460B46104619460FA3D3E90023FBF714
:104BD0006FFD02460B4610461946FBF77BFF034666
:104BE0003B60BB8819460E4800F062FA3868FFF750
:104BF000C1FEFB880133FB80FB88B3F5805FBBD32C
:104C0000B7E700BFAFF300806666666666660A4077
:104C100074600008F4000020900000200000B04004
:104C20008460000880B5AEB000AF07F17403442281
:104C30000021184600F034FA07F1600300221A60E0
:104C40005A609A60DA601A613B1D5C2200211846A6
:104C500000F026FA01237B674FF48033BB67022301
:104C6000C7F89C300323C7F8A0300123C7F8A4304D
:104C70001423C7F8A8300723C7F8AC300223C7F8BD
:104C8000B0300223C7F8B43007F174031846FDF7BB
:104C900001FF0346002B01D000F042F80F233B66D2
:104CA00003237B660023BB660023FB6600233B6770
:104CB00007F1600304211846FEF7DAFA0346002BD9
:104CC00001D000F02DF844F201037B6000237B62E9
:104CD0004FF080537B650323BB600123FB600823F7
:104CE0003B6107237B610223BB610223FB614FF021
:104CF00080733B623B1D1846FEF7BCFC0346002B4D
:104D000001D000F00DF84FF40070FDF76FFE034680
:104D1000002B01D000F004F800BFB837BD4680BDBD
:104D200080B400AF00BFBD4680BC704780B483B084
:104D300000AF0E4B1B6E0D4A43F0010313660B4B85
:104D40001B6E03F001037B607B68084B9B6D074A79
:104D500043F080539365054B9B6D03F080533B609C
:104D60003B6800BF0C37BD4680BC70470010024056
:104D700080B400AF00BFBD4680BC704780B400AFB8
:104D8000FEE780B400AFFEE780B400AFFEE780B47A
:104D900000AFFEE780B400AF00BFBD4680BC7047E7
:104DA00080B400AF00BFBD4680BC704780B400AF88
:104DB00000BFBD4680BC704780B500AFFCF72AFA43
:104DC00000BF80BD80B586B000AFF860B9607A6082
:104DD00000237B610AE0AFF300800146BB685A1CE8
:104DE000BA60CAB21A707B6901337B617A697B68E9
:104DF0009A42F0DB7B6818461837BD4680BD00003C
:104E000080B584B000AF7860114B1B68002B02D1D5
:104E10000F4B104A1A600E4B1B68FB600C4B1A6854
:104E20007B6813446A46934207D900F00FF90346A2
:104E30000C221A604FF0FF3306E0054B1A687B68BE
:104E40001344034A1360FB6818461037BD4680BD03
:104E500008010020A801002080B483B000AF786072
:104E60004FF0FF3318460C37BD4680BC704780B406
:104E700083B000AF786039603B684FF400525A60ED
:104E8000002318460C37BD4680BC704780B483B001
:104E900000AF7860012318460C37BD4680BC7047D0
:104EA00080B485B000AFF860B9607A60002318461E
:104EB0001437BD4680BC704780B400AF124B1B68EE
:104EC000114A43F0010313600F4B00229A600E4B0E
:104ED0001B680D4A23F0A85323F4102313600A4BD8
:104EE0004FF48052DA60084B1B68074A23F4802392
:104EF0001360054B00229A61044B4FF000629A60E8
:104F000000BFBD4680BC70470010024000ED00E0CD
:104F100080B500AF144B154A1A60134B4FF4E132C1
:104F20005A60114B00229A600F4B0022DA600E4B40
:104F300000221A610C4B0C225A610B4B00229A6121
:104F4000094B0022DA61084B00221A62064B00224C
:104F50005A620548FEF798FE0346002B01D0FFF782
:104F6000DFFE00BF80BD00BF0C0100200038014003
:104F700080B58AB000AF786007F1140300221A6090
:104F80005A609A60DA601A617B681B68184A93421B
:104F900029D1184B1B6E174A43F480431366154BF7
:104FA0001B6E03F480433B613B69124BDB6C114A7F
:104FB00043F00103D3640F4BDB6C03F00103FB6090
:104FC000FB684FF4C0637B610223BB610023FB617C
:104FD00003233B6207237B6207F1140319464FF05A
:104FE0009040FDF77DFB00BF2837BD4680BD00BF68
:104FF0000038014000100240DFF834D0002103E007
:105000000C4B5B58435004310B480C4B42189A42EE
:10501000F6D30B4A02E0002342F8043B094B9A42C4
:10502000F9D3FFF749FF00F017F8FFF785FDFEE71A
:1050300000000120906100080000002070000020A6
:1050400070000020A4010020FEE70000014B18685A
:10505000704700BF0C00002070B50D4D0D4C641B57
:10506000A4100026A64209D10B4D0C4C00F0E8FF1D
:10507000641BA4100026A64205D170BD55F8043B60
:1050800098470136EEE755F8043B98470136F2E7BA
:105090008061000880610008806100088461000868
:1050A00002440346934200D1704703F8011BF9E71D
:1050B0000FB40A4B13B51C6824B1A36913B9204679
:1050C00000F05EFA05AB049AA1680193204600F057
:1050D0002BFC02B0BDE8104004B070470C0000206B
:1050E00070B50E46054618B183690BB900F048FA51
:1050F000AB69AC6813B9284600F042FA2C4B9C42CD
:1051000020D16C68636EDB0705D4A389980502D4AF
:10511000A06D00F0D3FAA38919071DD52369DBB16F
:10512000013EA36816F8011F013BA36039BB002BA9
:1051300038DA22460A21284600F048F8013011D01A
:105140000A2511E01B4B9C4201D1AC68DAE71A4BEF
:105150009C4208BFEC68D5E72146284600F088F855
:105160000028DDD04FF0FF35636EDA0705D4A38940
:105170009B0502D4A06D00F0A2FA284670BD002B5A
:1051800004DAA2699A4206DC0A2904D023685A1C70
:1051900022601970C5E72246284600F017F8013052
:1051A000BFD1DFE723680A255A1C22601D70DBE7A8
:1051B0000061000820610008E0600008024B014621
:1051C0001868FFF78DBF00BF0C000020F8B50E4631
:1051D0001446054618B183690BB900F0D1F9214B8B
:1051E0009C422BD16C68A369A360A3891A072FD5B1
:1051F00023696BB323692068C01A6369F6B28342DE
:10520000374604DC2146284600F026F930BBA36867
:10521000013BA36023685A1C22601E706369013041
:10522000834204D0A389DB0706D50A2E04D1214688
:10523000284600F011F988B93846F8BD0A4B9C425F
:1052400001D1AC68CFE7094B9C4208BFEC68CAE7C4
:105250002146284600F00CF80028CBD04FF0FF374D
:10526000EAE700BF0061000820610008E060000874
:10527000324B70B51D6806460C4625B1AB6913B9B3
:10528000284600F07DF92E4B9C420FD16C68A38913
:10529000B4F90C2019072CD4DD0611D4092333608E
:1052A00042F04003A3814FF0FF303EE0254B9C428B
:1052B00001D1AC68EBE7244B9C4208BFEC68E6E701
:1052C000580712D5616B41B104F14403994202D0F1
:1052D000304600F059FA00236363A38923F02403C6
:1052E000A3810023636023692360A38943F008033B
:1052F000A38123694BB9A38903F42073B3F5007F1D
:1053000003D02146304600F0FFF9A089B4F90C2003
:1053100010F001030AD00023A36063695B42A3611C
:10532000236943B910F08000BAD170BD810758BF1E
:105330006369A360F4E70020F7E700BF0C000020DA
:105340000061000820610008E06000088A892DE9FA
:10535000F041054610070C4658D44B68002B05DC7D
:105360000B6C002B02DC0020BDE8F081E66A002E09
:10537000F9D0002312F480522F682B6032D0606D78
:10538000A3895A0705D56368C01A636B0BB1236CF8
:10539000C01A00230246E66A216A2846B047431C29
:1053A000A38906D129681D292CD82A4ACA40D607C4
:1053B00028D500226260D9042269226004D5421CEB
:1053C00001D12B6803B96065616B2F600029CAD0D9
:1053D00004F14403994202D0284600F0D5F9002098
:1053E0006063C1E7216A01232846B047411CC7D149
:1053F0002B68002BC4D01D2B01D0162B01D12F60A0
:10540000B1E7A38943F04003A381ADE70F69002F03
:10541000A9D093070E6808BF4B690F6018BF00231F
:10542000A6EB07088B60B8F1000F9CDD216AA66A25
:1054300043463A462846B047002806DCA38943F095
:105440004003A3814FF0FF308EE70744A8EB00082C
:10545000E9E700BF0100402038B50B6905460C465E
:1054600013B90025284638BD18B183690BB900F07F
:1054700087F8144B9C421BD16C68B4F90C30002B9C
:10548000EFD0626ED00704D4990502D4A06D00F06D
:1054900015F928462146FFF759FF636EDA070546DE
:1054A000E0D4A3899B05DDD4A06D00F008F9D9E70D
:1054B000054B9C4201D1AC68DFE7044B9C4208BF1E
:1054C000EC68DAE70061000820610008E06000088D
:1054D000002310B50446C0E90033C0E904338360FB
:1054E00081814366C2818361194608225C30FFF7DF
:1054F000D7FD054B6362054BA362054BE362054B89
:105500002462236310BD00BFD15E0008F35E000873
:105510002B5F00084F5F0008014900F0AFB800BFE3
:105520005954000870B54A1E682555430E4605F1CA
:10553000740100F077F9044640B10021C0E900167B
:105540000C30A06005F16802FFF7AAFD204670BD8F
:10555000014800F0B3B800BF9C010020014800F0F2
:10556000AEB800BF9C010020014800F0A7B800BF02
:1055700097010020014800F0A2B800BF9701002069
:1055800010B50446FFF7F0FFA3691BB1BDE810405A
:10559000FFF7F0BFC4E912332365134B134A1B68AE
:1055A000A262A34204BF0123A361204600F020F8B9
:1055B0006060204600F01CF8A060204600F018F85B
:1055C0000022E06004216068FFF782FFA0680122EA
:1055D0000921FFF77DFFE06802221221FFF778FF23
:1055E0000123A361D2E700BFDC6000081955000861
:1055F000F8B50746FFF7ACFF1E4B1E68B36913B939
:105600003046FFF7BDFF4836D6E90134013B03D5EC
:1056100033680BB33668F7E7B4F90C50D5B9164BBD
:10562000E36004F15800656600F047F8FFF796FF65
:10563000C4E90155C4E904552560A561082229463D
:1056400004F15C00FFF72CFDC4E90D55C4E91255C7
:105650002046F8BD6834D9E704213846FFF762FFD9
:10566000044630600028D5D1FFF778FF0C233B605B
:10567000EEE700BFDC6000080100FFFF2DE9F84302
:105680000646884600F148040027D4E90195B9F19F
:10569000010905D52468002CF7D13846BDE8F88308
:1056A000AB89012B07D9B5F90E30013303D0294658
:1056B0003046C04707436835E9E770477047704791
:1056C00070B50E46B1F90E10002996B014461D466D
:1056D00007DA00232B60B3891A0610D44FF48063D5
:1056E0000EE06A4600F05AFC0028F2DB019A02F450
:1056F0007042A2F500535A425A412A60EEE7402315
:105700000020236016B070BD8B8973B59D070646D7
:105710000C4607D504F1470323602361012363612D
:1057200002B070BD01AB6A46FFF7CAFF009905469B
:10573000304600F077F848B9B4F90C309A05EFD448
:1057400023F0030343F00203A381E3E70D4BB362AD
:10575000A389206043F08003A381009B6361019BC8
:1057600020615BB1B4F90E10304600F029FC28B17D
:10577000A38923F0030343F00103A381A089054318
:10578000A581CDE71955000838B50546002945D053
:1057900051F8043C0C1F002BB8BFE41800F032FC99
:1057A0001F4A1368104633B9636014602846BDE889
:1057B000384000F02DBCA3420BD9216862189342F7
:1057C00004BF1A685B68636004BF521822600460FB
:1057D000ECE71A465B680BB1A342FAD9116850187E
:1057E000A0420BD120680144501883421160DDD1E2
:1057F00018685B68536001441160D7E702D90C2335
:105800002B60D3E7206821188B4204BF19685B68BE
:10581000636004BF091821605460C7E738BD00BF4A
:105820008C010020F8B5CD1C25F0030508350C2DA2
:1058300038BF0C25002D064601DBA94203D90C23F5
:1058400033600020F8BD00F0DDFB21490A681446F2
:105850009CB9204F3B6823B92146304600F028FB15
:1058600038602946304600F023FB431C23D10C232B
:105870003360304600F0CCFBE3E723685B1B17D4B2
:105880000B2B03D923601C44256004E06368A2420B
:105890000CBF0B605360304600F0BAFB04F10B0004
:1058A000231D20F00700C21ACCD01B1AA350C9E751
:1058B00022466468CCE7C41C24F00304A042E3D071
:1058C000211A304600F0F4FA0130DDD1CFE700BFF5
:1058D0008C010020900100209368013B002B10B444
:1058E000936007DA9469A34201DB0A2902D110BC54
:1058F000FFF76CBC1368581C10601970084610BC88
:105900007047F8B506460F461446D518AC4201D18B
:10591000002007E014F8011B3A463046FFF7DCFF91
:10592000431CF3D1F8BD00002DE9F04F0D469DB0AA
:1059300014469846064618B183690BB9FFF720FE56
:10594000894B9D421BD175686B6ED90705D4AB8915
:105950009A0502D4A86DFFF7B1FEAB891B0701D5EC
:105960002B69EBB929463046FFF782FCC0B16B6E5C
:10597000DC070ED54FF0FF301DB0BDE8F08F7B4B3C
:105980009D4201D1B568DFE7794B9D4208BFF568BC
:10599000DAE7AB899805EDD4A86DFFF790FEE9E74B
:1059A0000023099320238DF82930CDF80C80302373
:1059B000DFF8C0818DF82A304FF0010923469A465E
:1059C00013F8012B0AB1252AF9D1BAEB040B0BD03D
:1059D0005B46224629463046FFF793FF013000F030
:1059E000AA80099A5A4409929AF80030002B00F0D4
:1059F000A28000234FF0FF32CDE905230AF1010A0E
:105A0000049307938DF853301A935446052214F8E3
:105A1000011B5848FBF75CFB049AD8B9D10644BF78
:105A200020238DF85330130744BF2B238DF85330B8
:105A30009AF800302A2B15D0079A544600204FF0D0
:105A40000A0C214611F8013B303B092B4ED9B0B16D
:105A5000079214E0A0EB080309FA03F3134304933D
:105A6000A246D2E7039B191D1B680391002BBBBF05
:105A70005B4242F0020207930793B8BF0492237877
:105A80002E2B0CD163782A2B35D1039B1A1D1B6852
:105A90000392002BB8BF4FF0FF3302340593DFF8B9
:105AA000E4A0217803225046FBF712FB40B14023CB
:105AB000A0EB0A0003FA00F0049B034301340493B3
:105AC00014F8011B2C488DF828100622FBF700FB68
:105AD00000283FD0294B1BBB039B073323F0070350
