:020000040800F2
:1000000000000120DD22000895200008A120000842
:10001000A7200008AD200008B32000080000000061
:10002000000000000000000000000000B9200008EF
:10003000C520000800000000D1200008DD200008D5
:100040002D2300082D2300082D2300082D23000850
:100050002D2300082D2300082D2300082D23000840
:100060002D2300082D2300082D2300082D23000830
:100070002D2300082D2300082D2300082D23000820
:100080002D2300082D2300082D2300082D23000810
:100090002D2300082D2300082D2300082D23000800
:1000A0002D2300082D2300082D2300082D230008F0
:1000B0002D23000800000000000000002D23000890
:1000C0002D2300082D2300082D2300082D230008D0
:1000D0002D2300082D2300082D2300082D230008C0
:1000E0002D2300082D230008000000000000000060
:1000F0000000000000000000000000000000000000
:10010000000000002D230008000000002D2300083F
:1001100000000000000000002D2300082D2300082F
:100120002D2300082D2300082D2300082D2300086F
:100130002D23000800000000000000000000000067
:100140002D2300082D2300082D23000800000000A7
:100150002D2300082D2300082D2300082D2300083F
:100160002D2300082D2300082D2300080000000087
:100170002D2300082D2300080000000000000000CF
:100180002D2300082D2300082D2300080000000067
:1001900010B5054C237833B9044B13B10448AFF3C1
:1001A00000800123237010BD10000020000000001B
:1001B0008823000808B5034B1BB103490348AFF37C
:1001C000008008BD00000000140000208823000803
:1001D00080B582B000AF0023FB71032000F038F936
:1001E000002000F00DF80346002B02D00123FB7124
:1001F00001E001F02DFFFB7918460837BD4680BDB0
:1002000080B584B000AF78600023FB73164B1B6889
:10021000002B22D0154B1A68134B1B684FF47A71D0
:10022000B1FBF3F3B2FBF3F3184600F038F90346E1
:10023000002B0FD17B680F2B09D8002279684FF073
:10024000FF3000F010F90A4A7B68136007E00123D1
:10025000FB7304E00123FB7301E00123FB73FB7BD1
:1002600018461037BD4680BD04000020080000205D
:100270000000002080B400AF054B1A68054B1B68D6
:100280001344034A136000BFBD4680BC704700BFE3
:100290002C0000200400002080B400AF024B1B683B
:1002A0001846BD4680BC70472C00002080B584B045
:1002B00000AF7860FFF7F0FFB8607B68FB60FB6819
:1002C000B3F1FF3F04D0094B1B68FA681344FB608D
:1002D00000BFFFF7E1FF0246BB68D31AFA689A42F3
:1002E000F7D800BF00BF1037BD4680BD0400002016
:1002F00080B485B000AF78607B6803F00703FB60D3
:100300000C4BDB68BB60BA684FF6FF031340BB6061
:10031000FB681A02BB68134343F0BF6343F4003326
:10032000BB60044ABB68D36000BF1437BD4680BCC5
:10033000704700BF00ED00E080B400AF044BDB6805
:100340001B0A03F007031846BD4680BC704700BF78
:1003500000ED00E080B483B000AF03463960FB716C
:1003600097F90730002B0ADB3B68DAB20C4997F9A2
:1003700007301201D2B20B4483F800230AE03B6835
:10038000DAB20849FB7903F00F03043B1201D2B241
:100390000B441A7600BF0C37BD4680BC704700BFC7
:1003A00000E100E000ED00E080B489B000AFF8604B
:1003B000B9607A60FB6803F00703FB61FB69C3F176
:1003C0000703042B28BF0423BB61FB690433062BFE
:1003D00002D9FB69033B00E000237B614FF0FF3251
:1003E000BB6902FA03F3DA43BB681A407B699A409F
:1003F0004FF0FF317B6901FA03F3D9437B680B406F
:10040000134318462437BD4680BC704780B582B080
:1004100000AF78607B68013BB3F1807F01D301239B
:100420000FE00A4A7B68013B53600F214FF0FF3019
:10043000FFF790FF054B00229A60044B07221A60D9
:10044000002318460837BD4680BD00BF10E000E01D
:1004500080B582B000AF78607868FFF749FF00BFD1
:100460000837BD4680BD80B586B000AF0346B96091
:100470007A60FB7300237B61FFF75EFF78617A6827
:10048000B9687869FFF790FF024697F90F30114677
:100490001846FFF75FFF00BF1837BD4680BD80B527
:1004A00082B000AF78607868FFF7B0FF0346184667
:1004B0000837BD4680BD000080B487B000AF7860CB
:1004C000396000237B6154E13B681A6801217B6934
:1004D00001FA03F31340FB60FB68002B00F0468138
:1004E0003B685B68022B03D03B685B68122B23D10F
:1004F0007B69DA087B68083253F822303B617B69FC
:1005000003F007039B000F2202FA03F3DB433A696F
:1005100013403B613B681A697B6903F007039B004A
:1005200002FA03F33A6913433B617B69DA087B689B
:100530000832396943F822107B681B683B617B698C
:100540005B00032202FA03F3DB433A6913403B6189
:100550003B685B6803F003027B695B0002FA03F30C
:100560003A6913433B617B683A691A603B685B6890
:10057000012B0BD03B685B68022B07D03B685B68A4
:10058000112B03D03B685B68122B30D17B689B68D2
:100590003B617B695B00032202FA03F3DB433A69A8
:1005A00013403B613B68DA687B695B0002FA03F346
:1005B0003A6913433B617B683A699A607B685B6880
:1005C0003B6101227B6902FA03F3DB433A69134082
:1005D0003B613B685B681B0903F001027B6902FA1F
:1005E00003F33A6913433B617B683A695A607B685D
:1005F000DB683B617B695B00032202FA03F3DB43A8
:100600003A6913403B613B689A687B695B0002FA78
:1006100003F33A6913433B617B683A69DA603B68EC
:100620005B6803F08053002B00F0A080584B1B6EDA
:10063000574A43F001031366554B1B6E03F0010349
:10064000BB60BB68534A7B699B08023352F8233076
:100650003B617B6903F003039B000F2202FA03F363
:10066000DB433A6913403B617B68B3F1904F19D08B
:100670007B68494A934213D07B68484A93420DD025
:100680007B68474A934207D07B68464A934201D130
:10069000042308E0072306E0032304E0022302E02A
:1006A000012300E000237A6902F0030292009340E4
:1006B0003A6913433B6137497B699B0802333A69C6
:1006C00041F82320384B1B683B61FB68DB433A69E8
:1006D00013403B613B685B6803F48033002B03D01D
:1006E0003A69FB6813433B612F4A3B6913602E4B09
:1006F0005B683B61FB68DB433A6913403B613B68E5
:100700005B6803F40033002B03D03A69FB681343A2
:100710003B61254A3B695360234B9B683B61FB6807
:10072000DB433A6913403B613B685B6803F4801329
:10073000002B03D03A69FB6813433B611A4A3B69BB
:100740009360194BDB683B61FB68DB433A691340FC
:100750003B613B685B6803F40013002B03D03A69EC
:10076000FB6813433B61104A3B69D3607B690133EB
:100770007B613B681A687B6922FA03F3002B7FF4E4
:10078000A3AE00BF00BF1C37BD4680BC704700BF92
:10079000001002400000014000040048000800482A
:1007A000000C0048001000480004014080B400AF75
:1007B000034B1B6803F4C0631846BD4680BC7047FA
:1007C0000070004080B485B000AF78607B68B3F5FE
:1007D000007F30D1224B1B6803F4C063B3F5007F68
:1007E00038D01F4B1B6823F4C0631D4A43F40073C9
:1007F00013601C4B1B68322202FB03F31A4AA2FB54
:1008000003239B0C0133FB6002E0FB68013BFB60B0
:10081000134B5B6903F48063B3F5806F02D1FB680F
:10082000002BF2D10E4B5B6903F48063B3F5806F4C
:1008300010D103230FE00A4B1B6803F4C063B3F528
:10084000806F07D0064B1B6823F4C063044A43F44F
:1008500080631360002318461437BD4680BC704780
:10086000007000400800002083DE1B4380B588B084
:1008700000AF78607B68002B01D10123DBE3A44B40
:100880009B6803F00C03BB61A14BDB6803F003031F
:100890007B617B681B6803F01003002B00F0E18094
:1008A000BB69002B07D0BB690C2B40F088807B69AB
:1008B000012B40F08480964B1B6803F00203002B51
:1008C00005D07B689B69002B01D10123B3E37B68D2
:1008D0001A6A8F4B1B6803F00803002B04D08C4B63
:1008E0001B6803F0F00305E0894BD3F894301B0933
:1008F00003F0F003934223D27B681B6A184600F092
:100900000FFD0346002B01D0012394E3804B1B68AD
:100910007F4A43F0080313607D4B1B6823F0F0020D
:100920007B681B6A7A4913430B60794B5B6823F43D
:100930007F427B68DB691B02754913434B6022E0F1
:10094000734B1B68724A43F008031360704B1B68BB
:1009500023F0F0027B681B6A6D4913430B606C4BFC
:100960005B6823F47F427B68DB691B0268491343A1
:100970004B607B681B6A184600F0D2FC0346002BD4
:1009800001D0012357E300F041FC0246604B9B6815
:100990001B0903F00F035F49CB5C03F01F0322FA2E
:1009A00003F35D4A13605D4B1B681846FFF728FC94
:1009B0000346FB73FB7B002B52D0FB7B3BE37B6846
:1009C0009B69002B32D0524B1B68514A43F0010304
:1009D0001360FFF761FC386108E0FFF75DFC024639
:1009E0003B69D31A022B01D9032324E3484B1B682C
:1009F00003F00203002BF0D0454B1B68444A43F040
:100A000008031360424B1B6823F0F0027B681B6AEB
:100A10003F4913430B603E4B5B6823F47F427B6886
:100A2000DB691B023A4913434B601AE0384B1B68E1
:100A3000374A23F001031360FFF72EFC386108E00A
:100A4000FFF72AFC02463B69D31A022B01D9032384
:100A5000F1E22F4B1B6803F00203002BF0D100E002
:100A600000BF7B681B6803F00103002B74D0BB69D7
:100A7000082B05D0BB690C2B0ED17B69032B0BD146
:100A8000234B1B6803F40033002B64D07B685B6846
:100A9000002B60D10123CEE27B685B68B3F5803F19
:100AA00006D11B4B1B681A4A43F4803313601DE0C8
:100AB0007B685B68B3F5A02F0CD1154B1B68144AFB
:100AC00043F480231360124B1B68114A43F48033B4
:100AD00013600BE00E4B1B680D4A23F48033136048
:100AE0000B4B1B680A4A23F4802313607B685B6806
:100AF000002B1CD0FFF7D0FB386111E0FFF7CCFBD7
:100B000002463B69D31A642B0AD9032393E200BF40
:100B100000100240A0230008080000200000002070
:100B2000AE4B1B6803F40033002BE7D014E0FFF753
:100B3000B3FB386108E0FFF7AFFB02463B69D31A0D
:100B4000642B01D9032376E2A44B1B6803F4003322
:100B5000002BF0D100E000BF7B681B6803F00203AC
:100B6000002B60D0BB69042B05D0BB690C2B19D1BD
:100B70007B69022B16D1994B1B6803F48063002B11
:100B800005D07B68DB68002B01D1012353E2934B36
:100B90005B6823F0F8527B681B691B068F4913437F
:100BA0004B6040E07B68DB68002B23D08B4B1B68DD
:100BB0008A4A43F480731360FFF76EFB386108E0E4
:100BC000FFF76AFB02463B69D31A022B01D90323C4
:100BD00031E2824B1B6803F48063002BF0D07F4B23
:100BE0005B6823F0F8527B681B691B067B49134343
:100BF0004B6018E0794B1B68784A23F480731360CC
:100C0000FFF74AFB386108E0FFF746FB02463B6905
:100C1000D31A022B01D903230DE2704B1B6803F496
:100C20008063002BF0D17B681B6803F00803002B66
:100C30003CD07B685B69002B1CD0684BD3F89430A8
:100C4000664A43F00103C2F89430FFF725FB386190
:100C500008E0FFF721FB02463B69D31A022B01D9BA
:100C60000323E8E15D4BD3F8943003F00203002B3B
:100C7000EFD01BE0594BD3F89430584A23F00103CE
:100C8000C2F89430FFF708FB386108E0FFF704FB77
:100C900002463B69D31A022B01D90323CBE14F4B08
:100CA000D3F8943003F00203002BEFD17B681B686C
:100CB00003F00403002B00F0A5800023FB77474BD3
:100CC0009B6D03F08053002B0DD1444B9B6D434A29
:100CD00043F080539365414B9B6D03F08053BB60A1
:100CE000BB680123FB773E4B1B6803F48073002B2A
:100CF00018D13B4B1B683A4A43F480731360FFF7EB
:100D0000CBFA386108E0FFF7C7FA02463B69D31A0D
:100D1000022B01D903238EE1314B1B6803F480734E
:100D2000002BF0D07B689B68012B08D12B4BD3F8AC
:100D300090302A4A43F00103C2F8903024E07B68E7
:100D40009B68052B10D1254BD3F89030234A43F0F4
:100D50000403C2F89030214BD3F890301F4A43F07F
:100D60000103C2F890300FE01C4BD3F890301B4ABF
:100D700023F00103C2F89030184BD3F89030174A93
:100D800023F00403C2F890307B689B68002B16D0D8
:100D9000FFF782FA38610AE0FFF77EFA02463B6904
:100DA000D31A41F28832934201D9032343E10B4B1A
:100DB000D3F8903003F00203002BEDD019E0FFF7D9
:100DC0006BFA38610EE0FFF767FA02463B69D31A07
:100DD00041F28832934205D903232CE100100240EE
:100DE00000700040964BD3F8903003F00203002BC4
:100DF000E9D1FB7F012B05D1914B9B6D904A23F0EC
:100E0000805393657B681B6803F02003002B3CD064
:100E10007B685B6A002B1CD0894BD3F89830884ADA
:100E200043F00103C2F89830FFF736FA386108E062
:100E3000FFF732FA02463B69D31A022B01D903238A
:100E4000F9E07F4BD3F8983003F00203002BEFD08A
:100E50001BE07B4BD3F89830794A23F00103C2F8AA
:100E60009830FFF719FA386108E0FFF715FA0246E3
:100E70003B69D31A022B01D90323DCE0704BD3F872
:100E8000983003F00203002BEFD17B689B6A002BA4
:100E900000F0D080BB690C2B00F08D807B689B6AD2
:100EA000022B5AD1664B1B68654A23F0807313608E
:100EB000FFF7F2F9386108E0FFF7EEF902463B6907
:100EC000D31A022B01D90323B5E05D4B1B6803F055
:100ED0000073002BF0D15A4BDA685A4B13407A68F2
:100EE000D16A7A68126B013A120111437A68526B27
:100EF000120211437A68D26B5208013A520511432B
:100F00007A68126C5208013A520611437A68926B61
:100F1000D2060A434A491343CB60494B1B68484AEF
:100F200043F080731360464BDB68454A43F080739F
:100F3000D360FFF7B1F9386108E0FFF7ADF9024679
:100F40003B69D31A022B01D9032374E03C4B1B6885
:100F500003F00073002BF0D06CE0394B1B68384A6B
:100F600023F080731360364B1B6803F00063002B83
:100F700005D1334BDB68324A23F00303D360304B97
:100F8000DB682F4A23F0887323F48033D360FFF7A4
:100F900083F9386108E0FFF77FF902463B69D31A0D
:100FA000022B01D9032346E0254B1B6803F0007395
:100FB000002BF0D13EE07B689B6A012B01D101231D
:100FC00039E01F4BDB687B617B6903F003027B68C0
:100FD000DB6A9A422CD17B6903F070027B681B6B41
:100FE000013B1B019A4223D17B6903F4FE427B68DB
:100FF0005B6B1B029A421BD17B6903F078427B68D2
:101000009B6BDB069A4213D17B6903F4C0027B68B9
:10101000DB6B5B08013B5B059A4209D17B6903F0FE
:10102000C0627B681B6C5B08013B5B069A4201D087
:10103000012300E0002318462037BD4680BD00BFD5
:10104000001002408C809D0180B584B000AF7860B4
:1010500039607B68002B01D10123C8E0664B1B6817
:1010600003F007033A689A4210D9634B1B6823F0D8
:10107000070261493B6813430B605F4B1B6803F039
:1010800007033A689A4201D00123B0E07B681B68ED
:1010900003F00103002B4CD07B685B68032B07D166
:1010A000564B1B6803F00073002B21D101239EE0F7
:1010B0007B685B68022B07D1504B1B6803F400333D
:1010C000002B15D1012392E07B685B68002B07D1D0
:1010D0004A4B1B6803F00203002B09D1012386E071
:1010E000464B1B6803F48063002B01D101237EE093
:1010F000424B9B6823F003027B685B683F491343C4
:101100008B60FFF7C9F8F8600AE0FFF7C5F8024600
:10111000FB68D31A41F28832934201D9032366E077
:10112000364B9B6803F00C027B685B689B009A421D
:10113000EBD17B681B6803F00203002B08D02F4B18
:101140009B6823F0F0027B689B682C4913438B60FB
:10115000294B1B6803F007033A689A4210D2264BCA
:101160001B6823F0070224493B6813430B60224BA2
:101170001B6803F007033A689A4201D0012336E066
:101180007B681B6803F00403002B08D01B4B9B6893
:1011900023F4E0627B68DB68184913438B607B684B
:1011A0001B6803F00803002B09D0144B9B6823F441
:1011B00060527B681B69DB00104913438B6000F0B1
:1011C00025F802460D4B9B681B0903F00F030C49E1
:1011D000CB5C03F01F0322FA03F30A4A13600A4BA5
:1011E0001B681846FFF70CF80346FB72FB7A18469B
:1011F0001037BD4680BD00BF0020024000100240F5
:10120000A0230008080000200000002080B489B05E
:1012100000AF0023FB610023BB613D4B9B6803F0E3
:101220000C033B613A4BDB6803F00303FB603B6953
:10123000002B05D03B690C2B21D1FB68012B1ED163
:10124000334B1B6803F00803002B07D1304BD3F856
:1012500094301B0A03F00F03FB6105E02C4B1B6865
:101260001B0903F00F03FB612A4AFB6952F8233084
:10127000FB613B69002B0DD1FB69BB610AE03B6957
:10128000042B02D1244BBB6104E03B69082B01D144
:10129000224BBB613B690C2B34D11D4BDB6803F047
:1012A0000303BB60BB68022B03D0BB68032B03D0D6
:1012B00005E0194B7B6105E0184B7B6102E0FB699F
:1012C0007B6100BF124BDB681B0903F0070301338E
:1012D0007B600F4BDB681B0A03F07F037A6902FB1C
:1012E00003F27B68B2FBF3F37B61094BDB685B0EB7
:1012F00003F0030301335B003B607A693B68B2FB98
:10130000F3F3BB61BB6918462437BD4680BC704708
:1013100000100240B02300080024F40000127A00FC
:1013200080B586B000AF786000233B612A4B9B6D8F
:1013300003F08053002B03D0FFF738FA786114E0F4
:10134000254B9B6D244A43F080539365224B9B6D44
:1013500003F08053FB60FB68FFF728FA78611E4BAF
:101360009B6D1D4A23F0805393657B69B3F5007F25
:101370000BD17B68802B19D97B68A02B02D9022363
:101380003B6113E001233B6110E07B68802B02D9B5
:1013900003233B610AE07B68802B02D102233B617F
:1013A00004E07B68702B01D101233B610B4B1B6870
:1013B00023F0070209493B6913430B60074B1B6885
:1013C00003F007033A699A4201D0012300E00023A9
:1013D00018461837BD4680BD00100240002002406C
:1013E00080B582B000AF78607B68002B01D101230B
:1013F0001DE07B6893F83D30DBB2002B06D17B68A3
:10140000002283F83C20786800F012FF7B680222FB
:1014100083F83D207B681A687B68043319461046C0
:1014200000F000FA7B68012283F83D200023184673
:101430000837BD4680BD80B582B000AF78607B685C
:10144000002B01D101231DE07B6893F83D30DBB216
:10145000002B06D17B68002283F83C20786800F0DE
:1014600015F87B68022283F83D207B681A687B6848
:1014700004331946104600F0D5F97B68012283F841
:101480003D20002318460837BD4680BD80B483B098
:1014900000AF786000BF0C37BD4680BC70470000CD
:1014A00080B584B000AF786039607B681B6801222A
:1014B0003968184600F090FC7B681B68194A934213
:1014C00009D07B681B68184A934204D07B681B686C
:1014D000164A934201D1012300E00023002B07D0DC
:1014E0007B681B685A6C7B681B6842F400425A6434
:1014F0007B681B689A680E4B1340FB60FB68062BE9
:101500000BD0FB68B3F5803F07D07B681B681A6877
:101510007B681B6842F001021A60002318461037EE
:10152000BD4680BD002C0140004001400044014008
:101530000700010080B582B000AF786039607B6839
:101540001B6800223968184600F046FC7B681B685F
:10155000254A934209D07B681B68244A934204D0F1
:101560007B681B68224A934201D1012300E00023DB
:10157000002B17D07B681B681A6A41F211131340C5
:10158000002B0FD17B681B681A6A40F2444313405A
:10159000002B07D17B681B685A6C7B681B6822F4A0
:1015A00000425A647B681B681A6A41F211131340A7
:1015B000002B0FD17B681B681A6A40F2444313402A
:1015C000002B07D17B681B681A687B681B6822F0B8
:1015D00001021A607B68012283F83D20002318462F
:1015E0000837BD4680BD00BF002C014000400140CF
:1015F0000044014080B584B000AFF860B9607A6003
:10160000FB6893F83C30012B01D1022305E1FB6814
:10161000012283F83C20FB68022283F83D207B688E
:10162000142B00F2F08001A252F823F0811600087A
:10163000071800080718000807180008C116000856
:101640000718000807180008071800080317000803
:1016500007180008071800080718000843170008B3
:101660000718000807180008071800088517000861
:10167000071800080718000807180008C517000811
:10168000FB681B68B968184600F02EF9FB681B68F8
:101690009A69FB681B6842F008029A61FB681B6844
:1016A0009A69FB681B6822F004029A61FB681B6858
:1016B0009969BB681A69FB681B680A439A61A3E0D1
:1016C000FB681B68B968184600F08AF9FB681B685C
:1016D0009A69FB681B6842F400629A61FB681B68A8
:1016E0009A69FB681B6822F480629A61FB681B6838
:1016F0009969BB681B691A02FB681B680A439A61F7
:1017000082E0FB681B68B968184600F0E1F9FB68E5
:101710001B68DA69FB681B6842F00802DA61FB6843
:101720001B68DA69FB681B6822F00402DA61FB6857
:101730001B68D969BB681A69FB681B680A43DA61D0
:1017400062E0FB681B68B968184600F039FAFB686C
:101750001B68DA69FB681B6842F40062DA61FB68A7
:101760001B68DA69FB681B6822F48062DA61FB6837
:101770001B68D969BB681B691A02FB681B680A43AE
:10178000DA6141E0FB681B68B968184600F074FA3A
:10179000FB681B685A6DFB681B6842F008025A65BB
:1017A000FB681B685A6DFB681B6822F004025A65CF
:1017B000FB681B68596DBB681A69FB681B680A43A4
:1017C0005A6521E0FB681B68B968184600F0ACFA5E
:1017D000FB681B685A6DFB681B6842F400625A651F
:1017E000FB681B685A6DFB681B6822F480625A65AF
:1017F000FB681B68596DBB681B691A02FB681B6894
:101800000A435A6500E000BFFB68012283F83D20CF
:10181000FB68002283F83C20002318461037BD46A1
:1018200080BD00BF80B485B000AF786039607B6850
:101830001B68FB607B68294A934203D07B68B3F145
:10184000804F08D1FB6823F07003FB603B685B6846
:10185000FA681343FB607B68204A93420BD07B6895
:10186000B3F1804F07D07B681D4A934203D07B6859
:101870001C4A934208D1FB6823F44073FB603B6829
:10188000DB68FA681343FB60FB6823F080023B6867
:101890005B691343FB607B68FA681A603B689A686F
:1018A0007B68DA623B681A687B689A627B680B4ADD
:1018B000934207D07B680A4A934203D07B68094A67
:1018C000934203D13B681A697B681A637B680122E3
:1018D0005A6100BF1437BD4680BC7047002C0140E0
:1018E000004001400044014080B487B000AF786000
:1018F00039607B681B6A23F001027B681A627B688F
:101900001B6A7B617B685B683B617B689B69FB60F2
:10191000FB6823F4803323F07003FB60FB6823F043
:101920000303FB603B681B68FA681343FB607B6939
:1019300023F002037B613B689B687A6913437B61F8
:101940007B68244A934207D07B68234A934203D0A2
:101950007B68224A93420CD17B6923F008037B61A8
:101960003B68DB687A6913437B617B6923F004037E
:101970007B617B68174A934207D07B68164A934283
:1019800003D07B68154A934211D13B6923F48073DD
:101990003B613B6923F400733B613B685B693A69D7
:1019A00013433B613B689B693A6913433B617B6826
:1019B0003A695A607B68FA689A613B685A687B6842
:1019C0005A637B687A691A6200BF1C37BD4680BCC7
:1019D000704700BF002C014000400140004401401E
:1019E00080B487B000AF786039607B681B6A23F0F1
:1019F00010027B681A627B681B6A7B617B685B688C
:101A00003B617B689B69FB60FB6823F0807323F478
:101A1000E043FB60FB6823F44073FB603B681B689A
:101A20001B02FA681343FB607B6923F020037B6190
:101A30003B689B681B017A6913437B617B68214A81
:101A400093420DD17B6923F080037B613B68DB68A7
:101A50001B017A6913437B617B6923F040037B613F
:101A60007B68184A934207D07B68174A934203D099
:101A70007B68164A934213D13B6923F480633B6130
:101A80003B6923F400633B613B685B699B003A69F7
:101A900013433B613B689B699B003A6913433B617D
:101AA0007B683A695A607B68FA689A613B685A6851
:101AB0007B689A637B687A691A6200BF1C37BD46EF
:101AC00080BC7047002C01400040014000440140B0
:101AD00080B487B000AF786039607B681B6A23F4FC
:101AE00080727B681A627B681B6A7B617B685B68BB
:101AF0003B617B68DB69FB60FB6823F4803323F088
:101B00007003FB60FB6823F00303FB603B681B680A
:101B1000FA681343FB607B6923F400737B613B68C5
:101B20009B681B027A6913437B617B68214A93425D
:101B30000DD17B6923F400637B613B68DB681B028A
:101B40007A6913437B617B6923F480637B617B68E3
:101B5000184A934207D07B68174A934203D07B68A8
:101B6000164A934213D13B6923F480533B613B698E
:101B700023F400533B613B685B691B013A691343E3
:101B80003B613B689B691B013A6913433B617B687E
:101B90003A695A607B68FA68DA613B685A687B6820
:101BA000DA637B687A691A6200BF1C37BD4680BC65
:101BB000704700BF002C014000400140004401403C
:101BC00080B487B000AF786039607B681B6A23F40B
:101BD00080527B681A627B681B6A3B617B685B682A
:101BE0007B617B68DB69FB60FB6823F0807323F417
:101BF000E043FB60FB6823F44073FB603B681B68B9
:101C00001B02FA681343FB603B6923F400533B61FA
:101C10003B689B681B033A6913433B617B68134A2B
:101C2000934207D07B68124A934203D07B68114AE3
:101C3000934209D17B6923F480437B613B685B69F4
:101C40009B017A6913437B617B687A695A607B6880
:101C5000FA68DA613B685A687B681A647B683A699B
:101C60001A6200BF1C37BD4680BC7047002C014083
:101C7000004001400044014080B487B000AF78606C
:101C800039607B681B6A23F480327B681A627B6848
:101C90001B6A3B617B685B687B617B685B6DFB609B
:101CA000FB6823F4803323F07003FB603B681B6800
:101CB000FA681343FB603B6923F400333B613B68E4
:101CC0009B681B043A6913433B617B68134A934248
:101CD00007D07B68124A934203D07B68114A934233
:101CE00009D17B6923F480337B613B685B691B020C
:101CF0007A6913437B617B687A695A607B68FA680A
:101D00005A653B685A687B689A657B683A691A62CB
:101D100000BF1C37BD4680BC704700BF002C01408F
:101D2000004001400044014080B487B000AF7860BB
:101D300039607B681B6A23F480127B681A627B68B7
:101D40001B6A3B617B685B687B617B685B6DFB60EA
:101D5000FB6823F0807323F4E043FB603B681B685F
:101D60001B02FA681343FB603B6923F400133B61D9
:101D70003B689B681B053A6913433B617B68134AC8
:101D8000934207D07B68124A934203D07B68114A82
:101D9000934209D17B6923F480237B613B685B69B3
:101DA0009B027A6913437B617B687A695A607B681E
:101DB000FA685A653B685A687B68DA657B683A69F5
:101DC0001A6200BF1C37BD4680BC7047002C014022
:101DD000004001400044014080B487B000AFF8608B
:101DE000B9607A60BB6803F01F03012202FA03F3B3
:101DF0007B61FB681A6A7B69DB431A40FB681A62E5
:101E0000FB681A6ABB6803F01F03796801FA03F3E1
:101E10001A43FB681A6200BF1C37BD4680BC70477E
:101E200080B485B000AF786039600023FB607B68C8
:101E300093F83C30012B01D1022360E07B68012242
:101E400083F83C20FB6823F0FF023B68DB68134308
:101E5000FB60FB6823F440723B689B681343FB60A4
:101E6000FB6823F480623B685B681343FB60FB689C
:101E700023F400623B681B681343FB60FB6823F498
:101E800080523B681B691343FB60FB6823F40052DC
:101E90003B685B691343FB60FB6823F480423B684B
:101EA0009B6A1343FB60FB6823F470223B689B69C9
:101EB0001B041343FB607B681B68134A934215D1D4
:101EC000FB6823F470023B685B6A1B051343FB60ED
:101ED000FB6823F080723B68DB691343FB60FB689F
:101EE00023F000723B681B6A1343FB607B681B682E
:101EF000FA685A647B68002283F83C200023184665
:101F00001437BD4680BC7047002C014080B485B0BA
:101F100000AF144BDB6C134A43F00403D364114B42
:101F2000DB6C03F00403FB60FB680E4BDB6C0D4ABB
:101F300043F08003D3640B4BDB6C03F08003BB6086
:101F4000BB68084BDB6C074A43F00203D364054BC4
:101F5000DB6C03F002037B607B6800BF1437BD4677
:101F600080BC70470010024080B500AFFEF730F92A
:101F700000F018F8FFF7CAFF00F0E2F80021084867
:101F8000FFF78EFA4FF4FA70FEF790F9002104483B
:101F9000FFF7D0FA4FF4FA70FEF788F9EEE700BFCA
:101FA0003000002080B596B000AF07F11403442242
:101FB0000021184600F0E0F93B4600221A605A6002
:101FC0009A60DA601A6101237B614FF48033BB6150
:101FD0000223FB6303233B6401237B641423BB6460
:101FE0000723FB6402233B6502237B6507F114038F
:101FF0001846FEF73BFC0346002B01D000F021F809
:102000000F233B6003237B600023BB600023FB6046
:1020100000233B613B4604211846FFF715F80346B1
:10202000002B01D000F00DF84FF40070FEF7CAFB52
:102030000346002B01D000F004F800BF5837BD461E
:1020400080BD80B400AF00BFBD4680BC70470000BB
:1020500080B483B000AF0E4B1B6E0D4A43F00103FA
:1020600013660B4B1B6E03F001037B607B68084B10
:102070009B6D074A43F080539365054B9B6D03F0BE
:1020800080533B603B6800BF0C37BD4680BC704747
:102090000010024080B400AF00BFBD4680BC704756
:1020A00080B400AFFEE780B400AFFEE780B400AFBD
:1020B000FEE780B400AFFEE780B400AF00BFBD46CE
:1020C00080BC704780B400AF00BFBD4680BC704785
:1020D00080B400AF00BFBD4680BC704780B500AF84
:1020E000FEF7C8F800BF80BD80B400AF124B1B687C
:1020F000114A43F0010313600F4B00229A600E4B0C
:102100001B680D4A23F0A85323F4102313600A4BD5
:102110004FF48052DA60084B1B68074A23F480238F
:102120001360054B00229A61044B4FF000629A60E5
:1021300000BFBD4680BC70470010024000ED00E0CB
:1021400080B592B000AF07F12C0300221A605A60EC
:102150009A60DA601A615A619A613B462C2200212A
:10216000184600F009F9304B304A1A602E4B4F22C6
:102170005A602D4B00229A602B4B40F2E732DA6016
:10218000294B00221A61284B00225A61264B00225B
:102190009A612548FFF724F90346002B01D0FFF789
:1021A00050FF2148FFF747F90346002B01D0FFF706
:1021B00048FF6023FB6240F2E7333B6300237B630D
:1021C0000023BB630023FB6300233B6400237B6489
:1021D00007F12C03002219461348FFF70BFA0346B8
:1021E000002B01D0FFF72DFF00233B6000237B6015
:1021F0000023BB600023FB6000233B614FF40053CE
:102200007B610023BB623B4619460748FFF708FE87
:102210000346002B01D0FFF714FF034800F026F817
:1022200000BF4837BD4680BD30000020004401405B
:1022300080B485B000AF78607B681B68094A934220
:102240000BD1094B1B6E084A43F400331366064B4F
:102250001B6E03F40033FB60FB6800BF1437BD4600
:1022600080BC7047004401400010024080B588B037
:1022700000AF786007F10C0300221A605A609A6080
:10228000DA601A617B681B68114A93421CD1114BBA
:10229000DB6C104A43F00203D3640E4BDB6C03F09B
:1022A0000203BB60BB684FF48073FB6002233B6199
:1022B00000237B610023BB610E23FB6107F10C034C
:1022C00019460548FEF7F8F800BF2037BD4680BD27
:1022D000004401400010024000040048DFF834D000
:1022E000002103E00C4B5B58435004310B480C4B6E
:1022F00042189A42F6D30B4A02E0002342F8043B0C
:10230000094B9A42F9D3FFF7EFFE00F011F8FFF7FF
:102310002BFEFEE700000120F02300080000002053
:10232000100000201000002070000020FEE70000D8
:1023300070B50D4D0D4C641BA4100026A64209D1AA
:102340000B4D0C4C00F020F8641BA4100026A64294
:1023500005D170BD55F8043B98470136EEE755F8B6
:10236000043B98470136F2E7E0230008E023000829
:10237000E0230008E423000802440346934200D10E
:10238000704703F8011BF9E7F8B500BFF8BC08BCBB
:102390009E467047F8B500BFF8BC08BC9E46704723
:1023A0000000000000000000010203040607080905
:1023B000A0860100400D0300801A060000350C00C5
:1023C00040420F0080841E0000093D0000127A0088
:1023D0000024F40000366E010048E801006CDC02C5
:0823E000B50100080000000037
:0823E800910100080000000053
:1023F000100000000100000000093D000000000086
:04000005080022DDF0
:00000001FF
