:020000040800F2
:1000000000000120052D0008952A0008A12A0008FB
:10001000A72A0008AD2A0008B32A00080000000043
:10002000000000000000000000000000B92A0008E5
:10003000C52A00080000000039020008AD2F0008A2
:10004000552D0008552D0008552D0008552D000888
:10005000552D0008552D0008552D0008552D000878
:10006000552D0008552D0008552D0008552D000868
:10007000552D0008552D0008552D0008552D000858
:10008000552D0008552D0008552D0008552D000848
:10009000552D0008552D0008552D0008552D000838
:1000A000552D0008552D0008552D0008552D000828
:1000B000552D00080000000000000000552D00082C
:1000C000552D0008552D0008552D0008552D000808
:1000D000552D0008552D0008552D0008552D0008F8
:1000E000552D0008552D00080000000000000000FC
:1000F0000000000000000000000000000000000000
:1001000000000000552D000800000000552D0008DB
:100110000000000000000000552D0008552D0008CB
:10012000552D0008552D0008552D0008552D0008A7
:10013000552D000800000000000000000000000035
:10014000552D0008552D0008552D00080000000011
:10015000552D0008552D0008552D0008552D000877
:10016000552D0008552D0008552D000800000000F1
:10017000552D0008552D000800000000000000006B
:10018000552D0008552D0008552D000800000000D1
:1001900010B5054C237833B9044B13B10448AFF3C1
:1001A00000800123237010BD280100200000000002
:1001B0006897000808B5034B1BB103490348AFF328
:1001C000008008BD000000002C0100206897000896
:1001D00072B62C482C49026841EA020101602B48A2
:1001E0004FF0010101602A484168016001688A8876
:1001F0004FF0100342EA03028A80D1F800C00CF1EC
:10020000240CBCE8FF008CF309884FF0020C8CF33F
:100210001488AE4662B63047EFF3108072B670476E
:10022000EFF3108062B6704780F31088704719486A
:100230004FF0805101607047EFF3108C72B6164A90
:10024000126822B12DE900509047BDE80050EFF34D
:10025000098020E9F01F0E4D4FF010082E68306025
:10026000B78827EA0807B78068682860878847EA60
:10027000080787800168B1E8F01F81F309888CF3D3
:100280001088704720ED00E00000FFFFE40500202B
:10029000AC05002004ED00E0E805002053B94AB9A0
:1002A000002908BF00281CBF4FF0FF314FF0FF307E
:1002B00000F06CB9ADF1080C6DE904CE00F006F861
:1002C000DDF804E0DDE9022304B070472DE9F047D2
:1002D000089E0D4604468E46002B40F082808A42DE
:1002E000174646D9B2FA82F24AB1C2F1200105FAA4
:1002F00002F320FA01F1974041EA030E94404FEADD
:100300001748230CBEFBF8FCB9B208FB1CEE43EA0D
:100310000E430CFB01F098420AD9FB180CF1FF3593
:1003200080F01681984240F21381ACF1020C3B44FC
:100330001B1AA4B2B3FBF8F008FB103344EA0344E1
:1003400000FB01F1A14209D93C1900F1FF3380F013
:100350000181A14240F2FE8002383C44641A40EA26
:100360000C4000211EB1D4400023C6E90043BDE883
:10037000F08702B9FFDEB2FA82F2002A4FD1CB1B1E
:100380004FEA174E1FFA87F80121B3FBFEFC250C3C
:100390000EFB1C3345EA034508FB0CF3AB4207D9BF
:1003A0007D190CF1FF3002D2AB4200F2E7808446A7
:1003B000ED1AA3B2B5FBFEF00EFB105543EA05445F
:1003C00008FB00F8A04507D93C1900F1FF3302D221
:1003D000A04500F2D7801846A4EB080440EA0C4080
:1003E000C0E78B4208D9002E00F0AF800021C6E99B
:1003F00000050846BDE8F087B3FA83F100294BD128
:10040000AB4202D3824200F2B780841A65EB030349
:1004100001209E46002EAAD0C6E9004EA7E7C2F1F1
:10042000200C01FA02F3974020FA0CF04FEA174E25
:1004300021FA0CFC1843BCFBFEF1050C0EFB11CCA1
:100440001FFA87F845EA0C4501FB08F3AB4204FAB2
:1004500002F409D97D1901F1FF3C80F08B80AB4299
:1004600040F2888002393D44EB1A85B2B3FBFEF0BE
:100470000EFB103345EA034500FB08F3AB4207D9F6
:100480007D1900F1FF3C71D2AB426FD902383D4477
:10049000EB1A40EA014178E7C1F1200C8B4022FAC7
:1004A0000CF71F4320FA0CF405FA01F34FEA174E3C
:1004B00025FA0CF51C43230CB5FBFEF91FFA87F84F
:1004C0000EFB195543EA054509FB08FAAA4502FA4D
:1004D00001F200FA01F308D97D1909F1FF3047D282
:1004E000AA4545D9A9F102093D44A5EB0A05A4B2E4
:1004F000B5FBFEF00EFB105544EA054400FB08F87E
:10050000A04507D93C1900F1FF352DD2A0452BD9C4
:1005100002383C4440EA0940A4EB0804A0FB0289ED
:100520004C45C6464D4619D316D05EB1B3EB0E020C
:1005300064EB050404FA0CFCCA404CEA0202CC400D
:10054000C6E900240021BDE8F087314630460EE7B9
:10055000AC46EDE6184601E74345E6D2B8EB020E9D
:1005600069EB07050138E0E72846D3E760468FE7E7
:100570008146BAE7614677E708464BE7ACF1020CE3
:100580003D4415E702383C4426E700BF704700BFF2
:1005900001F0FF01102A2BDB10F0070F08D010F834
:1005A000013B013A8B422DD010F0070F42B3F6D138
:1005B000F0B441EA012141EA014122F007047FF051
:1005C00000070023F0E80256083C85EA010586EAA8
:1005D000010685FA47F5A3FA87F586FA47F6A5FAE4
:1005E00087F68EB9EED1F0BC01F0FF0102F00702F0
:1005F00032B110F8013B013A83EA010313B1F8D19B
:100600000020704701387047002D06BF354603387B
:10061000073815F0010F07D1013015F4807F02BFB4
:10062000013015F4C03F0130F0BC0138704700BF05
:1006300080B582B000AF0023FB71032000F004F905
:10064000002000F00DF80346002B02D00123FB71BF
:1006500001E002F0FDF9FB7918460837BD4680BD80
:1006600080B584B000AF78600023FB73164B1B6825
:10067000002B22D0154B1A68134B1B684FF47A716C
:10068000B1FBF3F3B2FBF3F3184600F004F90346B1
:10069000002B0FD17B680F2B09D8002279684FF00F
:1006A000FF3000F0DCF80A4A7B68136007E00123A2
:1006B000FB7304E00123FB7301E00123FB73FB7B6D
:1006C00018461037BD4680BD0400002008000020F9
:1006D0000000002080B400AF024B1B681846BD46E6
:1006E00080BC70474401002080B485B000AF7860C2
:1006F0007B6803F00703FB600C4BDB68BB60BA68E8
:100700004FF6FF031340BB60FB681A02BB6813433C
:1007100043F0BF6343F40033BB60044ABB68D3605B
:1007200000BF1437BD4680BC704700BF00ED00E03D
:1007300080B400AF044BDB681B0A03F007031846C4
:10074000BD4680BC704700BF00ED00E080B483B0C0
:1007500000AF03463960FB7197F90730002B0ADBC5
:100760003B68DAB20C4997F907301201D2B20B4458
:1007700083F800230AE03B68DAB20849FB7903F00A
:100780000F03043B1201D2B20B441A7600BF0C37A0
:10079000BD4680BC704700BF00E100E000ED00E016
:1007A00080B489B000AFF860B9607A60FB6803F08C
:1007B0000703FB61FB69C3F10703042B28BF042374
:1007C000BB61FB690433062B02D9FB69033B00E0E4
:1007D00000237B614FF0FF32BB6902FA03F3DA4377
:1007E000BB681A407B699A404FF0FF317B6901FA80
:1007F00003F3D9437B680B40134318462437BD46A7
:1008000080BC704780B582B000AF78607B68013BE8
:10081000B3F1807F01D301230FE00A4A7B68013BDB
:1008200053600F214FF0FF30FFF790FF054B002280
:100830009A60044B07221A60002318460837BD4609
:1008400080BD00BF10E000E080B582B000AF7860EE
:100850007868FFF749FF00BF0837BD4680BD80B507
:1008600086B000AF0346B9607A60FB7300237B61FA
:10087000FFF75EFF78617A68B9687869FFF790FFE3
:10088000024697F90F3011461846FFF75FFF00BF89
:100890001837BD4680BD80B582B000AF78607868FB
:1008A000FFF7B0FF034618460837BD4680BD00007D
:1008B00080B487B000AF7860396000237B6154E179
:1008C0003B681A6801217B6901FA03F31340FB605E
:1008D000FB68002B00F046813B685B68022B03D06D
:1008E0003B685B68122B23D17B69DA087B6808328E
:1008F00053F822303B617B6903F007039B000F2212
:1009000002FA03F3DB433A6913403B613B681A691F
:100910007B6903F007039B0002FA03F33A69134370
:100920003B617B69DA087B680832396943F8221039
:100930007B681B683B617B695B00032202FA03F35F
:10094000DB433A6913403B613B685B6803F0030299
:100950007B695B0002FA03F33A6913433B617B68EE
:100960003A691A603B685B68012B0BD03B685B6897
:10097000022B07D03B685B68112B03D03B685B6898
:10098000122B30D17B689B683B617B695B00032243
:1009900002FA03F3DB433A6913403B613B68DA68D0
:1009A0007B695B0002FA03F33A6913433B617B689E
:1009B0003A699A607B685B683B6101227B6902FA55
:1009C00003F3DB433A6913403B613B685B681B09F7
:1009D00003F001027B6902FA03F33A6913433B61B6
:1009E0007B683A695A607B68DB683B617B695B00C6
:1009F000032202FA03F3DB433A6913403B613B688D
:100A00009A687B695B0002FA03F33A6913433B611E
:100A10007B683A69DA603B685B6803F08053002BBF
:100A200000F0A080584B1B6E574A43F00103136639
:100A3000554B1B6E03F00103BB60BB68534A7B69D7
:100A40009B08023352F823303B617B6903F00303B8
:100A50009B000F2202FA03F3DB433A6913403B6128
:100A60007B68B3F1904F19D07B68494A934213D009
:100A70007B68484A93420DD07B68474A934207D02F
:100A80007B68464A934201D1042308E0072306E02D
:100A9000032304E0022302E0012300E000237A693B
:100AA00002F00302920093403A6913433B613749D5
:100AB0007B699B0802333A6941F82320384B1B6855
:100AC0003B61FB68DB433A6913403B613B685B6811
:100AD00003F48033002B03D03A69FB6813433B6176
:100AE0002F4A3B6913602E4B5B683B61FB68DB431D
:100AF0003A6913403B613B685B6803F40033002BA9
:100B000003D03A69FB6813433B61254A3B69536054
:100B1000234B9B683B61FB68DB433A6913403B61B5
:100B20003B685B6803F48013002B03D03A69FB68D1
:100B300013433B611A4A3B699360194BDB683B6185
:100B4000FB68DB433A6913403B613B685B6803F435
:100B50000013002B03D03A69FB6813433B61104A32
:100B60003B69D3607B6901337B613B681A687B69B1
:100B700022FA03F3002B7FF4A3AE00BF00BF1C37A3
:100B8000BD4680BC704700BF00100240000001401D
:100B90000004004800080048000C0048001000480D
:100BA0000004014080B400AF034B1B6803F4C06332
:100BB0001846BD4680BC70470070004080B485B0C8
:100BC00000AF78607B68B3F5007F30D1224B1B68A3
:100BD00003F4C063B3F5007F38D01F4B1B6823F4C8
:100BE000C0631D4A43F4007313601C4B1B68322220
:100BF00002FB03F31A4AA2FB03239B0C0133FB60A5
:100C000002E0FB68013BFB60134B5B6903F480630C
:100C1000B3F5806F02D1FB68002BF2D10E4B5B69FC
:100C200003F48063B3F5806F10D103230FE00A4B08
:100C30001B6803F4C063B3F5806F07D0064B1B68D5
:100C400023F4C063044A43F480631360002318460E
:100C50001437BD4680BC704700700040080000207B
:100C600083DE1B4380B588B000AF78607B68002BC3
:100C700001D10123DBE3A44B9B6803F00C03BB61B0
:100C8000A14BDB6803F003037B617B681B6803F007
:100C90001003002B00F0E180BB69002B07D0BB697B
:100CA0000C2B40F088807B69012B40F08480964BB0
:100CB0001B6803F00203002B05D07B689B69002BA7
:100CC00001D10123B3E37B681A6A8F4B1B6803F0E1
:100CD0000803002B04D08C4B1B6803F0F00305E0E5
:100CE000894BD3F894301B0903F0F003934223D2CD
:100CF0007B681B6A184600F045FD0346002B01D0B7
:100D0000012394E3804B1B687F4A43F00803136080
:100D10007D4B1B6823F0F0027B681B6A7A49134302
:100D20000B60794B5B6823F47F427B68DB691B02B5
:100D3000754913434B6022E0734B1B68724A43F0C2
:100D400008031360704B1B6823F0F0027B681B6A7A
:100D50006D4913430B606C4B5B6823F47F427B68E7
:100D6000DB691B02684913434B607B681B6A1846AA
:100D700000F008FD0346002B01D0012357E300F0EB
:100D800041FC0246604B9B681B0903F00F035F495F
:100D9000CB5C03F01F0322FA03F35D4A13605D4B43
:100DA0001B681846FFF75CFC0346FB73FB7B002BBC
:100DB00052D0FB7B3BE37B689B69002B32D0524BCC
:100DC0001B68514A43F001031360FFF783FC38614D
:100DD00008E0FFF77FFC02463B69D31A022B01D9DA
:100DE000032324E3484B1B6803F00203002BF0D0DD
:100DF000454B1B68444A43F008031360424B1B6891
:100E000023F0F0027B681B6A3F4913430B603E4BA3
:100E10005B6823F47F427B68DB691B023A4913431A
:100E20004B601AE0384B1B68374A23F0010313600C
:100E3000FFF750FC386108E0FFF74CFC02463B69C5
:100E4000D31A022B01D90323F1E22F4B1B6803F0C5
:100E50000203002BF0D100E000BF7B681B6803F0A9
:100E60000103002B74D0BB69082B05D0BB690C2B88
:100E70000ED17B69032B0BD1234B1B6803F400338A
:100E8000002B64D07B685B68002B60D10123CEE22D
:100E90007B685B68B3F5803F06D11B4B1B681A4A21
:100EA00043F4803313601DE07B685B68B3F5A02FCB
:100EB0000CD1154B1B68144A43F480231360124B6A
:100EC0001B68114A43F4803313600BE00E4B1B6820
:100ED0000D4A23F4803313600B4B1B680A4A23F43A
:100EE000802313607B685B68002B1CD0FFF7F2FB4C
:100EF000386111E0FFF7EEFB02463B69D31A642B21
:100F00000AD9032393E200BF0010024070A9000831
:100F10000800002000000020AE4B1B6803F40033E3
:100F2000002BE7D014E0FFF7D5FB386108E0FFF7AE
:100F3000D1FB02463B69D31A642B01D9032376E225
:100F4000A44B1B6803F40033002BF0D100E000BF7A
:100F50007B681B6803F00203002B60D0BB69042B85
:100F600005D0BB690C2B19D17B69022B16D1994B8B
:100F70001B6803F48063002B05D07B68DB68002BC3
:100F800001D1012353E2934B5B6823F0F8527B6855
:100F90001B691B068F4913434B6040E07B68DB688D
:100FA000002B23D08B4B1B688A4A43F48073136059
:100FB000FFF790FB386108E0FFF78CFB02463B69C6
:100FC000D31A022B01D9032331E2824B1B6803F4AD
:100FD0008063002BF0D07F4B5B6823F0F8527B6876
:100FE0001B691B067B4913434B6018E0794B1B6858
:100FF000784A23F480731360FFF76CFB386108E0D4
:10100000FFF768FB02463B69D31A022B01D9032381
:101010000DE2704B1B6803F48063002BF0D17B68FA
:101020001B6803F00803002B3CD07B685B69002B36
:101030001CD0684BD3F89430664A43F00103C2F8E1
:101040009430FFF747FB386108E0FFF743FB0246A7
:101050003B69D31A022B01D90323E8E15D4BD3F896
:10106000943003F00203002BEFD01BE0594BD3F870
:101070009430584A23F00103C2F89430FFF72AFB5A
:10108000386108E0FFF726FB02463B69D31A022BC2
:1010900001D90323CBE14F4BD3F8943003F0020383
:1010A000002BEFD17B681B6803F00403002B00F0DA
:1010B000A5800023FB77474B9B6D03F08053002BEB
:1010C0000DD1444B9B6D434A43F080539365414B94
:1010D0009B6D03F08053BB60BB680123FB773E4BE5
:1010E0001B6803F48073002B18D13B4B1B683A4AF2
:1010F00043F480731360FFF7EDFA386108E0FFF7FF
:10110000E9FA02463B69D31A022B01D903238EE187
:10111000314B1B6803F48073002BF0D07B689B6815
:10112000012B08D12B4BD3F890302A4A43F001030E
:10113000C2F8903024E07B689B68052B10D1254BCA
:10114000D3F89030234A43F00403C2F89030214B87
:10115000D3F890301F4A43F00103C2F890300FE0FB
:101160001C4BD3F890301B4A23F00103C2F8903097
:10117000184BD3F89030174A23F00403C2F890308C
:101180007B689B68002B16D0FFF7A4FA38610AE051
:10119000FFF7A0FA02463B69D31A41F28832934224
:1011A00001D9032343E10B4BD3F8903003F0020342
:1011B000002BEDD019E0FFF78DFA38610EE0FFF754
:1011C00089FA02463B69D31A41F28832934205D923
:1011D00003232CE10010024000700040964BD3F82E
:1011E000903003F00203002BE9D1FB7F012B05D1E6
:1011F000914B9B6D904A23F0805393657B681B68ED
:1012000003F02003002B3CD07B685B6A002B1CD0D2
:10121000894BD3F89830884A43F00103C2F89830DC
:10122000FFF758FA386108E0FFF754FA02463B69C5
:10123000D31A022B01D90323F9E07F4BD3F898305E
:1012400003F00203002BEFD01BE07B4BD3F8983068
:10125000794A23F00103C2F89830FFF73BFA38616E
:1012600008E0FFF737FA02463B69D31A022B01D98F
:101270000323DCE0704BD3F8983003F00203002B1B
:10128000EFD17B689B6A002B00F0D080BB690C2BF0
:1012900000F08D807B689B6A022B5AD1664B1B68DD
:1012A000654A23F080731360FFF714FA386108E091
:1012B000FFF710FA02463B69D31A022B01D9032328
:1012C000B5E05D4B1B6803F00073002BF0D15A4B67
:1012D000DA685A4B13407A68D16A7A68126B013A1D
:1012E000120111437A68526B120211437A68D26B71
:1012F0005208013A520511437A68126C5208013AB9
:10130000520611437A68926BD2060A434A49134344
:10131000CB60494B1B68484A43F080731360464BCF
:10132000DB68454A43F08073D360FFF7D3F9386137
:1013300008E0FFF7CFF902463B69D31A022B01D927
:10134000032374E03C4B1B6803F00073002BF0D0C8
:101350006CE0394B1B68384A23F080731360364BBE
:101360001B6803F00063002B05D1334BDB68324A66
:1013700023F00303D360304BDB682F4A23F08873DC
:1013800023F48033D360FFF7A5F9386108E0FFF755
:10139000A1F902463B69D31A022B01D9032346E087
:1013A000254B1B6803F00073002BF0D13EE07B68F7
:1013B0009B6A012B01D1012339E01F4BDB687B6164
:1013C0007B6903F003027B68DB6A9A422CD17B695C
:1013D00003F070027B681B6B013B1B019A4223D117
:1013E0007B6903F4FE427B685B6B1B029A421BD154
:1013F0007B6903F078427B689B6BDB069A4213D1D2
:101400007B6903F4C0027B68DB6B5B08013B5B0517
:101410009A4209D17B6903F0C0627B681B6C5B0850
:10142000013B5B069A4201D0012300E000231846ED
:101430002037BD4680BD00BF001002408C809D015A
:1014400080B584B000AF786039607B68002B01D133
:101450000123C8E0664B1B6803F007033A689A4211
:1014600010D9634B1B6823F0070261493B681343A3
:101470000B605F4B1B6803F007033A689A4201D088
:101480000123B0E07B681B6803F00103002B4CD004
:101490007B685B68032B07D1564B1B6803F0007316
:1014A000002B21D101239EE07B685B68022B07D1D2
:1014B000504B1B6803F40033002B15D1012392E03D
:1014C0007B685B68002B07D14A4B1B6803F0020363
:1014D000002B09D1012386E0464B1B6803F480638F
:1014E000002B01D101237EE0424B9B6823F00302D5
:1014F0007B685B683F4913438B60FFF7EBF8F8604C
:101500000AE0FFF7E7F80246FB68D31A41F2883297
:10151000934201D9032366E0364B9B6803F00C022B
:101520007B685B689B009A42EBD17B681B6803F089
:101530000203002B08D02F4B9B6823F0F0027B683E
:101540009B682C4913438B60294B1B6803F00703EE
:101550003A689A4210D2264B1B6823F007022449AE
:101560003B6813430B60224B1B6803F007033A6888
:101570009A4201D0012336E07B681B6803F0040324
:10158000002B08D01B4B9B6823F4E0627B68DB6870
:10159000184913438B607B681B6803F00803002B1A
:1015A00009D0144B9B6823F460527B681B69DB00F5
:1015B000104913438B6000F025F802460D4B9B68E1
:1015C0001B0903F00F030C49CB5C03F01F0322FA45
:1015D00003F30A4A13600A4B1B681846FFF740F8EA
:1015E0000346FB72FB7A18461037BD4680BD00BF2C
:1015F000002002400010024070A9000808000020EE
:101600000000002080B489B000AF0023FB610023FC
:10161000BB613D4B9B6803F00C033B613A4BDB68BD
:1016200003F00303FB603B69002B05D03B690C2BE7
:1016300021D1FB68012B1ED1334B1B6803F008033B
:10164000002B07D1304BD3F894301B0A03F00F0363
:10165000FB6105E02C4B1B681B0903F00F03FB61CA
:101660002A4AFB6952F82330FB613B69002B0DD1FC
:10167000FB69BB610AE03B69042B02D1244BBB61CF
:1016800004E03B69082B01D1224BBB613B690C2B69
:1016900034D11D4BDB6803F00303BB60BB68022B36
:1016A00003D0BB68032B03D005E0194B7B6105E039
:1016B000184B7B6102E0FB697B6100BF124BDB686A
:1016C0001B0903F0070301337B600F4BDB681B0A28
:1016D00003F07F037A6902FB03F27B68B2FBF3F34A
:1016E0007B61094BDB685B0E03F0030301335B0096
:1016F0003B607A693B68B2FBF3F3BB61BB69184698
:101700002437BD4680BC70470010024088A90008FD
:101710000024F40000127A0080B400AF024B1B6872
:101720001846BD4680BC70470800002080B500AF59
:10173000FFF7F2FF0246064B9B681B0A03F0070304
:101740000449CB5C03F01F0322FA03F3184680BD63
:101750000010024080A9000880B500AFFFF7DCFF51
:101760000246064B9B68DB0A03F007030449CB5C87
:1017700003F01F0322FA03F3184680BD0010024055
:1017800080A9000880B586B000AF786000233B6177
:101790002A4B9B6D03F08053002B03D0FFF702FA16
:1017A000786114E0254B9B6D244A43F08053936588
:1017B000224B9B6D03F08053FB60FB68FFF7F2F94F
:1017C00078611E4B9B6D1D4A23F0805393657B69A6
:1017D000B3F5007F0BD17B68802B19D97B68A02BD8
:1017E00002D902233B6113E001233B6110E07B68D7
:1017F000802B02D903233B610AE07B68802B02D156
:1018000002233B6104E07B68702B01D101233B6123
:101810000B4B1B6823F0070209493B6913430B601C
:10182000074B1B6803F007033A699A4201D0012372
:1018300000E0002318461837BD4680BD0010024066
:101840000020024080B586B000AF78600023FB74B2
:101850000023BB747B681B6803F40063002B31D04A
:101860007B685B6CB3F5400F1AD0B3F5400F14D80A
:10187000002B09D0B3F5000F0FD15D4BDB685C4A3C
:1018800043F48033D3600CE07B68043300211846B6
:1018900000F0F0F90346FB7403E00123FB7400E061
:1018A00000BFFB7C002B0BD1514BD3F8883023F4C5
:1018B00040027B685B6C4E491343C1F8883001E0FD
:1018C000FB7CBB747B681B6803F40033002B00F0C7
:1018D0009E8000237B74464B9B6D03F08053002B4E
:1018E00001D1012300E00023002B0DD0404B9B6D64
:1018F0003F4A43F0805393653D4B9B6D03F080530B
:10190000BB60BB6801237B743A4B1B68394A43F4C4
:1019100080731360FEF7DEFEF86009E0FEF7DAFE82
:101920000246FB68D31A022B02D90323FB7405E09D
:10193000304B1B6803F48073002BEFD0FB7C002B33
:101940005AD12B4BD3F8903003F440737B617B6901
:10195000002B1ED07B689B6D7A699A4219D0244B6C
:10196000D3F8903023F440737B61214BD3F890304F
:101970001F4A43F48033C2F890301D4BD3F89030A7
:101980001B4A23F48033C2F89030194A7B69C2F8AD
:1019900090307B6903F00103002B16D0FEF79AFE0E
:1019A000F8600BE0FEF796FE0246FB68D31A41F2A0
:1019B0008832934202D90323FB7406E00C4BD3F820
:1019C000903003F00203002BECD0FB7C002B0BD1FA
:1019D000074BD3F8903023F440727B689B6D044929
:1019E0001343C1F8903009E0FB7CBB7406E000BFF4
:1019F0000010024000700040FB7CBB747B7C012B1C
:101A000005D19B4B9B6D9A4A23F0805393657B686D
:101A10001B6803F00103002B0AD0954BD3F88830E4
:101A200023F003027B681B6A91491343C1F8883095
:101A30007B681B6803F00203002B0AD08C4BD3F8A1
:101A4000883023F00C027B685B6A89491343C1F834
:101A500088307B681B6803F00403002B0AD0844B9A
:101A6000D3F8883023F030027B689B6A80491343A7
:101A7000C1F888307B681B6803F02003002B0AD074
:101A80007B4BD3F8883023F440627B68DB6A78496B
:101A90001343C1F888307B681B6803F40073002B84
:101AA0000AD0734BD3F8883023F440227B68DB6B79
:101AB0006F491343C1F888307B681B6803F4806367
:101AC000002B0AD06A4BD3F8883023F440127B688D
:101AD0001B6C67491343C1F888307B681B6803F0AF
:101AE0004003002B0AD0624BD3F8883023F44052D5
:101AF0007B681B6B5E491343C1F888307B681B68A9
:101B000003F08003002B0AD0594BD3F8883023F41C
:101B100040427B685B6B56491343C1F888307B6851
:101B20001B6803F48073002B0AD0514BD3F8883024
:101B300023F440327B689B6B4D491343C1F88830D6
:101B40007B681B6803F40023002B28D0484BD3F894
:101B5000883023F040627B689B6C45491343C1F891
:101B600088307B689B6CB3F1006F06D1404BDB681B
:101B70003F4A43F48013D36011E07B689B6CB3F160
:101B8000806F0CD17B6804330121184600F072F895
:101B90000346FB74FB7C002B01D0FB7CBB747B6891
:101BA0001B6803F48023002B28D0314BD3F88830F6
:101BB00023F040627B68DB6C2D491343C1F8883009
:101BC0007B68DB6CB3F1006F06D1294BDB68284AD8
:101BD00043F48013D36011E07B68DB6CB3F1806F5A
:101BE0000CD17B6804330121184600F043F803460A
:101BF000FB74FB7C002B01D0FB7CBB747B681B68F7
:101C000003F48043002B1CD0194BD3F8883023F009
:101C100040527B681B6D16491343C1F888307B68BE
:101C20001B6DB3F1805F0CD17B6804330221184631
:101C300000F020F80346FB74FB7C002B01D0FB7CFA
:101C4000BB747B681B6803F40043002B0AD0084B6D
:101C5000D3F8883023F080427B685B6D04491343DE
:101C6000C1F88830BB7C18461837BD4680BD00BF20
:101C70000010024080B584B000AF78603960002366
:101C8000FB73744BDB6803F00303002B18D0714B1C
:101C9000DB6803F003027B681B689A420DD17B6806
:101CA0001B68002B09D06B4BDB681B0903F0070393
:101CB0005A1C7B685B689A4247D00123FB7344E05F
:101CC0007B681B68032B18D0032B25D8012B02D06F
:101CD000022B09D020E05F4B1B6803F00203002BAE
:101CE0001DD10123FB731AE05A4B1B6803F4806378
:101CF000002B16D10123FB7313E0564B1B6803F432
:101D00000033002B0FD1534B1B6803F48023002BAF
:101D100009D10123FB7306E00123FB7304E000BF3C
:101D200002E000BF00E000BFFB7B002B0DD1494B60
:101D3000DB6823F073027B6819687B685B68013B92
:101D40001B010B4343491343CB60FB7B002B7CD12E
:101D5000404B1B683F4A23F080631360FEF7BAFCD8
:101D6000B86009E0FEF7B6FC0246BB68D31A022B46
:101D700002D90323FB7305E0364B1B6803F00063B5
:101D8000002BEFD1FB7B002B5FD13B68002B10D1E8
:101D9000304B1B6923F0784323F4FE437A68926842
:101DA00011027A68D268D2060A432A4913430B61AA
:101DB00027E03B68012B12D1264B1B6923F4C0039B
:101DC00023F4FE437A68926811027A681269520815
:101DD000013A52050A431F4913430B6111E01D4BA1
:101DE0001B6923F0C06323F4FE437A6892681102F2
:101DF0007A6852695208013A52060A431549134358
:101E00000B61144B1B68134A43F080631360FEF7A9
:101E100061FCB86009E0FEF75DFC0246BB68D31ABE
:101E2000022B02D90323FB7305E00A4B1B6803F066
:101E30000063002BEFD0FB7B002B06D1054B1A690A
:101E40007B689B69034913430B61FB7B1846103782
:101E5000BD4680BD0010024080B582B000AF786002
:101E60007B68002B01D1012340E07B685B6F002B76
:101E700006D17B68002283F87020786800F0FEFEAF
:101E80007B6824225A677B681B681A687B681B681A
:101E900022F001021A60786800F0C0F80346012BB6
:101EA00001D1012322E07B685B6A002B02D07868B5
:101EB00000F0C2FB7B681B685A687B681B6822F4D1
:101EC00090425A607B681B689A687B681B6822F0A6
:101ED0002A029A607B681B681A687B681B6842F05C
:101EE00001021A60786800F048FC0346184608377B
:101EF000BD4680BD80B58AB002AFF860B9603B6076
:101F00001346FB80FB685B6F202B40F08180BB6831
:101F1000002B02D0FB88002B01D1012379E0FB6864
:101F200093F87030012B01D1022372E0FB6801228B
:101F300083F87020FB680022DA67FB6821225A6769
:101F4000FEF7C8FB7861FB68FA88A3F85020FB68AD
:101F5000FA88A3F85220FB689B68B3F5805F08D12C
:101F6000FB681B69002B04D10023FB61BB68BB61CC
:101F700003E0BB68FB610023BB612DE03B6800937D
:101F80007B6900228021F86800F03CFC0346002BAE
:101F900001D003233DE0FB69002B0BD1BB691A88FC
:101FA000FB681B68C2F3080292B21A85BB69023350
:101FB000BB6108E0FB691A78FB681B6892B21A855E
:101FC000FB690133FB61FB68B3F852309BB2013B04
:101FD0009AB2FB68A3F85220FB68B3F852309BB268
:101FE000002BCBD13B6800937B6900224021F8682D
:101FF00000F008FC0346002B01D0032309E0FB6836
:1020000020225A67FB68002283F87020002300E03A
:10201000022318462037BD4680BD00002DE9B04F91
:102020008AB000AFF8600023FB610023FB76002339
:102030007B61FB689A68FB681B691A43FB685B69F4
:102040001A43FB68DB6913437B62FB681B681A68F1
:10205000BB4B1340FA681268796A0B431360FB6844
:102060001B685B6823F44051FB68DA68FB681B68F7
:102070000A435A60FB689B697B62FB681B68B14A34
:10208000934204D0FB681B6A7A6A13437B62FB6845
:102090001B689B6823F43061FB681B687A6A0A43FB
:1020A0009A60FB681B68A84A934225D1A74BD3F8D6
:1020B000883003F00303032B1AD801A252F823F04F
:1020C000D1200008E1200008D9200008E9200008FC
:1020D000012387F82330ABE0022387F82330A7E001
:1020E000042387F82330A3E0082387F823309FE0F8
:1020F000102387F823309BE0FB681B68944A9342C7
:1021000038D1924BD3F8883003F00C030C2B2DD828
:1021100001A252F823F000BF4D2100086D210008F4
:102120006D2100086D2100085D2100086D21000867
:102130006D2100086D210008552100086D2100085F
:102140006D2100086D21000865210008002387F833
:1021500023306DE0022387F8233069E0042387F8F9
:10216000233065E0082387F8233061E0102387F8E7
:1021700023305DE0FB681B68764A934225D1734BA0
:10218000D3F8883003F03003302B16D0302B18D81A
:10219000202B0AD0202B14D8002B02D0102B08D0D3
:1021A0000FE0002387F8233042E0022387F8233032
:1021B0003EE0042387F823303AE0082387F82330F1
:1021C00036E0102387F8233032E0FB681B685D4A55
:1021D00093422AD15D4BD3F8883003F44063B3F5C2
:1021E000406F1AD0B3F5406F1BD8B3F5006F0CD019
:1021F000B3F5006F15D8002B03D0B3F5806F08D06E
:102200000FE0002387F8233012E0022387F8233001
:102210000EE0042387F823300AE0082387F82330F0
:1022200006E0102387F8233002E0102387F82330DC
:10223000FB681B68434A934240F0FC8097F82330C8
:10224000082B24D801A252F823F000BF7122000805
:102250008F220008792200088F2200087F220008C0
:102260008F2200088F2200088F2200088722000892
:10227000FFF75CFA78610DE0374B7B610AE0FFF70E
:10228000C1F9786106E04FF400437B6102E001236D
:10229000FB7600BF7B69002B00F0BF81FB685A68AA
:1022A00013465B0013447A699A4205D3FB685B6866
:1022B0001B037A699A4202D90123FB76ADE197F8B4
:1022C0002330082B00F2A38001A252F823F000BFB4
:1022D000F52200080F2400085D2300080F240008E1
:1022E000932300080F2400080F2400080F2400087F
:1022F000DF230008FFF71AFA034618464FF00001E3
:102300004FF000024FF000030B0243EA1063020299
:10231000F9684968490808464FF0000114183C6004
:102320004B417B60FB685B681A464FF00003D7E9BE
:102330000001FDF7B3FF02460B461346FB6169E05F
:10234000F369FFEF008000400038014000100240B8
:1023500000440040004800400024F400FB685B6833
:102360005B081A464FF00003B2484FF0000112EB31
:10237000000A43EB010BFB685B681A464FF0000351
:1023800050465946FDF78AFF02460B461346FB614D
:1023900040E0FFF737F9034618464FF000014FF0D1
:1023A00000024FF000030B0243EA10630202F968D7
:1023B0004968490808464FF0000112EB000843EB5A
:1023C0000109FB685B681A464FF000034046494626
:1023D000FDF764FF02460B461346FB611AE0FB68FB
:1023E0005B685B081A464FF0000312F5000443F1E6
:1023F0000005FB685B681A464FF00003204629463B
:10240000FDF74CFF02460B461346FB6102E0012339
:10241000FB7600BFFB69B3F5407F08D3FB69B3F5DA
:10242000801F04D2FB681B68FA69DA60F5E00123BB
:10243000FB76F2E0FB68DB69B3F5004F7FD197F8DC
:102440002330082B5BD801A252F823F07124000836
:102450008F240008AD240008FF240008C9240008C8
:10246000FF240008FF240008FF240008E7240008D8
:10247000FFF75CF903465A00FB685B685B081A4487
:10248000FB685B68B2FBF3F39BB2FB613AE0FFF7DA
:1024900063F903465A00FB685B685B081A44FB68F3
:1024A0005B68B2FBF3F39BB2FB612BE0FB685B68FC
:1024B0005B0803F1F47303F59043FA685268B3FBC9
:1024C000F2F39BB2FB611DE0FFF79CF803465A0054
:1024D000FB685B685B081A44FB685B68B2FBF3F35C
:1024E0009BB2FB610EE0FB685B685B0803F5803222
:1024F000FB685B68B2FBF3F39BB2FB6102E0012374
:10250000FB7600BFFB690F2B16D9FB69B3F5803F43
:1025100012D2FB699BB223F00F037B82FB695B083D
:102520009BB203F007039AB27B8A13437B82FB685A
:102530001B687A8ADA6070E00123FB766DE097F819
:102540002330082B58D801A252F823F07125000837
:102550008D250008A9250008F9250008C5250008D3
:10256000F9250008F9250008F9250008E1250008EB
:10257000FFF7DCF80246FB685B685B081A44FB68FF
:102580005B68B2FBF3F39BB2FB6138E0FFF7E4F862
:102590000246FB685B685B081A44FB685B68B2FB39
:1025A000F3F39BB2FB612AE0FB685B685B0803F511
:1025B000740303F51053FA685268B3FBF2F39BB24D
:1025C000FB611CE0FFF71EF80246FB685B685B08D6
:1025D0001A44FB685B68B2FBF3F39BB2FB610EE04D
:1025E000FB685B685B0803F50042FB685B68B2FB55
:1025F000F3F39BB2FB6102E00123FB7600BFFB69B2
:102600000F2B08D9FB69B3F5803F04D2FB681B6828
:10261000FA69DA6001E00123FB76FB6800221A66A2
:10262000FB6800225A66FB7E18462837BD46BDE887
:10263000B08F00BF000024F480B483B000AF786096
:102640007B685B6A03F00103002B0AD07B681B6880
:102650005B6823F400317B689A6A7B681B680A43D5
:102660005A607B685B6A03F00203002B0AD07B6828
:102670001B685B6823F480317B68DA6A7B681B68BF
:102680000A435A607B685B6A03F00403002B0AD09C
:102690007B681B685B6823F480217B681A6B7B680E
:1026A0001B680A435A607B685B6A03F00803002BCF
:1026B0000AD07B681B685B6823F400417B685A6B17
:1026C0007B681B680A435A607B685B6A03F01003EF
:1026D000002B0AD07B681B689B6823F480517B68C1
:1026E0009A6B7B681B680A439A607B685B6A03F09D
:1026F0002003002B0AD07B681B689B6823F40051E1
:102700007B68DA6B7B681B680A439A607B685B6A4C
:1027100003F04003002B1AD07B681B685B6823F42E
:1027200080117B681A6C7B681B680A435A607B685F
:102730001B6CB3F5801F0AD17B681B685B6823F4B0
:10274000C0017B685A6C7B681B680A435A607B68CF
:102750005B6A03F08003002B0AD07B681B685B6810
:1027600023F400217B689A6C7B681B680A435A60DB
:1027700000BF0C37BD4680BC704780B586B002AF45
:1027800078607B680022DA67FDF7A4FFF8607B6859
:102790001B681B6803F00803082B0ED16FF07E4303
:1027A0000093FB6800224FF40011786800F02AF8CB
:1027B0000346002B01D0032320E07B681B681B68C5
:1027C00003F00403042B0ED16FF07E430093FB68EB
:1027D00000224FF48001786800F014F80346002BC3
:1027E00001D003230AE07B6820225A677B682022FD
:1027F0009A677B68002283F8702000231846103700
:10280000BD4680BD80B584B000AFF860B9603B6064
:102810001346FB712AE0BB69B3F1FF3F26D0FDF7F9
:1028200059FF02463B68D31ABA699A4202D3BB6980
:10283000002B1BD1FB681B681A68FB681B6822F41D
:10284000D0721A60FB681B689A68FB681B6822F0EC
:1028500001029A60FB6820225A67FB6820229A676F
:10286000FB68002283F8702003230FE0FB681B68DD
:10287000DA69BB681340BA689A420CBF012300238F
:10288000DBB21A46FB799A42C5D0002318461037AE
:10289000BD4680BD80B485B000AF144BDB6C134ADD
:1028A00043F00403D364114BDB6C03F00403FB60BF
:1028B000FB680E4BDB6C0D4A43F08003D3640B4B7B
:1028C000DB6C03F08003BB60BB68084BDB6C074A22
:1028D00043F00103D364054BDB6C03F001037B6021
:1028E0007B6800BF1437BD4680BC704700100240B3
:1028F00080B584B000AFF860B9607A607B689AB246
:102900004FF6FF73B9680448FFF7F4FA7B6818467E
:102910001037BD4680BD00BF4C01002080B582B09D
:1029200000AF00237B60FDF783FE00F01FF8FFF788
:10293000B1FF00F073F90B4805F0D4FF05F092FEEB
:102940000346002B01D0012307E0074805F0CAFF2A
:1029500001F078FC05F06AFEFEE718460837BD4630
:1029600080BD00BF809700089097000880B5AEB08A
:1029700000AF07F1740344220021184605F024FF3C
:1029800007F1600300221A605A609A60DA601A61E7
:102990003B1D5C220021184605F016FF01237B67D2
:1029A0004FF48033BB670223C7F89C300323C7F87A
:1029B000A0300123C7F8A4301423C7F8A830072398
:1029C000C7F8AC300223C7F8B0300223C7F8B430E0
:1029D00007F174031846FEF745F90346002B01D0B2
:1029E00000F02FF80F233B6603237B660023BB66B2
:1029F0000023FB6600233B6707F1600304211846B0
:102A0000FEF71EFD0346002B01D000F01AF801234B
:102A10007B6000237B623B1D1846FEF713FF0346D5
:102A2000002B01D000F00DF84FF40070FEF7C6F84F
:102A30000346002B01D000F004F800BFB837BD46B4
:102A400080BD80B400AF00BFBD4680BC70470000B1
:102A500080B483B000AF0E4B1B6E0D4A43F00103F0
:102A600013660B4B1B6E03F001037B607B68084B06
:102A70009B6D074A43F080539365054B9B6D03F0B4
:102A800080533B603B6800BF0C37BD4680BC70473D
:102A90000010024080B400AF00BFBD4680BC70474C
:102AA00080B400AFFEE780B400AFFEE780B400AFB3
:102AB000FEE780B400AFFEE780B400AF00BFBD46C4
:102AC00080BC704780B400AF00BFBD4680BC70477B
:102AD00080B586B000AFF860B9607A6000237B6192
:102AE0000AE0AFF300800146BB685A1CBA60CAB264
:102AF0001A707B6901337B617A697B689A42F0DBEB
:102B00007B6818461837BD4680BD000080B584B08C
:102B100000AF7860114B1B68002B02D10F4B104A9D
:102B20001A600E4B1B68FB600C4B1A687B681344E1
:102B30006A46934207D905F00FFE03460C221A603D
:102B40004FF0FF3306E0054B1A687B681344034AD5
:102B50001360FB6818461037BD4680BD4801002051
:102B6000B807002080B483B000AF78604FF0FF3327
:102B700018460C37BD4680BC704780B483B000AFA8
:102B8000786039603B684FF400525A600023184661
:102B90000C37BD4680BC704780B483B000AF78600E
:102BA000012318460C37BD4680BC704780B485B001
:102BB00000AFF860B9607A60002318461437BD464C
:102BC00080BC704780B400AF124B1B68114A43F0C1
:102BD000010313600F4B00229A600E4B1B680D4AD5
:102BE00023F0A85323F4102313600A4B4FF48052B0
:102BF000DA60084B1B68074A23F480231360054BF7
:102C000000229A61044B4FF000629A6000BFBD46FB
:102C100080BC70470010024000ED00E080B500AFBE
:102C2000144B154A1A60134B4FF4E1325A60114BA2
:102C300000229A600F4B0022DA600E4B00221A61CC
:102C40000C4B0C225A610B4B00229A61094B00225B
:102C5000DA61084B00221A62064B00225A620548CC
:102C6000FFF7FAF80346002B01D0FFF7EAFE00BF9A
:102C700080BD00BF4C0100200038014080B58AB003
:102C800000AF786007F1140300221A605A609A605E
:102C9000DA601A617B681B68184A934229D1184B85
:102CA0001B6E174A43F480431366154B1B6E03F4E7
:102CB00080433B613B69124BDB6C114A43F00103DB
:102CC000D3640F4BDB6C03F00103FB60FB684FF434
:102CD000C0637B610223BB610023FB6103233B6272
:102CE00007237B6207F1140319464FF09040FDF76C
:102CF000DFFD00BF2837BD4680BD00BF0038014062
:102D000000100240DFF834D0002103E00C4B5B5888
:102D1000435004310B480C4B42189A42F6D30B4AED
:102D200002E0002342F8043B094B9A42F9D3FFF733
:102D300049FF05F017FDFFF7F1FDFEE70000012058
:102D400068AA0008000000202801002028010020B7
:102D5000B8070020FEE780B500AFFDF768FA00BFB6
:102D600080BD000080B582B000AFFDF755FA7860F5
:102D700001F076FB0346283B0B4A53600A4B1A6866
:102D8000094B5B689A4209D0084B1B88002B05D180
:102D90007868FDF749FAFDF74AFA02E07868FDF72E
:102DA00043FA0837BD4680BDAC050020B4050020BD
:102DB00080B400AF72B600BFFEE7000080B586B0F9
:102DC00000AFF860B9607A60BA684FF0CA317868CD
:102DD00005F0FAFC7B684FF0CC321A607A68BB6869
:102DE0001344443B7B617B694FF004321A607B697A
:102DF0004FF005325A607B694FF006329A607B696A
:102E00004FF00732DA607B694FF008321A617B6954
:102E10004FF009325A617B694FF010329A617B6939
:102E20004FF01132DA617B6900221A627B69FA681D
:102E30005A627B694FF001329A627B694FF002322D
:102E4000DA627B694FF003321A637B694FF012320A
:102E50005A63074A7B699A63064A7B69DA637B692E
:102E60004FF080721A647B6918461837BD4680BDE2
:102E7000B12D00089555000880B483B000AF03461B
:102E80003960FB7197F90730002B0ADB3B68DAB237
:102E90000C4997F907301201D2B20B4483F8002392
:102EA0000AE03B68DAB20849FB7903F00F03043B00
:102EB0001201D2B20B441A7600BF0C37BD4680BC5B
:102EC000704700BF00E100E000ED00E080B582B097
:102ED00000AF78607B68013BB3F1807F01D30123B1
:102EE0000FE00A4A7B68013B53600F214FF0FF302F
:102EF000FFF7C2FF054B00229A60044B07221A60BD
:102F0000002318460837BD4680BD00BF10E000E032
:102F100080B582B000AF184B1B68002B04D0164B55
:102F20001B68B3F57A7F01D2144B21E0124B1B686A
:102F3000134AA2FB03239B09124A136012494FF064
:102F400000024FF00003C1E900230B4B1B680C4A41
:102F5000A2FB03239B091846FFF7B8FF78607B6844
:102F6000012B01D1094B03E0094B01221A60002318
:102F700018460837BD4680BD080000200004000246
:102F8000D34D6210500700204807002002040002C1
:102F90005407002080B483B000AFEFF305837B605B
:102FA0007B6818460C37BD4680BC704780B500AFC3
:102FB000084B1B68002B02D002F0E2FF08E0064B32
:102FC000D3E90023501C43F10001034BC3E9000186
:102FD00000BF80BD540700204807002080B582B0A4
:102FE00000AF00237B604FF480712B4804F00EFE8D
:102FF00038603B68002B0BD1284805F073FC042196
:10300000254804F0B7FE78607B68002B0AD104E005
:10301000234805F067FC012339E0224805F062FCF3
:10302000012334E0204805F05DFC7B684FF44F72CB
:103030001A607B681B6819461C4805F0CDFB79684F
:10304000154804F0C8FE38603B68002B0ED11848C4
:1030500005F048FC0021092000F0EAFF38603B68D9
:10306000002B13D0134805F03DFC0FE0124805F08B
:1030700039FC0121092000F0DBFF38603B68002BA0
:1030800002D00C4805F02EFC012300E00023184676
:103090000837BD4680BD00BFCC010020A4970008C2
:1030A000B8970008D0970008E4970008F497000844
:1030B00004980008149800083098000880B582B081
:1030C00000AF00237B600121174805F085FB6423D6
:1030D00004220121154803F01FF838603B68012BDA
:1030E0000FD13968124805F077FB0021012000F06C
:1030F0009FFF78607B68002B12D00E4805F0F2FB32
:103100000EE00D4805F0EEFB0121012000F090FFDC
:1031100078607B68002B03D0064805F0E3FB00BF16
:1031200000BF0837BD4680BD44980008D00200208B
:10313000689800088C980008A898000880B588B0A6
:1031400000AF284802F08EFFF861FB69002B04D025
:10315000254805F0C7FB012340E03B1D1822002154
:10316000184605F031FB214B7B60214B7B614FF40E
:1031700034733B6105233B813B1D19461D4802F01A
:103180003FFBF861FB69002B04D01B4805F0AAFB4C
:10319000012323E0194805F0A5FB0121114803F0A4
:1031A0006FF8F861FB69002B04D0154805F09AFB15
:1031B000012313E00B4B1B681946124805F00CFB6A
:1031C000084B1B68DB431946064803F0D5F8054B4E
:1031D0001B6819460B4805F0FFFA002318462037F4
:1031E000BD4680BDD0020020CC980008BD3000084C
:1031F000E4980008CC020020F09800080899000824
:10320000309900084899000880B483B000AF786016
:103210007B687A685A607B687A681A6000BF0C37EE
:10322000BD4680BC704780B483B000AF7860396021
:103230007B685A683B685A603B687A681A607B68AA
:103240005B683A681A607B683A685A6000BF0C375E
:10325000BD4680BC704780B582B000AF78603960F1
:103260007B681B6839681846FFF7DDFF00BF083729
:10327000BD4680BD80B483B000AF78607B685B687A
:103280007A6812681A607B681B687A6852685A60AC
:103290007B6800225A607B6800221A6000BF0C37EE
:1032A000BD4680BC704780B483B000AF78607B6857
:1032B0005B687A689A420CBF01230023DBB2184690
:1032C0000C37BD4680BC704780B586B000AF002388
:1032D0007B615B4805F006FB5A4B1B6808211846CA
:1032E00004F048FD38613B69002B04D1564805F0D5
:1032F000F9FA01239FE03869FFF786FF3869FFF785
:10330000D2FF0346002B04D1504805F0EBFA01230D
:1033100091E04F4805F0E6FA4A4B1B680821184631
:1033200004F028FDF860FB68002B04D1494805F043
:10333000D9FA01237FE0434B1B680821184604F0AB
:1033400019FDB860BB68002B0AD13F4805F0CAFAE6
:103350003C4B1B68F968184604F03DFD01236AE008
:10336000384B1B680821184604F004FD78607B6820
:10337000002B10D1344805F0B5FA324B1B68F968C0
:10338000184604F028FD2F4B1B68B968184604F056
:1033900022FD01234FE0F9683869FFF744FFB9685F
:1033A000F868FFF740FFFB681B683A699A4204D04F
:1033B000BB681B68FA689A4202D1274805F092FA66
:1033C00079683869FFF747FF7B681B68BA689A42DB
:1033D00002D1224805F086FA214805F083FAF86800
:1033E000FFF748FF174B1B68F968184604F0F3FC19
:1033F0003B695B68BA689A420ED11A4805F072FAC6
:103400000021072000F014FE78617B69002B11D0A9
:10341000154805F067FA0DE0144805F063FA01213C
:10342000072000F005FE78617B69002B02D00E4872
:1034300005F058FA002318461837BD4680BD00BF76
:10344000589900089C07002068990008789900089E
:103450008C990008AC990008BC990008D099000824
:10346000E4990008F8990008109A0008289A0008C2
:1034700080B586B000AF786000237B6100233B619C
:103480001223FB601CE07B69DAB2FB68023B30323E
:10349000D1B20F4AD1547B6901337B610D4B18685F
:1034A0000023FA680A4903F0CBFD38613B69002B21
:1034B00003D03969084805F08FF9052002F00EFCA9
:1034C0007B69042BDFD9002318461837BD4680BD21
:1034D0000C000020DC0200203C9A000880B586B079
:1034E00000AF786000233B6100237B61254B1868A7
:1034F00007F10C010023182203F07FFD38613B69BE
:10350000002B05D03969204805F066F900BF0EE0B0
:10351000FB6819461D4805F05FF97B6901337B6143
:10352000052002F0DBFBE1E7012002F0D7FB154BA1
:103530001B68184603F0AAFD0346002BF4D114487B
:1035400005F0D0F97B69052B0BD10021022000F09A
:103550006FFD38613B69002B0ED00E4805F0C2F9B3
:103560000AE00121022000F063FD38613B69002B75
:1035700002D0084805F0B6F9002318461837BD46B2
:1035800080BD00BFDC020020609A0008849A000819
:10359000989A0008B49A000880B58CB002AF002356
:1035A0007B62244B7B6009233B814FF434733B6186
:1035B000214B7B6102F0ACFC3A1D07F12003114660
:1035C000184602F01DF978627B6A002B05D0796AF3
:1035D0001A4805F001F97B6A28E0194B7B603A1D17
:1035E00007F11C031146184602F00AF978627B6A5B
:1035F000002B05D0796A134805F0EEF87B6A15E0D8
:10360000182300930023104A0521104803F034FAD0
:1036100078627B6A002B03D0796A0D4805F0DCF8EC
:103620000C4805F05FF902F089FC002318462837A2
:10363000BD4680BD71340008D09A0008DC9A0008AD
:10364000DD340008009B0008DC020020249B0008F9
:103650002C9B0008509B000880B582B000AF214829
:1036600005F040F9204B1B680A21184602F0F8FFCC
:1036700078607B68002B08D11C4805F033F91A4BA1
:103680001B68184603F0C2F828E07B68184A93428A
:1036900021D1184805F026F9134B1B684FF0FF3174
:1036A000184602F0DDFF78607B68002B13D11248CA
:1036B00005F018F90C4B1B68184603F0A7F8002119
:1036C000042000F0B5FC78607B68002B05D00B4827
:1036D00005F008F901E000BF00E000BF0837BD4673
:1036E00080BD00BF6C9B0008E0020020949B000896
:1036F000071D0002B49B0008EC9B0008209C0008FA
:1037000080B582B000AF124805F0ECF8114B1B6891
:103710004FF0FF31184602F0A3FF78607B68002B62
:1037200003D00D4805F0DEF80EE00C4805F0DAF89D
:10373000642002F0D3FA0A4805F0D4F8054B1B6860
:10374000184603F063F800BF0837BD4680BD00BFD0
:103750003C9C0008E0020020649C0008849C000857
:10376000B89C000880B58EB000AF284802F0C4FEB7
:1037700002F0CEFB07F11C0318220021184605F0C9
:1037800023F8234BFB61234BFB624FF43473BB6282
:1037900005233B8407F11C0319461F4802F030F84B
:1037A00078637B6B002B04D01C4805F09BF8012349
:1037B00028E03B1D18220021184605F005F8184B9B
:1037C0007B60184B7B614FF434733B6104233B8176
:1037D0003B1D1946144802F013F878637B6B002BED
:1037E00004D0124805F07EF801230BE002F0A6FB9E
:1037F0004FF4967002F072FA044B1B68184602F000
:10380000CFFE002318463837BD4680BDE0020020B9
:1038100059360008E49C0008E4020020F09C0008EF
:1038200001370008089D0008E8020020149D0008E8
:1038300080B582B000AF1F4805F054F81E4B1B68DE
:103840000A21184603F008FE78607B68002B05D13A
:10385000194B1B68184603F0ADFE28E07B68174A39
:10386000934221D1164805F03DF8134B1B684FF0E9
:10387000FF31184603F0F0FD78607B68002B13D110
:10388000104805F02FF80C4B1B68184603F092FE09
:103890000021032000F0CCFB78607B68002B05D072
:1038A000094805F01FF801E000BF00E000BF08373D
:1038B000BD4680BD2C9D0008F402002007070002D1
:1038C000689D0008AC9D0008EC9D000880B582B0A2
:1038D00000AF104805F006F80F4B1B684FF0FF31A2
:1038E000184603F0B9FD78607B68002B02D10B48C5
:1038F00004F0F8FF142002F0F1F9094804F0F2FF97
:10390000054B1B68184603F055FE00BF0837BD463F
:1039100080BD00BF089E0008F4020020409E000801
:10392000809E000880B58EB000AF00237B633149D4
:10393000002003F027FD02F0EBFA07F11C03182228
:103940000021184604F040FF2B4BFB612B4BFB6220
:103950004FF43473BB6205233B8407F11C03194603
:10396000274801F04DFF78637B6B002B04D025487E
:1039700004F0B8FF012338E03B1D1822002118464F
:1039800004F022FF204B7B60204B7B614FF43473AB
:103990003B6104233B813B1D19461D4801F030FF6C
:1039A00078637B6B002B0FD01A4804F09BFF144BFD
:1039B0001B68184602F092F80346002B02D0164806
:1039C00004F090FF012310E002F0B8FA094B1B68E5
:1039D000184603F0EFFD7863282002F07FF9054BCD
:1039E0001B68184603F0E0FC7B6B18463837BD4671
:1039F00080BD00BFF402002031380008A89E0008F6
:103A0000EC020020B49E0008CD380008CC9E0008CF
:103A1000F0020020D89E0008F09E000880B584B017
:103A200000AF0023FB600323BB6030237B60BA68D8
:103A300079682E4804F0C4FC38603B68002B04D041
:103A40002B4804F04FFF01234BE02A4804F04AFFC3
:103A5000264804F015FDF860FB68002B04D12648C9
:103A600004F040FF01233CE0244804F03BFFFB68E6
:103A70004FF44F721A60FB681B681946204804F027
:103A8000ABFEF968194804F069FDFB681B6819462C
:103A90001C4804F0A1FEF968144804F029FD3860C0
:103AA0003B68002B0ED1184804F01CFF00210820B1
:103AB00000F0BEFA38603B68002B11D0134804F0C8
:103AC00011FF0DE0124804F00DFF0121082000F065
:103AD000AFFA38603B68002B02D00C4804F002FFBC
:103AE000002318461037BD4680BD00BFF8020020F5
:103AF000089F0008209F0008349F0008509F00087E
:103B0000649F0008749F0008989F0008AC9F0008FD
:103B1000C89F0008B0B586B000AF00237B6101F0FC
:103B2000ADF938613B69002B03D03969234804F0B3
:103B300053FE01F097F9C7E90201D7E902231343C5
:103B400004D0BB6819461E4804F046FEC82002F0A7
:103B5000C5F801F087F9C7E90001D7E9002313434D
:103B600004D03B681946174804F036FED7E9000137
:103B7000D7E90223841A61EB0305002D08BFC82C86
:103B80000CD30021052000F053FA78617B69002BEB
:103B900002D00D4804F0A6FE00230BE00121052011
:103BA00000F046FA78617B69002B02D0064804F0E9
:103BB00099FE012318461837BD46B0BD00A0000885
:103BC00020A000083CA0000864A0000880B582B0D6
:103BD00000AF00237B60254804F084FE052002F03E
:103BE0007DF878607B68002B04D0214804F07AFED1
:103BF000012337E01F4804F075FE1F4B1B68184671
:103C000001F0D8FE78607B68002B0FD01B4804F0D1
:103C100069FE0121002000F00BFA78607B68002B20
:103C200002D0174804F05EFE01231BE0154804F0A3
:103C300059FE0021002000F0FBF978607B68002B22
:103C400002D00F4804F04EFE0B4B1B68184601F0E3
:103C500045FF0346002B04D00B4804F043FE01232C
:103C600000E0002318460837BD4680BD80A000084C
:103C700098A00008ACA0000838050020C8A00008E3
:103C8000E0A00008FCA000081CA1000880B582B0DC
:103C900000AF1E4804F026FE0A2002F01FF87860EC
:103CA0007B68002B04D01A4804F01CFE012329E095
:103CB000184804F017FE184B1B68184601F004FE64
:103CC00078607B68002B0FD0144804F00BFE0121B4
:103CD000002000F0ADF978607B68002B02D010481E
:103CE00004F000FE01230DE00E4B1B68184601F0A6
:103CF000F5FE0346002B04D00B4804F0F3FD01232E
:103D000000E0002318460837BD4680BD34A10008F6
:103D10004CA1000864A100083805002088A1000813
:103D2000E0A000083C050020A0A1000880B588B0F4
:103D300000AF02F0EDF8264804F0D4FD254B7B607F
:103D400004233B81244B7B614FF434733B613B1D67
:103D50001946224801F054FDF861FB69002B06D09A
:103D600002F0ECF81E4804F0BDFD01232CE01D48D4
:103D700004F0B8FD1C4B7B6005233B811B4B7B6132
:103D80004FF434733B613B1D1946194801F038FD6F
:103D9000F861FB69002B11D0104B1B68184601F02D
:103DA0009DFE0346002B02D0124804F09BFD02F05A
:103DB000C5F8114804F096FD012305E00F4804F012
:103DC00091FD02F0BBF8FB6918462037BD4680BD67
:103DD000B8A10008CD3B0008D4A100083805002098
:103DE000E0A1000800A200088D3C000820A2000805
:103DF0003C0500201CA100082CA200084CA20008D1
:103E000080B584B000AF78600C4B1B6801330B4A5F
:103E1000136001F027F802460B461346FB60074B80
:103E20001B681946064804F0D7FCF968054804F0F9
:103E3000D3FC00BF1037BD4680BD00BF4005002049
:103E40006CA2000884A2000880B584B000AF78603E
:103E50000023FB6001F006F802460B461346BB60E8
:103E60000E4B1B6801330D4A13600C4B1B6819463F
:103E70000B4804F0B1FCB9680A4804F0ADFC00211D
:103E8000062000F0D5F8F860FB68002B02D0064849
:103E900004F028FD00BF1037BD4680BD440500205A
:103EA00098A20008B0A20008C4A2000880B586B09D
:103EB00004AF00237B60BB1C00220292012201920E
:103EC000012200924A4A00214FF47A7000F002FE6B
:103ED00078607B68002B03D0464804F003FD02E0C5
:103EE000454804F0FFFC3B46002202920122019269
:103EF00001220092414A0121642000F0EBFD78602C
:103F00007B68002B03D03E4804F0ECFC02E03D4807
:103F100004F0E8FC7B88184600F05EFE78607B6861
:103F2000002B03D0384804F0DDFC02E0374804F0F1
:103F3000D9FCC82001F0D2FE7B88184600F0F0FEC4
:103F400078607B68002B03D0314804F0CBFC02E0A2
:103F5000304804F0C7FC7B88184600F03DFE7860CE
:103F60007B68002B02D0284804F0BCFC4FF47A7028
:103F700001F0B4FE7B88184600F024FF78607B686F
:103F8000002B03D0244804F0ADFC02E0234804F0E9
:103F9000A9FC3B88184600F01FFE78607B68002B68
:103FA00003D01F4804F09EFC02E01E4804F09AFC77
:103FB0004FF47A7001F092FE3B88184600F0B0FE94
:103FC00078607B68002B02D0174804F08BFC3B889C
:103FD000184600F0F7FE78607B68002B02D013488B
:103FE00004F080FC002318460837BD4680BD00BFA2
:103FF000013E0008E0A20008F8A20008493E0008BF
:1040000014A300082CA3000848A3000860A300081C
:1040100078A3000890A30008A8A30008C0A3000884
:10402000D8A30008F0A3000808A4000820A40008F2
:1040300080B584B000AF03460A46FB711346BB71DE
:104040000023FB60FB79092B06D9FB79194616483A
:1040500004F0C2FB012323E00023FB6012E0134ABB
:10406000FB681B0113441B78FA799A4207D10F4A67
:10407000FB681B0113440133BA791A7005E0FB6831
:104080000133FB60FB68092BE9D9FB680A2B06D1D9
:10409000FB791946064804F09FFB012300E000234A
:1040A00018461037BD4680BD38A400082000002007
:1040B00054A4000880B586B000AF0346FB7100230E
:1040C000FB60FF23FB74FB79092B06D9FB791946AA
:1040D0003E4804F081FB012373E000237B6162E032
:1040E0003B4A7B691B0113441B78FA799A4257D1EA
:1040F000374A7B691B01134404331B68002B06D12C
:10410000FB791946334804F067FB012359E0304A34
:104110007B691B01134404331B689847F8602C4AE1
:104120007B691B01134401331B78002B0ED1FB6804
:10413000002B0BD17B691B010833254A1344194618
:10414000254804F049FB0023FB7414E0204A7B69F6
:104150001B01134401331B78012B0CD10123FB7489
:104160007B691B0108331A4A13441C4A126819461A
:104170001B4804F031FB642001F0B0FD144A7B6958
:104180001B01134401331B78FF2BC8D0104A7B69F5
:104190001B01134401331B78FA7C9A42BFD105E01E
:1041A0007B6901337B617B69092B99D97B690A2B78
:1041B00001D1012305E0FB7C002B01D0012300E0AD
:1041C000002318461837BD4680BD00BF38A400083C
:1041D0002000002074A40008A4A4000848050020C2
:1041E000BCA4000880B582B000AF00233B60124B36
:1041F00000221A60114804F075FB00237B6010E078
:104200007B68DBB21846FFF755FF38603B68002B30
:1042100004D0094B1B680133074A13607B680133E4
:104220007B607B68092BEBD9034B1B68194604485C
:1042300004F0D2FAFEE700BF48050020E8A4000819
:1042400000A5000880B588B000AF3B1D18220021F2
:10425000184604F0B9FA0C4B7B604FF434733B61A1
:104260000A4B7B6109233B813B1D1946084801F03D
:10427000C7FAF861FB69002B01D0012300E000239D
:1042800018462037BD4680BDE54100082CA5000832
:104290004C05002080B483B000AF78607B687A68FA
:1042A0005A607B687A681A6000BF0C37BD4680BCD4
:1042B000704780B483B000AF786039607B685A681B
:1042C0003B685A603B687A681A607B685B683A684A
:1042D0001A607B683A685A6000BF0C37BD4680BCE4
:1042E000704780B582B000AF786039607B681B682A
:1042F00039681846FFF7DDFF00BF0837BD4680BDAF
:1043000080B483B000AF78607B685B687A681268BD
:104310001A607B681B687A6852685A607B68002262
:104320005A607B6800221A6000BF0C37BD4680BC13
:10433000704780B483B000AF78607B685B687A6850
:104340009A420CBF01230023DBB218460C37BD464E
:1043500080BC704780B582B000AF00237B60002333
:104360003B604FF480733B60114B1B683968184603
:1043700003F000FD03460F4A13600E4B1B68002B31
:1043800011D000237B600AE00A4B1A687B68DB00CF
:1043900013441846FFF77EFF7B6801337B607B6820
:1043A0001F2BF1D900E000BF0837BD4680BD00BF1C
:1043B0009C0700205005002080B582B000AF7860D7
:1043C0003960104B1A683B68DB0013441846FFF74E
:1043D000B0FF0346002B08D04FF000423B68DA40A4
:1043E000094B1B681343084A1360064B1A683B6865
:1043F000DB00134479681846FFF773FF00BF0837E6
:10440000BD4680BD500500205405002080B584B015
:1044100000AF78607868FFF773FF7B68283BFB602C
:104420000D4B1A68FB68DB88DB0013441846FFF766
:1044300080FF0346002B0BD0FB68DB881A464FF049
:104440000043D340DA43054B1B681340034A136013
:1044500000BF1037BD4680BD500500205405002028
:1044600080B483B000AF00237B600B4B1B68002B34
:104470000BD0094B1B68B3FA83F37B60074B1A68B8
:104480007B68DB0013445B6800E0002318460C37B0
:10449000BD4680BC704700BF540500205005002079
:1044A00080B485B000AF78600023FB600023BB6060
:1044B0000D4B1A687B68DB0013445B68BB6005E04A
:1044C000FB680133FB60BB685B68BB60064B1A6826
:1044D0007B68DB001344BA689A42F1D1FB68184646
:1044E0001437BD4680BC704750050020B0B588B079
:1044F00000AF08237B60124B18683A1D07F10801D2
:104500004FF0FF3302F034FDF861FB69002BF2D16C
:104510007B68082BEFD1BB68002BECD000F0A2FC2D
:10452000C7E90401BB68FA681046984700F09AFC96
:10453000D7E90423841A61EB0305C7E90445DAE7E8
:104540005805002080B588B000AF3B1D182200211F
:10455000184604F039F90A4B7B604FF480533B61F5
:10456000084B7B6100233B813B1D1946064801F047
:1045700047F9F861FB6918462037BD4680BD00BF8A
:10458000ED44000838A50008C005002080B588B0BB
:1045900002AF402200212B4804F016F92A4B0022DA
:1045A0001A604FF4E073BB60284B1B68B96818466B
:1045B00003F0E0FB38613B69002B01D1244B3DE067
:1045C000BA680021386904F0FFF8224A3B69136099
:1045D000214A3B6913603B6900221A813B69FB60F9
:1045E0003B691C333B610123FB820DE03B69FA8A86
:1045F0001A81FB683A691A603B69FB60FB8A0133E8
:10460000FB823B691C333B61FB8A0F2BEED90823ED
:1046100000930023114A1021002002F02DFA786047
:104620007B68002B01D00E4B08E0FFF78BFF786012
:104630007B68002B01D00B4B00E000231846183795
:10464000BD4680BD68050020640500209C07002051
:10465000070300025C0500206005002058050020CB
:104660000B0300020C03000280B48FB000AF78602F
:1046700000237B6300233B634FF0FF33FB624FF06B
:10468000FF33BB6210237B6210233B620023BB61BC
:104690007B681A697B68DA607B681B8903F00F030B
:1046A000FB82FB8A994A52F8233003F06043B3F14E
:1046B000C04F40F0B480FB8A944A52F82320FB8A12
:1046C00042F00042914941F82320FB8A8F4A52F878
:1046D000233023F07F433B610023FB8354E0FB8BBB
:1046E0008A4A52F8233023F07F43FB60FB68002B9B
:1046F00046D0FA8BFB8A9A4242D0FB8B834A52F80F
:10470000233003F04043B3F1404F39D1FA683B699D
:104710009A4218D3FB683A69B3FBF2F2396901FB9C
:1047200002F29B1A002B0ED1FA683B69B2FBF3F33D
:10473000FA6A9A4225D9FA683B69B2FBF3F3FB6245
:10474000FB8B7B621DE0FA683B699A4219D23B6998
:10475000FA68B3FBF2F2F96801FB02F29B1A002B34
:104760000FD13A69FB68B2FBF3F3BA6A9A4208D9EF
:104770003A69FB68B2FBF3F3BB62FB8B3B6200E080
:1047800000BFFB8B0133FB83FB8B0F2BA7D97B6A0D
:10479000102B31D05E4B1B683B6314E03B6BDB6836
:1047A000BA691344BB613B6B19895A4B18687A6A22
:1047B0001346DB009B1A9B0003441B89994206D0D9
:1047C0003B6B1B683B633B6B002BE7D100E000BFFA
:1047D0003B6B002B60D07B6819693B6B1A69BB6926
:1047E000D31A7A681269B3FBF2F002FB00F29B1A4B
:1047F000CA1A7B68DA604FE03B6A102B4CD07B68AA
:104800000022DA60434B19683A6A1346DB009B1AB0
:104810009B000B447B637B6B1B683B6357E0FB8A0D
:104820003A4A52F8233003F06043B3F1804F33D15A
:10483000FB8A364A52F82320FB8A42F00042334971
:1048400041F82320324B1B683B6314E03B6B1A6931
:104850007B681B699A420BD13B6B1B8903F00F03EA
:104860002A4A52F8233003F04043B3F1404F06D0B8
:104870003B6B1B683B633B6B002BE7D100E000BF49
:104880003B6B002B08D07B680022DA603B6B7B63BC
:104890003B6B1B683B631AE01D4B1B683B6311E0DD
:1048A0003B6BDA687B68DB689A420FD87B68DA6812
:1048B0003B6BDB68D21A7B68DA603B6B7B633B6BDC
:1048C0001B683B633B6B002BEAD100E000BF7B68B9
:1048D0003A6B1A603B6B002B06D03B6BDA687B6847
:1048E000DB68D21A3B6BDA607B6B002B03D1084A82
:1048F0007B68136002E07B6B7A681A607B68022237
:104900001A7100BF3C37BD4680BC70476805002067
:10491000640500205C05002080B483B000AF78609F
:104920000B4B1A687B681A60094A7B6813607B68C6
:1049300000221A717B681B8903F00F03054A0021CE
:1049400042F8231000BF0C37BD4680BC704700BF43
:10495000600500206805002080B485B000AF786055
:104960000023FB600023BB60224B1B68002B3CD064
:10497000204B1B68BB6004E0BB68FB60BB681B6826
:10498000BB60BA687B689A42F6D1BB681B68002B93
:1049900008D0BB681B68D968BB68DA68BB681B684D
:1049A0000A44DA60FB68002B04D1BB681B68114A1B
:1049B000136003E0BB681A68FB681A60BB680022DA
:1049C0001A60BB6801221A717B681B8903F00F0310
:1049D000094A52F823207B681B8903F00F0322F059
:1049E0000042054941F8232000E000BF1437BD46CE
:1049F00080BC7047640500206805002080B584B045
:104A000000AF274B1B68FB603EE0FB681B68244A35
:104A10001360FB689B697B60FB685B69BB60214B33
:104A20001868391D0023082202F0C4FAFB685B797C
:104A3000002B17D1F868FFF76FFFFB681B894FF653
:104A4000DF72934206D8FB681B8910339AB2FB6869
:104A50001A8116E0FB681B8903F00F039AB2FB680A
:104A60001A810EE0FB685B79012B03D1F868FFF730
:104A7000FBFD06E0FB685B79022B02D1FB6801229B
:104A80001A71074B1B68FB60FB68002B03D0FB68A7
:104A9000DB68002BB9D000BF1037BD4680BD00BF1A
:104AA000640500205805002080B500AF084B1B6846
:104AB000002B09D0064B1B68DA68013ADA60DB6824
:104AC000002B01D1FFF79AFF0023184680BD00BFDD
:104AD0006405002080B586B000AFF8607A603B6066
:104AE0000B46FB72FB68002B01D1334B60E0FB7A75
:104AF000002B07D0FB7A012B04D0FB7A022B01D0CC
:104B00002E4B55E07B68002B01D12D4B50E03B68CC
:104B1000002B01D12B4B4BE097F82430002B05D014
:104B200097F82430012B01D0274B41E097F828302B
:104B3000012B05D097F82830002B01D0234B37E00C
:104B4000FBF76AFB7861224B1B68002B04D1786964
:104B5000FBF76AFB1F4B2BE01D4B1B683B613B695E
:104B60001B681B4A13607869FBF75EFB3B697A6838
:104B70009A613B69FA7A5A713B69FA681A613B6932
:104B800000221A603B690022DA603B693A6A5A6186
:104B90003B6997F824209A713B6997F82820DA71CD
:104BA0003B6901221A713B691A893B681A8000230C
:104BB00018461837BD4680BD0103000202030002FB
:104BC00000030002030300021103000212030002AB
:104BD000600500200403000280B588B000AF0346E2
:104BE000FB800023FB61FB884FF6EF72934201D9F3
:104BF000454B85E0FBF710FBB861FB8803F00F0322
:104C0000FB82424B1968FA8A1346DB009B1A9B0011
:104C10000B443B613B691B89FA889A4204D0B8690E
:104C2000FBF702FB384B6BE03B69DB79012B4BD187
:104C30003B695B79012B47D13B691B8903F00F036B
:104C4000334A52F823203B691B8903F00F0342F0DB
:104C500080422F4941F823203B6919692D4BA3FB62
:104C60000123DA0813469B0013445B00CA1A002A8A
:104C70002AD13B691B8903F00F03254A52F82320F0
:104C80003B691B8903F00F0342F00052204941F8B1
:104C900023203B691B691F4AA2FB0323DB08FB603F
:104CA000FB6823F07F413B691B8903F00F03184A1F
:104CB00052F8233003F07F423B691B8903F00F0356
:104CC0000A43134941F823203B691B79022B09D081
:104CD000022B0EDC002B02D0012B06D009E00E4B7C
:104CE000FB6109E03869FFF737FE3869FFF7BCFC64
:104CF00002E00A4BFB6100BFB869FBF795FAFB695C
:104D000018462037BD4680BD050300025C05002023
:104D100068050020CDCCCCCC060300020E030002B7
:104D200080B586B000AF0346FB8000237B61FB8823
:104D30004FF6EF72934201D91D4B35E0FBF76CFA49
:104D40003861FB8803F00F03FB811A4B1968FA895D
:104D50001346DB009B1A9B000B44BB60BB681B899E
:104D6000FA889A4204D03869FBF75EFA104B1BE0D0
:104D7000BB681B79022B0CD0022B0EDC002B02D05F
:104D8000012B03D009E00C4B7B6109E00B4B7B61ED
:104D900006E0B868FFF7E0FD02E0094B7B6100BF69
:104DA0003869FBF741FA7B6918461837BD4680BD64
:104DB000050300025C050020060300020D0300024B
:104DC0000E03000280B586B000AF0346FB800023CF
:104DD0007B61FB884FF6EF72934201D91D4B35E0A2
:104DE000FBF71AFA3861FB8803F00F03FB811A4BBB
:104DF0001968FA891346DB009B1A9B000B44BB60C1
:104E0000BB681B89FA889A4204D03869FBF70CFA10
:104E1000104B1BE0BB681B79022B09D0022B0EDC68
:104E2000002B02D0012B06D009E00C4B7B6109E07E
:104E3000B868FFF791FDB868FFF76EFD02E0084B18
:104E40007B6100BF3869FBF7EFF97B6918461837BB
:104E5000BD4680BD050300025C050020060300027C
:104E60000E03000280B400AF034BD3E900231046C9
:104E70001946BD4680BC70474807002080B400AF8B
:104E8000044B1B68044AA2FB03239B091846BD463A
:104E900080BC704708000020D34D621080B483B0FE
:104EA00000AF78607B687A685A607B687A681A60BD
:104EB00000BF0C37BD4680BC704780B483B000AFE4
:104EC000786039607B685A683B685A603B687A68EA
:104ED0001A607B685B683A681A607B683A685A6057
:104EE00000BF0C37BD4680BC704780B582B000AFB4
:104EF000786039607B681B6839681846FFF7DDFF0A
:104F000000BF0837BD4680BD80B483B000AF786075
:104F10007B685B687A6812681A607B681B687A68CD
:104F200052685A607B6800225A607B6800221A60CF
:104F300000BF0C37BD4680BC704780B483B000AF63
:104F400078607B685B687A689A420CBF0123002313
:104F5000DBB218460C37BD4680BC704780B400AF4A
:104F6000FEE780B582B000AF78600B467B807B683F
:104F70009B8803F00403002B1FD07B68283318465E
:104F8000FFF744FA7B689B8823F004039AB27B689E
:104F90009A807B687A88DA807B689B8843F0040378
:104FA0009AB27B689A807B6803F128027B68DB8871
:104FB00019461046FFF700FA02E07B687A88DA802B
:104FC00000BF0837BD4680BD80B586B000AF7860B1
:104FD00039603B6803F01F03FB603B685B093B6182
:104FE000FB68002B02D13B69013B3B617B689B6BFB
:104FF00003F078423B691A437B689A63354B9B8880
:105000001A46FB681344FB60FB6803F01F03FB6058
:105010007B689B6B23F07842FB68DB061A437B6856
:105020009A632C4B1A68FB68DB001344BB60BB68B7
:105030005B68BA689A4206D17B6830331946B86813
:10504000FFF753FF41E0BB685B68303B7B617B69E6
:105050009B6B23F078427B689B6B23F078439A42EA
:1050600010D87B689B6B03F078427B689B6B23F0C6
:1050700078417B699B6B23F07843CB1A1A437B689A
:105080009A6310E07B699B6B03F078427B699B6BB2
:1050900023F078417B689B6B23F07843CB1A1A434B
:1050A0007B699A6308E07B695B6B303B7B617B6962
:1050B0003033BA689A42CAD17B6903F130027B6807
:1050C000303319461046FFF710FF00BF1837BD46B2
:1050D00080BD00BFDC05002080B586B000AF7860E1
:1050E0007B689B6BDB0E7B61134B1A687B69DB0073
:1050F00013443B617B685B6B3A699A4213D07B68CF
:105100005B6B303BFB60FB689B6B03F07842FB689A
:105110009B6B23F078417B689B6B23F078430B44B7
:105120001A43FB689A637B6830331846FFF7ECFE3E
:1051300000BF1837BD4680BDDC05002080B584B0B7
:1051400000AF0023BB604F4B9B8801335A4203F0F2
:105150001F0302F01F0258BF53429AB2494B9A8074
:10516000484B1A68474B9B88DB0013447B607B6885
:105170005B687A689A4200F081807B685B68303BAC
:10518000FB6070E0FB689B887B80FB689B6B23F077
:105190007843002B05D0FB689B6B5A1EFB689A6313
:1051A00066E0FB6830331846FFF7AEFE7B8803F0FD
:1051B00008039BB2002B12D0FB689B8823F00803E6
:1051C0009AB2FB689A80FB6828331846FFF79CFE6A
:1051D000FB6800229A61FB680022DA6127E07B8885
:1051E00003F480639BB2002B07D0FB689B8823F4F9
:1051F00080639AB2FB689A8019E07B8803F40053BD
:105200009BB2002B0CD0FB6828331846FFF77CFEBE
:10521000FB689B8823F400539AB2FB689A8006E0EF
:10522000FB689B8823F020039AB2FB689A807B88F6
:1052300003F002039BB2002B11D1FB689B8843F063
:1052400004039AB2FB689A80FB6803F12802FB68AA
:10525000DB8819461046FFF7AFF80123BB607B6877
:105260005B68303BFB60FB6830337A689A4289D1D7
:10527000BB68002B03D0FDF775FD00E000BF1037C1
:10528000BD4680BDDC05002080B584B000AF4C4B2E
:105290001B680133542202FB03F37B60494B1B68FC
:1052A0007968184602F066FD0346474A1360464B8C
:1052B0001B68002B01D1454B7DE0434B1B687A688E
:1052C0000021184603F080FA4148FFF7E7FD414806
:1052D000FFF7E4FD4048FFF7E1FD0023FB6020E01D
:1052E000394B1A68FB68542101FB03F31344012274
:1052F0009A80354B1A68FB68542101FB03F3134471
:10530000FA681A61304B1A68FB68542101FB03F3F9
:105310001344283319462F48FFF7E7FDFB68013394
:10532000FB60FB680F2BDBD9082200212B4803F020
:105330004BFA254B1A68224B1B68542101FB03F3DF
:105340001344264A1360254B1B68FA681A61234BE5
:105350001B6811229A80214B1B682022DA80FEF7FD
:10536000F9FF4FF480737B60164B1B687968184611
:1053700002F000FDB860BB68002B01D1134B1AE0AE
:105380007A680021B86803F01FFA154ABB681360F9
:10539000134B00229A800023FB6008E0B868FFF7F7
:1053A0007DFDFB680133FB60BB680833BB60FB68B5
:1053B0001F2BF3D9002318461037BD4680BD00BF10
:1053C000B80500209C070020A8050020000200036B
:1053D000C4050020CC050020D4050020AC05002029
:1053E000DC05002080B588B000AF3B1D18220021ED
:1053F000184603F0E9F90C4B7B604FF4A0633B6166
:105400000A4B7B611F233B813B1D1946084800F076
:10541000F7F9F861FB69002B01D0FB6900E000237C
:1054200018462037BD4680BD5D4F000828A70008FC
:10543000BC05002080B500AF414B1B68DB681B68D2
:10544000B3F1CC3F0CD03F4803F0C6F93C4B1B688E
:10545000596A3B4B1B681B691A463B4803F0BCF971
:10546000374B5B681B681A46354B5B68DB689A42B2
:105470000CD9334B5B681B681946314B5B68DA68A3
:105480002F4B5B689B68134499421AD92D4803F04F
:10549000A3F92B4B5B68596A294B5B681B691A4659
:1054A0002A4803F099F9274803F096F9244B5B68E2
:1054B0001B681946224B5B68DB681A46244803F0D8
:1054C0008BF91F4B5B681A69224B1B7891B2214AFA
:1054D0005B0013440A465A801E4B1B785B01103355
:1054E0001C4A1344981D164B5B685B6A20221946C0
:1054F00003F05CF9174B1B78164A5B0113443533F4
:1055000000221A70134B1B780133DAB2114B1A7058
:10551000104B1B780A2B09D10E4B00221A700D4B31
:105520005B7863F07F03DAB20A4B5A700A4B1B6850
:10553000002B02D0084B1B68984700BF80BD00BFFE
:10554000AC050020A4A5000834A700085CA700084B
:1055500080A70008F0050020EC05002080B500AF12
:105560004FF4AB720021074803F02EF9054B0A22D5
:105570005A70054B054A1A60054B00221A6000BF9D
:1055800080BD00BFF0050020E8050020355400086C
:10559000EC05002080B584B000AF78600C4B1A6831
:1055A0007B68542101FB03F31344FB60FB685B69D8
:1055B000FA68126A10469847064B00221A80FB6868
:1055C0001B69184600F08AFA00BF1037BD4680BD3F
:1055D000A8050020B405002080B588B000AF786031
:1055E000396000237B614FF0FF33BB617B68002B88
:1055F00001D1744BE2E03B68002B01D1724BDDE03E
:105600003B681B69002B01D1704BD7E03B681B68DE
:10561000002B01D16E4BD1E03B689B881F2B01D939
:105620006C4BCBE03B689B881F2B06D13B681B680B
:10563000694A934201D0674BC0E03B68DA68674B28
:10564000C3F1005303F580336548664901445B1A92
:105650009A4201D9644BB1E03B68DB68002B03D16F
:105660003B684FF43472DA603B68DB680821184607
:1056700002F08EFF02463B68DA603B68DB68B3F5F8
:10568000987F01D2594B99E0FAF7C6FDF8611DE009
:10569000574B5B68283B3B61554B5B681846FFF7EF
:1056A00033FC3B69283319465248FFF706FC4B4A46
:1056B0004B494C4B0B4413441A463B69DB68194673
:1056C000104602F088FB3B690022DA604848FFF789
:1056D00034FC0346002BDBD04648FFF72EFC034684
:1056E000002B02D0444BBB6164E0424B5B68283B1B
:1056F0003B61404B5B681846FFF706FCF869FAF718
:1057000093FD3B691B697B61344A3549354B0B443A
:10571000134418463B68DB680822194602F04BFB2D
:10572000F860FB68002B0BD1FAF776FDF8613B6956
:10573000283319462F48FFF7C0FB304BBB6139E0D7
:105740003B68DB68FA6819467869FDF737FBB86093
:105750003B69BA681A603B689A683B691A62FA68E2
:105760003B69DA603B68DA683B699A603B69002212
:105770009A613B690022DA613B6902229A803B68A8
:105780009A883B69DA803B681A683B695A613B69D1
:105790004FF0FF32DA633B6900229A643B681A6972
:1057A0003B695A623B6900221A657B687A691A6014
:1057B000002303E0F869FAF737FDBB691846203784
:1057C000BD4680BD07020002010200020502000280
:1057D00004020002030200025D4F00080002000004
:1057E000B8070020000400002002000206020002A8
:1057F000D4050020CC0500201102000200020003A5
:1058000080B586B000AF7860396000237B6139686D
:105810007868FFF7E1FE78617B69002B01D07B6936
:1058200045E0254B1A687B681B68542101FB03F394
:1058300013443B61FAF7F0FCF8603B699B8823F066
:1058400002039AB23B699A803B699B8843F0040348
:105850009AB23B699A803B6903F128023B69DB8875
:1058600019461046FEF7A8FDFEF7FAFD0346283B51
:10587000124A5360124B1B68002B14D0114B1B882B
:10588000002B10D10D4B1A680C4B5B689A420AD062
:105890000C4B1B88002B06D1F868FAF7C5FCFDF706
:1058A0005AFA002303E0F868FAF7BEFC0023184612
:1058B0001837BD4680BD00BFA8050020AC050020FC
:1058C000E4050020B405002080B586B000AF786004
:1058D0004FF0FF337B617B680F2B01D92F4B58E0D2
:1058E0002F4B1A687B68542101FB03F313443B617F
:1058F000FAF792FCF8603B699B887B817B8903F017
:1059000001039BB2002B02D0264B7B613DE07B89DB
:1059100003F002039BB2002B02D1234B7B6134E0E6
:105920003B699B8823F002039AB23B699A803B69EA
:105930009A8842F22A4313409BB2002B20D13B6944
:105940009B8843F004039AB23B699A803B6903F158
:1059500028023B69DB8819461046FEF72DFD134BE4
:105960001B68002B06D0F868FAF75EFCFDF7FAF921
:1059700000230EE0FEF774FD0346283B0C4A5360FB
:10598000F868FAF751FC002303E0F868FAF74CFCDA
:105990007B6918461837BD4680BD00BF070200026C
:1059A000A80500200A02000209020002E405002006
:1059B000AC05002080B586B000AF78604FF0FF33B3
:1059C0007B613A4B1B687A689A4201D1384B69E097
:1059D000384B1B687A689A4201D1374B62E0374BEB
:1059E0001B687A689A4201D3354B5BE0354B1A68E5
:1059F0007B68542101FB03F313443B61FAF70CFC71
:105A0000F8603B699B887B817B8903F001039BB233
:105A1000002B02D02C4B7B6140E07B8903F002031A
:105A20009BB2002B02D0294B7B6137E07B8903F0CE
:105A300010039BB2002B06D0254B1B88002B02D0F5
:105A4000244B7B612AE07B8903F004039BB2002B8B
:105A50000BD03B6928331846FEF7D8FC3B699B887E
:105A600023F004039AB23B699A803B699B8843F018
:105A700002039AB23B699A80174B1B681B697A68CC
:105A80009A4206D1F868FAF7CFFBFDF76BF90023CD
:105A900008E0F868FAF7C8FB002303E0F868FAF7B3
:105AA000C3FB7B6918461837BD4680BDBC05002086
:105AB00014020002C005002021020002B8050020E7
:105AC00007020002A80500200A02000208020002E4
:105AD000B405002015020003AC05002080B586B097
