:020000040800F2
:100000000000012049440008AD420008BB4200083E
:10001000C1420008C7420008CD42000800000000AD
:10002000000000000000000000000000112E000889
:10003000D34200080000000061300008C930000809
:10004000994400089944000899440008994400081C
:10005000994400089944000899440008994400080C
:1000600099440008994400089944000899440008FC
:1000700099440008994400089944000899440008EC
:1000800099440008994400089944000899440008DC
:1000900099440008994400089944000899440008CC
:1000A00099440008E1420008994400089944000876
:1000B0009944000800000000000000009944000876
:1000C000994400089944000899440008994400089C
:1000D000994400089944000899440008994400088C
:1000E0009944000899440008000000000000000046
:1000F0000000000000000000000000000000000000
:100100000000000099440008000000009944000825
:100110000000000000000000994400089944000815
:10012000994400089944000899440008994400083B
:1001300099440008000000000000000000000000DA
:100140009944000899440008994400080000000000
:10015000994400089944000899440008994400080B
:1001600099440008994400089944000800000000E0
:1001700099440008994400080000000000000000B5
:1001800099440008994400089944000800000000C0
:1001900010B5054C237833B9044B13B10448AFF3C1
:1001A00000800123237010BD10000020000000001B
:1001B000F444000808B5034B1BB103490348AFF3EF
:1001C000008008BD0000000014000020F444000876
:1001D00053B94AB9002908BF00281CBF4FF0FF31AE
:1001E0004FF0FF3000F06EB9ADF1080C6DE904CEB0
:1001F00000F006F8DDF804E0DDE9022304B0704702
:100200002DE9F047089D04468C46002B40F0838082
:100210008A42174647D9B2FA82F242B1C2F12000AF
:1002200024FA00F09140974040EA010C94404FEAD4
:100230001748230CBCFBF8F61FFA87FE08FB16C113
:1002400043EA014306FB0EF1994209D9FB1806F176
:10025000FF3080F01981994240F21681023E3B4402
:100260005B1AA4B2B3FBF8F008FB103344EA034472
:1002700000FB0EFEA64509D93C1900F1FF3380F0C2
:100280000581A64540F2028102383C4440EA06401E
:10029000A4EB0E0400261DB1D4400023C5E90043A1
:1002A0003146BDE8F08702B9FFDEB2FA82F2002AD9
:1002B00050D1CB1B4FEA174E1FFA87F80126B3FB2C
:1002C000FEFC210C0EFB1C3341EA034108FB0CF33E
:1002D0008B4207D979180CF1FF3002D28B4200F221
:1002E000E9808446C91AA3B2B1FBFEF00EFB1011DF
:1002F00043EA014408FB00F8A04507D93C1900F186
:10030000FF3302D2A04500F2D9801846A4EB0804BE
:1003100040EA0C40BFE78B4209D9002D00F0B180C4
:100320000026C5E9000130463146BDE8F087B3FA42
:1003300083F6002E4AD18B4202D3824200F2B8806B
:10034000841A61EB030101208C46002DA8D0C5E979
:10035000004CA5E7C2F1200320FA03F6974001FA0A
:1003600002F04FEA174ED9403043030CB1FBFEF6C2
:100370001FFA87F80EFB161143EA014306FB08F14A
:10038000994204FA02F409D9FB1806F1FF3C80F007
:100390008D80994240F28A80023E3B445B1A81B2D2
:1003A000B3FBFEF00EFB103341EA034100FB08F300
:1003B0008B4207D9791800F1FF3C73D28B4271D977
:1003C00002383944CB1A40EA064678E7C6F1200CD9
:1003D00003FA06F422FA0CF31C4320FA0CF701FA94
:1003E00006F34FEA144E21FA0CF11F433B0CB1FB0C
:1003F000FEF91FFA84F80EFB191143EA014109FBCB
:1004000008FA8A4502FA06F200FA06F308D96118DA
:1004100009F1FF3048D28A4546D9A9F102092144A1
:10042000A1EB0A01BFB2B1FBFEF00EFB101147EACF
:10043000014700FB08F8B84507D9E71900F1FF317B
:100440002ED2B8452CD90238274440EA0940A7EB00
:100450000807A0FB02894F45C64649461AD317D064
:100460005DB1B3EB0E0267EB010707FA0CFCF2403B
:100470004CEA0202F740C5E9002700263146BDE8F4
:10048000F0872E4628460BE70646E9E61846FDE6C5
:100490004345E5D2B8EB020E69EB04010138DFE712
:1004A0000846D2E760468DE78146B9E7664675E7BC
:1004B00030464AE7ACF1020C394413E702383C44B9
:1004C00024E700BF704700BF80B582B000AF0023B3
:1004D000FB71032000F0DBF8002003F091FE0346DF
:1004E000002B02D00123FB7101E003F061FEFB79D8
:1004F00018460837BD4680BD80B400AF054B1A686A
:10050000054B1B681344034A136000BFBD465DF8EA
:10051000047B70472C0000200400002080B400AF52
:10052000034B1B681846BD465DF8047B704700BF4F
:100530002C00002080B485B000AF78607B6803F0A9
:100540000703FB600C4BDB68BB60BA684FF6FF0328
:100550001340BB60FB681A02BB68134343F0BF63E0
:1005600043F40033BB60044ABB68D36000BF143758
:10057000BD465DF8047B704700ED00E080B400AF3D
:10058000044BDB681B0A03F007031846BD465DF801
:10059000047B704700ED00E080B483B000AF0346F9
:1005A000FB7197F90730002B0BDBFB7903F01F027F
:1005B000074997F907305B09012000FA02F241F878
:1005C000232000BF0C37BD465DF8047B704700BF99
:1005D00000E100E080B483B000AF03463960FB71F6
:1005E00097F90730002B0ADB3B68DAB20C4997F920
:1005F00007301201D2B20B4483F800230AE03B68B3
:10060000DAB20849FB7903F00F03043B1201D2B2BE
:100610000B441A7600BF0C37BD465DF8047B70476B
:1006200000E100E000ED00E080B489B000AFF860C8
:10063000B9607A60FB6803F00703FB61FB69C3F1F3
:100640000703042B28BF0423BB61FB690433062B7B
:1006500002D9FB69033B00E000237B614FF0FF32CE
:10066000BB6902FA03F3DA43BB681A407B699A401C
:100670004FF0FF317B6901FA03F3D9437B680B40EC
:10068000134318462437BD465DF8047B704780B598
:1006900082B000AF78607868FFF74CFF00BF083782
:1006A000BD4680BD80B586B000AF0346B9607A60B4
:1006B000FB7300237B61FFF761FF78617A68B9689B
:1006C0007869FFF7B1FF024697F90F3011461846D7
:1006D000FFF780FF00BF1837BD4680BD80B582B0F0
:1006E00000AF0346FB7197F907301846FFF754FF38
:1006F00000BF0837BD4680BD80B487B000AF7860CA
:10070000396000237B6154E13B681A6801217B69F1
:1007100001FA03F31340FB60FB68002B00F04681F5
:100720003B685B68022B03D03B685B68122B23D1CC
:100730007B69DA087B68083253F822303B617B69B9
:1007400003F007039B000F2202FA03F3DB433A692D
:1007500013403B613B681A697B6903F007039B0008
:1007600002FA03F33A6913433B617B69DA087B6859
:100770000832396943F822107B681B683B617B694A
:100780005B00032202FA03F3DB433A6913403B6147
:100790003B685B6803F003027B695B0002FA03F3CA
:1007A0003A6913433B617B683A691A603B685B684E
:1007B000012B0BD03B685B68022B07D03B685B6862
:1007C000112B03D03B685B68122B30D17B689B6890
:1007D0003B617B695B00032202FA03F3DB433A6966
:1007E00013403B613B68DA687B695B0002FA03F304
:1007F0003A6913433B617B683A699A607B685B683E
:100800003B6101227B6902FA03F3DB433A6913403F
:100810003B613B685B681B0903F001027B6902FADC
:1008200003F33A6913433B617B683A695A607B681A
:10083000DB683B617B695B00032202FA03F3DB4365
:100840003A6913403B613B689A687B695B0002FA36
:1008500003F33A6913433B617B683A69DA603B68AA
:100860005B6803F08053002B00F0A080584B1B6E98
:10087000574A43F001031366554B1B6E03F0010307
:10088000BB60BB68534A7B699B08023352F8233034
:100890003B617B6903F003039B000F2202FA03F321
:1008A000DB433A6913403B617B68B3F1904F19D049
:1008B0007B68494A934213D07B68484A93420DD0E3
:1008C0007B68474A934207D07B68464A934201D1EE
:1008D000042308E0072306E0032304E0022302E0E8
:1008E000012300E000237A6902F0030292009340A2
:1008F0003A6913433B6137497B699B0802333A6984
:1009000041F82320384B1B683B61FB68DB433A69A5
:1009100013403B613B685B6803F48033002B03D0DA
:100920003A69FB6813433B612F4A3B6913602E4BC6
:100930005B683B61FB68DB433A6913403B613B68A2
:100940005B6803F40033002B03D03A69FB68134360
:100950003B61254A3B695360234B9B683B61FB68C5
:10096000DB433A6913403B613B685B6803F48013E7
:10097000002B03D03A69FB6813433B611A4A3B6979
:100980009360194BDB683B61FB68DB433A691340BA
:100990003B613B685B6803F40013002B03D03A69AA
:1009A000FB6813433B61104A3B69D3607B690133A9
:1009B0007B613B681A687B6922FA03F3002B7FF4A2
:1009C000A3AE00BF00BF1C37BD465DF8047B704777
:1009D00000100240000001400004004800080048E8
:1009E000000C0048001000480004014080B483B0AF
:1009F00000AF78600B467B8013467B707B78002BC2
:100A000003D07A887B689A6102E07A887B689A6270
:100A100000BF0C37BD465DF8047B704780B483B0DF
:100A200000AF78600B467B807B685A697B881340F7
:100A3000002B03D07A887B689A6202E07A887B6810
:100A40009A6100BF0C37BD465DF8047B704700001B
:100A500080B400AF044B1B6803F4C0631846BD4666
:100A60005DF8047B704700BF0070004080B485B023
:100A700000AF78607B68B3F5007F30D1234B1B68F3
:100A800003F4C063B3F5007F38D0204B1B6823F418
:100A9000C0631E4A43F4007313601D4B1B6832226F
:100AA00002FB03F31B4AA2FB03239B0C0133FB60F5
:100AB00002E0FB68013BFB60144B5B6903F480635D
:100AC000B3F5806F02D1FB68002BF2D10F4B5B694D
:100AD00003F48063B3F5806F10D103230FE00B4B59
:100AE0001B6803F4C063B3F5806F07D0074B1B6826
:100AF00023F4C063054A43F480631360002318465F
:100B00001437BD465DF8047B704700BF007000409D
:100B10000C00002083DE1B4380B588B000AF7860F6
:100B20007B68002B01D10123DBE3A44B9B6803F01E
:100B30000C03BB61A14BDB6803F003037B617B68A3
:100B40001B6803F01003002B00F0E180BB69002B51
:100B500007D0BB690C2B40F088807B69012B40F0EB
:100B60008480964B1B6803F00203002B05D07B6842
:100B70009B69002B01D10123B3E37B681A6A8F4B79
:100B80001B6803F00803002B04D08C4B1B6803F098
:100B9000F00305E0894BD3F894301B0903F0F00310
:100BA000934223D27B681B6A184600F07BFD034604
:100BB000002B01D0012394E3804B1B687F4A43F054
:100BC000080313607D4B1B6823F0F0027B681B6AEF
:100BD0007A4913430B60794B5B6823F47F427B684F
:100BE000DB691B02754913434B6022E0734B1B68A2
:100BF000724A43F008031360704B1B6823F0F00245
:100C00007B681B6A6D4913430B606C4B5B6823F474
:100C10007F427B68DB691B02684913434B607B683A
:100C20001B6A184600F03EFD0346002B01D001234D
:100C300057E300F041FC0246604B9B681B0903F040
:100C40000F035F49CB5C03F01F0322FA03F35D4AF5
:100C500013605D4B1B68184603F0D2FA0346FB7322
:100C6000FB7B002B52D0FB7B3BE37B689B69002B1B
:100C700032D0524B1B68514A43F001031360FFF717
:100C80004DFC386108E0FFF749FC02463B69D31A86
:100C9000022B01D9032324E3484B1B6803F0020312
:100CA000002BF0D0454B1B68444A43F00803136007
:100CB000424B1B6823F0F0027B681B6A3F491343D9
:100CC0000B603E4B5B6823F47F427B68DB691B0251
:100CD0003A4913434B601AE0384B1B68374A23F0FC
:100CE00001031360FFF71AFC386108E0FFF716FCF8
:100CF00002463B69D31A022B01D90323F1E22F4BA1
:100D00001B6803F00203002BF0D100E000BF7B68FA
:100D10001B6803F00103002B74D0BB69082B05D0BE
:100D2000BB690C2B0ED17B69032B0BD1234B1B68AA
:100D300003F40033002B64D07B685B68002B60D128
:100D40000123CEE27B685B68B3F5803F06D11B4B85
:100D50001B681A4A43F4803313601DE07B685B68AC
:100D6000B3F5A02F0CD1154B1B68144A43F4802314
:100D70001360124B1B68114A43F4803313600BE07D
:100D80000E4B1B680D4A23F4803313600B4B1B681A
:100D90000A4A23F4802313607B685B68002B1CD015
:100DA000FFF7BCFB386111E0FFF7B8FB02463B6977
:100DB000D31A642B0AD9032393E200BF0010024028
:100DC0003C4500080C00002000000020AE4B1B68D2
:100DD00003F40033002BE7D014E0FFF79FFB3861EA
:100DE00008E0FFF79BFB02463B69D31A642B01D94D
:100DF000032376E2A44B1B6803F40033002BF0D1ED
:100E000000E000BF7B681B6803F00203002B60D08A
:100E1000BB69042B05D0BB690C2B19D17B69022B54
:100E200016D1994B1B6803F48063002B05D07B68B7
:100E3000DB68002B01D1012353E2934B5B6823F065
:100E4000F8527B681B691B068F4913434B6040E0D7
:100E50007B68DB68002B23D08B4B1B688A4A43F4EA
:100E600080731360FFF75AFB386108E0FFF756FB09
:100E700002463B69D31A022B01D9032331E2824B8C
:100E80001B6803F48063002BF0D07F4B5B6823F07A
:100E9000F8527B681B691B067B4913434B6018E0C3
:100EA000794B1B68784A23F480731360FFF736FB95
:100EB000386108E0FFF732FB02463B69D31A022B88
:100EC00001D903230DE2704B1B6803F48063002BF0
:100ED000F0D17B681B6803F00803002B3CD07B68D3
:100EE0005B69002B1CD0684BD3F89430664A43F002
:100EF0000103C2F89430FFF711FB386108E0FFF7F7
:100F00000DFB02463B69D31A022B01D90323E8E10A
:100F10005D4BD3F8943003F00203002BEFD01BE0BD
:100F2000594BD3F89430584A23F00103C2F8943057
:100F3000FFF7F4FA386108E0FFF7F0FA02463B6980
:100F4000D31A022B01D90323CBE14F4BD3F89430B2
:100F500003F00203002BEFD17B681B6803F004034E
:100F6000002B00F0A5800023FB77474B9B6D03F01F
:100F70008053002B0DD1444B9B6D434A43F080536B
:100F80009365414B9B6D03F08053BB60BB680123AD
:100F9000FB773E4B1B6803F48073002B18D13B4B4F
:100FA0001B683A4A43F480731360FFF7B7FA38615D
:100FB00008E0FFF7B3FA02463B69D31A022B01D9C6
:100FC00003238EE1314B1B6803F48073002BF0D0B8
:100FD0007B689B68012B08D12B4BD3F890302A4AB1
:100FE00043F00103C2F8903024E07B689B68052B36
:100FF00010D1254BD3F89030234A43F00403C2F8B4
:101000009030214BD3F890301F4A43F00103C2F8CF
:1010100090300FE01C4BD3F890301B4A23F00103B3
:10102000C2F89030184BD3F89030174A23F00403DD
:10103000C2F890307B689B68002B16D0FFF76EFAE1
:1010400038610AE0FFF76AFA02463B69D31A41F2B7
:101050008832934201D9032343E10B4BD3F89030FC
:1010600003F00203002BEDD019E0FFF757FA3861C7
:101070000EE0FFF753FA02463B69D31A41F2883279
:10108000934205D903232CE1001002400070004078
:10109000964BD3F8903003F00203002BE9D1FB7F8D
:1010A000012B05D1914B9B6D904A23F080539365A2
:1010B0007B681B6803F02003002B3CD07B685B6AD5
:1010C000002B1CD0894BD3F89830884A43F0010399
:1010D000C2F89830FFF722FA386108E0FFF71EFAED
:1010E00002463B69D31A022B01D90323F9E07F4B57
:1010F000D3F8983003F00203002BEFD01BE07B4BBA
:10110000D3F89830794A23F00103C2F89830FFF7FA
:1011100005FA386108E0FFF701FA02463B69D31A85
:10112000022B01D90323DCE0704BD3F8983003F095
:101130000203002BEFD17B689B6A002B00F0D0806C
:10114000BB690C2B00F08D807B689B6A022B5AD107
:10115000664B1B68654A23F080731360FFF7DEF966
:10116000386108E0FFF7DAF902463B69D31A022B2F
:1011700001D90323B5E05D4B1B6803F00073002B1E
:10118000F0D15A4BDA685A4B13407A68D16A7A68C0
:10119000126B013A120111437A68526B1202114329
:1011A0007A68D26B5208013A520511437A68126C80
:1011B0005208013A520611437A68926BD2060A43EA
:1011C0004A491343CB60494B1B68484A43F080733C
:1011D0001360464BDB68454A43F08073D360FFF7EA
:1011E0009DF9386108E0FFF799F902463B69D31A87
:1011F000022B01D9032374E03C4B1B6803F00073FE
:10120000002BF0D06CE0394B1B68384A23F0807318
:101210001360364B1B6803F00063002B05D1334B82
:10122000DB68324A23F00303D360304BDB682F4A7C
:1012300023F0887323F48033D360FFF76FF93861AC
:1012400008E0FFF76BF902463B69D31A022B01D97C
:10125000032346E0254B1B6803F00073002BF0D1FD
:101260003EE07B689B6A012B01D1012339E01F4BD3
:10127000DB687B617B6903F003027B68DB6A9A426F
:101280002CD17B6903F070027B681B6B013B1B0157
:101290009A4223D17B6903F4FE427B685B6B1B029D
:1012A0009A421BD17B6903F078427B689B6BDB061B
:1012B0009A4213D17B6903F4C0027B68DB6B5B0845
:1012C000013B5B059A4209D17B6903F0C0627B68F0
:1012D0001B6C5B08013B5B069A4201D0012300E0D6
:1012E000002318462037BD4680BD00BF00100240D5
:1012F0008C809D0180B584B000AF786039607B68D8
:10130000002B01D10123C8E0664B1B6803F00703E3
:101310003A689A4210D9634B1B6823F0070261496F
:101320003B6813430B605F4B1B6803F007033A688D
:101330009A4201D00123B0E07B681B6803F00103EF
:10134000002B4CD07B685B68032B07D1564B1B6886
:1013500003F00073002B21D101239EE07B685B68C2
:10136000022B07D1504B1B6803F40033002B15D11F
:10137000012392E07B685B68002B07D14A4B1B6816
:1013800003F00203002B09D1012386E0464B1B68C2
:1013900003F48063002B01D101237EE0424B9B6864
:1013A00023F003027B685B683F4913438B60FFF7C0
:1013B000B5F8F8600AE0FFF7B1F80246FB68D31A07
:1013C00041F28832934201D9032366E0364B9B6891
:1013D00003F00C027B685B689B009A42EBD17B6850
:1013E0001B6803F00203002B08D02F4B9B6823F0EF
:1013F000F0027B689B682C4913438B60294B1B6868
:1014000003F007033A689A4210D2264B1B6823F078
:10141000070224493B6813430B60224B1B6803F00F
:1014200007033A689A4201D0012336E07B681B68C3
:1014300003F00403002B08D01B4B9B6823F4E062ED
:101440007B68DB68184913438B607B681B6803F07B
:101450000803002B09D0144B9B6823F460527B686F
:101460001B69DB00104913438B6000F025F802462E
:101470000D4B9B681B0903F00F030C49CB5C03F079
:101480001F0322FA03F30A4A13600A4B1B6818462B
:1014900002F0B6FE0346FB72FB7A18461037BD46D3
:1014A00080BD00BF00200240001002403C45000803
:1014B0000C0000200000002080B489B000AF0023A1
:1014C000FB610023BB613E4B9B6803F00C033B6157
:1014D0003B4BDB6803F00303FB603B69002B05D04B
:1014E0003B690C2B21D1FB68012B1ED1344B1B68AF
:1014F00003F00803002B07D1314BD3F894301B0ABB
:1015000003F00F03FB6105E02D4B1B681B0903F083
:101510000F03FB612B4AFB6952F82330FB613B69E7
:10152000002B0DD1FB69BB610AE03B69042B02D1A2
:10153000254BBB6104E03B69082B01D1234BBB6108
:101540003B690C2B34D11E4BDB6803F00303BB60FB
:10155000BB68022B03D0BB68032B03D005E01A4BFA
:101560007B6105E0194B7B6102E0FB697B6100BF99
:10157000134BDB681B0903F0070301337B60104B3F
:10158000DB681B0A03F07F037A6902FB03F27B68C6
:10159000B2FBF3F37B610A4BDB685B0E03F00303E2
:1015A00001335B003B607A693B68B2FBF3F3BB61DC
:1015B000BB6918462437BD465DF8047B704700BF01
:1015C00000100240544500080024F40000127A0084
:1015D00080B400AF034B1B681846BD465DF8047B22
:1015E000704700BF0C00002080B500AFFFF7F0FF90
:1015F0000246064B9B681B0A03F007030449CB5CB9
:1016000003F01F0322FA03F3184680BD00100240C6
:101610004C45000880B500AFFFF7DAFF0246064BE5
:101620009B68DB0A03F007030449CB5C03F01F034C
:1016300022FA03F3184680BD001002404C45000812
:1016400080B483B000AF786039607B680F221A6085
:10165000124B9B6803F003027B685A600F4B9B6838
:1016600003F0F0027B689A600C4B9B6803F4E06225
:101670007B68DA60094B9B68DB0803F4E0627B68F7
:101680001A61074B1B6803F007023B681A6000BF32
:101690000C37BD465DF8047B704700BF0010024068
:1016A0000020024080B586B000AF786000233B6127
:1016B0002A4B9B6D03F08053002B03D0FFF7C8F932
:1016C000786114E0254B9B6D244A43F08053936569
:1016D000224B9B6D03F08053FB60FB68FFF7B8F96A
:1016E00078611E4B9B6D1D4A23F0805393657B6987
:1016F000B3F5007F0BD17B68802B19D97B68A02BB9
:1017000002D902233B6113E001233B6110E07B68B7
:10171000802B02D903233B610AE07B68802B02D136
:1017200002233B6104E07B68702B01D101233B6104
:101730000B4B1B6823F0070209493B6913430B60FD
:10174000074B1B6803F007033A699A4201D0012353
:1017500000E0002318461837BD4680BD0010024047
:101760000020024080B586B000AF78600023FB7493
:101770000023BB747B681B6803F40063002B31D02B
:101780007B685B6CB3F5400F1AD0B3F5400F14D8EB
:10179000002B09D0B3F5000F0FD15D4BDB685C4A1D
:1017A00043F48033D3600CE07B6804330021184697
:1017B00000F0F0F90346FB7403E00123FB7400E042
:1017C00000BFFB7C002B0BD1514BD3F8883023F4A6
:1017D00040027B685B6C4E491343C1F8883001E0DE
:1017E000FB7CBB747B681B6803F40033002B00F0A8
:1017F0009E8000237B74464B9B6D03F08053002B2F
:1018000001D1012300E00023002B0DD0404B9B6D44
:101810003F4A43F0805393653D4B9B6D03F08053EB
:10182000BB60BB6801237B743A4B1B68394A43F4A5
:1018300080731360FEF772FEF86009E0FEF76EFE3B
:101840000246FB68D31A022B02D90323FB7405E07E
:10185000304B1B6803F48073002BEFD0FB7C002B14
:101860005AD12B4BD3F8903003F440737B617B69E2
:10187000002B1ED07B689B6D7A699A4219D0244B4D
:10188000D3F8903023F440737B61214BD3F8903030
:101890001F4A43F48033C2F890301D4BD3F8903088
:1018A0001B4A23F48033C2F89030194A7B69C2F88E
:1018B00090307B6903F00103002B16D0FEF72EFE5B
:1018C000F8600BE0FEF72AFE0246FB68D31A41F2ED
:1018D0008832934202D90323FB7406E00C4BD3F801
:1018E000903003F00203002BECD0FB7C002B0BD1DB
:1018F000074BD3F8903023F440727B689B6D04490A
:101900001343C1F8903009E0FB7CBB7406E000BFD4
:101910000010024000700040FB7CBB747B7C012BFC
:1019200005D19B4B9B6D9A4A23F0805393657B684E
:101930001B6803F00103002B0AD0954BD3F88830C5
:1019400023F003027B681B6A91491343C1F8883076
:101950007B681B6803F00203002B0AD08C4BD3F882
:10196000883023F00C027B685B6A89491343C1F815
:1019700088307B681B6803F00403002B0AD0844B7B
:10198000D3F8883023F030027B689B6A8049134388
:10199000C1F888307B681B6803F02003002B0AD055
:1019A0007B4BD3F8883023F440627B68DB6A78494C
:1019B0001343C1F888307B681B6803F40073002B65
:1019C0000AD0734BD3F8883023F440227B68DB6B5A
:1019D0006F491343C1F888307B681B6803F4806348
:1019E000002B0AD06A4BD3F8883023F440127B686E
:1019F0001B6C67491343C1F888307B681B6803F090
:101A00004003002B0AD0624BD3F8883023F44052B5
:101A10007B681B6B5E491343C1F888307B681B6889
:101A200003F08003002B0AD0594BD3F8883023F4FD
:101A300040427B685B6B56491343C1F888307B6832
:101A40001B6803F48073002B0AD0514BD3F8883005
:101A500023F440327B689B6B4D491343C1F88830B7
:101A60007B681B6803F40023002B28D0484BD3F875
:101A7000883023F040627B689B6C45491343C1F872
:101A800088307B689B6CB3F1006F06D1404BDB68FC
:101A90003F4A43F48013D36011E07B689B6CB3F141
:101AA000806F0CD17B6804330121184600F072F876
:101AB0000346FB74FB7C002B01D0FB7CBB747B6872
:101AC0001B6803F48023002B28D0314BD3F88830D7
:101AD00023F040627B68DB6C2D491343C1F88830EA
:101AE0007B68DB6CB3F1006F06D1294BDB68284AB9
:101AF00043F48013D36011E07B68DB6CB3F1806F3B
:101B00000CD17B6804330121184600F043F80346EA
:101B1000FB74FB7C002B01D0FB7CBB747B681B68D7
:101B200003F48043002B1CD0194BD3F8883023F0EA
:101B300040527B681B6D16491343C1F888307B689F
:101B40001B6DB3F1805F0CD17B6804330221184612
:101B500000F020F80346FB74FB7C002B01D0FB7CDB
:101B6000BB747B681B6803F40043002B0AD0084B4E
:101B7000D3F8883023F080427B685B6D04491343BF
:101B8000C1F88830BB7C18461837BD4680BD00BF01
:101B90000010024080B584B000AF78603960002347
:101BA000FB73744BDB6803F00303002B18D0714BFD
:101BB000DB6803F003027B681B689A420DD17B68E7
:101BC0001B68002B09D06B4BDB681B0903F0070374
:101BD0005A1C7B685B689A4247D00123FB7344E040
:101BE0007B681B68032B18D0032B25D8012B02D050
:101BF000022B09D020E05F4B1B6803F00203002B8F
:101C00001DD10123FB731AE05A4B1B6803F4806358
:101C1000002B16D10123FB7313E0564B1B6803F412
:101C20000033002B0FD1534B1B6803F48023002B90
:101C300009D10123FB7306E00123FB7304E000BF1D
:101C400002E000BF00E000BFFB7B002B0DD1494B41
:101C5000DB6823F073027B6819687B685B68013B73
:101C60001B010B4343491343CB60FB7B002B7CD10F
:101C7000404B1B683F4A23F080631360FEF74EFC25
:101C8000B86009E0FEF74AFC0246BB68D31A022B93
:101C900002D90323FB7305E0364B1B6803F0006396
:101CA000002BEFD1FB7B002B5FD13B68002B10D1C9
:101CB000304B1B6923F0784323F4FE437A68926823
:101CC00011027A68D268D2060A432A4913430B618B
:101CD00027E03B68012B12D1264B1B6923F4C0037C
:101CE00023F4FE437A68926811027A6812695208F6
:101CF000013A52050A431F4913430B6111E01D4B82
:101D00001B6923F0C06323F4FE437A6892681102D2
:101D10007A6852695208013A52060A431549134338
:101D20000B61144B1B68134A43F080631360FEF78A
:101D3000F5FBB86009E0FEF7F1FB0246BB68D31A79
:101D4000022B02D90323FB7305E00A4B1B6803F047
:101D50000063002BEFD0FB7B002B06D1054B1A69EB
:101D60007B689B69034913430B61FB7B1846103763
:101D7000BD4680BD0010024080B582B000AF7860E3
:101D80007B68002B01D101231DE07B6893F83D3077
:101D9000DBB2002B06D17B68002283F83C207868F8
:101DA00000F015F87B68022283F83D207B681A68F2
:101DB0007B6804331946104600F086F97B680122DF
:101DC00083F83D20002318460837BD4680BD80B407
:101DD00083B000AF786000BF0C37BD465DF8047B70
:101DE0007047000080B485B000AF78607B681B68E6
:101DF000DA687B681B6842F00102DA607B681B6866
:101E00009A680C4B1340FB60FB68062B0BD0FB68F9
:101E1000B3F5803F07D07B681B681A687B681B6836
:101E200042F001021A60002318461437BD465DF8DF
:101E3000047B70470700010080B582B000AF786076
:101E40007B681B681B6903F00203022B22D17B68AD
:101E50001B68DB6803F00203022B1BD17B681B6845
:101E60006FF002021A617B6801221A777B681B6897
:101E70009B6903F00303002B03D0786800F005F999
:101E800005E0786800F0F7F8786800F008F97B68FA
:101E900000221A777B681B681B6903F00403042B7C
:101EA00022D17B681B68DB6803F00403042B1BD181
:101EB0007B681B686FF004021A617B6802221A7744
:101EC0007B681B689B6903F44073002B03D0786820
:101ED00000F0DBF805E0786800F0CDF8786800F0F5
:101EE000DEF87B6800221A777B681B681B6903F0A9
:101EF0000803082B22D17B681B68DB6803F008030A
:101F0000082B1BD17B681B686FF008021A617B6885
:101F100004221A777B681B68DB6903F00303002B3C
:101F200003D0786800F0B1F805E0786800F0A3F815
:101F3000786800F0B4F87B6800221A777B681B6829
:101F40001B6903F01003102B22D17B681B68DB6830
:101F500003F01003102B1BD17B681B686FF010027D
:101F60001A617B6808221A777B681B68DB6903F4B7
:101F70004073002B03D0786800F087F805E078689C
:101F800000F079F8786800F08AF87B6800221A7708
:101F90007B681B681B6903F00103012B0ED17B6872
:101FA0001B68DB6803F00103012B07D17B681B680A
:101FB0006FF001021A61786802F0E0F87B681B6834
:101FC0001B6903F08003802B0ED17B681B68DB68E4
:101FD00003F08003802B07D17B681B686FF08002C1
:101FE0001A61786800F0DEF87B681B681B6903F4EF
:101FF0008073B3F5807F0ED17B681B68DB6803F0CC
:102000008003802B07D17B681B686FF480721A6194
:10201000786800F0D1F87B681B681B6903F0400307
:10202000402B0ED17B681B68DB6803F04003402B1C
:1020300007D17B681B686FF040021A61786800F076
:1020400038F87B681B681B6903F02003202B0ED136
:102050007B681B68DB6803F02003202B07D17B68BB
:102060001B686FF020021A61786800F091F800BFD9
:102070000837BD4680BD80B483B000AF786000BF34
:102080000C37BD465DF8047B704780B483B000AF69
:10209000786000BF0C37BD465DF8047B704780B4A4
:1020A00083B000AF786000BF0C37BD465DF8047B9D
:1020B000704780B483B000AF786000BF0C37BD4676
:1020C0005DF8047B7047000080B485B000AF786095
:1020D00039607B681B68FB607B682A4A934203D0A7
:1020E0007B68B3F1804F08D1FB6823F07003FB607D
:1020F0003B685B68FA681343FB607B68214A934244
:102100000BD07B68B3F1804F07D07B681E4A9342A7
:1021100003D07B681D4A934208D1FB6823F44073C7
:10212000FB603B68DB68FA681343FB60FB6823F0E5
:1021300080023B685B691343FB607B68FA681A6046
:102140003B689A687B68DA623B681A687B689A62C7
:102150007B680C4A934207D07B680B4A934203D0BA
:102160007B680A4A934203D13B681A697B681A6309
:102170007B6801225A6100BF1437BD465DF8047BBD
:10218000704700BF002C0140004001400044014066
:1021900080B483B000AF786000BF0C37BD465DF8F7
:1021A000047B704780B483B000AF786000BF0C3709
:1021B000BD465DF8047B704780B483B000AF7860A3
:1021C00000BF0C37BD465DF8047B704780B582B018
:1021D00000AF78607B68002B01D1012340E07B6871
:1021E0005B6F002B06D17B68002283F87020786833
:1021F00002F0E6F87B6824225A677B681B681A683D
:102200007B681B6822F001021A60786800F02CF8E5
:102210000346012B01D1012322E07B685B6A002B7E
:1022200002D0786800F02EFB7B681B685A687B68D8
:102230001B6822F490425A607B681B689A687B682E
:102240001B6822F02A029A607B681B681A687B6808
:102250001B6842F001021A60786800F0B5FB034683
:1022600018460837BD4680BD2DE9B04F8AB000AF93
:10227000F8600023FB610023FB7600237B61FB6891
:102280009A68FB681B691A43FB685B691A43FB6821
:10229000DB6913437B62FB681B681A68BB4B134006
:1022A000FA681268796A0B431360FB681B685B6805
:1022B00023F44051FB68DA68FB681B680A435A60E4
:1022C000FB689B697B62FB681B68B14A934204D040
:1022D000FB681B6A7A6A13437B62FB681B689B6816
:1022E00023F43061FB681B687A6A0A439A60FB68D2
:1022F0001B68A84A934225D1A74BD3F8883003F036
:102300000303032B1AD801A252F823F01D2300085F
:102310002D2300082523000835230008012387F812
:102320002330ABE0022387F82330A7E0042387F8AB
:102330002330A3E0082387F823309FE0102387F899
:1023400023309BE0FB681B68944A934238D1924B40
:10235000D3F8883003F00C030C2B2DD801A252F8CF
:1023600023F000BF99230008B9230008B92300080F
:10237000B9230008A9230008B9230008B9230008DD
:10238000B9230008A1230008B9230008B9230008D5
:10239000B9230008B1230008002387F823306DE03B
:1023A000022387F8233069E0042387F8233065E0AF
:1023B000082387F8233061E0102387F823305DE09D
:1023C000FB681B68764A934225D1734BD3F888305B
:1023D00003F03003302B16D0302B18D8202B0AD026
:1023E000202B14D8002B02D0102B08D00FE0002394
:1023F00087F8233042E0022387F823303EE00423AD
:1024000087F823303AE0082387F8233036E010239A
:1024100087F8233032E0FB681B685D4A93422AD17B
:102420005D4BD3F8883003F44063B3F5406F1AD0A6
:10243000B3F5406F1BD8B3F5006F0CD0B3F5006F48
:1024400015D8002B03D0B3F5806F08D00FE0002320
:1024500087F8233012E0022387F823300EE00423AC
:1024600087F823300AE0082387F8233006E010239A
:1024700087F8233002E0102387F82330FB681B68BD
:10248000434A934240F0FC8097F82330082B24D82D
:1024900001A252F823F000BFBD240008DB2400088D
:1024A000C5240008DB240008CB240008DB24000836
:1024B000DB240008DB240008D3240008FFF794F88D
:1024C00078610DE0374B7B610AE0FEF7F5FF78613C
:1024D00006E04FF400437B6102E00123FB7600BF7E
:1024E0007B69002B00F0BF81FB685A6813465B00D4
:1024F00013447A699A4205D3FB685B681B037A69C7
:102500009A4202D90123FB76ADE197F82330082BDC
:1025100000F2A38001A252F823F000BF4125000879
:102520005B260008A92500085B260008DF250008B7
:102530005B2600085B2600085B2600082B260008A7
:10254000FFF752F8034618464FF000014FF0000223
:102550004FF000030B0243EA10630202F968496876
:10256000490808464FF0000114183C604B417B605D
:10257000FB685B681A464FF00003D7E90001FDF7DE
:1025800027FE02460B461346FB6169E0F369FFEF45
:10259000008000400038014000100240004400402C
:1025A000004800400024F400FB685B685B081A46A2
:1025B0004FF00003B2484FF0000112EB000A43EB6A
:1025C000010BFB685B681A464FF000035046594602
:1025D000FDF7FEFD02460B461346FB6140E0FEF7A9
:1025E0006BFF034618464FF000014FF000024FF01A
:1025F00000030B0243EA10630202F96849684908C4
:1026000008464FF0000112EB000843EB0109FB689C
:102610005B681A464FF0000340464946FDF7D8FD77
:1026200002460B461346FB611AE0FB685B685B08D9
:102630001A464FF0000312F5000443F10005FB6851
:102640005B681A464FF0000320462946FDF7C0FD9F
:1026500002460B461346FB6102E00123FB7600BFF6
:10266000FB69B3F5407F08D3FB69B3F5801F04D243
:10267000FB681B68FA69DA60F5E00123FB76F2E09B
:10268000FB68DB69B3F5004F7FD197F82330082B47
:102690005BD801A252F823F0BD260008DB26000813
:1026A000F92600084B270008152700084B270008CB
:1026B0004B2700084B27000833270008FEF794FF3C
:1026C00003465A00FB685B685B081A44FB685B685A
:1026D000B2FBF3F39BB2FB613AE0FEF79BFF0346CC
:1026E0005A00FB685B685B081A44FB685B68B2FBD6
:1026F000F3F39BB2FB612BE0FB685B685B0803F1C3
:10270000F47303F59043FA685268B3FBF2F39BB29B
:10271000FB611DE0FEF7D0FE03465A00FB685B68D4
:102720005B081A44FB685B68B2FBF3F39BB2FB6186
:102730000EE0FB685B685B0803F58032FB685B6852
:10274000B2FBF3F39BB2FB6102E00123FB7600BF17
:10275000FB690F2B16D9FB69B3F5803F12D2FB69D9
:102760009BB223F00F037B82FB695B089BB203F0F3
:1027700007039AB27B8A13437B82FB681B687A8AC1
:10278000DA6070E00123FB766DE097F82330082BC8
:1027900058D801A252F823F0BD270008D927000815
:1027A000F5270008452800081128000845280008DA
:1027B00045280008452800082D280008FEF714FFCA
:1027C0000246FB685B685B081A44FB685B68B2FB07
:1027D000F3F39BB2FB6138E0FEF71CFF0246FB6897
:1027E0005B685B081A44FB685B68B2FBF3F39BB25F
:1027F000FB612AE0FB685B685B0803F5740303F583
:102800001053FA685268B3FBF2F39BB2FB611CE011
:10281000FEF752FE0246FB685B685B081A44FB68E1
:102820005B68B2FBF3F39BB2FB610EE0FB685B6895
:102830005B0803F50042FB685B68B2FBF3F39BB2F5
:10284000FB6102E00123FB7600BFFB690F2B08D977
:10285000FB69B3F5803F04D2FB681B68FA69DA6054
:1028600001E00123FB76FB6800221A66FB68002268
:102870005A66FB7E18462837BD46BDE8B08F00BFBC
:10288000000024F480B483B000AF78607B685B6A9A
:1028900003F00103002B0AD07B681B685B6823F4FC
:1028A00000317B689A6A7B681B680A435A607B68C0
:1028B0005B6A03F00203002B0AD07B681B685B682D
:1028C00023F480317B68DA6A7B681B680A435A60AC
:1028D0007B685B6A03F00403002B0AD07B681B68EB
:1028E0005B6823F480217B681A6B7B681B680A4352
:1028F0005A607B685B6A03F00803002B0AD07B6890
:102900001B685B6823F400417B685A6B7B681B681B
:102910000A435A607B685B6A03F01003002B0AD0FD
:102920007B681B689B6823F480517B689A6B7B688B
:102930001B680A439A607B685B6A03F02003002BE4
:102940000AD07B681B689B6823F400517B68DA6BB4
:102950007B681B680A439A607B685B6A03F04003EC
:10296000002B1AD07B681B685B6823F480117B689E
:102970001A6C7B681B680A435A607B681B6CB3F552
:10298000801F0AD17B681B685B6823F4C0017B68E9
:102990005A6C7B681B680A435A607B685B6A03F069
:1029A0008003002B0AD07B681B685B6823F400213E
:1029B0007B689A6C7B681B680A435A6000BF0C37BF
:1029C000BD465DF8047B704780B586B002AF786085
:1029D0007B680022DA67FDF7A1FDF8607B681B6861
:1029E0001B6803F00803082B0ED16FF07E430093A1
:1029F000FB6800224FF40011786800F02AF80346C3
:102A0000002B01D0032320E07B681B681B6803F0C8
:102A10000403042B0ED16FF07E430093FB68002269
:102A20004FF48001786800F014F80346002B01D0C1
:102A300003230AE07B6820225A677B6820229A677A
:102A40007B68002283F87020002318461037BD46AB
:102A500080BD80B584B000AFF860B9603B601346BC
:102A6000FB712AE0BB69B3F1FF3F26D0FDF756FDAD
:102A700002463B68D31ABA699A4202D3BB69002B5B
:102A80001BD1FB681B681A68FB681B6822F4D072B4
:102A90001A60FB681B689A68FB681B6822F00102D9
:102AA0009A60FB6820225A67FB6820229A67FB68BD
:102AB000002283F8702003230FE0FB681B68DA69AB
:102AC000BB681340BA689A420CBF01230023DBB2F3
:102AD0001A46FB799A42C5D0002318461037BD46E6
:102AE00080BD80B485B000AF0346FB800023FB604F
:102AF000B7F90630842B05D0B7F90620FB681344DC
:102B00000333FB60FB6818461437BD465DF8047B51
:102B1000704780B500AF00F0BFFE0023184680BDAF
:102B2000F0B589B004AF786039607B685B69002BD1
:102B300020D07B689B69002B1CD07B685C687B681D
:102B40001D687B681E697B68B3F908301846FFF77B
:102B5000C8FF01467B685B697A68926902920193BB
:102B600000913B6832462946204600F0D7FC0346D8
:102B7000FB601CE07B685C687B681D687B681B6988
:102B80009EB27B68B3F908301846FFF7AAFF0246E9
:102B900007F10C03019300923B6832462946204618
:102BA00000F018FD0346012B01D0002300E0FB6874
:102BB00018461437BD46F0BD80B584B000AF7860CC
:102BC0007B68FB60FB68002B01D0FB6800E0012301
:102BD000184600F02DFE002318461037BD4680BD74
:102BE00080B483B000AF78607B6803F108027B6833
:102BF0005A607B684FF0FF329A607B6803F10802ED
:102C00007B68DA607B6803F108027B681A617B6885
:102C100000221A6000BF0C37BD465DF8047B704788
:102C200080B483B000AF78607B6800221A6100BF77
:102C30000C37BD465DF8047B704780B485B000AFAB
:102C4000786039607B685B68FB603B68FA685A6053
:102C5000FB689A683B689A60FB689B683A685A60B0
:102C6000FB683A689A603B687A681A617B681B68FF
:102C70005A1C7B681A6000BF1437BD465DF8047BA0
:102C8000704780B485B000AF786039603B681B68DE
:102C9000BB60BB68B3F1FF3F03D17B681B69FB607E
:102CA0000CE07B680833FB6002E0FB685B68FB605C
:102CB000FB685B681B68BA689A42F6D2FB685A6880
:102CC0003B685A603B685B683A689A603B68FA68A0
:102CD0009A60FB683A685A603B687A681A617B6858
:102CE0001B685A1C7B681A6000BF1437BD465DF82C
:102CF000047B704780B485B000AF78607B681B6947
:102D0000FB607B685B687A6892689A607B689B6806
:102D10007A6852685A60FB685B687A689A4203D1A5
:102D20007B689A68FB685A607B6800221A61FB68BE
:102D30001B685A1EFB681A60FB681B68184614372C
:102D4000BD465DF8047B704780B485B000AFF86085
:102D5000B9607A60FB68043BFB60FB684FF08072EF
:102D60001A60FB68043BFB60BB6823F00102FB6850
:102D70001A60FB68043BFB600C4AFB681A60FB6846
:102D8000143BFB607A68FB681A60FB68043BFB60DD
:102D9000FB686FF002021A60FB68203BFB60FB6877
:102DA00018461437BD465DF8047B7047B12D000806
:102DB00080B485B000AF00237B60124B1B68B3F179
:102DC000FF3F0AD04FF0500383F31188BFF36F8F9A
:102DD000BFF34F8FFB6000BFFEE74FF0500383F35C
:102DE0001188BFF36F8FBFF34F8FBB6000BF00BF71
:102DF0007B68002BFCD000BF00BF1437BD465DF8D8
:102E0000047B704708000020000000000000000064
:102E1000074B19680868B0E8F04F80F30988BFF3E2
:102E20006F8F4FF0000080F311887047AFF3008080
:102E3000080C002000BF00BF08480068006880F34D
:102E400008884FF0000080F3148862B661B6BFF3C3
:102E50004F8FBFF36F8F00DF00BF00BF08ED00E0B2
:102E600080B586B000AF464B1B68464A93420AD1F4
:102E70004FF0500383F31188BFF36F8FBFF34F8F71
:102E80003B6100BFFEE73E4B1B683F4A93420AD1BD
:102E90004FF0500383F31188BFF36F8FBFF34F8F51
:102EA000FB6000BFFEE7394B7B617B691B78DBB2BF
:102EB0007B607B69FF221A707B691B78DBB2FB7039
:102EC000FB78DBB203F05003DAB2314B1A70314BAE
:102ED00007221A6009E02F4B1B68013B2D4A136043
:102EE000FB78DBB25B00DBB2FB70FB78DBB203F09C
:102EF0008003802BEFD0274B1B68C3F10703042B03
:102F00000AD04FF0500383F31188BFF36F8FBFF3E4
:102F10004F8FBB6000BFFEE71E4B1B681B021D4AA4
:102F200013601C4B1B6803F4E0631A4A13607B6850
:102F3000DAB27B691A70184B1B68174A43F47003A6
:102F40001360154B1B68144A43F07043136000F084
:102F5000DDF8124B00221A6000F0FCF8104B1B68E1
:102F60000F4A43F040431360FFF766FF00F05CFE3A
:102F7000FFF71EFF002318461837BD4680BD00BF6F
:102F800000ED00E071C20F4170C20F4100E400E0AB
:102F9000300000203400002020ED00E00800002078
:102FA00034EF00E080B483B000AF4FF0500383F300
:102FB0001188BFF36F8FBFF34F8F7B6000BF0F4B44
:102FC0001B6801330D4A13600C4B1B68012B0FD19A
:102FD0000B4B1B68DBB2002B0AD04FF0500383F37E
:102FE0001188BFF36F8FBFF34F8F3B6000BFFEE7C9
:102FF00000BF0C37BD465DF8047B70470800002019
:1030000004ED00E080B483B000AF124B1B68002BCE
:103010000AD14FF0500383F31188BFF36F8FBFF3D2
:103020004F8F7B6000BFFEE70A4B1B68013B094ADC
:103030001360084B1B68002B05D100233B603B68E5
:1030400083F3118800BF00BF0C37BD465DF8047BD9
:10305000704700BF080000200000000000000000D2
:10306000EFF30980BFF36F8F154B1A681EF0100F36
:1030700008BF20ED108A20E9F04F10602DE909000B
:103080004FF0500080F31188BFF34F8FBFF36F8F65
:1030900000F0CAFD4FF0000080F3118809BC1968E8
:1030A0000868B0E8F04F1EF0100F08BFB0EC108AAF
:1030B00080F30988BFF36F8F704700BFAFF30080C4
:1030C000080C002000BF00BF80B582B000AF4FF0F9
:1030D000500383F31188BFF36F8FBFF34F8F7B6073
:1030E00000BF00F0E3FC0346002B03D0064B4FF07B
:1030F00080521A6000233B603B6883F3118800BF55
:1031000000BF0837BD4680BD04ED00E080B400AFCD
:103110000B4B00221A600B4B00221A600A4B1B68F3
:103120000A4AA2FB03239B09094A013B1360044B93
:1031300007221A6000BFBD465DF8047B704700BFE0
:1031400010E000E018E000E00C000020D34D621019
:1031500014E000E0DFF80C00016841F47001016048
:10316000704700BF88ED00E080B58AB000AF78609E
:103170000023FB6100F0F0FB584B1B68002B01D1D2
:1031800000F010F9564B1A687B681340002B40F092
:103190008E807B68002B1DD008227B6813447B60E7
:1031A0007B6803F00703002B14D07B6823F0070330
:1031B00008337B607B6803F00703002B0AD04FF0D5
:1031C000500383F31188BFF36F8FBFF34F8F7B6181
:1031D00000BFFEE77B68002B69D0424B1B687A6812
:1031E0009A4264D8404B3B623F4B1B687B6204E0D1
:1031F0007B6A3B627B6A1B687B627B6A5B687A687E
:103200009A4203D97B6A1B68002BF1D1334B1B68B0
:103210007A6A9A424BD03B6A1B6808221344FB61CE
:103220007B6A1A683B6A1A607B6A5A687B68D21AA2
:1032300008235B009A421FD97A6A7B681344BB61FA
:10324000BB6903F00703002B0AD04FF0500383F350
:103250001188BFF36F8FBFF34F8F3B6100BFFEE755
:103260007B6A5A687B68D21ABB695A607B6A7A6843
:103270005A60B86900F0F8F81A4B1A687B6A5B6804
:10328000D31A184A1360174B1A68184B1B689A42D6
:1032900003D2144B1B68154A13607B6A5A68104BA3
:1032A0001B681A437B6A5A607B6A00221A6000F02E
:1032B00061FBFB6903F00703002B0AD04FF05003BA
:1032C00083F31188BFF36F8FBFF34F8FFB6000BF95
:1032D000FEE7FB6918462837BD4680BDF80B002085
:1032E000040C0020FC0B0020F00B0020000C002040
:1032F00080B586B000AF78607B687B617B68002B0F
:1033000048D008235B427A6913447B617B693B6147
:103310003B695A68214B1B681340002B0AD14FF0C0
:10332000500383F31188BFF36F8FBFF34F8FFB60A0
:1033300000BFFEE73B691B68002B0AD04FF050032B
:1033400083F31188BFF36F8FBFF34F8FBB6000BF54
:10335000FEE73B695A68114B1B681340002B19D0DC
:103360003B691B68002B15D13B695A680B4B1B68E6
:10337000DB431A403B695A6000F0EEFA3B695A6839
:10338000074B1B681344064A1360386900F06CF859
:1033900000F0F0FA00BF1837BD4680BD040C0020D5
:1033A000FC0B002080B485B000AF40F6B833BB60A2
:1033B000274BFB60FB6803F00703002B0CD0FB6876
:1033C0000733FB60FB6823F00703FB60BA68FB6808
:1033D000D31A1F4A1344BB60FB687B601D4A7B689D
:1033E00013601C4B00225A607B68BA681344FB6070
:1033F0000822FB689B1AFB60FB6823F00703FB6055
:10340000FB68154A1360144B1B6800225A60124B6C
:103410001B6800221A607B683B603B68FA68D21A1E
:103420003B685A600C4B1A683B681A603B685B68E3
:103430000A4A13603B685B68094A1360094B4FF006
:1034400000421A6000BF1437BD465DF8047B704728
:1034500038000020F00B0020F80B0020000C0020AA
:10346000FC0B0020040C002080B485B000AF786015
:10347000284BFB6002E0FB681B68FB60FB681B6875
:103480007A689A42F7D8FB68BB60FB685B68BA68E9
:1034900013447A689A4208D1FB685A687B685B6873
:1034A0001A44FB685A60FB687B607B68BB607B6882
:1034B0005B68BA681A44FB681B689A4218D1FB68BB
:1034C0001A68154B1B689A420DD07B685A68FB68D6
:1034D0001B685B681A447B685A60FB681B681A6843
:1034E0007B681A6008E00C4B1A687B681A6003E07E
:1034F000FB681A687B681A60FA687B689A4202D097
:10350000FB687A681A6000BF1437BD465DF8047B1B
:10351000704700BFF00B0020F80B002080B58EB084
:1035200004AFF860B9607A603B607B6B002B0AD116
:103530004FF0500383F31188BFF36F8FBFF34F8FAA
:103540003B6200BFFEE7BB6B002B0AD14FF050037C
:1035500083F31188BFF36F8FBFF34F8FFB6100BF01
:10356000FEE754233B613B69542B0AD04FF05003D4
:1035700083F31188BFF36F8FBFF34F8FBB6100BF21
:10358000FEE7BB6B002B1ED07B6B002B1BD0BB6BF5
:103590007B627B6A7A6B1A637B6A022283F8512012
:1035A000002303937B6A029307F1140301933B6B9F
:1035B00000933B687A68B968F86800F050F8786A58
:1035C00000F0CCF801E000237B617B6918462837C6
:1035D000BD4680BD80B58CB004AFF860B9603B607B
:1035E0001346FB80FB889B001846FFF7BDFD786102
:1035F0007B69002B0ED05420FFF7B6FDF861FB6904
:10360000002B03D0FB697A691A6305E07869FFF73C
:103610006FFE01E00023FB61FB69002B17D0FB6903
:10362000002283F85120FA8800230393FB69029358
:10363000FB6A0193BB6A00933B68B968F86800F0C5
:103640000EF8F86900F08AF80123BB6102E04FF040
:10365000FF33BB61BB6918462037BD4680BD80B5CE
:1036600088B000AFF860B9607A603B603B6B1A6B62
:103670007B6803F18043013B9B001344BB61BB6942
:1036800023F00703BB61BB6903F00703002B0AD0DB
:103690004FF0500383F31188BFF36F8FBFF34F8F49
:1036A0007B6100BFFEE70023FB6112E0BA68FB69A3
:1036B000134419783A6BFB69134434330A461A7081
:1036C000BA68FB6913441B78002B06D0FB690133F1
:1036D000FB61FB690F2BE9D900E000BF3B6B0022C7
:1036E00083F84320BB6A062B01D90623BB623B6BE0
:1036F000BA6ADA623B6BBA6A5A643B6B00229A641C
:103700003B6B04331846FFF78BFA3B6B18331846B4
:10371000FFF786FA3B6B3A6B1A61BB6AC3F107028B
:103720003B6B9A613B6B3A6B5A623B6B0022DA64EB
:103730003B6B002283F850203A68F968B869FFF7BC
:1037400003FB02463B6B1A60FB6A002B02D0FB6A4C
:103750003A6B1A6000BF2037BD4680BD80B582B08D
:1037600000AF7860FFF71EFC2A4B1B680133294A23
:103770001360294B1B68002B09D1274A7B68136013
:10378000244B1B68012B10D100F0C2FA0DE0234B33
:103790001B68002B09D1204B1B68DA6A7B68DB6A47
:1037A0009A4202D81C4A7B6813601D4B1B68013388
:1037B0001B4A13607B68DB6A01229A40194B1B6825
:1037C0001343184A13607B68DA6A13469B0013445C
:1037D0009B00154A1A447B68043319461046FFF7CC
:1037E0002CFAFFF70FFC0D4B1B68002B0ED00A4B79
:1037F0001B68DA6A7B68DB6A9A4207D20B4B4FF090
:1038000080521A60BFF34F8FBFF36F8F00BF08372E
:10381000BD4680BD080D0020080C0020140D0020BE
:10382000240D0020100D00200C0C002004ED00E001
:1038300080B584B000AF78600023FB607B68002B0C
:1038400017D0134B1B68002B0AD04FF0500383F3A3
:103850001188BFF36F8FBFF34F8FBB6000BFFEE7D0
:1038600000F07AF80021786800F016FB00F082F88A
:10387000F860FB68002B07D1064B4FF080521A60AE
:10388000BFF34F8FBFF36F8F00BF1037BD4680BDB2
:10389000300D002004ED00E080B58AB004AF0023B5
:1038A000BB6000237B603A46391D07F108031846C8
:1038B00000F058FB39687B68BA68029201930023D4
:1038C000009300230A461E491E48FFF727FE0346C1
:1038D0001D4A13601C4B1B68002B02D001237B6127
:1038E00001E000237B617B69012B16D14FF050036F
:1038F00083F31188BFF36F8FBFF34F8F3B6100BF1E
:10390000124B4FF0FF321A60114B01221A60114B1B
:1039100000221A60FFF7A4FA0EE07B69B3F1FF3FC3
:103920000AD14FF0500383F31188BFF36F8FBFF3B9
:103930004F8FFB6000BFFEE700BF1837BD4680BD5C
:1039400010450008E13C00082C0D0020280D002047
:10395000140D00200C0D002080B400AF044B1B6838
:103960000133034A136000BFBD465DF8047B704716
:10397000300D002080B584B000AF0023FB60002331
:10398000BB60414B1B68002B0AD14FF0500383F3FF
:103990001188BFF36F8FBFF34F8F3B6000BFFEE70F
:1039A000FFF700FB384B1B68013B374A1360364B6F
:1039B0001B68002B61D1354B1B68002B5DD02EE0BE
:1039C000334BDB68DB68FB60FB6818331846FFF796
:1039D00091F9FB6804331846FFF78CF9FB68DB6A42
:1039E00001229A402B4B1B6813432A4A1360FB6841
:1039F000DA6A13469B0013449B00274A1A44FB686B
:103A0000043319461046FFF718F9FB68DA6A234BAE
:103A10001B68DB6A9A4202D3214B01221A601C4BBD
:103A20001B68002BCCD1FB68002B01D000F00EFAF4
:103A30001C4B1B687B607B68002B10D000F036F8B5
:103A40000346002B02D0164B01221A607B68013B13
:103A50007B607B68002BF1D1124B00221A60104B67
:103A60001B68002B09D00123BB600F4B4FF0805225
:103A70001A60BFF34F8FBFF36F8FFFF7C3FABB68B6
:103A800018461037BD4680BD300D0020080D0020BF
:103A9000C80C0020100D00200C0C0020080C002089
:103AA0001C0D0020180D002004ED00E080B586B04C
:103AB00000AF00237B61514B1B68002B40F08D80D1
:103AC0004F4B1B6801333B614D4A3B6913603B69B7
:103AD000002B20D14B4B1B681B68002B0AD04FF0EA
:103AE000500383F31188BFF36F8FBFF34F8F3B6099
:103AF00000BFFEE7434B1B68FB60434B1B68414A1A
:103B00001360414AFB681360404B1B6801333F4A16
:103B1000136000F09BF93E4B1B683A699A424DD303
:103B2000384B1B681B68002B01D1012300E00023E8
:103B3000002B04D0364B4FF0FF321A603EE0314B81
:103B40001B68DB68DB68BB60BB685B687B603A69ED
:103B50007B689A4203D22E4A7B6813602EE0BB68D2
:103B600004331846FFF7C6F8BB689B6A002B04D0E5
:103B7000BB6818331846FFF7BDF8BB68DB6A012243
:103B80009A40244B1B681343224A1360BB68DA6ACD
:103B900013469B0013449B001F4A1A44BB6804331E
:103BA00019461046FFF749F8BB68DA6A1B4B1B68D9
:103BB000DB6A9A42B4D301237B61B1E7174B1B68E0
:103BC000DA6A154913469B0013449B000B441B689B
:103BD000012B07D901237B6104E0114B1B680133E2
:103BE0000F4A13600F4B1B68002B01D001237B6130
:103BF0007B6918461837BD4680BD00BF300D0020D8
:103C00000C0D0020C00C0020C40C0020200D002052
:103C1000280D0020100D00200C0C0020080C0020A6
:103C2000180D00201C0D002080B487B000AF274B7A
:103C30001B68002B03D0264B01221A603FE0244B67
:103C400000221A60234B1B68FB60FB68B3FA83F306
:103C5000FB72FB7AC3F11F037B611F497A6913462C
:103C60009B0013449B000B441B68002B0AD14FF0B0
:103C7000500383F31188BFF36F8FBFF34F8F7B60C7
:103C800000BFFEE77A6913469B0013449B00124A6B
:103C900013443B613B695B685A683B695A603B6906
:103CA0005A683B6908339A4204D13B695B685A6899
:103CB0003B695A603B695B68DB68084A136000BF78
:103CC0001C37BD465DF8047B704700BF300D0020F7
:103CD0001C0D0020100D00200C0C0020080C0020F2
:103CE00080B582B000AF786000F052F8064B1B68D8
:103CF000012BF9D9054B4FF080521A60BFF34F8F5B
:103D0000BFF36F8FF0E700BF0C0C002004ED00E064
:103D100080B582B000AF00237B600CE07A68134668
:103D20009B0013449B00124A13441846FEF758FFA9
:103D30007B6801337B607B68062BEFD90D48FEF76B
:103D40004FFF0D48FEF74CFF0C48FEF749FF0C48AB
:103D5000FEF746FF0B48FEF743FF0B4B054A1A6080
:103D60000A4B054A1A6000BF0837BD4680BD00BF38
:103D70000C0C0020980C0020AC0C0020C80C00207B
:103D8000DC0C0020F40C0020C00C0020C40C00202F
:103D900080B582B000AF19E0FFF704F9104BDB6883
:103DA000DB687B607B6804331846FEF7A3FF0D4B8E
:103DB0001B68013B0B4A13600B4B1B68013B0A4A13
:103DC0001360FFF71FF9786800F010F8064B1B68C6
:103DD000002BE1D100BF00BF0837BD4680BD00BF4A
:103DE000DC0C0020080D0020F00C002080B584B011
:103DF00000AF78607B6893F85130002B08D17B6866
:103E00001B6B1846FFF774FA7868FFF771FA18E031
:103E10007B6893F85130012B03D17868FFF768FA7B
:103E20000FE07B6893F85130022B0AD04FF050031B
:103E300083F31188BFF36F8FBFF34F8FFB6000BF19
:103E4000FEE700BF1037BD4680BD000080B483B0E0
:103E500000AF0F4B1B681B68002B01D1012300E052
:103E60000023002B04D00B4B4FF0FF321A6008E008
:103E7000074B1B68DB68DB687B607B685B68054A17
:103E8000136000BF0C37BD465DF8047B704700BF70
:103E9000C00C0020280D002080B584B000AF7860F1
:103EA0003960294B1B68FB60284B1B68043318469C
:103EB000FEF720FF0346002B0BD1244B1B68DB6A67
:103EC000012202FA03F3DA43214B1B681340204A14
:103ED00013607B68B3F1FF3F0AD13B68002B07D02A
:103EE0001A4B1B68043319461A48FEF7A6FE26E053
:103EF000FA687B681344BB60144B1B68BA685A604D
:103F0000BA68FB689A4209D2134B1A680F4B1B68B8
:103F1000043319461046FEF7B4FE10E00F4B1A6842
:103F20000A4B1B68043319461046FEF7AAFE0C4BD9
:103F30001B68BA689A4202D2094ABB68136000BF84
:103F40001037BD4680BD00BF0C0D0020080C0020BE
:103F5000100D0020F40C0020C40C0020C00C002028
:103F6000280D002080B485B000AFF860B9607A6099
:103F7000FB68074A1A60BB68064A1A607B688022A1
:103F80001A6000BF1437BD465DF8047B704700BF60
:103F9000380D00208C0D0020B0B588B000AF0A4B62
:103FA0003C1D1D460FCD0FC495E8070084E80700AF
:103FB0003B1D00211846FEF7B3FD0346034A13607C
:103FC00000BF2037BD46B0BD20450008340D00209D
:103FD00080B582B000AF78604FF400510348FCF721
:103FE0001DFD4FF47A70FEF7E7FDF5E70008004885
:103FF00080B588B000AF07F10C0300221A605A6048
:104000009A60DA601A611E4BDB6C1D4A43F00403B0
:10401000D3641B4BDB6C03F00403BB60BB68184B21
:10402000DB6C174A43F08003D364154BDB6C03F061
:1040300080037B607B68124BDB6C114A43F0010309
:10404000D3640F4BDB6C03F001033B603B68002241
:104050004FF400510B48FCF7C9FC4FF40053FB60D0
:1040600001233B6100237B610023BB6107F10C034B
:1040700019460448FCF740FB00BF2037BD4680BD11
:10408000001002400008004880B500AFFCF71CFAA1
:1040900000F009F8FFF7ACFF00F062F9FFF77CFFD2
:1040A000FEF737FDFEE780B5AEB000AF07F1740351
:1040B00044220021184600F015FA07F1600300229F
:1040C0001A605A609A60DA601A613B1D5C22002116
:1040D000184600F007FA01237B674FF48033BB6773
:1040E0000223C7F89C300323C7F8A0300123C7F888
:1040F000A4301423C7F8A8300723C7F8AC30022334
:10410000C7F8B0300223C7F8B43007F1740318467B
:10411000FCF702FD0346002B01D000F041F80F230D
:104120003B6603237B660023BB660023FB660023FC
:104130003B6707F1600304211846FDF7DBF80346EF
:10414000002B01D000F02CF801237B6000237B6260
:104150003B1D1846FDF706FB0346002B01D000F07F
:104160001FF84FF40070FCF781FC0346002B01D0D0
:1041700000F016F800BFB837BD4680BD80B582B0EC
:1041800000AF78607B681B68044A934201D1FCF75A
:10419000B3F900BF0837BD4680BD00BF002C014009
:1041A00080B400AF00BFBD465DF8047B70470000DF
:1041B00080B582B000AF114B1B6E104A43F0010373
:1041C00013660E4B1B6E03F001037B607B680B4B89
:1041D0009B6D0A4A43F080539365084B9B6D03F037
:1041E00080533B603B6800220F216FF00100FCF719
:1041F00059FA00BF0837BD4680BD00BF001002401D
:1042000080B58CB000AF78600023FB620023BB62F6
:10421000002279681920FCF745FA1920FCF75EFAAC
:104220001E4B1B6E1D4A43F4006313661B4B1B6E33
:1042300003F40063FB60FB6807F1100207F114034D
:1042400011461846FDF7FCF9FDF7E4F9F862FB6A40
:10425000134AA2FB03239B0C013BBB62114B124A86
:104260001A60104B40F2E732DA600E4ABB6A5360C4
:104270000C4B00221A610B4B00229A600948FDF793
:104280007BFD0346002B04D10648FDF7ABFD03463A
:1042900000E0012318463037BD4680BD00100240C3
:1042A00083DE1B438C0F0020002C014080B400AF44
:1042B00000BFBD465DF8047B704780B400AFFEE7E9
:1042C00080B400AFFEE780B400AFFEE780B400AF7B
:1042D000FEE780B400AF00BFBD465DF8047B7047C9
:1042E00080B500AF0248FDF7A7FD00BF80BD00BF4D
:1042F0008C0F002080B400AF174BD3F88830164ADB
:1043000043F47003C2F88830144B1B68134A43F01F
:1043100001031360114B00229A60104B1B680F4A77
:1043200023F0A85323F4102313600C4B4FF4805256
:10433000DA600A4B1B68094A23F480231360074B99
:1043400000229A61044B4FF000629A6000BFBD46A4
:104350005DF8047B704700BF00ED00E000100240F4
:1043600080B500AF144B154A1A60134B4FF4E1327D
:104370005A60114B00229A600F4B0022DA600E4BFC
:1043800000221A610C4B0C225A610B4B00229A61DD
:10439000094B0022DA61084B00221A62064B002208
:1043A0005A620548FDF712FF0346002B01D0FFF7C4
:1043B000F7FE00BF80BD00BFCC0F002000380140D9
:1043C00080B58AB000AF786007F1140300221A604C
:1043D0005A609A60DA601A617B681B68184A9342D7
:1043E00029D1184B1B6E174A43F480431366154BB3
:1043F0001B6E03F480433B613B69124BDB6C114A3B
:1044000043F00103D3640F4BDB6C03F00103FB604B
:10441000FB684FF4C0637B610223BB610023FB6137
:1044200003233B6207237B6207F1140319464FF015
:104430009040FCF761F900BF2837BD4680BD00BF42
:104440000038014000100240DFF834D0002103E0C2
:104450000C4B5B58435004310B480C4B42189A42AA
:10446000F6D30B4A02E0002342F8043B094B9A4280
:10447000F9D3FFF73FFF00F011F8FFF705FEFEE765
:1044800000000120A04500080000002010000020CE
:10449000100000204C100020FEE7000070B50D4D0C
:1044A0000D4C641BA4100026A64209D10B4D0C4CE8
:1044B00000F020F8641BA4100026A64205D170BDB0
:1044C00055F8043B98470136EEE755F8043B98470A
:1044D0000136F2E790450008904500089045000835
:1044E0009445000802440346934200D1704703F804
:1044F000011BF9E7F8B500BFF8BC08BC9E46704741
:10450000F8B500BFF8BC08BC9E467047000000002C
:1045100049444C45000000005461736B31000000B9
:1045200018450008D13F000800000000000000000E
:1045300080000000000000000000000000000000FB
:104540000000000001020304060708090000000043
:1045500001020304A0860100400D0300801A06003A
:1045600000350C0040420F0080841E0000093D0011
:1045700000127A000024F40000366E010048E801C1
:08458000006CDC0200000000E9
:0845880078BCFF7F0100000078
:08459000B50100080000000065
:08459800910100080000000081
:1045A0001000000001000000AAAAAAAA00093D000C
:040000050800444962
:00000001FF
