:020000040800F2
:1000000000000120D1300008D12E0008DD2E0008AC
:10001000E32E0008E92E0008EF2E00080000000083
:10002000000000000000000000000000F52E0008A5
:10003000012F0008000000000D2F0008192F0008F4
:100040002131000821310008213100082131000848
:100050002131000821310008213100082131000838
:100060002131000821310008213100082131000828
:100070002131000821310008252F00082131000816
:100080002131000821310008213100082131000808
:1000900021310008213100082131000821310008F8
:1000A00021310008213100082131000821310008E8
:1000B000213100080000000000000000213100088C
:1000C00021310008213100082131000821310008C8
:1000D00021310008213100082131000821310008B8
:1000E000213100082131000800000000000000005C
:1000F0000000000000000000000000000000000000
:10010000000000002131000800000000213100083B
:10011000000000000000000021310008213100082B
:100120002131000821310008213100082131000867
:100130002131000800000000000000000000000065
:1001400021310008213100082131000800000000A1
:100150002131000821310008213100082131000837
:100160002131000821310008213100080000000081
:1001700021310008213100080000000000000000CB
:100180002131000821310008213100080000000061
:1001900010B5054C237833B9044B13B10448AFF3C1
:1001A00000800123237010BD280000200000000003
:1001B0007C31000808B5034B1BB103490348AFF37A
:1001C000008008BD000000002C0000207C310008E9
:1001D00053B94AB9002908BF00281CBF4FF0FF31AE
:1001E0004FF0FF3000F06CB9ADF1080C6DE904CEB2
:1001F00000F006F8DDF804E0DDE9022304B0704702
:100200002DE9F047089E0D4604468E46002B40F02F
:1002100082808A42174646D9B2FA82F24AB1C2F1C6
:10022000200105FA02F320FA01F1974041EA030E9A
:1002300094404FEA1748230CBEFBF8FCB9B208FB08
:100240001CEE43EA0E430CFB01F098420AD9FB185E
:100250000CF1FF3580F01681984240F21381ACF129
:10026000020C3B441B1AA4B2B3FBF8F008FB10339A
:1002700044EA034400FB01F1A14209D93C1900F111
:10028000FF3380F00181A14240F2FE8002383C44FD
:10029000641A40EA0C4000211EB1D4400023C6E994
:1002A0000043BDE8F08702B9FFDEB2FA82F2002A0D
:1002B0004FD1CB1B4FEA174E1FFA87F80121B3FB32
:1002C000FEFC250C0EFB1C3345EA034508FB0CF332
:1002D000AB4207D97D190CF1FF3002D2AB4200F2DC
:1002E000E7808446ED1AA3B2B5FBFEF00EFB105575
:1002F00043EA054408FB00F8A04507D93C1900F182
:10030000FF3302D2A04500F2D7801846A4EB0804C0
:1003100040EA0C40C0E78B4208D9002E00F0AF80C5
:100320000021C6E900050846BDE8F087B3FA83F16D
:1003300000294BD1AB4202D3824200F2B780841A2B
:1003400065EB030301209E46002EAAD0C6E9004EAD
:10035000A7E7C2F1200C01FA02F3974020FA0CF053
:100360004FEA174E21FA0CFC1843BCFBFEF1050CBA
:100370000EFB11CC1FFA87F845EA0C4501FB08F388
:10038000AB4204FA02F409D97D1901F1FF3C80F077
:100390008B80AB4240F2888002393D44EB1A85B233
:1003A000B3FBFEF00EFB103345EA034500FB08F3F8
:1003B000AB4207D97D1900F1FF3C71D2AB426FD936
:1003C00002383D44EB1A40EA014178E7C1F1200CC4
:1003D0008B4022FA0CF71F4320FA0CF405FA01F3C4
:1003E0004FEA174E25FA0CF51C43230CB5FBFEF91A
:1003F0001FFA87F80EFB195543EA054509FB08FA71
:10040000AA4502FA01F200FA01F308D97D1909F1AF
:10041000FF3047D2AA4545D9A9F102093D44A5EBD1
:100420000A05A4B2B5FBFEF00EFB105544EA0544E4
:1004300000FB08F8A04507D93C1900F1FF352DD283
:10044000A0452BD902383C4440EA0940A4EB0804FB
:10045000A0FB02894C45C6464D4619D316D05EB165
:10046000B3EB0E0264EB050404FA0CFCCA404CEA40
:100470000202CC40C6E900240021BDE8F0873146E5
:1004800030460EE7AC46EDE6184601E74345E6D2B6
:10049000B8EB020E69EB07050138E0E72846D3E721
:1004A00060468FE78146BAE7614677E708464BE743
:1004B000ACF1020C3D4415E702383C4426E700BF8E
:1004C000704700BF80B582B000AF0023FB710320EE
:1004D00000F032F9002000F00DF80346002B02D0A6
:1004E0000123FB7101E002F0D1FCFB7918460837CB
:1004F000BD4680BD80B584B000AF78600023FB733B
:10050000164B1B68002B22D0154B1A68134B1B6827
:100510004FF47A71B1FBF3F3B2FBF3F3184600F03A
:1005200040F90346002B0FD17B680F2B09D800221E
:1005300079684FF0FF3000F00AF90A4A7B681360CF
:1005400007E00123FB7304E00123FB7301E00123B7
:10055000FB73FB7B18461037BD4680BD04000020AE
:10056000200000200000002080B400AF054B1A6876
:10057000054B1B681344034A136000BFBD4680BC93
:10058000704700BF440000200400002080B400AF8A
:10059000024B1B681846BD4680BC704744000020D3
:1005A00080B485B000AF78607B6803F00703FB6020
:1005B0000C4BDB68BB60BA684FF6FF031340BB60AF
:1005C000FB681A02BB68134343F0BF6343F4003374
:1005D000BB60044ABB68D36000BF1437BD4680BC13
:1005E000704700BF00ED00E080B400AF044BDB6853
:1005F0001B0A03F007031846BD4680BC704700BFC6
:1006000000ED00E080B483B000AF0346FB7197F9C2
:100610000730002B0BDBFB7903F01F02064997F92B
:1006200007305B09012000FA02F241F8232000BFE5
:100630000C37BD4680BC704700E100E080B483B059
:1006400000AF03463960FB7197F90730002B0ADBD6
:100650003B68DAB20C4997F907301201D2B20B4469
:1006600083F800230AE03B68DAB20849FB7903F01B
:100670000F03043B1201D2B20B441A7600BF0C37B1
:10068000BD4680BC704700BF00E100E000ED00E027
:1006900080B489B000AFF860B9607A60FB6803F09D
:1006A0000703FB61FB69C3F10703042B28BF042385
:1006B000BB61FB690433062B02D9FB69033B00E0F5
:1006C00000237B614FF0FF32BB6902FA03F3DA4388
:1006D000BB681A407B699A404FF0FF317B6901FA91
:1006E00003F3D9437B680B40134318462437BD46B8
:1006F00080BC704780B582B000AF78607B68013BFA
:10070000B3F1807F01D301230FE00A4A7B68013BEC
:1007100053600F214FF0FF30FFF790FF054B002291
:100720009A60044B07221A60002318460837BD461A
:1007300080BD00BF10E000E080B582B000AF7860FF
:100740007868FFF72DFF00BF0837BD4680BD80B534
:1007500086B000AF0346B9607A60FB7300237B610B
:10076000FFF742FF78617A68B9687869FFF790FF10
:10077000024697F90F3011461846FFF75FFF00BF9A
:100780001837BD4680BD80B582B000AF0346FB710F
:1007900097F907301846FFF735FF00BF0837BD4609
:1007A00080BD80B582B000AF78607868FFF7A2FFA7
:1007B000034618460837BD4680BD000080B485B0AA
:1007C00000AF78607B68002B01D1012398E07B6843
:1007D0001B681A464D4B9A420FD87B681B681A4615
:1007E0004B4B13444B4AA2FB03231B099A007B6823
:1007F0005A647B68484A1A640EE07B681B681A4694
:10080000464B1344434AA2FB03231B099A007B680F
:100810005A647B68424A1A647B68022283F8252066
:100820007B681B681B68FB60FB6823F4FF4323F0B5
:100830007003FB607B689A687B68DB681A437B689F
:100840001B691A437B685B691A437B689B691A437F
:100850007B68DB691A437B681B6A1343FA6813439E
:10086000FB607B681B68FA681A607B689B68B3F55D
:10087000804F39D07B681B6C274A93421AD1294B91
:100880001A687B685B6C03F01C030F2101FA03F309
:10089000DB43244913400B60224B1A687B6859687C
:1008A0007B685B6C03F01C0301FA03F31D491343DF
:1008B0000B6019E01C4B1A687B685B6C03F01C032F
:1008C0000F2101FA03F3DB43174913400B60164B6A
:1008D0001A687B6859687B685B6C03F01C0301FA3B
:1008E00003F3114913430B607B680022DA637B68D2
:1008F000012283F825207B68002283F8242000232E
:1009000018461437BD4680BC704700BF070402403C
:10091000F8FFFDBFCDCCCCCC00000240F8FBFDBF02
:1009200000040240A8000240A804024080B586B03E
:1009300000AFF860B9607A603B600023FB75FB682C
:1009400093F82430012B01D102234BE0FB680122F4
:1009500083F82420FB6893F82530DBB2012B3AD1D1
:10096000FB68022283F82520FB680022DA63FB681B
:100970001B681A68FB681B6822F001021A603B685A
:100980007A68B968F86800F0E0F8FB681B6B002B28
:1009900008D0FB681B681A68FB681B6842F00E02EF
:1009A0001A600FE0FB681B681A68FB681B6822F07E
:1009B00004021A60FB681B681A68FB681B6842F037
:1009C0000A021A60FB681B681A68FB681B6842F021
:1009D00001021A6005E0FB68002283F8242002234C
:1009E000FB75FB7D18461837BD4680BD80B584B0C9
:1009F00000AF78607B681B6C1B68FB607B681B68C2
:100A00001B68BB607B685B6C03F01C0304229A408C
:100A1000FB681340002B26D0BB6803F00403002BB7
:100A200021D07B681B681B6803F02003002B07D1D3
:100A30007B681B681A687B681B6822F004021A60D6
:100A40007B685B6C03F01C027B681B6C042101FA61
:100A500002F25A607B681B6B002B71D07B681B6BAA
:100A6000786898476CE07B685B6C03F01C0302229B
:100A70009A40FB681340002B2ED0BB6803F00203A2
:100A8000002B29D07B681B681B6803F02003002B18
:100A90000BD17B681B681A687B681B6822F00A020E
:100AA0001A607B68012283F825207B685B6C03F069
:100AB0001C027B681B6C022101FA02F25A607B68FF
:100AC000002283F824207B68DB6A002B38D07B6807
:100AD000DB6A7868984733E07B685B6C03F01C0343
:100AE00008229A40FB681340002B2AD0BB6803F011
:100AF0000803002B25D07B681B681A687B681B687D
:100B000022F00E021A607B685B6C03F01C027B68AB
:100B10001B6C012101FA02F25A607B680122DA6340
:100B20007B68012283F825207B68002283F824203B
:100B30007B685B6B002B04D07B685B6B78689847A5
:100B400000BF00BF1037BD4680BD80B485B000AF88
:100B5000F860B9607A603B60FB685B6C03F01C0274
:100B6000FB681B6C012101FA02F25A60FB681B68EA
:100B70003A685A60FB689B68102B08D1FB681B68B9
:100B80007A689A60FB681B68BA68DA6007E0FB68FD
:100B90001B68BA689A60FB681B687A68DA6000BFF5
:100BA0001437BD4680BC704780B487B000AF786012
:100BB000396000237B6154E13B681A6801217B693D
:100BC00001FA03F31340FB60FB68002B00F0468141
:100BD0003B685B68022B03D03B685B68122B23D118
:100BE0007B69DA087B68083253F822303B617B6905
:100BF00003F007039B000F2202FA03F3DB433A6979
:100C000013403B613B681A697B6903F007039B0053
:100C100002FA03F33A6913433B617B69DA087B68A4
:100C20000832396943F822107B681B683B617B6995
:100C30005B00032202FA03F3DB433A6913403B6192
:100C40003B685B6803F003027B695B0002FA03F315
:100C50003A6913433B617B683A691A603B685B6899
:100C6000012B0BD03B685B68022B07D03B685B68AD
:100C7000112B03D03B685B68122B30D17B689B68DB
:100C80003B617B695B00032202FA03F3DB433A69B1
:100C900013403B613B68DA687B695B0002FA03F34F
:100CA0003A6913433B617B683A699A607B685B6889
:100CB0003B6101227B6902FA03F3DB433A6913408B
:100CC0003B613B685B681B0903F001027B6902FA28
:100CD00003F33A6913433B617B683A695A607B6866
:100CE000DB683B617B695B00032202FA03F3DB43B1
:100CF0003A6913403B613B689A687B695B0002FA82
:100D000003F33A6913433B617B683A69DA603B68F5
:100D10005B6803F08053002B00F0A080584B1B6EE3
:100D2000574A43F001031366554B1B6E03F0010352
:100D3000BB60BB68534A7B699B08023352F823307F
:100D40003B617B6903F003039B000F2202FA03F36C
:100D5000DB433A6913403B617B68B3F1904F19D094
:100D60007B68494A934213D07B68484A93420DD02E
:100D70007B68474A934207D07B68464A934201D139
:100D8000042308E0072306E0032304E0022302E033
:100D9000012300E000237A6902F0030292009340ED
:100DA0003A6913433B6137497B699B0802333A69CF
:100DB00041F82320384B1B683B61FB68DB433A69F1
:100DC00013403B613B685B6803F48033002B03D026
:100DD0003A69FB6813433B612F4A3B6913602E4B12
:100DE0005B683B61FB68DB433A6913403B613B68EE
:100DF0005B6803F40033002B03D03A69FB681343AC
:100E00003B61254A3B695360234B9B683B61FB6810
:100E1000DB433A6913403B613B685B6803F4801332
:100E2000002B03D03A69FB6813433B611A4A3B69C4
:100E30009360194BDB683B61FB68DB433A69134005
:100E40003B613B685B6803F40013002B03D03A69F5
:100E5000FB6813433B61104A3B69D3607B690133F4
:100E60007B613B681A687B6922FA03F3002B7FF4ED
:100E7000A3AE00BF00BF1C37BD4680BC704700BF9B
:100E80000010024000000140000400480008004833
:100E9000000C0048001000480004014080B400AF7E
:100EA000034B1B6803F4C0631846BD4680BC704703
:100EB0000070004080B485B000AF78607B68B3F507
:100EC000007F30D1224B1B6803F4C063B3F5007F71
:100ED00038D01F4B1B6823F4C0631D4A43F40073D2
:100EE00013601C4B1B68322202FB03F31A4AA2FB5D
:100EF00003239B0C0133FB6002E0FB68013BFB60BA
:100F0000134B5B6903F48063B3F5806F02D1FB6818
:100F1000002BF2D10E4B5B6903F48063B3F5806F55
:100F200010D103230FE00A4B1B6803F4C063B3F531
:100F3000806F07D0064B1B6823F4C063044A43F458
:100F400080631360002318461437BD4680BC704789
:100F5000007000402000002083DE1B4380B588B075
:100F600000AF78607B68002B01D10123DBE3A44B49
:100F70009B6803F00C03BB61A14BDB6803F0030328
:100F80007B617B681B6803F01003002B00F0E1809D
:100F9000BB69002B07D0BB690C2B40F088807B69B4
:100FA000012B40F08480964B1B6803F00203002B5A
:100FB00005D07B689B69002B01D10123B3E37B68DB
:100FC0001A6A8F4B1B6803F00803002B04D08C4B6C
:100FD0001B6803F0F00305E0894BD3F894301B093C
:100FE00003F0F003934223D27B681B6A184600F09B
:100FF00045FD0346002B01D0012394E3804B1B6881
:101000007F4A43F0080313607D4B1B6823F0F00216
:101010007B681B6A7A4913430B60794B5B6823F446
:101020007F427B68DB691B02754913434B6022E0FA
:10103000734B1B68724A43F008031360704B1B68C4
:1010400023F0F0027B681B6A6D4913430B606C4B05
:101050005B6823F47F427B68DB691B0268491343AA
:101060004B607B681B6A184600F008FD0346002BA6
:1010700001D0012357E300F041FC0246604B9B681E
:101080001B0903F00F035F49CB5C03F01F0322FA37
:1010900003F35D4A13605D4B1B681846FFF72AFA9D
:1010A0000346FB73FB7B002B52D0FB7B3BE37B684F
:1010B0009B69002B32D0524B1B68514A43F001030D
:1010C0001360FFF763FA386108E0FFF75FFA024642
:1010D0003B69D31A022B01D9032324E3484B1B6835
:1010E00003F00203002BF0D0454B1B68444A43F049
:1010F00008031360424B1B6823F0F0027B681B6AF5
:101100003F4913430B603E4B5B6823F47F427B688F
:10111000DB691B023A4913434B601AE0384B1B68EA
:10112000374A23F001031360FFF730FA386108E013
:10113000FFF72CFA02463B69D31A022B01D903238D
:10114000F1E22F4B1B6803F00203002BF0D100E00B
:1011500000BF7B681B6803F00103002B74D0BB69E0
:10116000082B05D0BB690C2B0ED17B69032B0BD14F
:10117000234B1B6803F40033002B64D07B685B684F
:10118000002B60D10123CEE27B685B68B3F5803F22
:1011900006D11B4B1B681A4A43F4803313601DE0D1
:1011A0007B685B68B3F5A02F0CD1154B1B68144A04
:1011B00043F480231360124B1B68114A43F48033BD
:1011C00013600BE00E4B1B680D4A23F48033136051
:1011D0000B4B1B680A4A23F4802313607B685B680F
:1011E000002B1CD0FFF7D2F9386111E0FFF7CEF9E0
:1011F00002463B69D31A642B0AD9032393E200BF4A
:10120000001002409831000820000020000000205B
:10121000AE4B1B6803F40033002BE7D014E0FFF75C
:10122000B5F9386108E0FFF7B1F902463B69D31A16
:10123000642B01D9032376E2A44B1B6803F400332B
:10124000002BF0D100E000BF7B681B6803F00203B5
:10125000002B60D0BB69042B05D0BB690C2B19D1C6
:101260007B69022B16D1994B1B6803F48063002B1A
:1012700005D07B68DB68002B01D1012353E2934B3F
:101280005B6823F0F8527B681B691B068F49134388
:101290004B6040E07B68DB68002B23D08B4B1B68E6
:1012A0008A4A43F480731360FFF770F9386108E0ED
:1012B000FFF76CF902463B69D31A022B01D90323CD
:1012C00031E2824B1B6803F48063002BF0D07F4B2C
:1012D0005B6823F0F8527B681B691B067B4913434C
:1012E0004B6018E0794B1B68784A23F480731360D5
:1012F000FFF74CF9386108E0FFF748F902463B690F
:10130000D31A022B01D903230DE2704B1B6803F49F
:101310008063002BF0D17B681B6803F00803002B6F
:101320003CD07B685B69002B1CD0684BD3F89430B1
:10133000664A43F00103C2F89430FFF727F9386199
:1013400008E0FFF723F902463B69D31A022B01D9C3
:101350000323E8E15D4BD3F8943003F00203002B44
:10136000EFD01BE0594BD3F89430584A23F00103D7
:10137000C2F89430FFF70AF9386108E0FFF706F980
:1013800002463B69D31A022B01D90323CBE14F4B11
:10139000D3F8943003F00203002BEFD17B681B6875
:1013A00003F00403002B00F0A5800023FB77474BDC
:1013B0009B6D03F08053002B0DD1444B9B6D434A32
:1013C00043F080539365414B9B6D03F08053BB60AA
:1013D000BB680123FB773E4B1B6803F48073002B33
:1013E00018D13B4B1B683A4A43F480731360FFF7F4
:1013F000CDF8386108E0FFF7C9F802463B69D31A17
:10140000022B01D903238EE1314B1B6803F4807357
:10141000002BF0D07B689B68012B08D12B4BD3F8B5
:1014200090302A4A43F00103C2F8903024E07B68F0
:101430009B68052B10D1254BD3F89030234A43F0FD
:101440000403C2F89030214BD3F890301F4A43F088
:101450000103C2F890300FE01C4BD3F890301B4AC8
:1014600023F00103C2F89030184BD3F89030174A9C
:1014700023F00403C2F890307B689B68002B16D0E1
:10148000FFF784F838610AE0FFF780F802463B690D
:10149000D31A41F28832934201D9032343E10B4B23
:1014A000D3F8903003F00203002BEDD019E0FFF7E2
:1014B0006DF838610EE0FFF769F802463B69D31A10
:1014C00041F28832934205D903232CE100100240F7
:1014D00000700040964BD3F8903003F00203002BCD
:1014E000E9D1FB7F012B05D1914B9B6D904A23F0F5
:1014F000805393657B681B6803F02003002B3CD06E
:101500007B685B6A002B1CD0894BD3F89830884AE3
:1015100043F00103C2F89830FFF738F8386108E06B
:10152000FFF734F802463B69D31A022B01D9032393
:10153000F9E07F4BD3F8983003F00203002BEFD093
:101540001BE07B4BD3F89830794A23F00103C2F8B3
:101550009830FFF71BF8386108E0FFF717F80246EC
:101560003B69D31A022B01D90323DCE0704BD3F87B
:10157000983003F00203002BEFD17B689B6A002BAD
:1015800000F0D080BB690C2B00F08D807B689B6ADB
:10159000022B5AD1664B1B68654A23F08073136097
:1015A000FEF7F4FF386108E0FEF7F0FF02463B6902
:1015B000D31A022B01D90323B5E05D4B1B6803F05E
:1015C0000073002BF0D15A4BDA685A4B13407A68FB
:1015D000D16A7A68126B013A120111437A68526B30
:1015E000120211437A68D26B5208013A5205114334
:1015F0007A68126C5208013A520611437A68926B6B
:10160000D2060A434A491343CB60494B1B68484AF8
:1016100043F080731360464BDB68454A43F08073A8
:10162000D360FEF7B3FF386108E0FEF7AFFF024674
:101630003B69D31A022B01D9032374E03C4B1B688E
:1016400003F00073002BF0D06CE0394B1B68384A74
:1016500023F080731360364B1B6803F00063002B8C
:1016600005D1334BDB68324A23F00303D360304BA0
:10167000DB682F4A23F0887323F48033D360FEF7AE
:1016800085FF386108E0FEF781FF02463B69D31A07
:10169000022B01D9032346E0254B1B6803F000739E
:1016A000002BF0D13EE07B689B6A012B01D1012326
:1016B00039E01F4BDB687B617B6903F003027B68C9
:1016C000DB6A9A422CD17B6903F070027B681B6B4A
:1016D000013B1B019A4223D17B6903F4FE427B68E4
:1016E0005B6B1B029A421BD17B6903F078427B68DB
:1016F0009B6BDB069A4213D17B6903F4C0027B68C3
:10170000DB6B5B08013B5B059A4209D17B6903F007
:10171000C0627B681B6C5B08013B5B069A4201D090
:10172000012300E0002318462037BD4680BD00BFDE
:10173000001002408C809D0180B584B000AF7860BD
:1017400039607B68002B01D10123C8E0664B1B6820
:1017500003F007033A689A4210D9634B1B6823F0E1
:10176000070261493B6813430B605F4B1B6803F042
:1017700007033A689A4201D00123B0E07B681B68F6
:1017800003F00103002B4CD07B685B68032B07D16F
:10179000564B1B6803F00073002B21D101239EE000
:1017A0007B685B68022B07D1504B1B6803F4003346
:1017B000002B15D1012392E07B685B68002B07D1D9
:1017C0004A4B1B6803F00203002B09D1012386E07A
:1017D000464B1B6803F48063002B01D101237EE09C
:1017E000424B9B6823F003027B685B683F491343CD
:1017F0008B60FEF7CBFEF8600AE0FEF7C7FE0246FC
:10180000FB68D31A41F28832934201D9032366E080
:10181000364B9B6803F00C027B685B689B009A4226
:10182000EBD17B681B6803F00203002B08D02F4B21
:101830009B6823F0F0027B689B682C4913438B6004
:10184000294B1B6803F007033A689A4210D2264BD3
:101850001B6823F0070224493B6813430B60224BAB
:101860001B6803F007033A689A4201D0012336E06F
:101870007B681B6803F00403002B08D01B4B9B689C
:1018800023F4E0627B68DB68184913438B607B6854
:101890001B6803F00803002B09D0144B9B6823F44A
:1018A00060527B681B69DB00104913438B6000F0BA
:1018B00025F802460D4B9B681B0903F00F030C49EA
:1018C000CB5C03F01F0322FA03F30A4A13600A4BAE
:1018D0001B681846FEF70EFE0346FB72FB7A18469D
:1018E0001037BD4680BD00BF0020024000100240FE
:1018F00098310008200000200000002080B489B04A
:1019000000AF0023FB610023BB613D4B9B6803F0EC
:101910000C033B613A4BDB6803F00303FB603B695C
:10192000002B05D03B690C2B21D1FB68012B1ED16C
:10193000334B1B6803F00803002B07D1304BD3F85F
:1019400094301B0A03F00F03FB6105E02C4B1B686E
:101950001B0903F00F03FB612A4AFB6952F823308D
:10196000FB613B69002B0DD1FB69BB610AE03B6960
:10197000042B02D1244BBB6104E03B69082B01D14D
:10198000224BBB613B690C2B34D11D4BDB6803F050
:101990000303BB60BB68022B03D0BB68032B03D0DF
:1019A00005E0194B7B6105E0184B7B6102E0FB69A8
:1019B0007B6100BF124BDB681B0903F00703013397
:1019C0007B600F4BDB681B0A03F07F037A6902FB25
:1019D00003F27B68B2FBF3F37B61094BDB685B0EC0
:1019E00003F0030301335B003B607A693B68B2FBA1
:1019F000F3F3BB61BB6918462437BD4680BC704712
:101A000000100240B03100080024F40000127A00F7
:101A100080B400AF024B1B681846BD4680BC7047BF
:101A20002000002080B500AFFFF7F2FF0246064B12
:101A30009B681B0A03F007030449CB5C03F01F03F8
:101A400022FA03F3184680BD00100240A8310008B6
:101A500080B500AFFFF7DCFF0246064B9B68DB0A50
:101A600003F007030449CB5C03F01F0322FA03F3DE
:101A7000184680BD00100240A831000880B586B02D
:101A800000AF786000233B612A4B9B6D03F08053CD
:101A9000002B03D0FFF702FA786114E0254B9B6D11
:101AA000244A43F080539365224B9B6D03F080538F
:101AB000FB60FB68FFF7F2F978611E4B9B6D1D4AD6
:101AC00023F0805393657B69B3F5007F0BD17B686E
:101AD000802B19D97B68A02B02D902233B6113E02C
:101AE00001233B6110E07B68802B02D903233B611B
:101AF0000AE07B68802B02D102233B6104E07B6813
:101B0000702B01D101233B610B4B1B6823F00702B3
:101B100009493B6913430B60074B1B6803F007033C
:101B20003A699A4201D0012300E000231846183791
:101B3000BD4680BD001002400020024080B586B046
:101B400000AF78600023FB740023BB747B681B68C4
:101B500003F40063002B31D07B685B6CB3F5400F5E
:101B60001AD0B3F5400F14D8002B09D0B3F5000FED
:101B70000FD15D4BDB685C4A43F48033D3600CE0EB
:101B80007B6804330021184600F0F0F90346FB742B
:101B900003E00123FB7400E000BFFB7C002B0BD1B2
:101BA000514BD3F8883023F440027B685B6C4E497C
:101BB0001343C1F8883001E0FB7CBB747B681B6871
:101BC00003F40033002B00F09E8000237B74464B0F
:101BD0009B6D03F08053002B01D1012300E0002313
:101BE000002B0DD0404B9B6D3F4A43F080539365D3
:101BF0003D4B9B6D03F08053BB60BB6801237B743E
:101C00003A4B1B68394A43F480731360FEF7BEFCFD
:101C1000F86009E0FEF7BAFC0246FB68D31A022B13
:101C200002D90323FB7405E0304B1B6803F4807377
:101C3000002BEFD0FB7C002B5AD12B4BD3F89030EC
:101C400003F440737B617B69002B1ED07B689B6D26
:101C50007A699A4219D0244BD3F8903023F4407318
:101C60007B61214BD3F890301F4A43F48033C2F894
:101C700090301D4BD3F890301B4A23F48033C2F8C8
:101C80009030194A7B69C2F890307B6903F00103F8
:101C9000002B16D0FEF77AFCF8600BE0FEF776FC1E
:101CA0000246FB68D31A41F28832934202D90323D9
:101CB000FB7406E00C4BD3F8903003F00203002BCA
:101CC000ECD0FB7C002B0BD1074BD3F8903023F4E6
:101CD00040727B689B6D04491343C1F8903009E062
:101CE000FB7CBB7406E000BF0010024000700040A7
:101CF000FB7CBB747B7C012B05D19B4B9B6D9A4A73
:101D000023F0805393657B681B6803F00103002B6D
:101D10000AD0954BD3F8883023F003027B681B6A06
:101D200091491343C1F888307B681B6803F00203B4
:101D3000002B0AD08C4BD3F8883023F00C027B6840
:101D40005B6A89491343C1F888307B681B6803F0DC
:101D50000403002B0AD0844BD3F8883023F03002E0
:101D60007B689B6A80491343C1F888307B681B6895
:101D700003F02003002B0AD07B4BD3F8883023F4E8
:101D800040627B68DB6A78491343C1F888307B681E
:101D90001B6803F40073002B0AD0734BD3F8883010
:101DA00023F440227B68DB6B6F491343C1F8883012
:101DB0007B681B6803F48063002B0AD06A4BD3F85E
:101DC000883023F440127B681B6C67491343C1F8C9
:101DD00088307B681B6803F04003002B0AD0624BFD
:101DE000D3F8883023F440527B681B6B5E49134361
:101DF000C1F888307B681B6803F08003002B0AD091
:101E0000594BD3F8883023F440427B685B6B5649CA
:101E10001343C1F888307B681B6803F48073002B80
:101E20000AD0514BD3F8883023F440327B689B6B47
:101E30004D491343C1F888307B681B6803F40023C5
:101E4000002B28D0484BD3F8883023F040627B68C1
:101E50009B6C45491343C1F888307B689B6CB3F198
:101E6000006F06D1404BDB683F4A43F48013D360D8
:101E700011E07B689B6CB3F1806F0CD17B680433FD
:101E80000121184600F072F80346FB74FB7C002B1E
:101E900001D0FB7CBB747B681B6803F48023002BA0
:101EA00028D0314BD3F8883023F040627B68DB6C5C
:101EB0002D491343C1F888307B68DB6CB3F1006FA8
:101EC00006D1294BDB68284A43F48013D36011E024
:101ED0007B68DB6CB3F1806F0CD17B68043301212C
:101EE000184600F043F80346FB74FB7C002B01D03E
:101EF000FB7CBB747B681B6803F48043002B1CD005
:101F0000194BD3F8883023F040527B681B6D16497B
:101F10001343C1F888307B681B6DB3F1805F0CD12F
:101F20007B6804330221184600F020F80346FB7456
:101F3000FB7C002B01D0FB7CBB747B681B6803F42B
:101F40000043002B0AD0084BD3F8883023F080429E
:101F50007B685B6D04491343C1F88830BB7C18462D
:101F60001837BD4680BD00BF0010024080B584B068
:101F700000AF786039600023FB73744BDB6803F0BB
:101F80000303002B18D0714BDB6803F003027B685E
:101F90001B689A420DD17B681B68002B09D06B4BE4
:101FA000DB681B0903F007035A1C7B685B689A42D5
:101FB00047D00123FB7344E07B681B68032B18D0D8
:101FC000032B25D8012B02D0022B09D020E05F4B38
:101FD0001B6803F00203002B1DD10123FB731AE0E1
:101FE0005A4B1B6803F48063002B16D10123FB734B
:101FF00013E0564B1B6803F40033002B0FD1534BF7
:102000001B6803F48023002B09D10123FB7306E036
:102010000123FB7304E000BF02E000BF00E000BF4B
:10202000FB7B002B0DD1494BDB6823F073027B68EF
:1020300019687B685B68013B1B010B4343491343F1
:10204000CB60FB7B002B7CD1404B1B683F4A23F0CD
:1020500080631360FEF79AFAB86009E0FEF796FA1B
:102060000246BB68D31A022B02D90323FB7305E097
:10207000364B1B6803F00063002BEFD1FB7B002B7A
:102080005FD13B68002B10D1304B1B6923F07843A4
:1020900023F4FE437A68926811027A68D268D20605
:1020A0000A432A4913430B6127E03B68012B12D1F5
:1020B000264B1B6923F4C00323F4FE437A6892681D
:1020C00011027A6812695208013A52050A431F49FF
:1020D00013430B6111E01D4B1B6923F0C06323F414
:1020E000FE437A68926811027A6852695208013A8E
:1020F00052060A43154913430B61144B1B68134ADC
:1021000043F080631360FEF741FAB86009E0FEF720
:102110003DFA0246BB68D31A022B02D90323FB7394
:1021200005E00A4B1B6803F00063002BEFD0FB7B3C
:10213000002B06D1054B1A697B689B690349134341
:102140000B61FB7B18461037BD4680BD0010024076
:1021500080B582B000AF78607B68002B01D101238D
:1021600040E07B685B6F002B06D17B68002283F820
:102170007020786800F03CFF7B6824225A677B68F7
:102180001B681A687B681B6822F001021A60786875
:1021900000F0C4F80346012B01D1012322E07B6843
:1021A0005B6A002B02D0786800F0C6FB7B681B6876
:1021B0005A687B681B6822F490425A607B681B68EF
:1021C0009A687B681B6822F02A029A607B681B6809
:1021D0001A687B681B6842F001021A60786800F098
:1021E0004CFC034618460837BD4680BD80B584B018
:1021F00000AFF860B9601346FB80FB685B6F202B73
:1022000064D1BB68002B02D0FB88002B01D10123D5
:102210005DE0FB6893F87030012B01D1022356E09A
:10222000FB68012283F87020FB68BA68DA64FB68F7
:10223000FA88A3F85020FB68FA88A3F85220FB68BC
:102240000022DA67FB6821225A67FB689B6E002B2D
:102250002AD0FB689B6E204ADA62FB689B6E1F4A9D
:102260001A63FB689B6E1E4A5A63FB689B6E0022D2
:102270009A63FB68986EFB68DB6C1946FB681B6809
:1022800028331A46FB88FEF751FB0346002B0BD080
:10229000FB681022DA67FB68002283F87020FB6875
:1022A00020225A67012312E0FB681B6840221A6251
:1022B000FB68002283F87020FB681B689A68FB6843
:1022C0001B6842F080029A60002300E00223184657
:1022D0001037BD4680BD00BFFB2B00084F2C000807
:1022E0006B2C000880B483B000AF786000BF0C375F
:1022F000BD4680BC704780B483B000AF786000BF3B
:102300000C37BD4680BC704780B483B000AF7860A6
:1023100000BF0C37BD4680BC704700002DE9B04FB0
:102320008AB000AFF8600023FB610023FB76002336
:102330007B61FB689A68FB681B691A43FB685B69F1
:102340001A43FB68DB6913437B62FB681B681A68EE
:10235000BB4B1340FA681268796A0B431360FB6841
:102360001B685B6823F44051FB68DA68FB681B68F4
:102370000A435A60FB689B697B62FB681B68B14A31
:10238000934204D0FB681B6A7A6A13437B62FB6842
:102390001B689B6823F43061FB681B687A6A0A43F8
:1023A0009A60FB681B68A84A934225D1A74BD3F8D3
:1023B000883003F00303032B1AD801A252F823F04C
:1023C000D1230008E1230008D9230008E9230008ED
:1023D000012387F82330ABE0022387F82330A7E0FE
:1023E000042387F82330A3E0082387F823309FE0F5
:1023F000102387F823309BE0FB681B68944A9342C4
:1024000038D1924BD3F8883003F00C030C2B2DD825
:1024100001A252F823F000BF4D2400086D240008EB
:102420006D2400086D2400085D2400086D24000858
:102430006D2400086D240008552400086D24000850
:102440006D2400086D24000865240008002387F827
:1024500023306DE0022387F8233069E0042387F8F6
:10246000233065E0082387F8233061E0102387F8E4
:1024700023305DE0FB681B68764A934225D1734B9D
:10248000D3F8883003F03003302B16D0302B18D817
:10249000202B0AD0202B14D8002B02D0102B08D0D0
:1024A0000FE0002387F8233042E0022387F823302F
:1024B0003EE0042387F823303AE0082387F82330EE
:1024C00036E0102387F8233032E0FB681B685D4A52
:1024D00093422AD15D4BD3F8883003F44063B3F5BF
:1024E000406F1AD0B3F5406F1BD8B3F5006F0CD016
:1024F000B3F5006F15D8002B03D0B3F5806F08D06B
:102500000FE0002387F8233012E0022387F82330FE
:102510000EE0042387F823300AE0082387F82330ED
:1025200006E0102387F8233002E0102387F82330D9
:10253000FB681B68434A934240F0FC8097F82330C5
:10254000082B24D801A252F823F000BF71250008FF
:102550008F250008792500088F2500087F250008B1
:102560008F2500088F2500088F2500088725000883
:10257000FFF758FA78610DE0374B7B610AE0FFF70F
:10258000BDF9786106E04FF400437B6102E001236E
:10259000FB7600BF7B69002B00F0BF81FB685A68A7
:1025A00013465B0013447A699A4205D3FB685B6863
:1025B0001B037A699A4202D90123FB76ADE197F8B1
:1025C0002330082B00F2A38001A252F823F000BFB1
:1025D000F52500080F2700085D2600080F270008D2
:1025E000932600080F2700080F2700080F27000870
:1025F000DF260008FFF716FA034618464FF00001E1
:102600004FF000024FF000030B0243EA1063020296
:10261000F9684968490808464FF0000114183C6001
:102620004B417B60FB685B681A464FF00003D7E9BB
:102630000001FDF7CDFD02460B461346FB6169E044
:10264000F369FFEF008000400038014000100240B5
:1026500000440040004800400024F400FB685B6830
:102660005B081A464FF00003B2484FF0000112EB2E
:10267000000A43EB010BFB685B681A464FF000034E
:1026800050465946FDF7A4FD02460B461346FB6132
:1026900040E0FFF733F9034618464FF000014FF0D2
:1026A00000024FF000030B0243EA10630202F968D4
:1026B0004968490808464FF0000112EB000843EB57
:1026C0000109FB685B681A464FF000034046494623
:1026D000FDF77EFD02460B461346FB611AE0FB68E0
:1026E0005B685B081A464FF0000312F5000443F1E3
:1026F0000005FB685B681A464FF000032046294638
:10270000FDF766FD02460B461346FB6102E001231E
:10271000FB7600BFFB69B3F5407F08D3FB69B3F5D7
:10272000801F04D2FB681B68FA69DA60F5E00123B8
:10273000FB76F2E0FB68DB69B3F5004F7FD197F8D9
:102740002330082B5BD801A252F823F07127000830
:102750008F270008AD270008FF270008C9270008B9
:10276000FF270008FF270008FF270008E7270008C9
:10277000FFF758F903465A00FB685B685B081A4488
:10278000FB685B68B2FBF3F39BB2FB613AE0FFF7D7
:102790005FF903465A00FB685B685B081A44FB68F4
:1027A0005B68B2FBF3F39BB2FB612BE0FB685B68F9
:1027B0005B0803F1F47303F59043FA685268B3FBC6
:1027C000F2F39BB2FB611DE0FFF798F803465A0055
:1027D000FB685B685B081A44FB685B68B2FBF3F359
:1027E0009BB2FB610EE0FB685B685B0803F580321F
:1027F000FB685B68B2FBF3F39BB2FB6102E0012371
:10280000FB7600BFFB690F2B16D9FB69B3F5803F40
:1028100012D2FB699BB223F00F037B82FB695B083A
:102820009BB203F007039AB27B8A13437B82FB6857
:102830001B687A8ADA6070E00123FB766DE097F816
:102840002330082B58D801A252F823F07128000831
:102850008D280008A9280008F9280008C5280008C4
:10286000F9280008F9280008F9280008E1280008DC
:10287000FFF7D8F80246FB685B685B081A44FB6800
:102880005B68B2FBF3F39BB2FB6138E0FFF7E0F863
:102890000246FB685B685B081A44FB685B68B2FB36
:1028A000F3F39BB2FB612AE0FB685B685B0803F50E
:1028B000740303F51053FA685268B3FBF2F39BB24A
:1028C000FB611CE0FFF71AF80246FB685B685B08D7
:1028D0001A44FB685B68B2FBF3F39BB2FB610EE04A
:1028E000FB685B685B0803F50042FB685B68B2FB52
:1028F000F3F39BB2FB6102E00123FB7600BFFB69AF
:102900000F2B08D9FB69B3F5803F04D2FB681B6825
:10291000FA69DA6001E00123FB76FB6800221A669F
:10292000FB6800225A66FB7E18462837BD46BDE884
:10293000B08F00BF000024F480B483B000AF786093
:102940007B685B6A03F00103002B0AD07B681B687D
:102950005B6823F400317B689A6A7B681B680A43D2
:102960005A607B685B6A03F00203002B0AD07B6825
:102970001B685B6823F480317B68DA6A7B681B68BC
:102980000A435A607B685B6A03F00403002B0AD099
:102990007B681B685B6823F480217B681A6B7B680B
:1029A0001B680A435A607B685B6A03F00803002BCC
:1029B0000AD07B681B685B6823F400417B685A6B14
:1029C0007B681B680A435A607B685B6A03F01003EC
:1029D000002B0AD07B681B689B6823F480517B68BE
:1029E0009A6B7B681B680A439A607B685B6A03F09A
:1029F0002003002B0AD07B681B689B6823F40051DE
:102A00007B68DA6B7B681B680A439A607B685B6A49
:102A100003F04003002B1AD07B681B685B6823F42B
:102A200080117B681A6C7B681B680A435A607B685C
:102A30001B6CB3F5801F0AD17B681B685B6823F4AD
:102A4000C0017B685A6C7B681B680A435A607B68CC
:102A50005B6A03F08003002B0AD07B681B685B680D
:102A600023F400217B689A6C7B681B680A435A60D8
:102A700000BF0C37BD4680BC704780B586B002AF42
:102A800078607B680022DA67FDF780FDF8607B687C
:102A90001B681B6803F00803082B0ED16FF07E4300
:102AA0000093FB6800224FF40011786800F02AF8C8
:102AB0000346002B01D0032320E07B681B681B68C2
:102AC00003F00403042B0ED16FF07E430093FB68E8
:102AD00000224FF48001786800F014F80346002BC0
:102AE00001D003230AE07B6820225A677B682022FA
:102AF0009A677B68002283F87020002318461037FD
:102B0000BD4680BD80B584B000AFF860B9603B6061
:102B10001346FB712AE0BB69B3F1FF3F26D0FDF7F6
:102B200035FD02463B68D31ABA699A4202D3BB69A3
:102B3000002B1BD1FB681B681A68FB681B6822F41A
:102B4000D0721A60FB681B689A68FB681B6822F0E9
:102B500001029A60FB6820225A67FB6820229A676C
:102B6000FB68002283F8702003230FE0FB681B68DA
:102B7000DA69BB681340BA689A420CBF012300238C
:102B8000DBB21A46FB799A42C5D0002318461037AB
:102B9000BD4680BD80B483B000AF78607B681B68A1
:102BA0001A687B681B6822F0C0021A607B682022CA
:102BB0005A6700BF0C37BD4680BC704780B483B0F5
:102BC00000AF78607B681B681A687B681B6822F41A
:102BD00090721A607B681B689A687B681B6822F099
:102BE00001029A607B6820229A677B6800221A663D
:102BF00000BF0C37BD4680BC704780B584B000AFC5
:102C000078607B689B6AFB607B681B681B6803F0CD
:102C10002003002B14D1FB680022A3F85220FB688C
:102C20001B689A68FB681B6822F080029A60FB6848
:102C30001B681A68FB681B6842F040021A6002E0D9
:102C4000F868FFF74FFB00BF1037BD4680BD80B569
:102C500084B000AF78607B689B6AFB60F868FFF720
:102C60004AFB00BF1037BD4680BD80B586B000AFBF
:102C700078607B689B6A7B617B695B6F3B617B698A
:102C80009B6FFB607B691B689B6803F08003802B54
:102C900009D13B69212B06D17B690022A3F8522080
:102CA0007869FFF777FF7B691B689B6803F0400337
:102CB000402B09D1FB68222B06D17B690022A3F8A7
:102CC0005A207869FFF77AFF7B69DB6F43F01002C7
:102CD0007B69DA677869FFF717FB00BF1837BD46D5
:102CE00080BD000080B582B000AF0C4B9B6C0B4ADE
:102CF00043F001039364094B9B6C03F001037B6079
:102D00007B68002200210E20FDF721FD0E20FDF73B
:102D10003AFD00BF0837BD4680BD00BF001002402D
:102D200080B485B000AF144BDB6C134A43F004034E
:102D3000D364114BDB6C03F00403FB60FB680E4BA8
:102D4000DB6C0D4A43F08003D3640B4BDB6C03F068
:102D50008003BB60BB68084BDB6C074A43F0010390
:102D6000D364054BDB6C03F001037B607B6800BF21
:102D70001437BD4680BC70470010024080B500AFDC
:102D8000FDF7A0FB00F010F8FFF7CAFFFFF7AAFF5E
:102D900000F0FEF8182202490248FFF727FAFEE782
:102DA000080000204800002080B5AEB000AF07F159
:102DB000740344220021184600F0D8F907F160039B
:102DC00000221A605A609A60DA601A613B1D5C2228
:102DD0000021184600F0CAF901237B674FF48033C5
:102DE000BB670223C7F89C300323C7F8A030012338
:102DF000C7F8A4301423C7F8A8300723C7F8AC30AD
:102E00000223C7F8B0300223C7F8B43007F17403C7
:102E10001846FEF7A3F80346002B01D000F02FF868
:102E20000F233B6603237B660023BB660023FB6600
:102E300000233B6707F1600304211846FEF77CFC82
:102E40000346002B01D000F01AF801237B60002319
:102E50007B623B1D1846FEF771FE0346002B01D036
:102E600000F00DF84FF40070FEF724F80346002B35
:102E700001D000F004F800BFB837BD4680BD80B473
:102E800000AF00BFBD4680BC7047000080B483B077
:102E900000AF0E4B1B6E0D4A43F0010313660B4B44
:102EA0001B6E03F001037B607B68084B9B6D074A38
:102EB00043F080539365054B9B6D03F080533B605B
:102EC0003B6800BF0C37BD4680BC70470010024015
:102ED00080B400AF00BFBD4680BC704780B400AF77
:102EE000FEE780B400AFFEE780B400AFFEE780B439
:102EF00000AFFEE780B400AF00BFBD4680BC7047A6
:102F000080B400AF00BFBD4680BC704780B400AF46
:102F100000BFBD4680BC704780B500AFFDF724FB05
:102F200000BF80BD80B500AF0248FDF75FFD00BF68
:102F300080BD00BFC800002080B400AF124B1B68EA
:102F4000114A43F0010313600F4B00229A600E4BAD
:102F50001B680D4A23F0A85323F4102313600A4B77
:102F60004FF48052DA60084B1B68074A23F4802331
:102F70001360054B00229A61044B4FF000629A6087
:102F800000BFBD4680BC70470010024000ED00E06D
:102F900080B500AF144B154A1A60134B4FF4E13261
:102FA0005A60114B00229A600F4B0022DA600E4BE0
:102FB00000221A610C4B0C225A610B4B00229A61C1
:102FC000094B0022DA61084B00221A62064B0022EC
:102FD0005A620548FFF7BCF80346002B01D0FFF703
:102FE0004EFF00BF80BD00BF4800002000380140F8
:102FF00080B58AB000AF786007F1140300221A6030
:103000005A609A60DA601A617B681B682C4A9342A6
:1030100052D12C4B1B6E2B4A43F480431366294B31
:103020001B6E03F480433B613B69264BDB6C254AF6
:1030300043F00103D364234BDB6C03F00103FB601B
:10304000FB684FF4C0637B610223BB610023FB611B
:1030500003233B6207237B6207F1140319464FF0F9
:103060009040FDF7A1FD184B184A1A60164B02223A
:103070005A60154B10229A60134B0022DA60124BF3
:1030800080221A61104B00225A610F4B00229A6174
:103090000D4B0022DA610C4B00221A620A48FDF740
:1030A0008DFB0346002B01D0FFF7E9FE7B68064A43
:1030B0009A66054A7B68936200BF2837BD4680BD8B
:1030C0000038014000100240C800002044000240C7
:1030D000DFF834D0002103E00C4B5B58435004313F
:1030E0000B480C4B42189A42F6D30B4A02E00023DD
:1030F00042F8043B094B9A42F9D3FFF71DFF00F059
:1031000011F8FFF73BFEFEE700000120F831000850
:1031100000000020280000202800002010010020CE
:10312000FEE7000070B50D4D0D4C641BA410002689
:10313000A64209D10B4D0C4C00F020F8641BA410E2
:103140000026A64205D170BD55F8043B98470136CC
:10315000EEE755F8043B98470136F2E7E8310008FE
:10316000E8310008E8310008EC3100080244034669
:10317000934200D1704703F8011BF9E7F8B500BF8F
:10318000F8BC08BC9E467047F8B500BFF8BC08BC48
:083190009E467047000000009C
:1031980000000000000000000102030406070809FF
:1031A8000000000001020304A0860100400D030096
:1031B800801A060000350C0040420F0080841E0073
:1031C80000093D0000127A000024F40000366E0168
:0831D8000048E801006CDC0274
:0831E00020D0FF7F0100000078
:0831E800B50100080000000021
:0831F00091010008000000003D
:1031F800100000000100000048656C6C6F2C20492D
:1032080020616D20416C657857754444442E0A004E
:0832180000093D000000000068
:04000005080030D1EE
:00000001FF
