:020000040800F2
:1000000000000120451F0008711D00087D1D00082B
:10001000831D0008891D00088F1D000800000000D6
:10002000000000000000000000000000951D000816
:10003000A11D000800000000AD1D0008B91D00084A
:10004000951F0008951F0008951F0008951F0008C0
:10005000951F0008951F0008951F0008951F0008B0
:10006000951F0008951F0008951F0008951F0008A0
:10007000951F0008951F0008951F0008951F000890
:10008000951F0008951F0008951F0008951F000880
:10009000951F0008951F0008951F0008951F000870
:1000A000951F0008951F0008951F0008951F000860
:1000B000C51D00080000000000000000951F00089A
:1000C000951F0008951F0008951F0008951F000840
:1000D000951F0008951F0008951F0008951F000830
:1000E000951F0008951F0008000000000000000098
:1000F0000000000000000000000000000000000000
:1001000000000000951F000800000000951F000877
:100110000000000000000000951F0008951F000867
:10012000951F0008951F0008951F0008951F0008DF
:10013000951F000800000000000000000000000003
:10014000951F0008951F0008951F0008000000007B
:10015000951F0008951F0008951F0008951F0008AF
:10016000951F0008951F0008951F0008000000005B
:10017000951F0008951F0008000000000000000007
:10018000951F0008951F0008951F0008000000003B
:1001900010B5054C237833B9044B13B10448AFF3C1
:1001A00000800123237010BD10000020000000001B
:1001B000F01F000808B5034B1BB103490348AFF318
:1001C000008008BD0000000014000020F01F00089F
:1001D00080B582B000AF0023FB71032000F032F93C
:1001E000002000F00DF80346002B02D00123FB7124
:1001F00001E001F09BFDFB7918460837BD4680BD44
:1002000080B584B000AF78600023FB73164B1B6889
:10021000002B22D0154B1A68134B1B684FF47A71D0
:10022000B1FBF3F3B2FBF3F3184600F040F90346D9
:10023000002B0FD17B680F2B09D8002279684FF073
:10024000FF3000F00AF90A4A7B68136007E00123D7
:10025000FB7304E00123FB7301E00123FB73FB7BD1
:1002600018461037BD4680BD04000020080000205D
:100270000000002080B400AF054B1A68054B1B68D6
:100280001344034A136000BFBD4680BC704700BFE3
:100290002C0000200400002080B400AF024B1B683B
:1002A0001846BD4680BC70472C00002080B485B045
:1002B00000AF78607B6803F00703FB600C4BDB68E2
:1002C000BB60BA684FF6FF031340BB60FB681A02BD
:1002D000BB68134343F0BF6343F40033BB60044A7D
:1002E000BB68D36000BF1437BD4680BC704700BFF9
:1002F00000ED00E080B400AF044BDB681B0A03F0A4
:1003000007031846BD4680BC704700BF00ED00E003
:1003100080B483B000AF0346FB7197F90730002B20
:100320000BDBFB7903F01F02064997F907305B09E5
:10033000012000FA02F241F8232000BF0C37BD462D
:1003400080BC704700E100E080B483B000AF03469A
:100350003960FB7197F90730002B0ADB3B68DAB292
:100360000C4997F907301201D2B20B4483F80023ED
:100370000AE03B68DAB20849FB7903F00F03043B5B
:100380001201D2B20B441A7600BF0C37BD4680BCB6
:10039000704700BF00E100E000ED00E080B489B0EC
:1003A00000AFF860B9607A60FB6803F00703FB6197
:1003B000FB69C3F10703042B28BF0423BB61FB695E
:1003C0000433062B02D9FB69033B00E000237B6169
:1003D0004FF0FF32BB6902FA03F3DA43BB681A40FD
:1003E0007B699A404FF0FF317B6901FA03F3D943EF
:1003F0007B680B40134318462437BD4680BC7047CA
:1004000080B582B000AF78607B68013BB3F1807F3C
:1004100001D301230FE00A4A7B68013B53600F219F
:100420004FF0FF30FFF790FF054B00229A60044B1E
:1004300007221A60002318460837BD4680BD00BF5A
:1004400010E000E080B582B000AF78607868FFF718
:100450002DFF00BF0837BD4680BD80B586B000AF18
:100460000346B9607A60FB7300237B61FFF742FFAC
:1004700078617A68B9687869FFF790FF024697F962
:100480000F3011461846FFF75FFF00BF1837BD4613
:1004900080BD80B582B000AF0346FB7197F907308D
:1004A0001846FFF735FF00BF0837BD4680BD80B551
:1004B00082B000AF78607868FFF7A2FF0346184665
:1004C0000837BD4680BD000080B487B000AF7860BB
:1004D000396000237B6154E13B681A6801217B6924
:1004E00001FA03F31340FB60FB68002B00F0468128
:1004F0003B685B68022B03D03B685B68122B23D1FF
:100500007B69DA087B68083253F822303B617B69EB
:1005100003F007039B000F2202FA03F3DB433A695F
:1005200013403B613B681A697B6903F007039B003A
:1005300002FA03F33A6913433B617B69DA087B688B
:100540000832396943F822107B681B683B617B697C
:100550005B00032202FA03F3DB433A6913403B6179
:100560003B685B6803F003027B695B0002FA03F3FC
:100570003A6913433B617B683A691A603B685B6880
:10058000012B0BD03B685B68022B07D03B685B6894
:10059000112B03D03B685B68122B30D17B689B68C2
:1005A0003B617B695B00032202FA03F3DB433A6998
:1005B00013403B613B68DA687B695B0002FA03F336
:1005C0003A6913433B617B683A699A607B685B6870
:1005D0003B6101227B6902FA03F3DB433A69134072
:1005E0003B613B685B681B0903F001027B6902FA0F
:1005F00003F33A6913433B617B683A695A607B684D
:10060000DB683B617B695B00032202FA03F3DB4397
:100610003A6913403B613B689A687B695B0002FA68
:1006200003F33A6913433B617B683A69DA603B68DC
:100630005B6803F08053002B00F0A080584B1B6ECA
:10064000574A43F001031366554B1B6E03F0010339
:10065000BB60BB68534A7B699B08023352F8233066
:100660003B617B6903F003039B000F2202FA03F353
:10067000DB433A6913403B617B68B3F1904F19D07B
:100680007B68494A934213D07B68484A93420DD015
:100690007B68474A934207D07B68464A934201D120
:1006A000042308E0072306E0032304E0022302E01A
:1006B000012300E000237A6902F0030292009340D4
:1006C0003A6913433B6137497B699B0802333A69B6
:1006D00041F82320384B1B683B61FB68DB433A69D8
:1006E00013403B613B685B6803F48033002B03D00D
:1006F0003A69FB6813433B612F4A3B6913602E4BF9
:100700005B683B61FB68DB433A6913403B613B68D4
:100710005B6803F40033002B03D03A69FB68134392
:100720003B61254A3B695360234B9B683B61FB68F7
:10073000DB433A6913403B613B685B6803F4801319
:10074000002B03D03A69FB6813433B611A4A3B69AB
:100750009360194BDB683B61FB68DB433A691340EC
:100760003B613B685B6803F40013002B03D03A69DC
:10077000FB6813433B61104A3B69D3607B690133DB
:100780007B613B681A687B6922FA03F3002B7FF4D4
:10079000A3AE00BF00BF1C37BD4680BC704700BF82
:1007A000001002400000014000040048000800481A
:1007B000000C0048001000480004014080B483B0E1
:1007C00000AF78600B467B8013467B707B78002BF4
:1007D00003D07A887B689A6102E07A887B689A62A3
:1007E00000BF0C37BD4680BC704780B483B000AFFB
:1007F00078600B467B807B685A697B881340002BAE
:1008000003D07A887B689A6202E07A887B689A6172
:1008100000BF0C37BD4680BC7047000080B400AFFD
:10082000034B1B6803F4C0631846BD4680BC704789
:100830000070004080B485B000AF78607B68B3F58D
:10084000007F30D1224B1B6803F4C063B3F5007FF7
:1008500038D01F4B1B6823F4C0631D4A43F4007358
:1008600013601C4B1B68322202FB03F31A4AA2FBE3
:1008700003239B0C0133FB6002E0FB68013BFB6040
:10088000134B5B6903F48063B3F5806F02D1FB689F
:10089000002BF2D10E4B5B6903F48063B3F5806FDC
:1008A00010D103230FE00A4B1B6803F4C063B3F5B8
:1008B000806F07D0064B1B6823F4C063044A43F4DF
:1008C00080631360002318461437BD4680BC704710
:1008D000007000400800002083DE1B4380B588B014
:1008E00000AF78607B68002B01D10123DBE3A44BD0
:1008F0009B6803F00C03BB61A14BDB6803F00303AF
:100900007B617B681B6803F01003002B00F0E18023
:10091000BB69002B07D0BB690C2B40F088807B693A
:10092000012B40F08480964B1B6803F00203002BE0
:1009300005D07B689B69002B01D10123B3E37B6861
:100940001A6A8F4B1B6803F00803002B04D08C4BF2
:100950001B6803F0F00305E0894BD3F894301B09C2
:1009600003F0F003934223D27B681B6A184600F021
:100970000FFD0346002B01D0012394E3804B1B683D
:100980007F4A43F0080313607D4B1B6823F0F0029D
:100990007B681B6A7A4913430B60794B5B6823F4CD
:1009A0007F427B68DB691B02754913434B6022E081
:1009B000734B1B68724A43F008031360704B1B684B
:1009C00023F0F0027B681B6A6D4913430B606C4B8C
:1009D0005B6823F47F427B68DB691B026849134331
:1009E0004B607B681B6A184600F0D2FC0346002B64
:1009F00001D0012357E300F041FC0246604B9B68A5
:100A00001B0903F00F035F49CB5C03F01F0322FABD
:100A100003F35D4A13605D4B1B681846FFF7F0FB5C
:100A20000346FB73FB7B002B52D0FB7B3BE37B68D5
:100A30009B69002B32D0524B1B68514A43F0010393
:100A40001360FFF729FC386108E0FFF725FC024638
:100A50003B69D31A022B01D9032324E3484B1B68BB
:100A600003F00203002BF0D0454B1B68444A43F0CF
:100A700008031360424B1B6823F0F0027B681B6A7B
:100A80003F4913430B603E4B5B6823F47F427B6816
:100A9000DB691B023A4913434B601AE0384B1B6871
:100AA000374A23F001031360FFF7F6FB386108E0D3
:100AB000FFF7F2FB02463B69D31A022B01D903234D
:100AC000F1E22F4B1B6803F00203002BF0D100E092
:100AD00000BF7B681B6803F00103002B74D0BB6967
:100AE000082B05D0BB690C2B0ED17B69032B0BD1D6
:100AF000234B1B6803F40033002B64D07B685B68D6
:100B0000002B60D10123CEE27B685B68B3F5803FA8
:100B100006D11B4B1B681A4A43F4803313601DE057
:100B20007B685B68B3F5A02F0CD1154B1B68144A8A
:100B300043F480231360124B1B68114A43F4803343
:100B400013600BE00E4B1B680D4A23F480331360D7
:100B50000B4B1B680A4A23F4802313607B685B6895
:100B6000002B1CD0FFF798FB386111E0FFF794FBD6
:100B700002463B69D31A642B0AD9032393E200BFD0
:100B8000001002400820000808000020000000209B
:100B9000AE4B1B6803F40033002BE7D014E0FFF7E3
:100BA0007BFB386108E0FFF777FB02463B69D31A0D
:100BB000642B01D9032376E2A44B1B6803F40033B2
:100BC000002BF0D100E000BF7B681B6803F002033C
:100BD000002B60D0BB69042B05D0BB690C2B19D14D
:100BE0007B69022B16D1994B1B6803F48063002BA1
:100BF00005D07B68DB68002B01D1012353E2934BC6
:100C00005B6823F0F8527B681B691B068F4913430E
:100C10004B6040E07B68DB68002B23D08B4B1B686C
:100C20008A4A43F480731360FFF736FB386108E0AB
:100C3000FFF732FB02463B69D31A022B01D903238B
:100C400031E2824B1B6803F48063002BF0D07F4BB2
:100C50005B6823F0F8527B681B691B067B491343D2
:100C60004B6018E0794B1B68784A23F4807313605B
:100C7000FFF712FB386108E0FFF70EFB02463B6905
:100C8000D31A022B01D903230DE2704B1B6803F426
:100C90008063002BF0D17B681B6803F00803002BF6
:100CA0003CD07B685B69002B1CD0684BD3F8943038
:100CB000664A43F00103C2F89430FFF7EDFA386159
:100CC00008E0FFF7E9FA02463B69D31A022B01D983
:100CD0000323E8E15D4BD3F8943003F00203002BCB
:100CE000EFD01BE0594BD3F89430584A23F001035E
:100CF000C2F89430FFF7D0FA386108E0FFF7CCFA79
:100D000002463B69D31A022B01D90323CBE14F4B97
:100D1000D3F8943003F00203002BEFD17B681B68FB
:100D200003F00403002B00F0A5800023FB77474B62
:100D30009B6D03F08053002B0DD1444B9B6D434AB8
:100D400043F080539365414B9B6D03F08053BB6030
:100D5000BB680123FB773E4B1B6803F48073002BB9
:100D600018D13B4B1B683A4A43F480731360FFF77A
:100D700093FA386108E0FFF78FFA02463B69D31A0D
:100D8000022B01D903238EE1314B1B6803F48073DE
:100D9000002BF0D07B689B68012B08D12B4BD3F83C
:100DA00090302A4A43F00103C2F8903024E07B6877
:100DB0009B68052B10D1254BD3F89030234A43F084
:100DC0000403C2F89030214BD3F890301F4A43F00F
:100DD0000103C2F890300FE01C4BD3F890301B4A4F
:100DE00023F00103C2F89030184BD3F89030174A23
:100DF00023F00403C2F890307B689B68002B16D068
:100E0000FFF74AFA38610AE0FFF746FA02463B6903
:100E1000D31A41F28832934201D9032343E10B4BA9
:100E2000D3F8903003F00203002BEDD019E0FFF768
:100E300033FA38610EE0FFF72FFA02463B69D31A06
:100E400041F28832934205D903232CE1001002407D
:100E500000700040964BD3F8903003F00203002B53
:100E6000E9D1FB7F012B05D1914B9B6D904A23F07B
:100E7000805393657B681B6803F02003002B3CD0F4
:100E80007B685B6A002B1CD0894BD3F89830884A6A
:100E900043F00103C2F89830FFF7FEF9386108E02B
:100EA000FFF7FAF902463B69D31A022B01D9032353
:100EB000F9E07F4BD3F8983003F00203002BEFD01A
:100EC0001BE07B4BD3F89830794A23F00103C2F83A
:100ED0009830FFF7E1F9386108E0FFF7DDF90246E5
:100EE0003B69D31A022B01D90323DCE0704BD3F802
:100EF000983003F00203002BEFD17B689B6A002B34
:100F000000F0D080BB690C2B00F08D807B689B6A61
:100F1000022B5AD1664B1B68654A23F0807313601D
:100F2000FFF7BAF9386108E0FFF7B6F902463B6906
:100F3000D31A022B01D90323B5E05D4B1B6803F0E4
:100F40000073002BF0D15A4BDA685A4B13407A6881
:100F5000D16A7A68126B013A120111437A68526BB6
:100F6000120211437A68D26B5208013A52051143BA
:100F70007A68126C5208013A520611437A68926BF1
:100F8000D2060A434A491343CB60494B1B68484A7F
:100F900043F080731360464BDB68454A43F080732F
:100FA000D360FFF779F9386108E0FFF775F9024679
:100FB0003B69D31A022B01D9032374E03C4B1B6815
:100FC00003F00073002BF0D06CE0394B1B68384AFB
:100FD00023F080731360364B1B6803F00063002B13
:100FE00005D1334BDB68324A23F00303D360304B27
:100FF000DB682F4A23F0887323F48033D360FFF734
:101000004BF9386108E0FFF747F902463B69D31A0C
:10101000022B01D9032346E0254B1B6803F0007324
:10102000002BF0D13EE07B689B6A012B01D10123AC
:1010300039E01F4BDB687B617B6903F003027B684F
:10104000DB6A9A422CD17B6903F070027B681B6BD0
:10105000013B1B019A4223D17B6903F4FE427B686A
:101060005B6B1B029A421BD17B6903F078427B6861
:101070009B6BDB069A4213D17B6903F4C0027B6849
:10108000DB6B5B08013B5B059A4209D17B6903F08E
:10109000C0627B681B6C5B08013B5B069A4201D017
:1010A000012300E0002318462037BD4680BD00BF65
:1010B000001002408C809D0180B584B000AF786044
:1010C00039607B68002B01D10123C8E0664B1B68A7
:1010D00003F007033A689A4210D9634B1B6823F068
:1010E000070261493B6813430B605F4B1B6803F0C9
:1010F00007033A689A4201D00123B0E07B681B687D
:1011000003F00103002B4CD07B685B68032B07D1F5
:10111000564B1B6803F00073002B21D101239EE086
:101120007B685B68022B07D1504B1B6803F40033CC
:10113000002B15D1012392E07B685B68002B07D15F
:101140004A4B1B6803F00203002B09D1012386E000
:10115000464B1B6803F48063002B01D101237EE022
:10116000424B9B6823F003027B685B683F49134353
:101170008B60FFF791F8F8600AE0FFF78DF8024600
:10118000FB68D31A41F28832934201D9032366E007
:10119000364B9B6803F00C027B685B689B009A42AD
:1011A000EBD17B681B6803F00203002B08D02F4BA8
:1011B0009B6823F0F0027B689B682C4913438B608B
:1011C000294B1B6803F007033A689A4210D2264B5A
:1011D0001B6823F0070224493B6813430B60224B32
:1011E0001B6803F007033A689A4201D0012336E0F6
:1011F0007B681B6803F00403002B08D01B4B9B6823
:1012000023F4E0627B68DB68184913438B607B68DA
:101210001B6803F00803002B09D0144B9B6823F4D0
:1012200060527B681B69DB00104913438B6000F040
:1012300025F802460D4B9B681B0903F00F030C4970
:10124000CB5C03F01F0322FA03F30A4A13600A4B34
:101250001B681846FEF7D4FF0346FB72FB7A18465C
:101260001037BD4680BD00BF002002400010024084
:1012700008200008080000200000002080B489B089
:1012800000AF0023FB610023BB613D4B9B6803F073
:101290000C033B613A4BDB6803F00303FB603B69E3
:1012A000002B05D03B690C2B21D1FB68012B1ED1F3
:1012B000334B1B6803F00803002B07D1304BD3F8E6
:1012C00094301B0A03F00F03FB6105E02C4B1B68F5
:1012D0001B0903F00F03FB612A4AFB6952F8233014
:1012E000FB613B69002B0DD1FB69BB610AE03B69E7
:1012F000042B02D1244BBB6104E03B69082B01D1D4
:10130000224BBB613B690C2B34D11D4BDB6803F0D6
:101310000303BB60BB68022B03D0BB68032B03D065
:1013200005E0194B7B6105E0184B7B6102E0FB692E
:101330007B6100BF124BDB681B0903F0070301331D
:101340007B600F4BDB681B0A03F07F037A6902FBAB
:1013500003F27B68B2FBF3F37B61094BDB685B0E46
:1013600003F0030301335B003B607A693B68B2FB27
:10137000F3F3BB61BB6918462437BD4680BC704798
:1013800000100240182000080024F40000127A0027
:1013900080B586B000AF786000233B612A4B9B6D1F
:1013A00003F08053002B03D0FFF738FA786114E084
:1013B000254B9B6D244A43F080539365224B9B6DD4
:1013C00003F08053FB60FB68FFF728FA78611E4B3F
:1013D0009B6D1D4A23F0805393657B69B3F5007FB5
:1013E0000BD17B68802B19D97B68A02B02D90223F3
:1013F0003B6113E001233B6110E07B68802B02D945
:1014000003233B610AE07B68802B02D102233B610E
:1014100004E07B68702B01D101233B610B4B1B68FF
:1014200023F0070209493B6913430B60074B1B6814
:1014300003F007033A699A4201D0012300E0002338
:1014400018461837BD4680BD0010024000200240FB
:1014500080B582B000AF78607B68002B01D101239A
:101460001DE07B6893F83D30DBB2002B06D17B6832
:10147000002283F83C20786800F028FD7B68022277
:1014800083F83D207B681A687B6804331946104650
:1014900000F03EFA7B68012283F83D2000231846C5
:1014A0000837BD4680BD000080B485B000AF7860CD
:1014B0007B681B68DA687B681B6842F00102DA60AF
:1014C0007B681B689A680C4B1340FB60FB68062B1B
:1014D0000BD0FB68B3F5803F07D07B681B681A68A8
:1014E0007B681B6842F001021A600023184614371B
:1014F000BD4680BC704700BF0700010080B582B0C8
:1015000000AF78607B681B681B6903F00203022B45
:1015100022D17B681B68DB6803F00203022B1BD11E
:101520007B681B686FF002021A617B6801221A77E0
:101530007B681B689B6903F00303002B03D078686A
:1015400000F0CAF905E0786800F0BDF9786800F0AD
:10155000CCF97B6800221A777B681B681B6903F053
:101560000403042B22D17B681B68DB6803F00403AF
:10157000042B1BD17B681B686FF004021A617B6827
:1015800002221A777B681B689B6903F44073002B67
:1015900003D0786800F0A0F905E0786800F093F9CE
:1015A000786800F0A2F97B6800221A777B681B68D4
:1015B0001B6903F00803082B22D17B681B68DB68DA
:1015C00003F00803082B1BD17B681B686FF008022F
:1015D0001A617B6804221A777B681B68DB6903F059
:1015E0000303002B03D0786800F076F905E07868F3
:1015F00000F069F9786800F078F97B6800221A77C2
:101600007B681B681B6903F01003102B22D17B68D9
:101610001B68DB6803F01003102B1BD17B681B6871
:101620006FF010021A617B6808221A777B681B68CA
:10163000DB6903F44073002B03D0786800F04CF9A9
:1016400005E0786800F03FF9786800F04EF97B68B3
:1016500000221A777B681B681B6903F00103012BCA
:101660000ED17B681B68DB6803F00103012B07D1F7
:101670007B681B686FF001021A61786800F04AFC11
:101680007B681B681B6903F08003802B0ED17B688D
:101690001B68DB6803F08003802B07D17B681B6825
:1016A0006FF080021A61786800F087FA7B681B6827
:1016B0001B6903F48073B3F5807F0ED17B681B68D0
:1016C000DB6803F08003802B07D17B681B686FF415
:1016D00080721A61786800F079FA7B681B681B6970
:1016E00003F04003402B0ED17B681B68DB6803F0DE
:1016F0004003402B07D17B681B686FF040021A61E2
:10170000786800F0FBF87B681B681B6903F0200316
:10171000202B0ED17B681B68DB6803F02003202B95
:1017200007D17B681B686FF020021A61786800F0AF
:101730003BFA00BF0837BD4680BD80B584B000AF1E
:10174000786039607B6893F83C30012B01D102232B
:10175000B5E07B68012283F83C207B68022283F895
:101760003D207B681B689B68FB60FB6823F480332B
:1017700023F07703FB60FB6823F47F43FB607B6807
:101780001B68FA689A603B681B68B3F5005F3ED03F
:10179000B3F5005F00F28780B3F5805F00F08580CD
:1017A000B3F5805F7FD8702B1AD0702B7BD8602B5D
:1017B00050D0602B77D8502B3CD0502B73D8402B77
:1017C00058D0402B6FD8302B64D0302B6BD8202BC7
:1017D00060D0202B67D8002B5CD0102B5AD062E051
:1017E0007B6818683B6899683B685A683B68DB68A7
:1017F00000F067F97B681B689B68FB60FB6843F03F
:101800007703FB607B681B68FA689A604EE07B6830
:1018100018683B6899683B685A683B68DB6800F069
:1018200050F97B681B689A687B681B6842F48042A9
:101830009A603BE07B6818683B6859683B68DB68E6
:101840001A4600F0C7F87B681B685021184600F064
:101850001EF92BE07B6818683B6859683B68DB68B9
:101860001A4600F0E5F87B681B686021184600F016
:101870000EF91BE07B6818683B6859683B68DB68B9
:101880001A4600F0A7F87B681B684021184600F054
:10189000FEF80BE07B681A683B681B681946104627
:1018A00000F0F5F802E000BF00E000BF7B68012215
:1018B00083F83D207B68002283F83C2000231846F3
:1018C0001037BD4680BD80B483B000AF786000BFE4
:1018D0000C37BD4680BC704780B483B000AF7860E1
:1018E00000BF0C37BD4680BC704780B483B000AFEA
:1018F000786000BF0C37BD4680BC704780B483B0B1
:1019000000AF786000BF0C37BD4680BC7047000058
:1019100080B485B000AF786039607B681B68FB607D
:101920007B68294A934203D07B68B3F1804F08D18A
:10193000FB6823F07003FB603B685B68FA68134345
:10194000FB607B68204A93420BD07B68B3F1804FE9
:1019500007D07B681D4A934203D07B681C4A9342A0
:1019600008D1FB6823F44073FB603B68DB68FA68CE
:101970001343FB60FB6823F080023B685B69134301
:10198000FB607B68FA681A603B689A687B68DA6279
:101990003B681A687B689A627B680B4A934207D05F
:1019A0007B680A4A934203D07B68094A934203D179
:1019B0003B681A697B681A637B6801225A6100BF21
:1019C0001437BD4680BC7047002C014000400140E8
:1019D0000044014080B487B000AFF860B9607A601D
:1019E000FB681B6A7B61FB681B6A23F00102FB68D2
:1019F0001A62FB689B693B613B6923F0F0033B6122
:101A00007B681B013A6913433B617B6923F00A033E
:101A10007B617A69BB6813437B61FB683A699A61B1
:101A2000FB687A691A6200BF1C37BD4680BC7047EC
:101A300080B487B000AFF860B9607A60FB681B6A59
:101A400023F01002FB681A62FB689B697B61FB68EC
:101A50001B6A3B617B6923F470437B617B681B03DA
:101A60007A6913437B613B6923F0A0033B61BB6848
:101A70001B013A6913433B61FB687A699A61FB6811
:101A80003A691A6200BF1C37BD4680BC704780B4FB
:101A900085B000AF786039607B689B68FB60FB684D
:101AA00023F07003FB603A68FB68134343F00703BD
:101AB000FB607B68FA689A6000BF1437BD4680BC43
:101AC000704780B487B000AFF860B9607A603B605F
:101AD000FB689B687B617B6923F47F437B613B6888
:101AE0001A027B681A43BB6813437A6913437B610C
:101AF000FB687A699A6000BF1C37BD4680BC70479E
:101B000080B485B000AF786039607B6893F83C3072
:101B1000012B01D1022340E07B68012283F83C20A5
:101B20007B68022283F83D207B681B685B68FB6052
:101B30007B681B689B68BB607B681B68194A934283
:101B400008D1FB6823F47003FB603B685B68FA68AC
:101B50001343FB60FB6823F07003FB603B681B686A
:101B6000FA681343FB60BB6823F08003BB603B68EB
:101B70009B68BA681343BB607B681B68FA685A604D
:101B80007B681B68BA689A607B68012283F83D20F5
:101B90007B68002283F83C20002318461437BD469A
:101BA00080BC7047002C014080B483B000AF7860E7
:101BB00000BF0C37BD4680BC704780B483B000AF17
:101BC000786000BF0C37BD4680BC704780B483B0DE
:101BD00000AF786000BF0C37BD4680BC7047000086
:101BE00080B588B000AF07F10C0300221A605A607C
:101BF0009A60DA601A61184BDB6C174A43F00403F1
:101C0000D364154BDB6C03F00403BB60BB68124B61
:101C1000DB6C114A43F08003D3640F4BDB6C03F0A1
:101C200080037B607B6800224FF400510B48FEF775
:101C3000C5FD4FF40053FB6001233B6100237B6132
:101C40000023BB6107F10C0319460448FEF73CFC76
:101C500000BF2037BD4680BD00100240000800488C
:101C600080B500AFFEF7B4FA00F00AF8FFF7B8FF4E
:101C700000F0DEF80148FFF717FCFEE73000002017
:101C800080B596B000AF07F1140344220021184636
:101C900000F0A6F93B4600221A605A609A60DA60AA
:101CA0001A6101237B614FF48033BB610223FB6324
:101CB00003233B6401237B641423BB640723FB647D
:101CC00002233B6502237B6507F114031846FEF7E8
:101CD00005FE0346002B01D000F021F80F233B60E6
:101CE00003237B600023BB600023FB6000233B6178
:101CF0003B4604211846FFF7DFF90346002B01D0CD
:101D000000F00DF84FF40070FEF794FD0346002B31
:101D100001D000F004F800BF5837BD4680BD80B444
:101D200000AF00BFBD4680BC7047000080B483B0E8
:101D300000AF0E4B1B6E0D4A43F0010313660B4BB5
:101D40001B6E03F001037B607B68084B9B6D074AA9
:101D500043F080539365054B9B6D03F080533B60CC
:101D60003B6800BF0C37BD4680BC70470010024086
:101D700080B400AF00BFBD4680BC704780B400AFE8
:101D8000FEE780B400AFFEE780B400AFFEE780B4AA
:101D900000AFFEE780B400AF00BFBD4680BC704717
:101DA00080B400AF00BFBD4680BC704780B400AFB8
:101DB00000BFBD4680BC704780B500AFFEF75AFA41
:101DC00000BF80BD80B500AF0248FFF797FB00BFA2
:101DD00080BD00BF3000002080B400AF124B1B68F4
:101DE000114A43F0010313600F4B00229A600E4B1F
:101DF0001B680D4A23F0A85323F4102313600A4BE9
:101E00004FF48052DA60084B1B68074A23F48023A2
:101E10001360054B00229A61044B4FF000629A60F8
:101E200000BFBD4680BC70470010024000ED00E0DE
:101E300080B588B000AF07F1100300221A605A6025
:101E40009A60DA603B1D00221A605A609A601E4B4D
:101E50004FF080421A601C4B49F63F425A601A4BC1
:101E600000229A60184B40F2E732DA60164B0022EB
:101E70001A61154B00229A611348FFF7E9FA0346ED
:101E8000002B01D0FFF74BFF4FF480533B6107F16C
:101E9000100319460C48FFF750FC0346002B01D0F5
:101EA000FFF73DFF00237B600023FB603B1D1946CD
:101EB0000548FFF725FE0346002B01D0FFF72FFF53
:101EC00000BF2037BD4680BD3000002080B584B003
:101ED00000AF78607B681B68B3F1804F13D10C4B67
:101EE0009B6D0B4A43F001039365094B9B6D03F017
:101EF0000103FB60FB68002200211C20FEF7ADFA05
:101F00001C20FEF7C6FA00BF1037BD4680BD00BFDB
:101F10000010024080B582B000AF78607B681A681C
:101F2000064B1B689A4204D14FF400510448FEF757
:101F30005CFC00BF0837BD4680BD00BF30000020FC
:101F400000080048DFF834D0002103E00C4B5B5858
:101F5000435004310B480C4B42189A42F6D30B4ABB
:101F600002E0002342F8043B094B9A42F9D3FFF701
:101F700033FF00F011F8FFF773FEFEE700000120C9
:101F80005820000800000020100000201000002051
:101F900070000020FEE7000070B50D4D0D4C641B75
:101FA000A4100026A64209D10B4D0C4C00F020F8DD
:101FB000641BA4100026A64205D170BD55F8043B51
:101FC00098470136EEE755F8043B98470136F2E7AB
:101FD0004820000848200008482000084C2000083D
:101FE00002440346934200D1704703F8011BF9E70E
:101FF000F8B500BFF8BC08BC9E467047F8B500BFF6
:08200000F8BC08BC9E467047C5
:1020080000000000000000000102030406070809A0
:10201800A0860100400D0300801A060000350C0060
:1020280040420F0080841E0000093D0000127A0023
:102038000024F40000366E010048E801006CDC0260
:08204800B501000800000000D2
:082050009101000800000000EE
:10205800100000000100000000093D000000000021
:0400000508001F458B
:00000001FF
