:020000040800F2
:1000000000000120F13300083D3300084B330008A5
:1000100051330008573300085D330008000000002A
:10002000000000000000000000000000F11B0008BC
:100030006333000800000000411E0008A91E0008EC
:1000400041340008413400084134000841340008BC
:1000500041340008413400084134000841340008AC
:10006000413400084134000841340008413400089C
:10007000413400084134000841340008413400088C
:10008000413400084134000841340008413400087C
:10009000413400084134000841340008413400086C
:1000A000413400087133000841340008413400082D
:1000B0004134000800000000000000004134000846
:1000C000413400084134000841340008413400083C
:1000D000413400084134000841340008413400082C
:1000E0004134000841340008000000000000000016
:1000F0000000000000000000000000000000000000
:1001000000000000413400080000000041340008F5
:1001100000000000000000004134000841340008E5
:1001200041340008413400084134000841340008DB
:100130004134000800000000000000000000000042
:100140004134000841340008413400080000000038
:1001500041340008413400084134000841340008AB
:100160004134000841340008413400080000000018
:100170004134000841340008000000000000000085
:1001800041340008413400084134000800000000F8
:1001900010B5054C237833B9044B13B10448AFF3C1
:1001A00000800123237010BD10000020000000001B
:1001B0009C34000808B5034B1BB103490348AFF357
:1001C000008008BD00000000140000209C340008DE
:1001D00080B582B000AF0023FB71032000F0DBF894
:1001E000002003F055F80346002B02D00123FB71D9
:1001F00001E003F025F8FB7918460837BD4680BDBD
:1002000080B400AF054B1A68054B1B681344034AC2
:10021000136000BFBD465DF8047B70472C000020D2
:100220000400002080B400AF034B1B681846BD4695
:100230005DF8047B704700BF2C00002080B485B0BF
:1002400000AF78607B6803F00703FB600C4BDB6852
:10025000BB60BA684FF6FF031340BB60FB681A022D
:10026000BB68134343F0BF6343F40033BB60044AED
:10027000BB68D36000BF1437BD465DF8047B704790
:1002800000ED00E080B400AF044BDB681B0A03F014
:1002900007031846BD465DF8047B704700ED00E09B
:1002A00080B483B000AF0346FB7197F90730002B91
:1002B0000BDBFB7903F01F02074997F907305B0955
:1002C000012000FA02F241F8232000BF0C37BD469E
:1002D0005DF8047B704700BF00E100E080B483B0AC
:1002E00000AF03463960FB7197F90730002B0ADB3A
:1002F0003B68DAB20C4997F907301201D2B20B44CD
:1003000083F800230AE03B68DAB20849FB7903F07E
:100310000F03043B1201D2B20B441A7600BF0C3714
:10032000BD465DF8047B704700E100E000ED00E0B1
:1003300080B489B000AFF860B9607A60FB6803F000
:100340000703FB61FB69C3F10703042B28BF0423E8
:10035000BB61FB690433062B02D9FB69033B00E058
:1003600000237B614FF0FF32BB6902FA03F3DA43EB
:10037000BB681A407B699A404FF0FF317B6901FAF4
:1003800003F3D9437B680B40134318462437BD461B
:100390005DF8047B704780B582B000AF7860786804
:1003A000FFF74CFF00BF0837BD4680BD80B586B063
:1003B00000AF0346B9607A60FB7300237B61FFF7EF
:1003C00061FF78617A68B9687869FFF7B1FF024622
:1003D00097F90F3011461846FFF780FF00BF183716
:1003E000BD4680BD80B582B000AF0346FB7197F972
:1003F00007301846FFF754FF00BF0837BD4680BDE1
:1004000080B487B000AF7860396000237B6154E12D
:100410003B681A6801217B6901FA03F31340FB6012
:10042000FB68002B00F046813B685B68022B03D021
:100430003B685B68122B23D17B69DA087B68083242
:1004400053F822303B617B6903F007039B000F22C6
:1004500002FA03F3DB433A6913403B613B681A69D4
:100460007B6903F007039B0002FA03F33A69134325
:100470003B617B69DA087B680832396943F82210EE
:100480007B681B683B617B695B00032202FA03F314
:10049000DB433A6913403B613B685B6803F003024E
:1004A0007B695B0002FA03F33A6913433B617B68A3
:1004B0003A691A603B685B68012B0BD03B685B684C
:1004C000022B07D03B685B68112B03D03B685B684D
:1004D000122B30D17B689B683B617B695B000322F8
:1004E00002FA03F3DB433A6913403B613B68DA6885
:1004F0007B695B0002FA03F33A6913433B617B6853
:100500003A699A607B685B683B6101227B6902FA09
:1005100003F3DB433A6913403B613B685B681B09AB
:1005200003F001027B6902FA03F33A6913433B616A
:100530007B683A695A607B68DB683B617B695B007A
:10054000032202FA03F3DB433A6913403B613B6841
:100550009A687B695B0002FA03F33A6913433B61D3
:100560007B683A69DA603B685B6803F08053002B74
:1005700000F0A080584B1B6E574A43F001031366EE
:10058000554B1B6E03F00103BB60BB68534A7B698C
:100590009B08023352F823303B617B6903F003036D
:1005A0009B000F2202FA03F3DB433A6913403B61DD
:1005B0007B68B3F1904F19D07B68494A934213D0BE
:1005C0007B68484A93420DD07B68474A934207D0E4
:1005D0007B68464A934201D1042308E0072306E0E2
:1005E000032304E0022302E0012300E000237A69F0
:1005F00002F00302920093403A6913433B6137498A
:100600007B699B0802333A6941F82320384B1B6809
:100610003B61FB68DB433A6913403B613B685B68C5
:1006200003F48033002B03D03A69FB6813433B612A
:100630002F4A3B6913602E4B5B683B61FB68DB43D1
:100640003A6913403B613B685B6803F40033002B5D
:1006500003D03A69FB6813433B61254A3B69536009
:10066000234B9B683B61FB68DB433A6913403B616A
:100670003B685B6803F48013002B03D03A69FB6886
:1006800013433B611A4A3B699360194BDB683B613A
:10069000FB68DB433A6913403B613B685B6803F4EA
:1006A0000013002B03D03A69FB6813433B61104AE7
:1006B0003B69D3607B6901337B613B681A687B6966
:1006C00022FA03F3002B7FF4A3AE00BF00BF1C3758
:1006D000BD465DF8047B70470010024000000140F9
:1006E0000004004800080048000C004800100048C2
:1006F0000004014080B485B000AF78600B467B8079
:100700007B681A697B881340002B02D00123FB739E
:1007100001E00023FB73FB7B18461437BD465DF8F0
:10072000047B704780B483B000AF78600B467B8059
:1007300013467B707B78002B03D07A887B689A61A4
:1007400002E07A887B689A6200BF0C37BD465DF88C
:10075000047B704780B483B000AF78600B467B8029
:100760007B685A697B881340002B03D07A887B68AA
:100770009A6202E07A887B689A6100BF0C37BD46B6
:100780005DF8047B7047000080B400AF044B1B6829
:1007900003F4C0631846BD465DF8047B704700BF94
:1007A0000070004080B485B000AF78607B68B3F51E
:1007B000007F30D1234B1B6803F4C063B3F5007F87
:1007C00038D0204B1B6823F4C0631E4A43F40073E7
:1007D00013601D4B1B68322202FB03F31B4AA2FB72
:1007E00003239B0C0133FB6002E0FB68013BFB60D1
:1007F000144B5B6903F48063B3F5806F02D1FB682F
:10080000002BF2D10F4B5B6903F48063B3F5806F6B
:1008100010D103230FE00B4B1B6803F4C063B3F547
:10082000806F07D0074B1B6823F4C063054A43F46D
:1008300080631360002318461437BD465DF8047BBF
:10084000704700BF007000400C00002083DE1B4397
:1008500080B588B000AF78607B68002B01D10123A0
:10086000DBE3A44B9B6803F00C03BB61A14BDB688B
:1008700003F003037B617B681B6803F01003002B0C
:1008800000F0E180BB69002B07D0BB690C2B40F066
:1008900088807B69012B40F08480964B1B6803F0B5
:1008A0000203002B05D07B689B69002B01D101233B
:1008B000B3E37B681A6A8F4B1B6803F00803002BB5
:1008C00004D08C4B1B6803F0F00305E0894BD3F890
:1008D00094301B0903F0F003934223D27B681B6A18
:1008E000184600F065FD0346002B01D0012394E378
:1008F000804B1B687F4A43F0080313607D4B1B68E5
:1009000023F0F0027B681B6A7A4913430B60794B32
:100910005B6823F47F427B68DB691B0275491343E4
:100920004B6022E0734B1B68724A43F0080313606C
:10093000704B1B6823F0F0027B681B6A6D49134300
:100940000B606C4B5B6823F47F427B68DB691B02A6
:10095000684913434B607B681B6A184600F028FD0A
:100960000346002B01D0012357E300F041FC02466F
:10097000604B9B681B0903F00F035F49CB5C03F0DE
:100980001F0322FA03F35D4A13605D4B1B68184690
:1009900002F07EFC0346FB73FB7B002B52D0FB7BFB
:1009A0003BE37B689B69002B32D0524B1B68514A5A
:1009B00043F001031360FFF735FC386108E0FFF7EF
:1009C00031FC02463B69D31A022B01D9032324E3ED
:1009D000484B1B6803F00203002BF0D0454B1B680B
:1009E000444A43F008031360424B1B6823F0F002B3
:1009F0007B681B6A3F4913430B603E4B5B6823F4E3
:100A00007F427B68DB691B023A4913434B601AE063
:100A1000384B1B68374A23F001031360FFF702FCD1
:100A2000386108E0FFF7FEFB02463B69D31A022B50
:100A300001D90323F1E22F4B1B6803F00203002BC3
:100A4000F0D100E000BF7B681B6803F00103002BBE
:100A500074D0BB69082B05D0BB690C2B0ED17B6908
:100A6000032B0BD1234B1B6803F40033002B64D002
:100A70007B685B68002B60D10123CEE27B685B68FA
:100A8000B3F5803F06D11B4B1B681A4A43F48033F1
:100A900013601DE07B685B68B3F5A02F0CD1154B8C
:100AA0001B68144A43F480231360124B1B68114ADD
:100AB00043F4803313600BE00E4B1B680D4A23F4A4
:100AC000803313600B4B1B680A4A23F480231360A6
:100AD0007B685B68002B1CD0FFF7A4FB386111E03A
:100AE000FFF7A0FB02463B69D31A642B0AD9032304
:100AF00093E200BF00100240103500080C000020F7
:100B000000000020AE4B1B6803F40033002BE7D03D
:100B100014E0FFF787FB386108E0FFF783FB02462C
:100B20003B69D31A642B01D9032376E2A44B1B68DB
:100B300003F40033002BF0D100E000BF7B681B689A
:100B400003F00203002B60D0BB69042B05D0BB6906
:100B50000C2B19D17B69022B16D1994B1B6803F41E
:100B60008063002B05D07B68DB68002B01D101235B
:100B700053E2934B5B6823F0F8527B681B691B06BA
:100B80008F4913434B6040E07B68DB68002B23D028
:100B90008B4B1B688A4A43F480731360FFF742FB58
:100BA000386108E0FFF73EFB02463B69D31A022B8F
:100BB00001D9032331E2824B1B6803F48063002BCD
:100BC000F0D07F4B5B6823F0F8527B681B691B06F3
:100BD0007B4913434B6018E0794B1B68784A23F438
:100BE00080731360FFF71EFB386108E0FFF71AFB04
:100BF00002463B69D31A022B01D903230DE2704B45
:100C00001B6803F48063002BF0D17B681B6803F042
:100C10000803002B3CD07B685B69002B1CD0684B21
:100C2000D3F89430664A43F00103C2F89430FFF7DA
:100C3000F9FA386108E0FFF7F5FA02463B69D31A82
:100C4000022B01D90323E8E15D4BD3F8943003F084
:100C50000203002BEFD01BE0594BD3F89430584AD5
:100C600023F00103C2F89430FFF7DCFA386108E0A2
:100C7000FFF7D8FA02463B69D31A022B01D90323A6
:100C8000CBE14F4BD3F8943003F00203002BEFD1AC
:100C90007B681B6803F00403002B00F0A580002391
:100CA000FB77474B9B6D03F08053002B0DD1444BDA
:100CB0009B6D434A43F080539365414B9B6D03F01A
:100CC0008053BB60BB680123FB773E4B1B6803F47A
:100CD0008073002B18D13B4B1B683A4A43F4807356
:100CE0001360FFF79FFA386108E0FFF79BFA0246AE
:100CF0003B69D31A022B01D903238EE1314B1B68C8
:100D000003F48073002BF0D07B689B68012B08D123
:100D10002B4BD3F890302A4A43F00103C2F89030AD
:100D200024E07B689B68052B10D1254BD3F89030CD
:100D3000234A43F00403C2F89030214BD3F890309B
:100D40001F4A43F00103C2F890300FE01C4BD3F868
:100D500090301B4A23F00103C2F89030184BD3F8AF
:100D60009030174A23F00403C2F890307B689B68E8
:100D7000002B16D0FFF756FA38610AE0FFF752FA57
:100D800002463B69D31A41F28832934201D90323C8
:100D900043E10B4BD3F8903003F00203002BEDD06E
:100DA00019E0FFF73FFA38610EE0FFF73BFA024621
:100DB0003B69D31A41F28832934205D903232CE1CF
:100DC0000010024000700040964BD3F8903003F0C2
:100DD0000203002BE9D1FB7F012B05D1914B9B6DC9
:100DE000904A23F0805393657B681B6803F02003CF
:100DF000002B3CD07B685B6A002B1CD0894BD3F85E
:100E00009830884A43F00103C2F89830FFF70AFA95
:100E1000386108E0FFF706FA02463B69D31A022B55
:100E200001D90323F9E07F4BD3F8983003F0020394
:100E3000002BEFD01BE07B4BD3F89830794A23F09E
:100E40000103C2F89830FFF7EDF9386108E0FFF7C9
:100E5000E9F902463B69D31A022B01D90323DCE0EE
:100E6000704BD3F8983003F00203002BEFD17B686E
:100E70009B6A002B00F0D080BB690C2B00F08D80AA
:100E80007B689B6A022B5AD1664B1B68654A23F02C
:100E900080731360FFF7C6F9386108E0FFF7C2F905
:100EA00002463B69D31A022B01D90323B5E05D4BFF
:100EB0001B6803F00073002BF0D15A4BDA685A4BD1
:100EC00013407A68D16A7A68126B013A12011143B1
:100ED0007A68526B120211437A68D26B5208013A57
:100EE000520511437A68126C5208013A52061143B6
:100EF0007A68926BD2060A434A491343CB60494B46
:100F00001B68484A43F080731360464BDB68454AD0
:100F100043F08073D360FFF785F9386108E0FFF78D
:100F200081F902463B69D31A022B01D9032374E0ED
:100F30003C4B1B6803F00073002BF0D06CE0394B86
:100F40001B68384A23F080731360364B1B6803F02C
:100F50000063002B05D1334BDB68324A23F00303D7
:100F6000D360304BDB682F4A23F0887323F480333F
:100F7000D360FFF757F9386108E0FFF753F90246ED
:100F80003B69D31A022B01D9032346E0254B1B688A
:100F900003F00073002BF0D13EE07B689B6A012BCD
:100FA00001D1012339E01F4BDB687B617B6903F0D2
:100FB00003027B68DB6A9A422CD17B6903F07002E2
:100FC0007B681B6B013B1B019A4223D17B6903F4B5
:100FD000FE427B685B6B1B029A421BD17B6903F06C
:100FE00078427B689B6BDB069A4213D17B6903F4E2
:100FF000C0027B68DB6B5B08013B5B059A4209D151
:101000007B6903F0C0627B681B6C5B08013B5B067D
:101010009A4201D0012300E0002318462037BD4644
:1010200080BD00BF001002408C809D0180B584B05F
:1010300000AF786039607B68002B01D10123C8E0E4
:10104000664B1B6803F007033A689A4210D9634B5A
:101050001B6823F0070261493B6813430B605F4B39
:101060001B6803F007033A689A4201D00123B0E0FD
:101070007B681B6803F00103002B4CD07B685B6826
:10108000032B07D1564B1B6803F00073002B21D1B3
:1010900001239EE07B685B68022B07D1504B1B68E5
:1010A00003F40033002B15D1012392E07B685B68C9
:1010B000002B07D14A4B1B6803F00203002B09D118
:1010C000012386E0464B1B6803F48063002B01D1AB
:1010D00001237EE0424B9B6823F003027B685B6840
:1010E0003F4913438B60FFF79DF8F8600AE0FFF774
:1010F00099F80246FB68D31A41F28832934201D92B
:10110000032366E0364B9B6803F00C027B685B6848
:101110009B009A42EBD17B681B6803F00203002B13
:1011200008D02F4B9B6823F0F0027B689B682C490A
:1011300013438B60294B1B6803F007033A689A42FC
:1011400010D2264B1B6823F0070224493B68134347
:101150000B60224B1B6803F007033A689A4201D0E8
:10116000012336E07B681B6803F00403002B08D0E2
:101170001B4B9B6823F4E0627B68DB6818491343D0
:101180008B607B681B6803F00803002B09D0144BAD
:101190009B6823F460527B681B69DB001049134392
:1011A0008B6000F025F802460D4B9B681B0903F08D
:1011B0000F030C49CB5C03F01F0322FA03F30A4A26
:1011C00013600A4B1B68184602F062F80346FB7274
:1011D000FB7A18461037BD4680BD00BF0020024094
:1011E00000100240103500080C0000200000002014
:1011F00080B489B000AF0023FB610023BB613E4B8C
:101200009B6803F00C033B613B4BDB6803F003037B
:10121000FB603B69002B05D03B690C2B21D1FB689F
:10122000012B1ED1344B1B6803F00803002B07D1A0
:10123000314BD3F894301B0A03F00F03FB6105E038
:101240002D4B1B681B0903F00F03FB612B4AFB6945
:1012500052F82330FB613B69002B0DD1FB69BB6168
:101260000AE03B69042B02D1254BBB6104E03B69DA
:10127000082B01D1234BBB613B690C2B34D11E4B96
:10128000DB6803F00303BB60BB68022B03D0BB68C1
:10129000032B03D005E01A4B7B6105E0194B7B6102
:1012A00002E0FB697B6100BF134BDB681B0903F0A5
:1012B000070301337B60104BDB681B0A03F07F03DD
:1012C0007A6902FB03F27B68B2FBF3F37B610A4BA2
:1012D000DB685B0E03F0030301335B003B607A695C
:1012E0003B68B2FBF3F3BB61BB6918462437BD46CC
:1012F0005DF8047B704700BF0010024028350008ED
:101300000024F40000127A0080B400AF034B1B6885
:101310001846BD465DF8047B704700BF0C000020F6
:1013200080B500AFFFF7F0FF0246064B9B68DB0A73
:1013300003F007030449CB5C03F01F0322FA03F315
:10134000184680BD001002402035000880B483B0EC
:1013500000AF786039607B680F221A60124B9B687F
:1013600003F003027B685A600F4B9B6803F0F002A6
:101370007B689A600C4B9B6803F4E0627B68DA60E0
:10138000094B9B68DB0803F4E0627B681A61074B3A
:101390001B6803F007023B681A6000BF0C37BD46AC
:1013A0005DF8047B704700BF00100240002002403F
:1013B00080B586B000AF786000233B612A4B9B6DFF
:1013C00003F08053002B03D0FFF7DEF9786114E0BF
:1013D000254B9B6D244A43F080539365224B9B6DB4
:1013E00003F08053FB60FB68FFF7CEF978611E4B7A
:1013F0009B6D1D4A23F0805393657B69B3F5007F95
:101400000BD17B68802B19D97B68A02B02D90223D2
:101410003B6113E001233B6110E07B68802B02D924
:1014200003233B610AE07B68802B02D102233B61EE
:1014300004E07B68702B01D101233B610B4B1B68DF
:1014400023F0070209493B6913430B60074B1B68F4
:1014500003F007033A699A4201D0012300E0002318
:1014600018461837BD4680BD0010024000200240DB
:1014700080B582B000AF78607B68002B01D101237A
:101480001DE07B6893F83D30DBB2002B06D17B6812
:10149000002283F83C20786800F015F87B6802226F
:1014A00083F83D207B681A687B6804331946104630
:1014B00000F086F97B68012283F83D20002318465E
:1014C0000837BD4680BD80B483B000AF786000BFF0
:1014D0000C37BD465DF8047B7047000080B485B0D2
:1014E00000AF78607B681B68DA687B681B6842F035
:1014F0000102DA607B681B689A680C4B1340FB6042
:10150000FB68062B0BD0FB68B3F5803F07D07B68E8
:101510001B681A687B681B6842F001021A6000238E
:1015200018461437BD465DF8047B7047070001007C
:1015300080B582B000AF78607B681B681B6903F0E0
:101540000203022B22D17B681B68DB6803F00203D5
:10155000022B1BD17B681B686FF002021A617B684B
:1015600001221A777B681B689B6903F00303002B39
:1015700003D0786800F005F905E0786800F0F7F826
:10158000786800F008F97B6800221A777B681B688E
:101590001B6903F00403042B22D17B681B68DB6802
:1015A00003F00403042B1BD17B681B686FF004025B
:1015B0001A617B6802221A777B681B689B6903F4B7
:1015C0004073002B03D0786800F0DBF805E0786802
:1015D00000F0CDF8786800F0DEF87B6800221A771A
:1015E0007B681B681B6903F00803082B22D17B680A
:1015F0001B68DB6803F00803082B1BD17B681B68A2
:101600006FF008021A617B6804221A777B681B68F6
:10161000DB6903F00303002B03D0786800F0B1F816
:1016200005E0786800F0A3F8786800F0B4F87B680B
:1016300000221A777B681B681B6903F01003102BCC
:1016400022D17B681B68DB6803F01003102B1BD1D1
:101650007B681B686FF010021A617B6808221A779A
:101660007B681B68DB6903F44073002B03D0786848
:1016700000F087F805E0786800F079F8786800F005
:101680008AF87B6800221A777B681B681B6903F065
:101690000103012B0ED17B681B68DB6803F001039B
:1016A000012B07D17B681B686FF001021A61786813
:1016B00001F0ACFD7B681B681B6903F08003802B85
:1016C0000ED17B681B68DB6803F08003802B07D199
:1016D0007B681B686FF080021A61786800F0DEF8A2
:1016E0007B681B681B6903F48073B3F5807F0ED1A0
:1016F0007B681B68DB6803F08003802B07D17B6865
:101700001B686FF480721A61786800F0D1F87B680A
:101710001B681B6903F04003402B0ED17B681B68DC
:10172000DB6803F04003402B07D17B681B686FF038
:1017300040021A61786800F038F87B681B681B6902
:1017400003F02003202B0ED17B681B68DB6803F0BD
:101750002003202B07D17B681B686FF020021A61E1
:10176000786800F091F800BF0837BD4680BD80B4AE
:1017700083B000AF786000BF0C37BD465DF8047BD6
:10178000704780B483B000AF786000BF0C37BD46AF
:101790005DF8047B704780B483B000AF786000BF11
:1017A0000C37BD465DF8047B704780B483B000AF52
:1017B000786000BF0C37BD465DF8047B70470000C1
:1017C00080B485B000AF786039607B681B68FB60CF
:1017D0007B682A4A934203D07B68B3F1804F08D1DB
:1017E000FB6823F07003FB603B685B68FA68134397
:1017F000FB607B68214A93420BD07B68B3F1804F3A
:1018000007D07B681E4A934203D07B681D4A9342EF
:1018100008D1FB6823F44073FB603B68DB68FA681F
:101820001343FB60FB6823F080023B685B69134352
:10183000FB607B68FA681A603B689A687B68DA62CA
:101840003B681A687B689A627B680C4A934207D0AF
:101850007B680B4A934203D07B680A4A934203D1C8
:101860003B681A697B681A637B6801225A6100BF72
:101870001437BD465DF8047B704700BF002C014063
:10188000004001400044014080B483B000AF786064
:1018900000BF0C37BD465DF8047B704780B483B051
:1018A00000AF786000BF0C37BD465DF8047B704721
:1018B00080B483B000AF786000BF0C37BD465DF8E0
:1018C000047B704780B485B000AF0346FB800023E3
:1018D000FB60B7F90630842B05D0B7F90620FB680A
:1018E00013440333FB60FB6818461437BD465DF8AC
:1018F000047B704780B500AF00F0EAFF0023184674
:1019000080BDF0B589B004AF786039607B685B69F1
:10191000002B20D07B689B69002B1CD07B685C6807
:101920007B681D687B681E697B68B3F908301846C0
:10193000FFF7C8FF01467B685B697A68926902928B
:10194000019300913B6832462946204600F0D6FCC0
:101950000346FB601CE07B685C687B681D687B68F5
:101960001B699EB27B68B3F908301846FFF7AAFFDF
:10197000024607F10C03019300923B683246294668
:10198000204600F017FD0346012B01D0002300E0A4
:10199000FB6818461437BD46F0BD80B584B000AF73
:1019A00078607B68FB60FB68002B01D0FB6800E07F
:1019B0000123184600F02CFE002318461037BD46C0
:1019C00080BD80B483B000AF78607B6803F108020B
:1019D0007B685A607B684FF0FF329A607B6803F146
:1019E00008027B68DA607B6803F108027B681A6191
:1019F0007B6800221A6000BF0C37BD465DF8047B8F
:101A0000704780B483B000AF78607B6800221A61B1
:101A100000BF0C37BD465DF8047B704780B485B0CD
:101A200000AF786039607B685B68FB603B68FA6890
:101A30005A60FB689A683B689A60FB689B683A68E2
:101A40005A60FB683A689A603B687A681A617B68FA
:101A50001B685A1C7B681A6000BF1437BD465DF8CE
:101A6000047B704780B485B000AF786039603B6814
:101A70001B68BB60BB68B3F1FF3F03D17B681B6988
:101A8000FB600CE07B680833FB6002E0FB685B688E
:101A9000FB60FB685B681B68BA689A42F6D2FB6819
:101AA0005A683B685A603B685B683A689A603B6872
:101AB000FA689A60FB683A685A603B687A681A610B
:101AC0007B681B685A1C7B681A6000BF1437BD46D0
:101AD0005DF8047B704780B485B000AF78607B68A8
:101AE0001B69FB607B685B687A6892689A607B68B8
:101AF0009B687A6852685A60FB685B687A689A42A9
:101B000003D17B689A68FB685A607B6800221A617F
:101B1000FB681B685A1EFB681A60FB681B68184646
:101B20001437BD465DF8047B7047000080B485B073
:101B300000AFF860B9607A60FB68043BFB60FB684B
:101B40004FF080721A60FB68043BFB60BB6823F0B7
:101B50000102FB681A60FB68043BFB600C4AFB68EF
:101B60001A60FB68143BFB607A68FB681A60FB68CC
:101B7000043BFB60FB686FF002021A60FB68203BCD
:101B8000FB60FB6818461437BD465DF8047B704760
:101B9000951B000880B485B000AF00237B60124B1A
:101BA0001B68B3F1FF3F0AD04FF0500383F3118855
:101BB000BFF36F8FBFF34F8FFB6000BFFEE74FF0A7
:101BC000500383F31188BFF36F8FBFF34F8FBB6058
:101BD00000BF00BF7B68002BFCD000BF00BF1437E4
:101BE000BD465DF8047B704708000020000000003F
:101BF000074B19680868B0E8F04F80F30988BFF315
:101C00006F8F4FF0000080F311887047AFF30080B2
:101C1000080C002000BF00BF08480068006880F37F
:101C200008884FF0000080F3148862B661B6BFF3F5
:101C30004F8FBFF36F8F00DF00BF00BF08ED00E0E4
:101C400080B586B000AF464B1B68464A93420AD126
:101C50004FF0500383F31188BFF36F8FBFF34F8FA3
:101C60003B6100BFFEE73E4B1B683F4A93420AD1EF
:101C70004FF0500383F31188BFF36F8FBFF34F8F83
:101C8000FB6000BFFEE7394B7B617B691B78DBB2F1
:101C90007B607B69FF221A707B691B78DBB2FB706B
:101CA000FB78DBB203F05003DAB2314B1A70314BE0
:101CB00007221A6009E02F4B1B68013B2D4A136075
:101CC000FB78DBB25B00DBB2FB70FB78DBB203F0CE
:101CD0008003802BEFD0274B1B68C3F10703042B35
:101CE0000AD04FF0500383F31188BFF36F8FBFF317
:101CF0004F8FBB6000BFFEE71E4B1B681B021D4AD7
:101D000013601C4B1B6803F4E0631A4A13607B6882
:101D1000DAB27B691A70184B1B68174A43F47003D8
:101D20001360154B1B68144A43F07043136000F0B6
:101D3000DDF8124B00221A6000F0FCF8104B1B6813
:101D40000F4A43F040431360FFF766FF00F088FF3F
:101D5000FFF720FF002318461837BD4680BD00BF9F
:101D600000ED00E071C20F4170C20F4100E400E0DD
:101D7000300000203400002020ED00E008000020AA
:101D800034EF00E080B483B000AF4FF0500383F332
:101D90001188BFF36F8FBFF34F8F7B6000BF0F4B76
:101DA0001B6801330D4A13600C4B1B68012B0FD1CC
:101DB0000B4B1B68DBB2002B0AD04FF0500383F3B0
:101DC0001188BFF36F8FBFF34F8F3B6000BFFEE7FB
:101DD00000BF0C37BD465DF8047B7047080000204B
:101DE00004ED00E080B483B000AF124B1B68002B01
:101DF0000AD14FF0500383F31188BFF36F8FBFF305
:101E00004F8F7B6000BFFEE70A4B1B68013B094A0E
:101E10001360084B1B68002B05D100233B603B6817
:101E200083F3118800BF00BF0C37BD465DF8047B0B
:101E3000704700BF08000020000000000000000004
:101E4000EFF30980BFF36F8F154B1A681EF0100F68
:101E500008BF20ED108A20E9F04F10602DE909003D
:101E60004FF0500080F31188BFF34F8FBFF36F8F97
:101E700000F0F6FE4FF0000080F3118809BC1968ED
:101E80000868B0E8F04F1EF0100F08BFB0EC108AE1
:101E900080F30988BFF36F8F704700BFAFF30080F6
:101EA000080C002000BF00BF80B582B000AF4FF02B
:101EB000500383F31188BFF36F8FBFF34F8F7B60A5
:101EC00000BF00F00FFE0346002B03D0064B4FF07F
:101ED00080521A6000233B603B6883F3118800BF87
:101EE00000BF0837BD4680BD04ED00E080B400AF00
:101EF0000B4B00221A600B4B00221A600A4B1B6826
:101F00000A4AA2FB03239B09094A013B1360044BC5
:101F100007221A6000BFBD465DF8047B704700BF12
:101F200010E000E018E000E00C000020D34D62104B
:101F300014E000E0DFF80C00016841F4700101607A
:101F4000704700BF88ED00E080B58AB000AF7860D0
:101F50000023FB6100F01CFD584B1B68002B01D1D6
:101F600000F010F9564B1A687B681340002B40F0C4
:101F70008E807B68002B1DD008227B6813447B6019
:101F80007B6803F00703002B14D07B6823F0070362
:101F900008337B607B6803F00703002B0AD04FF007
:101FA000500383F31188BFF36F8FBFF34F8F7B61B3
:101FB00000BFFEE77B68002B69D0424B1B687A6844
:101FC0009A4264D8404B3B623F4B1B687B6204E003
:101FD0007B6A3B627B6A1B687B627B6A5B687A68B0
:101FE0009A4203D97B6A1B68002BF1D1334B1B68E3
:101FF0007A6A9A424BD03B6A1B6808221344FB6101
:102000007B6A1A683B6A1A607B6A5A687B68D21AD4
:1020100008235B009A421FD97A6A7B681344BB612C
:10202000BB6903F00703002B0AD04FF0500383F382
:102030001188BFF36F8FBFF34F8F3B6100BFFEE787
:102040007B6A5A687B68D21ABB695A607B6A7A6875
:102050005A60B86900F0F8F81A4B1A687B6A5B6836
:10206000D31A184A1360174B1A68184B1B689A4208
:1020700003D2144B1B68154A13607B6A5A68104BD5
:102080001B681A437B6A5A607B6A00221A6000F060
:102090008DFCFB6903F00703002B0AD04FF05003BF
:1020A00083F31188BFF36F8FBFF34F8FFB6000BFC7
:1020B000FEE7FB6918462837BD4680BDF80B0020B7
:1020C000040C0020FC0B0020F00B0020000C002072
:1020D00080B586B000AF78607B687B617B68002B41
:1020E00048D008235B427A6913447B617B693B617A
:1020F0003B695A68214B1B681340002B0AD14FF0F3
:10210000500383F31188BFF36F8FBFF34F8FFB60D2
:1021100000BFFEE73B691B68002B0AD04FF050035D
:1021200083F31188BFF36F8FBFF34F8FBB6000BF86
:10213000FEE73B695A68114B1B681340002B19D00E
:102140003B691B68002B15D13B695A680B4B1B6818
:10215000DB431A403B695A6000F01AFC3B695A683D
:10216000074B1B681344064A1360386900F06CF88B
:1021700000F01CFC00BF1837BD4680BD040C0020D9
:10218000FC0B002080B485B000AF40F6B833BB60D4
:10219000274BFB60FB6803F00703002B0CD0FB68A8
:1021A0000733FB60FB6823F00703FB60BA68FB683A
:1021B000D31A1F4A1344BB60FB687B601D4A7B68CF
:1021C00013601C4B00225A607B68BA681344FB60A2
:1021D0000822FB689B1AFB60FB6823F00703FB6087
:1021E000FB68154A1360144B1B6800225A60124B9F
:1021F0001B6800221A607B683B603B68FA68D21A51
:102200003B685A600C4B1A683B681A603B685B6815
:102210000A4A13603B685B68094A1360094B4FF038
:1022200000421A6000BF1437BD465DF8047B70475A
:1022300038000020F00B0020F80B0020000C0020DC
:10224000FC0B0020040C002080B485B000AF786047
:10225000284BFB6002E0FB681B68FB60FB681B68A7
:102260007A689A42F7D8FB68BB60FB685B68BA681B
:1022700013447A689A4208D1FB685A687B685B68A5
:102280001A44FB685A60FB687B607B68BB607B68B4
:102290005B68BA681A44FB681B689A4218D1FB68ED
:1022A0001A68154B1B689A420DD07B685A68FB6808
:1022B0001B685B681A447B685A60FB681B681A6875
:1022C0007B681A6008E00C4B1A687B681A6003E0B0
:1022D000FB681A687B681A60FA687B689A4202D0C9
:1022E000FB687A681A6000BF1437BD465DF8047B4E
:1022F000704700BFF00B0020F80B002080B58EB0B7
:1023000004AFF860B9607A603B607B6B002B0AD148
:102310004FF0500383F31188BFF36F8FBFF34F8FDC
:102320003B6200BFFEE7BB6B002B0AD14FF05003AE
:1023300083F31188BFF36F8FBFF34F8FFB6100BF33
:10234000FEE754233B613B69542B0AD04FF0500306
:1023500083F31188BFF36F8FBFF34F8FBB6100BF53
:10236000FEE7BB6B002B1ED07B6B002B1BD0BB6B27
:102370007B627B6A7A6B1A637B6A022283F8512044
:10238000002303937B6A029307F1140301933B6BD1
:1023900000933B687A68B968F86800F050F8786A8A
:1023A00000F0CCF801E000237B617B6918462837F8
:1023B000BD4680BD80B58CB004AFF860B9603B60AD
:1023C0001346FB80FB889B001846FFF7BDFD786134
:1023D0007B69002B0ED05420FFF7B6FDF861FB6936
:1023E000002B03D0FB697A691A6305E07869FFF76F
:1023F0006FFE01E00023FB61FB69002B17D0FB6936
:10240000002283F85120FA8800230393FB6902938A
:10241000FB6A0193BB6A00933B68B968F86800F0F7
:102420000EF8F86900F08AF80123BB6102E04FF072
:10243000FF33BB61BB6918462037BD4680BD80B500
:1024400088B000AFF860B9607A603B603B6B1A6B94
:102450007B6803F18043013B9B001344BB61BB6974
:1024600023F00703BB61BB6903F00703002B0AD00D
:102470004FF0500383F31188BFF36F8FBFF34F8F7B
:102480007B6100BFFEE70023FB6112E0BA68FB69D5
:10249000134419783A6BFB69134434330A461A70B3
:1024A000BA68FB6913441B78002B06D0FB69013323
:1024B000FB61FB690F2BE9D900E000BF3B6B0022F9
:1024C00083F84320BB6A062B01D90623BB623B6B12
:1024D000BA6ADA623B6BBA6A5A643B6B00229A644E
:1024E0003B6B04331846FFF78CFA3B6B18331846E6
:1024F000FFF787FA3B6B3A6B1A61BB6AC3F10702BD
:102500003B6B9A613B6B3A6B5A623B6B0022DA641D
:102510003B6B002283F850203A68F968B869FFF7EE
:1025200005FB02463B6B1A60FB6A002B02D0FB6A7C
:102530003A6B1A6000BF2037BD4680BD80B582B0BF
:1025400000AF7860FFF71EFC2A4B1B680133294A55
:102550001360294B1B68002B09D1274A7B68136045
:10256000244B1B68012B10D100F0EEFB0DE0234B38
:102570001B68002B09D1204B1B68DA6A7B68DB6A79
:102580009A4202D81C4A7B6813601D4B1B680133BA
:102590001B4A13607B68DB6A01229A40194B1B6857
:1025A0001343184A13607B68DA6A13469B0013448E
:1025B0009B00154A1A447B68043319461046FFF7FE
:1025C0002DFAFFF70FFC0D4B1B68002B0ED00A4BAA
:1025D0001B68DA6A7B68DB6A9A4207D20B4B4FF0C2
:1025E00080521A60BFF34F8FBFF36F8F00BF083761
:1025F000BD4680BD080D0020080C0020140D0020F1
:10260000240D0020100D00200C0C002004ED00E033
:1026100080B584B000AF78600023FB607B68002B3E
:1026200017D0134B1B68002B0AD04FF0500383F3D5
:102630001188BFF36F8FBFF34F8FBB6000BFFEE702
:1026400000F0A6F90021786800F042FC00F0AEF935
:10265000F860FB68002B07D1064B4FF080521A60E0
:10266000BFF34F8FBFF36F8F00BF1037BD4680BDE4
:10267000300D002004ED00E080B584B000AF78603C
:10268000FFF780FB7B68002B02D13C4B1B6800E00E
:102690007B68FB60FB6804331846FFF71CFA0346AF
:1026A000002B15D1FB68DA6A354913469B001344A9
:1026B0009B000B441B68002B0AD1FB68DB6A0122DC
:1026C00002FA03F3DA432F4B1B6813402D4A1360C1
:1026D000FB689B6A002B04D0FB6818331846FFF791
:1026E000FAF9FB68043319462748FFF797F9FB68A6
:1026F00093F85030DBB2012B03D1FB68002283F842
:102700005020FFF76FFB214B1B68002B05D0FFF714
:1027100039FB00F0B7FBFFF765FB184B1B68FA6845
:102720009A4227D1194B1B68002B17D0184B1B68F6
:10273000002B0AD04FF0500383F31188BFF36F8F43
:10274000BFF34F8FBB6000BFFEE7124B4FF08052CC
:102750001A60BFF34F8FBFF36F8F0BE00A4B1A68FD
:102760000D4B1B689A4203D1044B00221A6001E012
:1027700000F076FA00BF1037BD4680BD080C00207F
:102780000C0C0020100D0020F40C0020140D002073
:10279000300D002004ED00E0080D002080B487B06B
:1027A00000AF786000237B617B683B617B68002B16
:1027B0000AD14FF0500383F31188BFF36F8FBFF33B
:1027C0004F8FFB6000BFFEE73B695B690F4A934296
:1027D00001D1012300E00023002B0FD03B699B6A4D
:1027E0000B4A93420AD03B699B6A002B01D101231B
:1027F00000E00023002B01D001237B617B69184698
:102800001C37BD465DF8047B704700BFF40C002008
:10281000C80C002080B584B000AF78607B68FB6096
:102820007B68002B0AD14FF0500383F31188BFF36C
:102830006F8FBFF34F8FBB6000BFFEE7FB68002BBD
:1028400039D01F4B1B68FA689A4234D0FFF79AFAC6
:10285000F868FFF7A3FF0346002B2AD0FB68043378
:102860001846FFF738F9FB68DB6A01229A40154BDE
:102870001B681343134A1360FB68DA6A13469B0014
:1028800013449B00104A1A44FB680433194610464F
:10289000FFF7C4F8FB68DA6A094B1B68DB6A9A42E7
:1028A00007D30A4B4FF080521A60BFF34F8FBFF32C
:1028B0006F8FFFF797FA00BF1037BD4680BD00BF8E
:1028C000080C0020100D00200C0C002004ED00E08E
:1028D00080B58AB004AF0023BB6000237B603A461A
:1028E000391D07F10803184600F058FB39687B686A
:1028F000BA68029201930023009300230A461E49FE
:102900001E48FFF7FBFC03461D4A13601C4B1B6867
:10291000002B02D001237B6101E000237B617B69F6
:10292000012B16D14FF0500383F31188BFF36F8F43
:10293000BFF34F8F3B6100BF124B4FF0FF321A6065
:10294000114B01221A60114B00221A60FFF778F92F
:102950000EE07B69B3F1FF3F0AD14FF0500383F3E0
:102960001188BFF36F8FBFF34F8FFB6000BFFEE78F
:1029700000BF1837BD4680BDB8340008192D0008C7
:102980002C0D0020280D0020140D00200C0D00201F
:1029900080B400AF044B1B680133034A136000BFCF
:1029A000BD465DF8047B7047300D002080B584B0D3
:1029B00000AF0023FB600023BB60414B1B68002B72
:1029C0000AD14FF0500383F31188BFF36F8FBFF329
:1029D0004F8F3B6000BFFEE7FFF7D4F9384B1B6811
:1029E000013B374A1360364B1B68002B61D1354BD6
:1029F0001B68002B5DD02EE0334BDB68DB68FB608F
:102A0000FB6818331846FFF766F8FB68043318466E
:102A1000FFF761F8FB68DB6A01229A402B4B1B68C9
:102A200013432A4A1360FB68DA6A13469B00134477
:102A30009B00274A1A44FB68043319461046FEF7E8
:102A4000EDFFFB68DA6A234B1B68DB6A9A4202D30C
:102A5000214B01221A601C4B1B68002BCCD1FB6858
:102A6000002B01D000F00EFA1C4B1B687B607B68CA
:102A7000002B10D000F036F80346002B02D0164B86
:102A800001221A607B68013B7B607B68002BF1D1DF
:102A9000124B00221A60104B1B68002B09D0012337
:102AA000BB600F4B4FF080521A60BFF34F8FBFF3E4
:102AB0006F8FFFF797F9BB6818461037BD4680BD8A
:102AC000300D0020080D0020C80C0020100D002043
:102AD0000C0C0020080C00201C0D0020180D0020FC
:102AE00004ED00E080B586B000AF00237B61514B60
:102AF0001B68002B40F08D804F4B1B6801333B61FE
:102B00004D4A3B6913603B69002B20D14B4B1B683E
:102B10001B68002B0AD04FF0500383F31188BFF3DA
:102B20006F8FBFF34F8F3B6000BFFEE7434B1B68C7
:102B3000FB60434B1B68414A1360414AFB681360CA
:102B4000404B1B6801333F4A136000F09BF93E4B3A
:102B50001B683A699A424DD3384B1B681B68002B9F
:102B600001D1012300E00023002B04D0364B4FF0AD
:102B7000FF321A603EE0314B1B68DB68DB68BB60EC
:102B8000BB685B687B603A697B689A4203D22E4AD5
:102B90007B6813602EE0BB6804331846FEF79BFF8A
:102BA000BB689B6A002B04D0BB6818331846FEF73D
:102BB00092FFBB68DB6A01229A40244B1B681343D7
:102BC000224A1360BB68DA6A13469B0013449B00D9
:102BD0001F4A1A44BB68043319461046FEF71EFF0D
:102BE000BB68DA6A1B4B1B68DB6A9A42B4D30123C9
:102BF0007B61B1E7174B1B68DA6A154913469B00E6
:102C000013449B000B441B68012B07D901237B61F4
:102C100004E0114B1B6801330F4A13600F4B1B6814
:102C2000002B01D001237B617B6918461837BD4614
:102C300080BD00BF300D00200C0D0020C00C002016
:102C4000C40C0020200D0020280D0020100D0020B5
:102C50000C0C0020080C0020180D00201C0D00207A
:102C600080B487B000AF274B1B68002B03D0264BE6
:102C700001221A603FE0244B00221A60234B1B689C
:102C8000FB60FB68B3FA83F3FB72FB7AC3F11F03AB
:102C90007B611F497A6913469B0013449B000B44D8
:102CA0001B68002B0AD14FF0500383F31188BFF348
:102CB0006F8FBFF34F8F7B6000BFFEE77A691346CB
:102CC0009B0013449B00124A13443B613B695B68C1
:102CD0005A683B695A603B695A683B6908339A42B3
:102CE00004D13B695B685A683B695A603B695B6821
:102CF000DB68084A136000BF1C37BD465DF8047BE3
:102D0000704700BF300D00201C0D0020100D00206A
:102D10000C0C0020080C002080B582B000AF786059
:102D200000F052F8064B1B68012BF9D9054B4FF008
:102D300080521A60BFF34F8FBFF36F8FF0E700BF71
:102D40000C0C002004ED00E080B582B000AF002341
:102D50007B600CE07A6813469B0013449B00124A88
:102D600013441846FEF72DFE7B6801337B607B68B9
:102D7000062BEFD90D48FEF724FE0D48FEF721FE85
:102D80000C48FEF71EFE0C48FEF71BFE0B48FEF734
:102D900018FE0B4B054A1A600A4B054A1A6000BF21
:102DA0000837BD4680BD00BF0C0C0020980C0020E9
:102DB000AC0C0020C80C0020DC0C0020F40C00201F
:102DC000C00C0020C40C002080B582B000AF19E018
:102DD000FEF7D8FF104BDB68DB687B607B68043351
:102DE0001846FEF778FE0D4B1B68013B0B4A13603B
:102DF0000B4B1B68013B0A4A1360FEF7F3FF786830
:102E000000F010F8064B1B68002BE1D100BF00BF9B
:102E10000837BD4680BD00BFDC0C0020080D002037
:102E2000F00C002080B584B000AF78607B6893F828
:102E30005130002B08D17B681B6B1846FFF748F90F
:102E40007868FFF745F918E07B6893F85130012B5B
:102E500003D17868FFF73CF90FE07B6893F85130B5
:102E6000022B0AD04FF0500383F31188BFF36F8F0A
:102E7000BFF34F8FFB6000BFFEE700BF1037BD46BA
:102E800080BD000080B483B000AF0F4B1B681B688F
:102E9000002B01D1012300E00023002B04D00B4BB9
:102EA0004FF0FF321A6008E0074B1B68DB68DB68F5
:102EB0007B607B685B68054A136000BF0C37BD46CA
:102EC0005DF8047B704700BFC00C0020280D002077
:102ED00080B584B000AF78603960294B1B68FB6017
:102EE000284B1B6804331846FEF7F5FD0346002BFC
:102EF0000BD1244B1B68DB6A012202FA03F3DA438D
:102F0000214B1B681340204A13607B68B3F1FF3FDD
:102F10000AD13B68002B07D01A4B1B6804331946B3
:102F20001A48FEF77BFD26E0FA687B681344BB6015
:102F3000144B1B68BA685A60BA68FB689A4209D297
:102F4000134B1A680F4B1B68043319461046FEF7E3
:102F500089FD10E00F4B1A680A4B1B6804331946B1
:102F60001046FEF77FFD0C4B1B68BA689A4202D2EE
:102F7000094ABB68136000BF1037BD4680BD00BF63
:102F80000C0D0020080C0020100D0020F40C002077
:102F9000C40C0020C00C0020280D002080B485B097
:102FA00000AFF860B9607A60FB68074A1A60BB68D6
:102FB000064A1A607B6880221A6000BF1437BD463B
:102FC0005DF8047B704700BF3C0D0020900D002091
:102FD000B0B58EB000AF144B07F11C041D460FCDE9
:102FE0000FC495E8070084E8070007F11C030021DF
:102FF0001846FEF786FC03460C4A13600C4B3C4611
:103000001D460FCD0FC495E8070084E807003B4636
:1030100000211846FEF775FC0346064A136000BF00
:103020003837BD46B0BD00BFD8340008340D00208D
:10303000F4340008380D002080B582B000AF78600D
:1030400004210D48FDF756FB0346002B04D10B4B22
:103050001B681846FFF710FB08210748FDF74AFBDD
:103060000346002B04D1054B1B681846FFF7D2FB23
:103070001420FEF792FCE3E700040048380D00201E
:1030800080B582B000AF78604FF400510348FDF77F
:1030900061FB4FF47A70FEF780FCF5E7000800480A
:1030A00080B588B000AF07F10C0300221A605A60A7
:1030B0009A60DA601A61244BDB6C234A43F0040304
:1030C000D364214BDB6C03F00403BB60BB681E4B75
:1030D000DB6C1D4A43F08003D3641B4BDB6C03F0B5
:1030E00080037B607B68184BDB6C174A43F002035C
:1030F000D364154BDB6C03F002033B603B6800229A
:103100004FF400511148FDF70DFB4FF40053FB60E5
:1031100001233B6100237B610023BB6107F10C03AA
:1031200019460A48FDF76CF90C23FB6000233B614C
:1031300001237B6107F10C0319460548FDF760F98F
:1031400000BF2037BD4680BD001002400008004887
:103150000004004880B500AFFDF73AF800F007F82A
:10316000FFF79EFFFFF734FFFEF7C4FBFEE780B5D5
:1031700096B000AF07F1140344220021184600F076
:1031800085F93B4600221A605A609A60DA601A613B
:1031900001237B614FF48033BB610223FB63032374
:1031A0003B6401237B641423BB640723FB64022379
:1031B0003B6502237B6507F114031846FDF748FBC6
:1031C0000346002B01D000F033F80F233B600323AC
:1031D0007B600023BB600023FB6000233B613B4618
:1031E00004211846FDF722FF0346002B01D000F012
:1031F0001FF84FF40070FDF7D5FA0346002B01D0FD
:1032000000F016F800BF5837BD4680BD80B582B0CB
:1032100000AF78607B681B68044A934201D1FCF7D9
:10322000EFFF00BF0837BD4680BD00BF002C014046
:1032300080B400AF00BFBD465DF8047B704700005E
:1032400080B582B000AF114B1B6E104A43F00103F2
:1032500013660E4B1B6E03F001037B607B680B4B08
:103260009B6D0A4A43F080539365084B9B6D03F0B6
:1032700080533B603B6800220F216FF00100FDF797
:1032800095F800BF0837BD4680BD00BF0010024062
:1032900080B58CB000AF78600023FB620023BB6276
:1032A000002279681920FDF781F81920FDF79AF8B6
:1032B0001E4B1B6E1D4A43F4006313661B4B1B6EB3
:1032C00003F40063FB60FB6807F1100207F11403CD
:1032D00011461846FEF73AF8FEF722F8F862FB6A44
:1032E000134AA2FB03239B0C013BBB62114B124A06
:1032F0001A60104B40F2E732DA600E4ABB6A536044
:103300000C4B00221A610B4B00229A600948FEF711
:10331000AFF80346002B04D10648FEF7DFF803465A
:1033200000E0012318463037BD4680BD0010024042
:1033300083DE1B43900F0020002C014080B400AFBF
:1033400000BFBD465DF8047B704780B400AFFEE768
:1033500080B400AFFEE780B400AFFEE780B400AFFA
:10336000FEE780B400AF00BFBD465DF8047B704748
:1033700080B500AF0248FEF7DBF800BF80BD00BF9C
:10338000900F002080B400AF174BD3F88830164A56
:1033900043F47003C2F88830144B1B68134A43F09F
:1033A00001031360114B00229A60104B1B680F4AF7
:1033B00023F0A85323F4102313600C4B4FF48052D6
:1033C000DA600A4B1B68094A23F480231360074B19
:1033D00000229A61044B4FF000629A6000BFBD4624
:1033E0005DF8047B704700BF00ED00E00010024074
:1033F000DFF834D0002103E00C4B5B58435004311C
:103400000B480C4B42189A42F6D30B4A02E00023B9
:1034100042F8043B094B9A42F9D3FFF7B3FF00F09F
:1034200011F8FFF797FEFEE700000120683500085D
:10343000000000201000002010000020D00F00200D
:10344000FEE7000070B50D4D0D4C641BA410002666
:10345000A64209D10B4D0C4C00F020F8641BA410BF
:103460000026A64205D170BD55F8043B98470136A9
:10347000EEE755F8043B98470136F2E75835000867
:1034800058350008583500085C35000802440346EA
:10349000934200D1704703F8011BF9E7F8B500BF6C
:1034A000F8BC08BC9E467047F8B500BFF8BC08BC25
:0834B0009E4670470000000079
:1034B80049444C45000000004B45595F5441534B6B
:1034C800000000004C45445F5441534B000000008D
:1034D800C034000839300008000000000000000077
:1034E800800000000000000000000000CC3400084C
:1034F800813000080000000000000000800000008B
:1035080000000000000000000000000000000000B3
:103518000102030406070809000000000102030471
:10352800A0860100400D0300801A060000350C003B
:1035380040420F0080841E0000093D0000127A00FE
:103548000024F40000366E010048E801006CDC023B
:08355800B501000800000000AD
:083560009101000800000000C9
:103568001000000001000000AAAAAAAA00093D0054
:04000005080033F1CB
:00000001FF
