:020000040800F2
:100000000000012011490008614700086F470008FF
:10001000754700087B470008814700080000000082
:100020000000000000000000000000001130000887
:10003000874700080000000061320008C93200084C
:1000400061490008614900086149000861490008E8
:1000500061490008614900086149000861490008D8
:1000600061490008614900086149000861490008C8
:1000700061490008614900086149000861490008B8
:1000800061490008614900086149000861490008A8
:100090006149000861490008614900086149000898
:1000A0006149000895470008614900086149000856
:1000B00061490008000000000000000061490008DC
:1000C0006149000861490008614900086149000868
:1000D0006149000861490008614900086149000858
:1000E00061490008614900080000000000000000AC
:1000F0000000000000000000000000000000000000
:10010000000000006149000800000000614900088B
:10011000000000000000000061490008614900087B
:100120006149000861490008614900086149000807
:10013000614900080000000000000000000000000D
:100140006149000861490008614900080000000099
:1001500061490008614900086149000861490008D7
:100160006149000861490008614900080000000079
:10017000614900086149000800000000000000001B
:100180006149000861490008614900080000000059
:1001900010B5054C237833B9044B13B10448AFF3C1
:1001A00000800123237010BD7800002000000000B3
:1001B000045D000808B5034B1BB103490348AFF3C6
:1001C000008008BD000000007C000020045D0008E5
:1001D00053B94AB9002908BF00281CBF4FF0FF31AE
:1001E0004FF0FF3000F06EB9ADF1080C6DE904CEB0
:1001F00000F006F8DDF804E0DDE9022304B0704702
:100200002DE9F047089D04468C46002B40F0838082
:100210008A42174647D9B2FA82F242B1C2F12000AF
:1002200024FA00F09140974040EA010C94404FEAD4
:100230001748230CBCFBF8F61FFA87FE08FB16C113
:1002400043EA014306FB0EF1994209D9FB1806F176
:10025000FF3080F01981994240F21681023E3B4402
:100260005B1AA4B2B3FBF8F008FB103344EA034472
:1002700000FB0EFEA64509D93C1900F1FF3380F0C2
:100280000581A64540F2028102383C4440EA06401E
:10029000A4EB0E0400261DB1D4400023C5E90043A1
:1002A0003146BDE8F08702B9FFDEB2FA82F2002AD9
:1002B00050D1CB1B4FEA174E1FFA87F80126B3FB2C
:1002C000FEFC210C0EFB1C3341EA034108FB0CF33E
:1002D0008B4207D979180CF1FF3002D28B4200F221
:1002E000E9808446C91AA3B2B1FBFEF00EFB1011DF
:1002F00043EA014408FB00F8A04507D93C1900F186
:10030000FF3302D2A04500F2D9801846A4EB0804BE
:1003100040EA0C40BFE78B4209D9002D00F0B180C4
:100320000026C5E9000130463146BDE8F087B3FA42
:1003300083F6002E4AD18B4202D3824200F2B8806B
:10034000841A61EB030101208C46002DA8D0C5E979
:10035000004CA5E7C2F1200320FA03F6974001FA0A
:1003600002F04FEA174ED9403043030CB1FBFEF6C2
:100370001FFA87F80EFB161143EA014306FB08F14A
:10038000994204FA02F409D9FB1806F1FF3C80F007
:100390008D80994240F28A80023E3B445B1A81B2D2
:1003A000B3FBFEF00EFB103341EA034100FB08F300
:1003B0008B4207D9791800F1FF3C73D28B4271D977
:1003C00002383944CB1A40EA064678E7C6F1200CD9
:1003D00003FA06F422FA0CF31C4320FA0CF701FA94
:1003E00006F34FEA144E21FA0CF11F433B0CB1FB0C
:1003F000FEF91FFA84F80EFB191143EA014109FBCB
:1004000008FA8A4502FA06F200FA06F308D96118DA
:1004100009F1FF3048D28A4546D9A9F102092144A1
:10042000A1EB0A01BFB2B1FBFEF00EFB101147EACF
:10043000014700FB08F8B84507D9E71900F1FF317B
:100440002ED2B8452CD90238274440EA0940A7EB00
:100450000807A0FB02894F45C64649461AD317D064
:100460005DB1B3EB0E0267EB010707FA0CFCF2403B
:100470004CEA0202F740C5E9002700263146BDE8F4
:10048000F0872E4628460BE70646E9E61846FDE6C5
:100490004345E5D2B8EB020E69EB04010138DFE712
:1004A0000846D2E760468DE78146B9E7664675E7BC
:1004B00030464AE7ACF1020C394413E702383C44B9
:1004C00024E700BF704700BF0000000000000000EC
:1004D00001F0FF01102A2BDB10F0070F08D010F8F5
:1004E000013B013A8B422DD010F0070F42B3F6D1F9
:1004F000F0B441EA012141EA014122F007047FF012
:1005000000070023F0E80256083C85EA010586EA68
:10051000010685FA47F5A3FA87F586FA47F6A5FAA4
:1005200087F68EB9EED1F0BC01F0FF0102F00702B0
:1005300032B110F8013B013A83EA010313B1F8D15B
:100540000020704701387047002D06BF354603383C
:10055000073815F0010F07D1013015F4807F02BF75
:10056000013015F4C03F0130F0BC0138704700BFC6
:1005700080B582B000AF0023FB71032000F0DBF8F0
:10058000002004F097F80346002B02D00123FB71F2
:1005900001E004F023F8FB7918460837BD4680BD1A
:1005A00080B400AF054B1A68054B1B681344034A1F
:1005B000136000BFBD465DF8047B704794000020C7
:1005C0000400002080B400AF034B1B681846BD46F2
:1005D0005DF8047B704700BF9400002080B485B0B4
:1005E00000AF78607B6803F00703FB600C4BDB68AF
:1005F000BB60BA684FF6FF031340BB60FB681A028A
:10060000BB68134343F0BF6343F40033BB60044A49
:10061000BB68D36000BF1437BD465DF8047B7047EC
:1006200000ED00E080B400AF044BDB681B0A03F070
:1006300007031846BD465DF8047B704700ED00E0F7
:1006400080B483B000AF0346FB7197F90730002BED
:100650000BDBFB7903F01F02074997F907305B09B1
:10066000012000FA02F241F8232000BF0C37BD46FA
:100670005DF8047B704700BF00E100E080B483B008
:1006800000AF03463960FB7197F90730002B0ADB96
:100690003B68DAB20C4997F907301201D2B20B4429
:1006A00083F800230AE03B68DAB20849FB7903F0DB
:1006B0000F03043B1201D2B20B441A7600BF0C3771
:1006C000BD465DF8047B704700E100E000ED00E00E
:1006D00080B489B000AFF860B9607A60FB6803F05D
:1006E0000703FB61FB69C3F10703042B28BF042345
:1006F000BB61FB690433062B02D9FB69033B00E0B5
:1007000000237B614FF0FF32BB6902FA03F3DA4347
:10071000BB681A407B699A404FF0FF317B6901FA50
:1007200003F3D9437B680B40134318462437BD4677
:100730005DF8047B704780B582B000AF7860786860
:10074000FFF74CFF00BF0837BD4680BD80B586B0BF
:1007500000AF0346B9607A60FB7300237B61FFF74B
:1007600061FF78617A68B9687869FFF7B1FF02467E
:1007700097F90F3011461846FFF780FF00BF183772
:10078000BD4680BD80B582B000AF0346FB7197F9CE
:1007900007301846FFF754FF00BF0837BD4680BD3D
:1007A00080B487B000AF7860396000237B6154E18A
:1007B0003B681A6801217B6901FA03F31340FB606F
:1007C000FB68002B00F046813B685B68022B03D07E
:1007D0003B685B68122B23D17B69DA087B6808329F
:1007E00053F822303B617B6903F007039B000F2223
:1007F00002FA03F3DB433A6913403B613B681A6931
:100800007B6903F007039B0002FA03F33A69134381
:100810003B617B69DA087B680832396943F822104A
:100820007B681B683B617B695B00032202FA03F370
:10083000DB433A6913403B613B685B6803F00302AA
:100840007B695B0002FA03F33A6913433B617B68FF
:100850003A691A603B685B68012B0BD03B685B68A8
:10086000022B07D03B685B68112B03D03B685B68A9
:10087000122B30D17B689B683B617B695B00032254
:1008800002FA03F3DB433A6913403B613B68DA68E1
:100890007B695B0002FA03F33A6913433B617B68AF
:1008A0003A699A607B685B683B6101227B6902FA66
:1008B00003F3DB433A6913403B613B685B681B0908
:1008C00003F001027B6902FA03F33A6913433B61C7
:1008D0007B683A695A607B68DB683B617B695B00D7
:1008E000032202FA03F3DB433A6913403B613B689E
:1008F0009A687B695B0002FA03F33A6913433B6130
:100900007B683A69DA603B685B6803F08053002BD0
:1009100000F0A080584B1B6E574A43F0010313664A
:10092000554B1B6E03F00103BB60BB68534A7B69E8
:100930009B08023352F823303B617B6903F00303C9
:100940009B000F2202FA03F3DB433A6913403B6139
:100950007B68B3F1904F19D07B68494A934213D01A
:100960007B68484A93420DD07B68474A934207D040
:100970007B68464A934201D1042308E0072306E03E
:10098000032304E0022302E0012300E000237A694C
:1009900002F00302920093403A6913433B613749E6
:1009A0007B699B0802333A6941F82320384B1B6866
:1009B0003B61FB68DB433A6913403B613B685B6822
:1009C00003F48033002B03D03A69FB6813433B6187
:1009D0002F4A3B6913602E4B5B683B61FB68DB432E
:1009E0003A6913403B613B685B6803F40033002BBA
:1009F00003D03A69FB6813433B61254A3B69536066
:100A0000234B9B683B61FB68DB433A6913403B61C6
:100A10003B685B6803F48013002B03D03A69FB68E2
:100A200013433B611A4A3B699360194BDB683B6196
:100A3000FB68DB433A6913403B613B685B6803F446
:100A40000013002B03D03A69FB6813433B61104A43
:100A50003B69D3607B6901337B613B681A687B69C2
:100A600022FA03F3002B7FF4A3AE00BF00BF1C37B4
:100A7000BD465DF8047B7047001002400000014055
:100A80000004004800080048000C0048001000481E
:100A90000004014080B485B000AF78600B467B80D5
:100AA0007B681A697B881340002B02D00123FB73FB
:100AB00001E00023FB73FB7B18461437BD465DF84D
:100AC000047B704780B483B000AF78600B467B80B6
:100AD00013467B707B78002B03D07A887B689A6101
:100AE00002E07A887B689A6200BF0C37BD465DF8E9
:100AF000047B704780B483B000AF78600B467B8086
:100B00007B685A697B881340002B03D07A887B6806
:100B10009A6202E07A887B689A6100BF0C37BD4612
:100B20005DF8047B7047000080B400AF044B1B6885
:100B300003F4C0631846BD465DF8047B704700BFF0
:100B40000070004080B485B000AF78607B68B3F57A
:100B5000007F30D1234B1B6803F4C063B3F5007FE3
:100B600038D0204B1B6823F4C0631E4A43F4007343
:100B700013601D4B1B68322202FB03F31B4AA2FBCE
:100B800003239B0C0133FB6002E0FB68013BFB602D
:100B9000144B5B6903F48063B3F5806F02D1FB688B
:100BA000002BF2D10F4B5B6903F48063B3F5806FC8
:100BB00010D103230FE00B4B1B6803F4C063B3F5A4
:100BC000806F07D0074B1B6823F4C063054A43F4CA
:100BD00080631360002318461437BD465DF8047B1C
:100BE000704700BF007000400C00002083DE1B43F4
:100BF00080B588B000AF78607B68002B01D10123FD
:100C0000DBE3A44B9B6803F00C03BB61A14BDB68E7
:100C100003F003037B617B681B6803F01003002B68
:100C200000F0E180BB69002B07D0BB690C2B40F0C2
:100C300088807B69012B40F08480964B1B6803F011
:100C40000203002B05D07B689B69002B01D1012397
:100C5000B3E37B681A6A8F4B1B6803F00803002B11
:100C600004D08C4B1B6803F0F00305E0894BD3F8EC
:100C700094301B0903F0F003934223D27B681B6A74
:100C8000184600F07BFD0346002B01D0012394E3BE
:100C9000804B1B687F4A43F0080313607D4B1B6841
:100CA00023F0F0027B681B6A7A4913430B60794B8F
:100CB0005B6823F47F427B68DB691B027549134341
:100CC0004B6022E0734B1B68724A43F008031360C9
:100CD000704B1B6823F0F0027B681B6A6D4913435D
:100CE0000B606C4B5B6823F47F427B68DB691B0203
:100CF000684913434B607B681B6A184600F03EFD51
:100D00000346002B01D0012357E300F041FC0246CB
:100D1000604B9B681B0903F00F035F49CB5C03F03A
:100D20001F0322FA03F35D4A13605D4B1B681846EC
:100D300003F0C0FC0346FB73FB7B002B52D0FB7B14
:100D40003BE37B689B69002B32D0524B1B68514AB6
:100D500043F001031360FFF735FC386108E0FFF74B
:100D600031FC02463B69D31A022B01D9032324E349
:100D7000484B1B6803F00203002BF0D0454B1B6867
:100D8000444A43F008031360424B1B6823F0F0020F
:100D90007B681B6A3F4913430B603E4B5B6823F43F
:100DA0007F427B68DB691B023A4913434B601AE0C0
:100DB000384B1B68374A23F001031360FFF702FC2E
:100DC000386108E0FFF7FEFB02463B69D31A022BAD
:100DD00001D90323F1E22F4B1B6803F00203002B20
:100DE000F0D100E000BF7B681B6803F00103002B1B
:100DF00074D0BB69082B05D0BB690C2B0ED17B6965
:100E0000032B0BD1234B1B6803F40033002B64D05E
:100E10007B685B68002B60D10123CEE27B685B6856
:100E2000B3F5803F06D11B4B1B681A4A43F480334D
:100E300013601DE07B685B68B3F5A02F0CD1154BE8
:100E40001B68144A43F480231360124B1B68114A39
:100E500043F4803313600BE00E4B1B680D4A23F400
:100E6000803313600B4B1B680A4A23F48023136002
:100E70007B685B68002B1CD0FFF7A4FB386111E096
:100E8000FFF7A0FB02463B69D31A642B0AD9032360
:100E900093E200BF00100240045F00080C00002035
:100EA00000000020AE4B1B6803F40033002BE7D09A
:100EB00014E0FFF787FB386108E0FFF783FB024689
:100EC0003B69D31A642B01D9032376E2A44B1B6838
:100ED00003F40033002BF0D100E000BF7B681B68F7
:100EE00003F00203002B60D0BB69042B05D0BB6963
:100EF0000C2B19D17B69022B16D1994B1B6803F47B
:100F00008063002B05D07B68DB68002B01D10123B7
:100F100053E2934B5B6823F0F8527B681B691B0616
:100F20008F4913434B6040E07B68DB68002B23D084
:100F30008B4B1B688A4A43F480731360FFF742FBB4
:100F4000386108E0FFF73EFB02463B69D31A022BEB
:100F500001D9032331E2824B1B6803F48063002B29
:100F6000F0D07F4B5B6823F0F8527B681B691B064F
:100F70007B4913434B6018E0794B1B68784A23F494
:100F800080731360FFF71EFB386108E0FFF71AFB60
:100F900002463B69D31A022B01D903230DE2704BA1
:100FA0001B6803F48063002BF0D17B681B6803F09F
:100FB0000803002B3CD07B685B69002B1CD0684B7E
:100FC000D3F89430664A43F00103C2F89430FFF737
:100FD000F9FA386108E0FFF7F5FA02463B69D31ADF
:100FE000022B01D90323E8E15D4BD3F8943003F0E1
:100FF0000203002BEFD01BE0594BD3F89430584A32
:1010000023F00103C2F89430FFF7DCFA386108E0FE
:10101000FFF7D8FA02463B69D31A022B01D9032302
:10102000CBE14F4BD3F8943003F00203002BEFD108
:101030007B681B6803F00403002B00F0A5800023ED
:10104000FB77474B9B6D03F08053002B0DD1444B36
:101050009B6D434A43F080539365414B9B6D03F076
:101060008053BB60BB680123FB773E4B1B6803F4D6
:101070008073002B18D13B4B1B683A4A43F48073B2
:101080001360FFF79FFA386108E0FFF79BFA02460A
:101090003B69D31A022B01D903238EE1314B1B6824
:1010A00003F48073002BF0D07B689B68012B08D180
:1010B0002B4BD3F890302A4A43F00103C2F890300A
:1010C00024E07B689B68052B10D1254BD3F890302A
:1010D000234A43F00403C2F89030214BD3F89030F8
:1010E0001F4A43F00103C2F890300FE01C4BD3F8C5
:1010F00090301B4A23F00103C2F89030184BD3F80C
:101100009030174A23F00403C2F890307B689B6844
:10111000002B16D0FFF756FA38610AE0FFF752FAB3
:1011200002463B69D31A41F28832934201D9032324
:1011300043E10B4BD3F8903003F00203002BEDD0CA
:1011400019E0FFF73FFA38610EE0FFF73BFA02467D
:101150003B69D31A41F28832934205D903232CE12B
:101160000010024000700040964BD3F8903003F01E
:101170000203002BE9D1FB7F012B05D1914B9B6D25
:10118000904A23F0805393657B681B6803F020032B
:10119000002B3CD07B685B6A002B1CD0894BD3F8BA
:1011A0009830884A43F00103C2F89830FFF70AFAF2
:1011B000386108E0FFF706FA02463B69D31A022BB2
:1011C00001D90323F9E07F4BD3F8983003F00203F1
:1011D000002BEFD01BE07B4BD3F89830794A23F0FB
:1011E0000103C2F89830FFF7EDF9386108E0FFF726
:1011F000E9F902463B69D31A022B01D90323DCE04B
:10120000704BD3F8983003F00203002BEFD17B68CA
:101210009B6A002B00F0D080BB690C2B00F08D8006
:101220007B689B6A022B5AD1664B1B68654A23F088
:1012300080731360FFF7C6F9386108E0FFF7C2F961
:1012400002463B69D31A022B01D90323B5E05D4B5B
:101250001B6803F00073002BF0D15A4BDA685A4B2D
:1012600013407A68D16A7A68126B013A120111430D
:101270007A68526B120211437A68D26B5208013AB3
:10128000520511437A68126C5208013A5206114312
:101290007A68926BD2060A434A491343CB60494BA2
:1012A0001B68484A43F080731360464BDB68454A2D
:1012B00043F08073D360FFF785F9386108E0FFF7EA
:1012C00081F902463B69D31A022B01D9032374E04A
:1012D0003C4B1B6803F00073002BF0D06CE0394BE3
:1012E0001B68384A23F080731360364B1B6803F089
:1012F0000063002B05D1334BDB68324A23F0030334
:10130000D360304BDB682F4A23F0887323F480339B
:10131000D360FFF757F9386108E0FFF753F9024649
:101320003B69D31A022B01D9032346E0254B1B68E6
:1013300003F00073002BF0D13EE07B689B6A012B29
:1013400001D1012339E01F4BDB687B617B6903F02E
:1013500003027B68DB6A9A422CD17B6903F070023E
:101360007B681B6B013B1B019A4223D17B6903F411
:10137000FE427B685B6B1B029A421BD17B6903F0C8
:1013800078427B689B6BDB069A4213D17B6903F43E
:10139000C0027B68DB6B5B08013B5B059A4209D1AD
:1013A0007B6903F0C0627B681B6C5B08013B5B06DA
:1013B0009A4201D0012300E0002318462037BD46A1
:1013C00080BD00BF001002408C809D0180B584B0BC
:1013D00000AF786039607B68002B01D10123C8E041
:1013E000664B1B6803F007033A689A4210D9634BB7
:1013F0001B6823F0070261493B6813430B605F4B96
:101400001B6803F007033A689A4201D00123B0E059
:101410007B681B6803F00103002B4CD07B685B6882
:10142000032B07D1564B1B6803F00073002B21D10F
:1014300001239EE07B685B68022B07D1504B1B6841
:1014400003F40033002B15D1012392E07B685B6825
:10145000002B07D14A4B1B6803F00203002B09D174
:10146000012386E0464B1B6803F48063002B01D107
:1014700001237EE0424B9B6823F003027B685B689C
:101480003F4913438B60FFF79DF8F8600AE0FFF7D0
:1014900099F80246FB68D31A41F28832934201D987
:1014A000032366E0364B9B6803F00C027B685B68A5
:1014B0009B009A42EBD17B681B6803F00203002B70
:1014C00008D02F4B9B6823F0F0027B689B682C4967
:1014D00013438B60294B1B6803F007033A689A4259
:1014E00010D2264B1B6823F0070224493B681343A4
:1014F0000B60224B1B6803F007033A689A4201D045
:10150000012336E07B681B6803F00403002B08D03E
:101510001B4B9B6823F4E0627B68DB68184913432C
:101520008B607B681B6803F00803002B09D0144B09
:101530009B6823F460527B681B69DB0010491343EE
:101540008B6000F025F802460D4B9B681B0903F0E9
:101550000F030C49CB5C03F01F0322FA03F30A4A82
:1015600013600A4B1B68184603F0A4F80346FB728D
:10157000FB7A18461037BD4680BD00BF00200240F0
:1015800000100240045F00080C0000200000002052
:1015900080B489B000AF0023FB610023BB613E4BE8
:1015A0009B6803F00C033B613B4BDB6803F00303D8
:1015B000FB603B69002B05D03B690C2B21D1FB68FC
:1015C000012B1ED1344B1B6803F00803002B07D1FD
:1015D000314BD3F894301B0A03F00F03FB6105E095
:1015E0002D4B1B681B0903F00F03FB612B4AFB69A2
:1015F00052F82330FB613B69002B0DD1FB69BB61C5
:101600000AE03B69042B02D1254BBB6104E03B6936
:10161000082B01D1234BBB613B690C2B34D11E4BF2
:10162000DB6803F00303BB60BB68022B03D0BB681D
:10163000032B03D005E01A4B7B6105E0194B7B615E
:1016400002E0FB697B6100BF134BDB681B0903F001
:10165000070301337B60104BDB681B0A03F07F0339
:101660007A6902FB03F27B68B2FBF3F37B610A4BFE
:10167000DB685B0E03F0030301335B003B607A69B8
:101680003B68B2FBF3F3BB61BB6918462437BD4628
:101690005DF8047B704700BF001002401C5F00082B
:1016A0000024F40000127A0080B400AF034B1B68E2
:1016B0001846BD465DF8047B704700BF0C00002053
:1016C00080B500AFFFF7F0FF0246064B9B681B0A90
:1016D00003F007030449CB5C03F01F0322FA03F372
:1016E000184680BD00100240145F000880B500AFAE
:1016F000FFF7DAFF0246064B9B68DB0A03F007039D
:101700000449CB5C03F01F0322FA03F3184680BDA3
:1017100000100240145F000880B483B000AF78600E
:1017200039607B680F221A60124B9B6803F003023A
:101730007B685A600F4B9B6803F0F0027B689A60ED
:101740000C4B9B6803F4E0627B68DA60094B9B6892
:10175000DB0803F4E0627B681A61074B1B6803F047
:1017600007023B681A6000BF0C37BD465DF8047B7A
:10177000704700BF001002400020024080B586B0D4
:1017800000AF786000233B612A4B9B6D03F08053D0
:10179000002B03D0FFF7C8F9786114E0254B9B6D4F
:1017A000244A43F080539365224B9B6D03F0805392
:1017B000FB60FB68FFF7B8F978611E4B9B6D1D4A13
:1017C00023F0805393657B69B3F5007F0BD17B6871
:1017D000802B19D97B68A02B02D902233B6113E02F
:1017E00001233B6110E07B68802B02D903233B611E
:1017F0000AE07B68802B02D102233B6104E07B6816
:10180000702B01D101233B610B4B1B6823F00702B6
:1018100009493B6913430B60074B1B6803F007033F
:101820003A699A4201D0012300E000231846183794
:10183000BD4680BD001002400020024080B586B049
:1018400000AF78600023FB740023BB747B681B68C7
:1018500003F40063002B31D07B685B6CB3F5400F61
:101860001AD0B3F5400F14D8002B09D0B3F5000FF0
:101870000FD15D4BDB685C4A43F48033D3600CE0EE
:101880007B6804330021184600F0F0F90346FB742E
:1018900003E00123FB7400E000BFFB7C002B0BD1B5
:1018A000514BD3F8883023F440027B685B6C4E497F
:1018B0001343C1F8883001E0FB7CBB747B681B6874
:1018C00003F40033002B00F09E8000237B74464B12
:1018D0009B6D03F08053002B01D1012300E0002316
:1018E000002B0DD0404B9B6D3F4A43F080539365D6
:1018F0003D4B9B6D03F08053BB60BB6801237B7441
:101900003A4B1B68394A43F480731360FEF75AFE62
:10191000F86009E0FEF756FE0246FB68D31A022B78
:1019200002D90323FB7405E0304B1B6803F480737A
:10193000002BEFD0FB7C002B5AD12B4BD3F89030EF
:1019400003F440737B617B69002B1ED07B689B6D29
:101950007A699A4219D0244BD3F8903023F440731B
:101960007B61214BD3F890301F4A43F48033C2F897
:1019700090301D4BD3F890301B4A23F48033C2F8CB
:101980009030194A7B69C2F890307B6903F00103FB
:10199000002B16D0FEF716FEF8600BE0FEF712FEE5
:1019A0000246FB68D31A41F28832934202D90323DC
:1019B000FB7406E00C4BD3F8903003F00203002BCD
:1019C000ECD0FB7C002B0BD1074BD3F8903023F4E9
:1019D00040727B689B6D04491343C1F8903009E065
:1019E000FB7CBB7406E000BF0010024000700040AA
:1019F000FB7CBB747B7C012B05D19B4B9B6D9A4A76
:101A000023F0805393657B681B6803F00103002B70
:101A10000AD0954BD3F8883023F003027B681B6A09
:101A200091491343C1F888307B681B6803F00203B7
:101A3000002B0AD08C4BD3F8883023F00C027B6843
:101A40005B6A89491343C1F888307B681B6803F0DF
:101A50000403002B0AD0844BD3F8883023F03002E3
:101A60007B689B6A80491343C1F888307B681B6898
:101A700003F02003002B0AD07B4BD3F8883023F4EB
:101A800040627B68DB6A78491343C1F888307B6821
:101A90001B6803F40073002B0AD0734BD3F8883013
:101AA00023F440227B68DB6B6F491343C1F8883015
:101AB0007B681B6803F48063002B0AD06A4BD3F861
:101AC000883023F440127B681B6C67491343C1F8CC
:101AD00088307B681B6803F04003002B0AD0624B00
:101AE000D3F8883023F440527B681B6B5E49134364
:101AF000C1F888307B681B6803F08003002B0AD094
:101B0000594BD3F8883023F440427B685B6B5649CD
:101B10001343C1F888307B681B6803F48073002B83
:101B20000AD0514BD3F8883023F440327B689B6B4A
:101B30004D491343C1F888307B681B6803F40023C8
:101B4000002B28D0484BD3F8883023F040627B68C4
:101B50009B6C45491343C1F888307B689B6CB3F19B
:101B6000006F06D1404BDB683F4A43F48013D360DB
:101B700011E07B689B6CB3F1806F0CD17B68043300
:101B80000121184600F072F80346FB74FB7C002B21
:101B900001D0FB7CBB747B681B6803F48023002BA3
:101BA00028D0314BD3F8883023F040627B68DB6C5F
:101BB0002D491343C1F888307B68DB6CB3F1006FAB
:101BC00006D1294BDB68284A43F48013D36011E027
:101BD0007B68DB6CB3F1806F0CD17B68043301212F
:101BE000184600F043F80346FB74FB7C002B01D041
:101BF000FB7CBB747B681B6803F48043002B1CD008
:101C0000194BD3F8883023F040527B681B6D16497E
:101C10001343C1F888307B681B6DB3F1805F0CD132
:101C20007B6804330221184600F020F80346FB7459
:101C3000FB7C002B01D0FB7CBB747B681B6803F42E
:101C40000043002B0AD0084BD3F8883023F08042A1
:101C50007B685B6D04491343C1F88830BB7C184630
:101C60001837BD4680BD00BF0010024080B584B06B
:101C700000AF786039600023FB73744BDB6803F0BE
:101C80000303002B18D0714BDB6803F003027B6861
:101C90001B689A420DD17B681B68002B09D06B4BE7
:101CA000DB681B0903F007035A1C7B685B689A42D8
:101CB00047D00123FB7344E07B681B68032B18D0DB
:101CC000032B25D8012B02D0022B09D020E05F4B3B
:101CD0001B6803F00203002B1DD10123FB731AE0E4
:101CE0005A4B1B6803F48063002B16D10123FB734E
:101CF00013E0564B1B6803F40033002B0FD1534BFA
:101D00001B6803F48023002B09D10123FB7306E039
:101D10000123FB7304E000BF02E000BF00E000BF4E
:101D2000FB7B002B0DD1494BDB6823F073027B68F2
:101D300019687B685B68013B1B010B4343491343F4
:101D4000CB60FB7B002B7CD1404B1B683F4A23F0D0
:101D500080631360FEF736FCB86009E0FEF732FCE2
:101D60000246BB68D31A022B02D90323FB7305E09A
:101D7000364B1B6803F00063002BEFD1FB7B002B7D
:101D80005FD13B68002B10D1304B1B6923F07843A7
:101D900023F4FE437A68926811027A68D268D20608
:101DA0000A432A4913430B6127E03B68012B12D1F8
:101DB000264B1B6923F4C00323F4FE437A68926820
:101DC00011027A6812695208013A52050A431F4902
:101DD00013430B6111E01D4B1B6923F0C06323F417
:101DE000FE437A68926811027A6852695208013A91
:101DF00052060A43154913430B61144B1B68134ADF
:101E000043F080631360FEF7DDFBB86009E0FEF786
:101E1000D9FB0246BB68D31A022B02D90323FB73FA
:101E200005E00A4B1B6803F00063002BEFD0FB7B3F
:101E3000002B06D1054B1A697B689B690349134344
:101E40000B61FB7B18461037BD4680BD0010024079
:101E500080B582B000AF78607B68002B01D1012390
:101E60001DE07B6893F83D30DBB2002B06D17B6828
:101E7000002283F83C20786800F015F87B68022285
:101E800083F83D207B681A687B6804331946104646
:101E900000F086F97B68012283F83D200023184674
:101EA0000837BD4680BD80B483B000AF786000BF06
:101EB0000C37BD465DF8047B7047000080B485B0E8
:101EC00000AF78607B681B68DA687B681B6842F04B
:101ED0000102DA607B681B689A680C4B1340FB6058
:101EE000FB68062B0BD0FB68B3F5803F07D07B68FF
:101EF0001B681A687B681B6842F001021A600023A5
:101F000018461437BD465DF8047B70470700010092
:101F100080B582B000AF78607B681B681B6903F0F6
:101F20000203022B22D17B681B68DB6803F00203EB
:101F3000022B1BD17B681B686FF002021A617B6861
:101F400001221A777B681B689B6903F00303002B4F
:101F500003D0786800F005F905E0786800F0F7F83C
:101F6000786800F008F97B6800221A777B681B68A4
:101F70001B6903F00403042B22D17B681B68DB6818
:101F800003F00403042B1BD17B681B686FF0040271
:101F90001A617B6802221A777B681B689B6903F4CD
:101FA0004073002B03D0786800F0DBF805E0786818
:101FB00000F0CDF8786800F0DEF87B6800221A7730
:101FC0007B681B681B6903F00803082B22D17B6820
:101FD0001B68DB6803F00803082B1BD17B681B68B8
:101FE0006FF008021A617B6804221A777B681B680D
:101FF000DB6903F00303002B03D0786800F0B1F82D
:1020000005E0786800F0A3F8786800F0B4F87B6821
:1020100000221A777B681B681B6903F01003102BE2
:1020200022D17B681B68DB6803F01003102B1BD1E7
:102030007B681B686FF010021A617B6808221A77B0
:102040007B681B68DB6903F44073002B03D078685E
:1020500000F087F805E0786800F079F8786800F01B
:102060008AF87B6800221A777B681B681B6903F07B
:102070000103012B0ED17B681B68DB6803F00103B1
:10208000012B07D17B681B686FF001021A61786829
:1020900002F08AFA7B681B681B6903F08003802BBF
:1020A0000ED17B681B68DB6803F08003802B07D1AF
:1020B0007B681B686FF080021A61786800F0DEF8B8
:1020C0007B681B681B6903F48073B3F5807F0ED1B6
:1020D0007B681B68DB6803F08003802B07D17B687B
:1020E0001B686FF480721A61786800F0D1F87B6821
:1020F0001B681B6903F04003402B0ED17B681B68F3
:10210000DB6803F04003402B07D17B681B686FF04E
:1021100040021A61786800F038F87B681B681B6918
:1021200003F02003202B0ED17B681B68DB6803F0D3
:102130002003202B07D17B681B686FF020021A61F7
:10214000786800F091F800BF0837BD4680BD80B4C4
:1021500083B000AF786000BF0C37BD465DF8047BEC
:10216000704780B483B000AF786000BF0C37BD46C5
:102170005DF8047B704780B483B000AF786000BF27
:102180000C37BD465DF8047B704780B483B000AF68
:10219000786000BF0C37BD465DF8047B70470000D7
:1021A00080B485B000AF786039607B681B68FB60E5
:1021B0007B682A4A934203D07B68B3F1804F08D1F1
:1021C000FB6823F07003FB603B685B68FA681343AD
:1021D000FB607B68214A93420BD07B68B3F1804F50
:1021E00007D07B681E4A934203D07B681D4A934206
:1021F00008D1FB6823F44073FB603B68DB68FA6836
:102200001343FB60FB6823F080023B685B69134368
:10221000FB607B68FA681A603B689A687B68DA62E0
:102220003B681A687B689A627B680C4A934207D0C5
:102230007B680B4A934203D07B680A4A934203D1DE
:102240003B681A697B681A637B6801225A6100BF88
:102250001437BD465DF8047B704700BF002C014079
:10226000004001400044014080B483B000AF78607A
:1022700000BF0C37BD465DF8047B704780B483B067
:1022800000AF786000BF0C37BD465DF8047B704737
:1022900080B483B000AF786000BF0C37BD465DF8F6
:1022A000047B704780B582B000AF78607B68002BFC
:1022B00001D1012340E07B685B6F002B06D17B6876
:1022C000002283F87020786802F0B0F97B6824223D
:1022D0005A677B681B681A687B681B6822F00102DA
:1022E0001A60786800F0C0F80346012B01D1012381
:1022F00022E07B685B6A002B02D0786800F0C2FBAA
:102300007B681B685A687B681B6822F490425A609D
:102310007B681B689A687B681B6822F02A029A60B7
:102320007B681B681A687B681B6842F001021A60B0
:10233000786800F049FC034618460837BD4680BD62
:1023400080B58AB002AFF860B9603B601346FB808D
:10235000FB685B6F202B40F08180BB68002B02D0B4
:10236000FB88002B01D1012379E0FB6893F87030E2
:10237000012B01D1022372E0FB68012283F8702057
:10238000FB680022DA67FB6821225A67FEF71AF918
:102390007861FB68FA88A3F85020FB68FA88A3F8F4
:1023A0005220FB689B68B3F5805F08D1FB681B690E
:1023B000002B04D10023FB61BB68BB6103E0BB6859
:1023C000FB610023BB612DE03B6800937B69002229
:1023D0008021F86800F03DFC0346002B01D0032368
:1023E0003DE0FB69002B0BD1BB691A88FB681B68B9
:1023F000C2F3080292B21A85BB690233BB6108E0DE
:10240000FB691A78FB681B6892B21A85FB69013375
:10241000FB61FB68B3F852309BB2013B9AB2FB6898
:10242000A3F85220FB68B3F852309BB2002BCBD1FB
:102430003B6800937B6900224021F86800F009FCAA
:102440000346002B01D0032309E0FB6820225A67D2
:10245000FB68002283F87020002300E00223184666
:102460002037BD4680BD00002DE9B04F8AB000AFD7
:10247000F8600023FB610023FB7600237B61FB688F
:102480009A68FB681B691A43FB685B691A43FB681F
:10249000DB6913437B62FB681B681A68BB4B134004
:1024A000FA681268796A0B431360FB681B685B6803
:1024B00023F44051FB68DA68FB681B680A435A60E2
:1024C000FB689B697B62FB681B68B14A934204D03E
:1024D000FB681B6A7A6A13437B62FB681B689B6814
:1024E00023F43061FB681B687A6A0A439A60FB68D0
:1024F0001B68A84A934225D1A74BD3F8883003F034
:102500000303032B1AD801A252F823F01D2500085B
:102510002D2500082525000835250008012387F80A
:102520002330ABE0022387F82330A7E0042387F8A9
:102530002330A3E0082387F823309FE0102387F897
:1025400023309BE0FB681B68944A934238D1924B3E
:10255000D3F8883003F00C030C2B2DD801A252F8CD
:1025600023F000BF99250008B9250008B925000807
:10257000B9250008A9250008B9250008B9250008D3
:10258000B9250008A1250008B9250008B9250008CB
:10259000B9250008B1250008002387F823306DE035
:1025A000022387F8233069E0042387F8233065E0AD
:1025B000082387F8233061E0102387F823305DE09B
:1025C000FB681B68764A934225D1734BD3F8883059
:1025D00003F03003302B16D0302B18D8202B0AD024
:1025E000202B14D8002B02D0102B08D00FE0002392
:1025F00087F8233042E0022387F823303EE00423AB
:1026000087F823303AE0082387F8233036E0102398
:1026100087F8233032E0FB681B685D4A93422AD179
:102620005D4BD3F8883003F44063B3F5406F1AD0A4
:10263000B3F5406F1BD8B3F5006F0CD0B3F5006F46
:1026400015D8002B03D0B3F5806F08D00FE000231E
:1026500087F8233012E0022387F823300EE00423AA
:1026600087F823300AE0082387F8233006E0102398
:1026700087F8233002E0102387F82330FB681B68BB
:10268000434A934240F0FC8097F82330082B24D82B
:1026900001A252F823F000BFBD260008DB26000887
:1026A000C5260008DB260008CB260008DB2600082C
:1026B000DB260008DB260008D3260008FFF700F819
:1026C00078610DE0374B7B610AE0FEF761FF7861CE
:1026D00006E04FF400437B6102E00123FB7600BF7C
:1026E0007B69002B00F0BF81FB685A6813465B00D2
:1026F00013447A699A4205D3FB685B681B037A69C5
:102700009A4202D90123FB76ADE197F82330082BDA
:1027100000F2A38001A252F823F000BF4127000875
:102720005B280008A92700085B280008DF270008AD
:102730005B2800085B2800085B2800082B2800089D
:10274000FEF7BEFF034618464FF000014FF00002AF
:102750004FF000030B0243EA10630202F968496874
:10276000490808464FF0000114183C604B417B605B
:10277000FB685B681A464FF00003D7E90001FDF7DC
:1027800027FD02460B461346FB6169E0F369FFEF44
:10279000008000400038014000100240004400402A
:1027A000004800400024F400FB685B685B081A46A0
:1027B0004FF00003B2484FF0000112EB000A43EB68
:1027C000010BFB685B681A464FF000035046594600
:1027D000FDF7FEFC02460B461346FB6140E0FEF7A8
:1027E000D7FE034618464FF000014FF000024FF0AD
:1027F00000030B0243EA10630202F96849684908C2
:1028000008464FF0000112EB000843EB0109FB689A
:102810005B681A464FF0000340464946FDF7D8FC76
:1028200002460B461346FB611AE0FB685B685B08D7
:102830001A464FF0000312F5000443F10005FB684F
:102840005B681A464FF0000320462946FDF7C0FC9E
:1028500002460B461346FB6102E00123FB7600BFF4
:10286000FB69B3F5407F08D3FB69B3F5801F04D241
:10287000FB681B68FA69DA60F5E00123FB76F2E099
:10288000FB68DB69B3F5004F7FD197F82330082B45
:102890005BD801A252F823F0BD280008DB2800080D
:1028A000F92800084B290008152900084B290008C1
:1028B0004B2900084B29000833290008FEF700FFC8
:1028C00003465A00FB685B685B081A44FB685B6858
:1028D000B2FBF3F39BB2FB613AE0FEF707FF03465E
:1028E0005A00FB685B685B081A44FB685B68B2FBD4
:1028F000F3F39BB2FB612BE0FB685B685B0803F1C1
:10290000F47303F59043FA685268B3FBF2F39BB299
:10291000FB611DE0FEF73CFE03465A00FB685B6866
:102920005B081A44FB685B68B2FBF3F39BB2FB6184
:102930000EE0FB685B685B0803F58032FB685B6850
:10294000B2FBF3F39BB2FB6102E00123FB7600BF15
:10295000FB690F2B16D9FB69B3F5803F12D2FB69D7
:102960009BB223F00F037B82FB695B089BB203F0F1
:1029700007039AB27B8A13437B82FB681B687A8ABF
:10298000DA6070E00123FB766DE097F82330082BC6
:1029900058D801A252F823F0BD290008D92900080F
:1029A000F5290008452A0008112A0008452A0008D0
:1029B000452A0008452A00082D2A0008FEF780FE57
:1029C0000246FB685B685B081A44FB685B68B2FB05
:1029D000F3F39BB2FB6138E0FEF788FE0246FB682A
:1029E0005B685B081A44FB685B68B2FBF3F39BB25D
:1029F000FB612AE0FB685B685B0803F5740303F581
:102A00001053FA685268B3FBF2F39BB2FB611CE00F
:102A1000FEF7BEFD0246FB685B685B081A44FB6874
:102A20005B68B2FBF3F39BB2FB610EE0FB685B6893
:102A30005B0803F50042FB685B68B2FBF3F39BB2F3
:102A4000FB6102E00123FB7600BFFB690F2B08D975
:102A5000FB69B3F5803F04D2FB681B68FA69DA6052
:102A600001E00123FB76FB6800221A66FB68002266
:102A70005A66FB7E18462837BD46BDE8B08F00BFBA
:102A8000000024F480B483B000AF78607B685B6A98
:102A900003F00103002B0AD07B681B685B6823F4FA
:102AA00000317B689A6A7B681B680A435A607B68BE
:102AB0005B6A03F00203002B0AD07B681B685B682B
:102AC00023F480317B68DA6A7B681B680A435A60AA
:102AD0007B685B6A03F00403002B0AD07B681B68E9
:102AE0005B6823F480217B681A6B7B681B680A4350
:102AF0005A607B685B6A03F00803002B0AD07B688E
:102B00001B685B6823F400417B685A6B7B681B6819
:102B10000A435A607B685B6A03F01003002B0AD0FB
:102B20007B681B689B6823F480517B689A6B7B6889
:102B30001B680A439A607B685B6A03F02003002BE2
:102B40000AD07B681B689B6823F400517B68DA6BB2
:102B50007B681B680A439A607B685B6A03F04003EA
:102B6000002B1AD07B681B685B6823F480117B689C
:102B70001A6C7B681B680A435A607B681B6CB3F550
:102B8000801F0AD17B681B685B6823F4C0017B68E7
:102B90005A6C7B681B680A435A607B685B6A03F067
:102BA0008003002B0AD07B681B685B6823F400213C
:102BB0007B689A6C7B681B680A435A6000BF0C37BD
:102BC000BD465DF8047B704780B586B002AF786083
:102BD0007B680022DA67FDF7F5FCF8607B681B680C
:102BE0001B6803F00803082B0ED16FF07E4300939F
:102BF000FB6800224FF40011786800F02AF80346C1
:102C0000002B01D0032320E07B681B681B6803F0C6
:102C10000403042B0ED16FF07E430093FB68002267
:102C20004FF48001786800F014F80346002B01D0BF
:102C300003230AE07B6820225A677B6820229A6778
:102C40007B68002283F87020002318461037BD46A9
:102C500080BD80B584B000AFF860B9603B601346BA
:102C6000FB712AE0BB69B3F1FF3F26D0FDF7AAFC58
:102C700002463B68D31ABA699A4202D3BB69002B59
:102C80001BD1FB681B681A68FB681B6822F4D072B2
:102C90001A60FB681B689A68FB681B6822F00102D7
:102CA0009A60FB6820225A67FB6820229A67FB68BB
:102CB000002283F8702003230FE0FB681B68DA69A9
:102CC000BB681340BA689A420CBF01230023DBB2F1
:102CD0001A46FB799A42C5D0002318461037BD46E4
:102CE00080BD80B485B000AF0346FB800023FB604D
:102CF000B7F90630842B05D0B7F90620FB681344DA
:102D00000333FB60FB6818461437BD465DF8047B4F
:102D1000704780B500AF00F0CBFE0023184680BDA1
:102D2000F0B589B004AF786039607B685B69002BCF
:102D300020D07B689B69002B1CD07B685C687B681B
:102D40001D687B681E697B68B3F908301846FFF779
:102D5000C8FF01467B685B697A68926902920193B9
:102D600000913B6832462946204600F0E3FC0346CA
:102D7000FB601CE07B685C687B681D687B681B6986
:102D80009EB27B68B3F908301846FFF7AAFF0246E7
:102D900007F10C03019300923B6832462946204616
:102DA00000F024FD0346012B01D0002300E0FB6866
:102DB00018461437BD46F0BD80B584B000AF7860CA
:102DC0007B68FB60FB68002B01D0FB6800E00123FF
:102DD000184600F039FE002318461037BD4680BD66
:102DE00080B483B000AF78607B6803F108027B6831
:102DF0005A607B684FF0FF329A607B6803F10802EB
:102E00007B68DA607B6803F108027B681A617B6883
:102E100000221A6000BF0C37BD465DF8047B704786
:102E200080B483B000AF78607B6800221A6100BF75
:102E30000C37BD465DF8047B704780B485B000AFA9
:102E4000786039607B685B68FB603B68FA685A6051
:102E5000FB689A683B689A60FB689B683A685A60AE
:102E6000FB683A689A603B687A681A617B681B68FD
:102E70005A1C7B681A6000BF1437BD465DF8047B9E
:102E8000704780B485B000AF786039603B681B68DC
:102E9000BB60BB68B3F1FF3F03D17B681B69FB607C
:102EA0000CE07B680833FB6002E0FB685B68FB605A
:102EB000FB685B681B68BA689A42F6D2FB685A687E
:102EC0003B685A603B685B683A689A603B68FA689E
:102ED0009A60FB683A685A603B687A681A617B6856
:102EE0001B685A1C7B681A6000BF1437BD465DF82A
:102EF000047B704780B485B000AF78607B681B6945
:102F0000FB607B685B687A6892689A607B689B6804
:102F10007A6852685A60FB685B687A689A4203D1A3
:102F20007B689A68FB685A607B6800221A61FB68BC
:102F30001B685A1EFB681A60FB681B68184614372A
:102F4000BD465DF8047B704780B485B000AFF86083
:102F5000B9607A60FB68043BFB60FB684FF08072ED
:102F60001A60FB68043BFB60BB6823F00102FB684E
:102F70001A60FB68043BFB600C4AFB681A60FB6844
:102F8000143BFB607A68FB681A60FB68043BFB60DB
:102F9000FB686FF002021A60FB68203BFB60FB6875
:102FA00018461437BD465DF8047B7047B12F000802
:102FB00080B485B000AF00237B60124B1B68B3F177
:102FC000FF3F0AD04FF0500383F31188BFF36F8F98
:102FD000BFF34F8FFB6000BFFEE74FF0500383F35A
:102FE0001188BFF36F8FBFF34F8FBB6000BF00BF6F
:102FF0007B68002BFCD000BF00BF1437BD465DF8D6
:10300000047B704708000020000000000000000062
:10301000074B19680868B0E8F04F80F30988BFF3E0
:103020006F8F4FF0000080F311887047AFF300807E
:10303000700C002000BF00BF08480068006880F3E3
:1030400008884FF0000080F3148862B661B6BFF3C1
:103050004F8FBFF36F8F00DF00BF00BF08ED00E0B0
:1030600080B586B000AF464B1B68464A93420AD1F2
:103070004FF0500383F31188BFF36F8FBFF34F8F6F
:103080003B6100BFFEE73E4B1B683F4A93420AD1BB
:103090004FF0500383F31188BFF36F8FBFF34F8F4F
:1030A000FB6000BFFEE7394B7B617B691B78DBB2BD
:1030B0007B607B69FF221A707B691B78DBB2FB7037
:1030C000FB78DBB203F05003DAB2314B1A70314BAC
:1030D00007221A6009E02F4B1B68013B2D4A136041
:1030E000FB78DBB25B00DBB2FB70FB78DBB203F09A
:1030F0008003802BEFD0274B1B68C3F10703042B01
:103100000AD04FF0500383F31188BFF36F8FBFF3E2
:103110004F8FBB6000BFFEE71E4B1B681B021D4AA2
:1031200013601C4B1B6803F4E0631A4A13607B684E
:10313000DAB27B691A70184B1B68174A43F47003A4
:103140001360154B1B68144A43F07043136000F082
:10315000DDF8124B00221A6000F0FCF8104B1B68DF
:103160000F4A43F040431360FFF766FF00F078FE1C
:10317000FFF71EFF002318461837BD4680BD00BF6D
:1031800000ED00E071C20F4170C20F4100E400E0A9
:10319000980000209C00002020ED00E008000020A6
:1031A00034EF00E080B483B000AF4FF0500383F3FE
:1031B0001188BFF36F8FBFF34F8F7B6000BF0F4B42
:1031C0001B6801330D4A13600C4B1B68012B0FD198
:1031D0000B4B1B68DBB2002B0AD04FF0500383F37C
:1031E0001188BFF36F8FBFF34F8F3B6000BFFEE7C7
:1031F00000BF0C37BD465DF8047B70470800002017
:1032000004ED00E080B483B000AF124B1B68002BCC
:103210000AD14FF0500383F31188BFF36F8FBFF3D0
:103220004F8F7B6000BFFEE70A4B1B68013B094ADA
:103230001360084B1B68002B05D100233B603B68E3
:1032400083F3118800BF00BF0C37BD465DF8047BD7
:10325000704700BF080000200000000000000000D0
:10326000EFF30980BFF36F8F154B1A681EF0100F34
:1032700008BF20ED108A20E9F04F10602DE9090009
:103280004FF0500080F31188BFF34F8FBFF36F8F63
:1032900000F0E6FD4FF0000080F3118809BC1968CA
:1032A0000868B0E8F04F1EF0100F08BFB0EC108AAD
:1032B00080F30988BFF36F8F704700BFAFF30080C2
:1032C000700C002000BF00BF80B582B000AF4FF08F
:1032D000500383F31188BFF36F8FBFF34F8F7B6071
:1032E00000BF00F0FFFC0346002B03D0064B4FF05D
:1032F00080521A6000233B603B6883F3118800BF53
:1033000000BF0837BD4680BD04ED00E080B400AFCB
:103310000B4B00221A600B4B00221A600A4B1B68F1
:103320000A4AA2FB03239B09094A013B1360044B91
:1033300007221A6000BFBD465DF8047B704700BFDE
:1033400010E000E018E000E00C000020D34D621017
:1033500014E000E0DFF80C00016841F47001016046
:10336000704700BF88ED00E080B58AB000AF78609C
:103370000023FB6100F0FCFB584B1B68002B01D1C4
:1033800000F01CF9564B1A687B681340002B40F084
:103390008E807B68002B1DD008227B6813447B60E5
:1033A0007B6803F00703002B14D07B6823F007032E
:1033B00008337B607B6803F00703002B0AD04FF0D3
:1033C000500383F31188BFF36F8FBFF34F8F7B617F
:1033D00000BFFEE77B68002B69D0424B1B687A6810
:1033E0009A4264D8404B3B623F4B1B687B6204E0CF
:1033F0007B6A3B627B6A1B687B627B6A5B687A687C
:103400009A4203D97B6A1B68002BF1D1334B1B68AE
:103410007A6A9A424BD03B6A1B6808221344FB61CC
:103420007B6A1A683B6A1A607B6A5A687B68D21AA0
:1034300008235B009A421FD97A6A7B681344BB61F8
:10344000BB6903F00703002B0AD04FF0500383F34E
:103450001188BFF36F8FBFF34F8F3B6100BFFEE753
:103460007B6A5A687B68D21ABB695A607B6A7A6841
:103470005A60B86900F004F91A4B1A687B6A5B68F5
:10348000D31A184A1360174B1A68184B1B689A42D4
:1034900003D2144B1B68154A13607B6A5A68104BA1
:1034A0001B681A437B6A5A607B6A00221A6000F02C
:1034B0006DFBFB6903F00703002B0AD04FF05003AC
:1034C00083F31188BFF36F8FBFF34F8FFB6000BF93
:1034D000FEE7FB6918462837BD4680BD600C00201A
:1034E0006C0C0020640C0020580C0020680C00209C
:1034F00080B586B000AF78607B687B617B68002B0D
:1035000048D008235B427A6913447B617B693B6145
:103510003B695A68214B1B681340002B0AD14FF0BE
:10352000500383F31188BFF36F8FBFF34F8FFB609E
:1035300000BFFEE73B691B68002B0AD04FF0500329
:1035400083F31188BFF36F8FBFF34F8FBB6000BF52
:10355000FEE73B695A68114B1B681340002B19D0DA
:103560003B691B68002B15D13B695A680B4B1B68E4
:10357000DB431A403B695A6000F0FAFA3B695A682B
:10358000074B1B681344064A1360386900F078F84B
:1035900000F0FCFA00BF1837BD4680BD6C0C00205F
:1035A000640C002080B400AF034B1B681846BD4676
:1035B0005DF8047B704700BF640C002080B485B0C8
:1035C00000AF40F6B833BB60274BFB60FB6803F0ED
:1035D0000703002B0CD0FB680733FB60FB6823F06C
:1035E0000703FB60BA68FB68D31A1F4A1344BB6029
:1035F000FB687B601D4A7B6813601C4B00225A608D
:103600007B68BA681344FB600822FB689B1AFB6066
:10361000FB6823F00703FB60FB68154A1360144B3B
:103620001B6800225A60124B1B6800221A607B68DC
:103630003B603B68FA68D21A3B685A600C4B1A68C8
:103640003B681A603B685B680A4A13603B685B68CA
:10365000094A1360094B4FF000421A6000BF14374B
:10366000BD465DF8047B7047A0000020580C002088
:10367000600C0020680C0020640C00206C0C002002
:1036800080B485B000AF7860284BFB6002E0FB6837
:103690001B68FB60FB681B687A689A42F7D8FB6876
:1036A000BB60FB685B68BA6813447A689A4208D1C9
:1036B000FB685A687B685B681A44FB685A60FB6861
:1036C0007B607B68BB607B685B68BA681A44FB6898
:1036D0001B689A4218D1FB681A68154B1B689A42FE
:1036E0000DD07B685A68FB681B685B681A447B686E
:1036F0005A60FB681B681A687B681A6008E00C4B0C
:103700001A687B681A6003E0FB681A687B681A60B5
:10371000FA687B689A4202D0FB687A681A6000BF38
:103720001437BD465DF8047B704700BF580C00207D
:10373000600C002080B58EB004AFF860B9607A608C
:103740003B607B6B002B0AD14FF0500383F3118851
:10375000BFF36F8FBFF34F8F3B6200BFFEE7BB6BC2
:10376000002B0AD14FF0500383F31188BFF36F8F02
:10377000BFF34F8FFB6100BFFEE754233B613B6902
:10378000542B0AD04FF0500383F31188BFF36F8F8F
:10379000BFF34F8FBB6100BFFEE7BB6B002B1ED09A
:1037A0007B6B002B1BD0BB6B7B627B6A7A6B1A63D3
:1037B0007B6A022283F85120002303937B6A0293E1
:1037C00007F1140301933B6B00933B687A68B96877
:1037D000F86800F050F8786A00F0CCF801E00023B7
:1037E0007B617B6918462837BD4680BD80B58CB0AB
:1037F00004AFF860B9603B601346FB80FB889B0018
:103800001846FFF7B1FD78617B69002B0ED054207C
:10381000FFF7AAFDF861FB69002B03D0FB697A6909
:103820001A6305E07869FFF763FE01E00023FB619E
:10383000FB69002B17D0FB69002283F85120FA881E
:1038400000230393FB690293FB6A0193BB6A009315
:103850003B68B968F86800F00EF8F86900F08AF87B
:103860000123BB6102E04FF0FF33BB61BB69184627
:103870002037BD4680BD80B588B000AFF860B96024
:103880007A603B603B6B1A6B7B6803F18043013BC2
:103890009B001344BB61BB6923F00703BB61BB6999
:1038A00003F00703002B0AD04FF0500383F3118875
:1038B000BFF36F8FBFF34F8F7B6100BFFEE7002325
:1038C000FB6112E0BA68FB69134419783A6BFB6933
:1038D000134434330A461A70BA68FB6913441B78E0
:1038E000002B06D0FB690133FB61FB690F2BE9D983
:1038F00000E000BF3B6B002283F84320BB6A062B2D
:1039000001D90623BB623B6BBA6ADA623B6BBA6AC7
:103910005A643B6B00229A643B6B04331846FFF7F2
:103920007FFA3B6B18331846FFF77AFA3B6B3A6B1A
:103930001A61BB6AC3F107023B6B9A613B6B3A6B3E
:103940005A623B6B0022DA643B6B002283F8502002
:103950003A68F968B869FFF7F7FA02463B6B1A60F4
:10396000FB6A002B02D0FB6A3A6B1A6000BF20375B
:10397000BD4680BD80B582B000AF7860FFF712FC15
:103980002A4B1B680133294A1360294B1B68002B03
:1039900009D1274A7B681360244B1B68012B10D187
:1039A00000F0D2FA0DE0234B1B68002B09D1204B0D
:1039B0001B68DA6A7B68DB6A9A4202D81C4A7B6819
:1039C00013601D4B1B6801331B4A13607B68DB6A65
:1039D00001229A40194B1B681343184A13607B68F5
:1039E000DA6A13469B0013449B00154A1A447B680D
:1039F000043319461046FFF720FAFFF703FC0D4B7E
:103A00001B68002B0ED00A4B1B68DA6A7B68DB6AE6
:103A10009A4207D20B4B4FF080521A60BFF34F8F80
:103A2000BFF36F8F00BF0837BD4680BD700D00200B
:103A3000700C00207C0D00208C0D0020780D0020E3
:103A4000740C002004ED00E080B584B000AF786015
:103A50000023FB607B68002B17D0134B1B68002BE7
:103A60000AD04FF0500383F31188BFF36F8FBFF379
:103A70004F8FBB6000BFFEE700F07AF80021786846
:103A800000F026FB00F082F8F860FB68002B07D1FD
:103A9000064B4FF080521A60BFF34F8FBFF36F8F0A
:103AA00000BF1037BD4680BD980D002004ED00E03A
:103AB00080B58AB004AF0023BB6000237B603A4628
:103AC000391D07F10803184600F068FB39687B6868
:103AD000BA68029201930023009300230A461E490C
:103AE0001E48FFF727FE03461D4A13601C4B1B6848
:103AF000002B02D001237B6101E000237B617B6905
:103B0000012B16D14FF0500383F31188BFF36F8F51
:103B1000BFF34F8F3B6100BF124B4FF0FF321A6073
:103B2000114B01221A60114B00221A60FFF798FA1C
:103B30000EE07B69B3F1FF3F0AD14FF0500383F3EE
:103B40001188BFF36F8FBFF34F8FFB6000BFFEE79D
:103B500000BF1837BD4680BD205D0008193F000832
:103B6000940D0020900D00207C0D0020740D00208D
:103B700080B400AF044B1B680133034A136000BFDD
:103B8000BD465DF8047B7047980D002080B584B079
:103B900000AF0023FB600023BB60414B1B68002B80
:103BA0000AD14FF0500383F31188BFF36F8FBFF337
:103BB0004F8F3B6000BFFEE7FFF7F4FA384B1B68FE
:103BC000013B374A1360364B1B68002B61D1354BE4
:103BD0001B68002B5DD02EE0334BDB68DB68FB609D
:103BE000FB6818331846FFF785F9FB68043318465D
:103BF000FFF780F9FB68DB6A01229A402B4B1B68B8
:103C000013432A4A1360FB68DA6A13469B00134485
:103C10009B00274A1A44FB68043319461046FFF7F5
:103C20000CF9FB68DA6A234B1B68DB6A9A4202D301
:103C3000214B01221A601C4B1B68002BCCD1FB6866
:103C4000002B01D000F01EFA1C4B1B687B607B68C8
:103C5000002B10D000F046F80346002B02D0164B84
:103C600001221A607B68013B7B607B68002BF1D1ED
:103C7000124B00221A60104B1B68002B09D0012345
:103C8000BB600F4B4FF080521A60BFF34F8FBFF3F2
:103C90006F8FFFF7B7FABB6818461037BD4680BD77
:103CA000980D0020700D0020300D0020780D0020B0
:103CB000740C0020700C0020840D0020800D00206A
:103CC00004ED00E080B483B000AF054B1B687B605F
:103CD0007B6818460C37BD465DF8047B704700BF13
:103CE000740D002080B586B000AF00237B61514B7E
:103CF0001B68002B40F08D804F4B1B6801333B61EC
:103D00004D4A3B6913603B69002B20D14B4B1B682C
:103D10001B68002B0AD04FF0500383F31188BFF3C8
:103D20006F8FBFF34F8F3B6000BFFEE7434B1B68B5
:103D3000FB60434B1B68414A1360414AFB681360B8
:103D4000404B1B6801333F4A136000F09BF93E4B28
:103D50001B683A699A424DD3384B1B681B68002B8D
:103D600001D1012300E00023002B04D0364B4FF09B
:103D7000FF321A603EE0314B1B68DB68DB68BB60DA
:103D8000BB685B687B603A697B689A4203D22E4AC3
:103D90007B6813602EE0BB6804331846FFF7AAF86F
:103DA000BB689B6A002B04D0BB6818331846FFF72A
:103DB000A1F8BB68DB6A01229A40244B1B681343BD
:103DC000224A1360BB68DA6A13469B0013449B00C7
:103DD0001F4A1A44BB68043319461046FFF72DF8F2
:103DE000BB68DA6A1B4B1B68DB6A9A42B4D30123B7
:103DF0007B61B1E7174B1B68DA6A154913469B00D4
:103E000013449B000B441B68012B07D901237B61E2
:103E100004E0114B1B6801330F4A13600F4B1B6802
:103E2000002B01D001237B617B6918461837BD4602
:103E300080BD00BF980D0020740D0020280D0020CB
:103E40002C0D0020880D0020900D0020780D002002
:103E5000740C0020700C0020800D0020840D0020C8
:103E600080B487B000AF274B1B68002B03D0264BD4
:103E700001221A603FE0244B00221A60234B1B688A
:103E8000FB60FB68B3FA83F3FB72FB7AC3F11F0399
:103E90007B611F497A6913469B0013449B000B44C6
:103EA0001B68002B0AD14FF0500383F31188BFF336
:103EB0006F8FBFF34F8F7B6000BFFEE77A691346B9
:103EC0009B0013449B00124A13443B613B695B68AF
:103ED0005A683B695A603B695A683B6908339A42A1
:103EE00004D13B695B685A683B695A603B695B680F
:103EF000DB68084A136000BF1C37BD465DF8047BD1
:103F0000704700BF980D0020840D0020780D002020
:103F1000740C0020700C002080B582B000AF786077
:103F200000F052F8064B1B68012BF9D9054B4FF0F6
:103F300080521A60BFF34F8FBFF36F8FF0E700BF5F
:103F4000740C002004ED00E080B582B000AF0023C7
:103F50007B600CE07A6813469B0013449B00124A76
:103F600013441846FEF73CFF7B6801337B607B6897
:103F7000062BEFD90D48FEF733FF0D48FEF730FF53
:103F80000C48FEF72DFF0C48FEF72AFF0B48FEF702
:103F900027FF0B4B054A1A600A4B054A1A6000BFFF
:103FA0000837BD4680BD00BF740C0020000D002006
:103FB000140D0020300D0020440D00205C0D002069
:103FC000280D00202C0D002080B582B000AF19E034
:103FD000FFF7E8F8104BDB68DB687B607B68043335
:103FE0001846FEF787FF0D4B1B68013B0B4A136019
:103FF0000B4B1B68013B0A4A1360FFF703F9786813
:1040000000F010F8064B1B68002BE1D100BF00BF89
:104010000837BD4680BD00BF440D0020700D002054
:10402000580D002080B584B000AF78607B6893F8AD
:104030005130002B08D17B681B6B1846FFF758FAEC
:104040007868FFF755FA18E07B6893F85130012B38
:1040500003D17868FFF74CFA0FE07B6893F8513092
:10406000022B0AD04FF0500383F31188BFF36F8FF8
:10407000BFF34F8FFB6000BFFEE700BF1037BD46A8
:1040800080BD000080B483B000AF0F4B1B681B687D
:10409000002B01D1012300E00023002B04D00B4BA7
:1040A0004FF0FF321A6008E0074B1B68DB68DB68E3
:1040B0007B607B685B68054A136000BF0C37BD46B8
:1040C0005DF8047B704700BF280D0020900D002094
:1040D00080B584B000AF78603960294B1B68FB6005
:1040E000284B1B6804331846FEF704FF0346002BD9
:1040F0000BD1244B1B68DB6A012202FA03F3DA437B
:10410000214B1B681340204A13607B68B3F1FF3FCB
:104110000AD13B68002B07D01A4B1B6804331946A1
:104120001A48FEF78AFE26E0FA687B681344BB60F3
:10413000144B1B68BA685A60BA68FB689A4209D285
:10414000134B1A680F4B1B68043319461046FEF7D1
:1041500098FE10E00F4B1A680A4B1B68043319468F
:104160001046FEF78EFE0C4B1B68BA689A4202D2CC
:10417000094ABB68136000BF1037BD4680BD00BF51
:10418000740D0020700C0020780D00205C0D0020C4
:104190002C0D0020280D0020900D002080B485B04B
:1041A00000AFF860B9607A60FB68074A1A60BB68C4
:1041B000064A1A607B6880221A6000BF1437BD4629
:1041C0005DF8047B704700BF9C0D0020F00D0020BF
:1041D00080B584B000AFF860B9607A607B689AB24D
:1041E0004FF6FF73B9680448FEF7AAF87B681846D3
:1041F0001037BD4680BD00BFF40F0020B0B58EB0B3
:1042000000AFFCF7B5F900F039F800F0D3F800F092
:10421000A1F8154800F06CFC144B07F11C041D4676
:104220000FCD0FC495E8070084E8070007F11C03D1
:1042300000211846FEF774FD03460D4A13600D4B2E
:104240003C461D460FCD0FC495E8070084E80700E3
:104250003B4600211846FEF763FD0346064A1360FD
:10426000FEF757FDFEE700BF405D0008585D0008FF
:1042700074100020745D00087810002080B5AEB086
:1042800000AF07F1740344220021184600F0A2FB9E
:1042900007F1600300221A605A609A60DA601A61BE
:1042A0003B1D5C220021184600F094FB01237B6734
:1042B0004FF48033BB670223C7F89C300323C7F851
:1042C000A0300123C7F8A4301423C7F8A83007236F
:1042D000C7F8AC300223C7F8B0300223C7F8B430B7
:1042E00007F174031846FCF783FC0346002B01D04A
:1042F00000F06CF90F233B6603237B660023BB664B
:104300000023FB6600233B6707F160030421184686
:10431000FDF75CF80346002B01D000F057F90123AC
:104320007B6000237B623B1D1846FDF787FA03463E
:10433000002B01D000F04AF94FF40070FCF702FCAA
:104340000346002B01D000F041F900BFB837BD464D
:1043500080BD000080B500AF144B154A1A60134BA6
:104360004FF4E1325A60114B00229A600F4B002249
:10437000DA600E4B00221A610C4B0C225A610B4B77
:1043800000229A61094B0022DA61084B00221A626E
:10439000064B00225A620548FDF784FF0346002BB6
:1043A00001D000F013F900BF80BD00BFF40F002062
:1043B0000038014080B58AB000AF07F11403002235
:1043C0001A605A609A60DA601A612A4BDB6C294ADB
:1043D00043F00403D364274BDB6C03F004033B611D
:1043E0003B69244BDB6C234A43F08003D364214BAD
:1043F000DB6C03F08003FB60FB681E4BDB6C1D4A2B
:1044000043F00203D3641B4BDB6C03F00203BB607D
:10441000BB68184BDB6C174A43F00103D364154BA0
:10442000DB6C03F001037B607B6800224FF40051DA
:104430001148FCF747FB4FF400537B610123BB613C
:104440000023FB6100233B6207F1140319460A486D
:10445000FCF7A6F90C237B610023BB610123FB6100
:1044600007F1140319460548FCF79AF900BF2837ED
:10447000BD4680BD0010024000080048000400480E
:1044800080B582B000AF78604FF400510348FCF76C
:1044900031FB4FF47A70FEF78FFCF5E70008004817
:1044A00090B585B000AF786004213348FCF7F2FA8C
:1044B0000346002B39D1314B1B68002B32D1FFF75B
:1044C00071F8F860F9682E4800F08CFA4FF48060BB
:1044D000FEF74AFF0346294A1360284B1B68002B4E
:1044E00023D0284800F004FB244B1B6819462648BB
:1044F00000F078FAFFF756F8F860F968234800F002
:1045000071FA1E4B1C68FFF7DDFB03461A46204973
:10451000204600F0F5FA194B1B6819461D4800F0BB
:1045200061FA02E01C4800F0E3FA08211248FCF7A7
:10453000B1FA0346002B19D1104B1B68002B12D087
:10454000164800F0D5FA0D4B1B681846FEF7D0FF51
:104550000A4B00221A60FFF725F8F860F968104846
:1045600000F040FA02E00F4800F0C2FA4FF49670F3
:10457000FEF722FC98E700BF00040048F00F00207F
:10458000905D0008CC5D0008E05D0008005E00085A
:10459000305E0008545E00086C5E0008905E000803
:1045A000A05E0008DC5E000880B582B000AF7860D5
:1045B0007B681B68044A934201D1FBF7F1FF00BFFF
:1045C0000837BD4680BD00BF002C014080B400AF5D
:1045D00000BFBD465DF8047B7047000080B582B027
:1045E00000AF114B1B6E104A43F0010313660E4BD4
:1045F0001B6E03F001037B607B680B4B9B6D0A4ACB
:1046000043F080539365084B9B6D03F080533B60F0
:104610003B6800220F216FF00100FCF797F800BF04
:104620000837BD4680BD00BF0010024080B58AB08B
:1046300000AF786007F1140300221A605A609A6094
:10464000DA601A617B681B68184A934229D1184BBB
:104650001B6E174A43F480431366154B1B6E03F41D
:1046600080433B613B69124BDB6C114A43F0010311
:10467000D3640F4BDB6C03F00103FB60FB684FF46A
:10468000C0637B610223BB610023FB6103233B62A8
:1046900007237B6207F1140319464FF09040FCF7A3
:1046A0007FF800BF2837BD4680BD00BF00380140FD
:1046B0000010024080B58CB000AF78600023FB6230
:1046C0000023BB62002279681920FCF73FF819200B
:1046D000FCF758F81E4B1B6E1D4A43F4006313662B
:1046E0001B4B1B6E03F40063FB60FB6807F11002B9
:1046F00007F1140311461846FDF70EF8FCF7F6FF14
:10470000F862FB6A134AA2FB03239B0C013BBB62CA
:10471000114B124A1A60104B40F2E732DA600E4A2F
:10472000BB6A53600C4B00221A610B4B00229A604B
:104730000948FDF78DFB0346002B04D10648FDF721
:10474000BDFB034600E0012318463037BD4680BD5F
:104750000010024083DE1B437C100020002C01402F
:1047600080B400AF00BFBD465DF8047B704780B4E5
:1047700000AFFEE780B400AFFEE780B400AFFEE715
:1047800080B400AFFEE780B400AF00BFBD465DF867
:10479000047B704780B500AF0248FDF7B9FB00BF4E
:1047A00080BD00BF7C10002080B586B000AFF860EF
:1047B000B9607A6000237B610AE0AFF300800146B4
:1047C000BB685A1CBA60CAB21A707B6901337B613C
:1047D0007A697B689A42F0DB7B6818461837BD46D9
:1047E00080BD000080B584B000AF7860114B1B68BD
:1047F000002B02D10F4B104A1A600E4B1B68FB6056
:104800000C4B1A687B6813446A46934207D900F040
:10481000A9F803460C221A604FF0FF3306E0054B5F
:104820001A687B681344034A1360FB681846103704
:10483000BD4680BDBC100020D810002080B483B0DD
:1048400000AF78604FF0FF3318460C37BD465DF877
:10485000047B704780B483B000AF786039603B68F8
:104860004FF400525A60002318460C37BD465DF8DD
:10487000047B704780B483B000AF78600123184692
:104880000C37BD465DF8047B704780B485B000AF3F
:10489000F860B9607A60002318461437BD465DF8A9
:1048A000047B704780B400AF174BD3F88830164AAA
:1048B00043F47003C2F88830144B1B68134A43F06A
:1048C00001031360114B00229A60104B1B680F4AC2
:1048D00023F0A85323F4102313600C4B4FF48052A1
:1048E000DA600A4B1B68094A23F480231360074BE4
:1048F00000229A61044B4FF000629A6000BFBD46EF
:104900005DF8047B704700BF00ED00E0001002403E
:10491000DFF834D0002103E00C4B5B5843500431E6
:104920000B480C4B42189A42F6D30B4A02E0002384
:1049300042F8043B094B9A42F9D3FFF7B3FF00F06A
:1049400017F8FFF75BFCFEE700000120006000089D
:10495000000000207800002078000020D8100020FF
:10496000FEE70000014B1868704700BF10000020F0
:1049700070B50D4D0D4C641BA4100026A64209D144
:104980000B4D0C4C01F0BEF9641BA4100026A6428E
:1049900005D170BD55F8043B98470136EEE755F850
:1049A000043B98470136F2E7F05F0008F05F00082B
:1049B000F05F0008F45F00080A44914200F1FF3301
:1049C00000D1704710B511F8014B03F8014F914227
:1049D000F9D110BD02440346934200D1704703F859
:1049E000011BF9E70FB40A4B13B51C6824B1A36986
:1049F00013B9204600F07EFA05AB049AA168019332
:104A0000204600F0ABFD02B0BDE8104004B0704796
:104A10001000002070B50E46054618B183690BB929
:104A200000F068FAAB69AC6813B9284600F062FA86
:104A30002C4B9C4220D16C68636EDB0705D4A389A4
:104A4000980502D4A06D00F0F3FAA38919071DD5CB
:104A50002369DBB1013EA36816F8011F013BA36087
:104A600039BB002B38DA22460A21284600F068F8C4
:104A7000013011D00A2511E01B4B9C4201D1AC68DA
:104A8000DAE71A4B9C4208BFEC68D5E72146284676
:104A900000F0A8F80028DDD04FF0FF35636EDA078C
:104AA00005D4A3899B0502D4A06D00F0C2FA284664
:104AB00070BD002B04DAA2699A4206DC0A2904D0F0
:104AC00023685A1C22601970C5E72246284600F068
:104AD00037F80130BFD1DFE723680A255A1C22606E
:104AE0001D70DBE7705F0008905F0008505F0008F2
:104AF000024B01461868FFF78DBF00BF1000002071
:104B00000EB400B59CB01DAB029006906FF0004152
:104B1000094807910491094953F8042B059100684D
:104B2000019302A900F0F0FB029B00221A701CB056
:104B30005DF804EB03B07047100000200802FFFF8F
:104B4000F8B50E461446054618B183690BB900F056
:104B5000D1F9214B9C422BD16C68A369A360A38936
:104B60001A072FD523696BB323692068C01A6369BC
:104B7000F6B28342374604DC2146284600F026F987
:104B800030BBA368013BA36023685A1C22601E70DF
:104B900063690130834204D0A389DB0706D50A2E5E
:104BA00004D12146284600F011F988B93846F8BDED
:104BB0000A4B9C4201D1AC68CFE7094B9C4208BF2D
:104BC000EC68CAE72146284600F00CF80028CBD054
:104BD0004FF0FF37EAE700BF705F0008905F000802
:104BE000505F0008324B70B51D6806460C4625B173
:104BF000AB6913B9284600F07DF92E4B9C420FD1CA
:104C00006C68A389B4F90C2019072CD4DD0611D4E3
:104C10000923336042F04003A3814FF0FF303EE0B0
:104C2000254B9C4201D1AC68EBE7244B9C4208BF6A
:104C3000EC68E6E7580712D5616B41B104F1440313
:104C4000994202D0304600F059FA00236363A389E9
:104C500023F02403A3810023636023692360A389D5
:104C600043F00803A38123694BB9A38903F420739C
:104C7000B3F5007F03D02146304600F0FFF9A0894C
:104C8000B4F90C2010F001030AD00023A36063697B
:104C90005B42A361236943B910F08000BAD170BDB3
:104CA000810758BF6369A360F4E70020F7E700BFFE
:104CB00010000020705F0008905F0008505F00083F
:104CC0008A892DE9F041054610070C4658D44B68F7
:104CD000002B05DC0B6C002B02DC0020BDE8F08112
:104CE000E66A002EF9D0002312F480522F682B6060
:104CF00032D0606DA3895A0705D56368C01A636B0B
:104D00000BB1236CC01A00230246E66A216A2846CA
:104D1000B047431CA38906D129681D292CD82A4AEB
:104D2000CA40D60728D500226260D90422692260D1
:104D300004D5421C01D12B6803B96065616B2F60FB
:104D40000029CAD004F14403994202D0284600F059
:104D5000D5F900206063C1E7216A01232846B047E6
:104D6000411CC7D12B68002BC4D01D2B01D0162BA2
:104D700001D12F60B1E7A38943F04003A381ADE7E0
:104D80000F69002FA9D093070E6808BF4B690F6009
:104D900018BF0023A6EB07088B60B8F1000F9CDD5D
:104DA000216AA66A43463A462846B047002806DCF0
:104DB000A38943F04003A3814FF0FF308EE70744FF
:104DC000A8EB0008E9E700BF0100402038B50B69F7
:104DD00005460C4613B90025284638BD18B183692D
:104DE0000BB900F087F8144B9C421BD16C68B4F9E6
:104DF0000C30002BEFD0626ED00704D4990502D49A
:104E0000A06D00F015F928462146FFF759FF636EA3
:104E1000DA070546E0D4A3899B05DDD4A06D00F038
:104E200008F9D9E7054B9C4201D1AC68DFE7044B98
:104E30009C4208BFEC68DAE7705F0008905F0008EA
:104E4000505F0008002310B50446C0E90033C0E9F4
:104E50000433836081814366C281836119460822DD
:104E60005C30FFF7B7FD054B6362054BA362054B52
:104E7000E362054B2462236310BD00BF055B00089D
:104E8000275B00085F5B0008835B0008014900F0B6
:104E9000AFB800BFCD4D000870B54A1E6825554318
:104EA0000E4605F1740100F079F9044640B1002185
:104EB000C0E900160C30A06005F16802FFF78AFD1A
:104EC000204670BD014800F0B3B800BFD0100020EC
:104ED000014800F0AEB800BFD0100020014800F03B
:104EE000A7B800BFCB100020014800F0A2B800BF57
:104EF000CB10002010B50446FFF7F0FFA3691BB1EB
:104F0000BDE81040FFF7F0BFC4E912332365134B2F
:104F1000134A1B68A262A34204BF0123A361204677
:104F200000F020F86060204600F01CF8A0602046E9
:104F300000F018F80022E06004216068FFF782FFAB
:104F4000A06801220921FFF77DFFE06802221221FB
:104F5000FFF778FF0123A361D2E700BF4C5F000891
:104F60008D4E0008F8B50746FFF7ACFF1E4B1E68D4
:104F7000B36913B93046FFF7BDFF4836D6E90134AF
:104F8000013B03D533680BB33668F7E7B4F90C502F
:104F9000D5B9164BE36004F15800656600F047F898
:104FA000FFF796FFC4E90155C4E904552560A561E2
:104FB0000822294604F15C00FFF70CFDC4E90D55F9
:104FC000C4E912552046F8BD6834D9E704213846B3
:104FD000FFF762FF044630600028D5D1FFF778FF65
:104FE0000C233B60EEE700BF4C5F00080100FFFFB1
:104FF0002DE9F8430646884600F148040027D4E925
:105000000195B9F1010905D52468002CF7D138467E
:10501000BDE8F883AB89012B07D9B5F90E30013310
:1050200003D029463046C04707436835E9E7704753
:105030007047704770B50E46B1F90E10002996B052
:1050400014461D4607DA00232B60B3891A0610D4D4
:105050004FF480630EE06A4600F0BAFD0028F2DBF0
:10506000019A02F47042A2F500535A425A412A6052
:10507000EEE740230020236016B070BD8B8973B526
:105080009D0706460C4607D504F1470323602361BC
:105090000123636102B070BD01AB6A46FFF7CAFF2E
:1050A00000990546304600F079F848B9B4F90C305B
:1050B0009A05EFD423F0030343F00203A381E3E74F
:1050C0000D4BB362A389206043F08003A381009B52
:1050D0006361019B20615BB1B4F90E10304600F0B2
:1050E00089FD28B1A38923F0030343F00103A381C1
:1050F000A0890543A581CDE78D4E000837B500296D
:1051000048D051F8043C0190002BA1F10404B8BF31
:10511000E41800F0ABFD204A01981368154633B936
:105120006360146003B0BDE8304000F0A5BDA34249
:105130000BD921686218934204BF1A685B686360E8
:1051400004BF521822602C60ECE71A465B680BB172
:10515000A342FAD911685518A5420BD124682144FD
:105160005418A3421160DDD11C685B685360214470
:105170001160D7E702D90C230360D3E725686119D2
:105180008B4204BF19685B68636004BF49192160E2
:105190005460C7E703B030BDC0100020F8B5CD1C87
:1051A00025F0030508350C2D38BF0C25002D0646CB
:1051B00001DBA94203D90C2333600020F8BD00F0C5
:1051C00055FD21490A6814469CB9204F3B6823B914
:1051D0002146304600F086FC38602946304600F013
:1051E00081FC431C23D10C233360304600F044FD86
:1051F000E3E723685B1B17D40B2B03D923601C4404
:10520000256004E06368A2420CBF0B605360304627
:1052100000F032FD04F10B00231D20F00700C21A3C
:10522000CCD01B1AA350C9E722466468CCE7C41C43
:1052300024F00304A042E3D0211A304600F052FCCF
:105240000130DDD1CFE700BFC0100020C410002026
:105250002DE9F0478E689E4282460C4690461F46D6
:1052600038D88A8912F4906F32D025680969A5EB85
:105270000109656905EB450505EBD57501334B441F
:105280006D109D4238BF1D46530531D52946FFF7A5
:1052900085FF064650B90C23CAF80030A38943F0B5
:1052A0004003A3814FF0FF30BDE8F08721694A46F3
:1052B000FFF782FBA38923F4906343F08003A3816B
:1052C000266165614E44A5EB09052660A5603E4652
:1052D000BE4200D93E4632462068414600F0ACFC52
:1052E000A36822689B1B3244A36022600020DBE796
:1052F0002A4600F0C7FC06460028E1D12169504645
:10530000FFF7FCFEC7E700002DE9F04F98468B89B8
:105310001B069DB007460D4614460ED50B6963B9B2
:105320004021FFF73BFF2860286120B90C233B6038
:105330004FF0FF30D1E040236B610023099320231D
:105340008DF82930CDF80C803023DFF8A8818DF856
:105350002A304FF0010923469A4613F8012B0AB16F
:10536000252AF9D1BAEB040B0BD05B46224629461D
:105370003846FFF76DFF013000F0AA80099A5A44C1
:1053800009929AF80030002B00F0A28000234FF021
:10539000FF32CDE905230AF1010A049307938DF842
:1053A00053301A935446052214F8011B5148FBF759
:1053B0008FF8049AD8B9D00644BF20238DF8533013
:1053C000110744BF2B238DF853309AF800302A2B55
:1053D00015D0079A544600204FF00A0C214611F8C8
:1053E000013B303B092B4ED9B0B1079214E0A0EB42
:1053F000080309FA03F313430493A246D2E7039B7D
:10540000191D1B680391002BBBBF5B4242F00202D7
:1054100007930793B8BF049223782E2B0CD163789F
:105420002A2B35D1039B1A1D1B680392002BB8BF92
:105430004FF0FF3302340593DFF8C8A02178032230
:105440005046FBF745F840B14023A0EB0A0003FAB1
:1054500000F0049B03430134049314F8011B264815
:105460008DF828100622FBF733F8002838D0234B9C
:105470001BBB039B073323F0070308330393099BEC
:105480003344099367E70CFB02320C460120A5E781
:1054900000230134059319464FF00A0C204610F8FA
:1054A000012B303A092A03D9002BC5D00591C3E757
:1054B0000CFB012104460123F0E703AB00932A46CD
:1054C0000F4B04A93846AFF30080421C0646D6D1E4
:1054D000AB895B063FF52CAF09981DB0BDE8F08F96
:1054E00003AB00932A46064B04A9384600F0D4F9D2
:1054F000EBE700BFB05F0008BA5F000800000000E3
:1055000051520008B65F00089368013B002B10B4AD
:10551000936008DA9469A34201DB0A2903D15DF89C
:10552000044BFFF70DBB1368581C10601970084638
:105530005DF8044B7047F8B506460F461446D5187B
:10554000AC4201D1002007E014F8011B3A46304676
:10555000FFF7DAFF431CF3D1F8BD00002DE9F04F4F
:105560000D469DB014469846064618B183690BB99E
:10557000FFF7C0FC894B9D421BD175686B6ED90744
:1055800005D4AB899A0502D4A86DFFF751FDAB890C
:105590001B0701D52B69EBB929463046FFF722FBE3
:1055A000C0B16B6EDC070ED54FF0FF301DB0BDE80B
:1055B000F08F7B4B9D4201D1B568DFE7794B9D426F
:1055C00008BFF568DAE7AB899805EDD4A86DFFF759
:1055D00030FDE9E70023099320238DF82930CDF829
:1055E0000C803023DFF8C0818DF82A304FF001099C
:1055F00023469A4613F8012B0AB1252AF9D1BAEBB2
:10560000040B0BD05B46224629463046FFF793FF3A
:10561000013000F0AA80099A5A4409929AF80030A1
:10562000002B00F0A28000234FF0FF32CDE90523CC
:105630000AF1010A049307938DF853301A935446E4
:10564000052214F8011B5848FAF742FF049AD8B90A
:10565000D10644BF20238DF85330130744BF2B23BA
:105660008DF853309AF800302A2B15D0079A5446FB
:1056700000204FF00A0C214611F8013B303B092B6A
:105680004ED9B0B1079214E0A0EB080309FA03F376
:1056900013430493A246D2E7039B191D1B68039191
:1056A000002BBBBF5B4242F0020207930793B8BFD7
:1056B000049223782E2B0CD163782A2B35D1039BAF
:1056C0001A1D1B680392002BB8BF4FF0FF33023442
:1056D0000593DFF8E4A0217803225046FAF7F8FE9C
:1056E00040B14023A0EB0A0003FA00F0049B0343FF
:1056F0000134049314F8011B2C488DF8281006225D
:10570000FAF7E6FE00283FD0294B1BBB039B07336B
:1057100023F0070308330393099B3B44099367E78E
:105720000CFB02320C460120A5E70023013405934F
:1057300019464FF00A0C204610F8012B303A092A7E
:1057400003D9002BC5D00591C3E70CFB012104460A
:105750000123F0E703AB00932A46164B04A9304619
:10576000AFF300800746781CD6D16B6ED90705D4FD
:10577000AB899A0502D4A86DFFF75BFCAB895B0689
:105780003FF512AF099811E703AB00932A46094B86
:1057900004A9304600F080F8E4E700BF705F00081D
:1057A000905F0008505F0008B05F0008BA5F000813
:1057B0000000000037550008B65F00082DE9F047EB
:1057C000164699468A680B69DDF820809342B8BF77
:1057D0001346336091F8432007460C460AB1013363
:1057E00033602368990642BF33680233336025680B
:1057F00015F0060506D104F1190AE36832689B1A10
:10580000AB4226DC94F84320131E226818BF012304
:1058100092062BD404F1430249463846C047013072
:105820001ED02368E568326803F00603042B08BF26
:10583000AD1AA36822690CBF25EAE57500259342DD
:10584000C4BF9B1AED1800261A34B5421AD10020A5
:1058500008E00123524649463846C047013003D18B
:105860004FF0FF30BDE8F0870135C6E7E1185A1C5C
:10587000302081F84300224494F8451082F8431008
:105880000233C7E70123224649463846C047013064
:10589000E6D00136D9E700002DE9FF470C469146D6
:1058A000277E0C99782F80469A4604F1430207D848
:1058B000622F0AD8002F00F0D880582F00F0A38064
:1058C00004F1420684F842703AE0A7F16303152B15
:1058D000F6D801A050F823F03159000845590008C6
:1058E000C1580008C1580008C1580008C158000834
:1058F00045590008C1580008C1580008C15800089F
:10590000C1580008515A000875590008335A000858
:10591000C1580008C1580008735A0008C15800084F
:1059200075590008C1580008C15800083B5A0008C2
:105930000B681A1D1B680A6004F1420684F84230A5
:105940000123A3E0256808682E0600F104030AD5A8
:1059500005680B60002D03DA2D236D4284F8433077
:105960005E480A2319E015F0400F05680B6018BF68
:105970002DB2EFE70B682568181D0860280601D5D1
:105980001D6802E06906FBD51D8854486F2F0CBFC7
:1059900008230A23002184F843106668A660002EBD
:1059A000A2BF216821F0040121600DB9002E4DD065
:1059B0001646B5FBF3F103FB1157C75D06F8017DF1
:1059C0002F46BB420D46F4D9082B0BD12368DF07C5
:1059D00008D5236961689942DEBF302306F8013C8F
:1059E00006F1FF36921B2261CDF800A04B4603AAB8
:1059F00021464046FFF7E2FE01304CD14FF0FF3028
:105A000004B0BDE8F087354884F8457023680E6817
:105A10001F0656F8045B0E6014D5D90744BF43F047
:105A2000200323601DB9236823F020032360102383
:105A3000B0E7236843F0200323607823284884F8E4
:105A40004530E3E75E0648BFADB2E6E71646BBE782
:105A50000B68266860691D1D0D6035061B6801D541
:105A6000186002E07106FBD51880002323611646FA
:105A7000BAE70B681A1D0A601E686268002130468A
:105A8000FAF726FD08B1801B60606368236100237C
:105A900084F84330A8E72369324649464046D04758
:105AA0000130ABD023689B0713D4E068039B984276
:105AB000B8BF1846A4E70123324649464046D047BE
:105AC00001309BD00135E36803995B1AAB42F2DCED
:105AD000EBE7002504F11906F5E700BFC15F0008F8
