:020000040800F2
:1000000000000120D1250008252500083125000821
:10001000372500083D2500084325000800000000A2
:10002000000000000000000000000000492500085A
:100030005525000800000000612500086D25000816
:100040002126000821260008212600082126000874
:100050002126000821260008212600082126000864
:100060002126000821260008212600082126000854
:100070002126000821260008212600082126000844
:100080002126000821260008212600082126000834
:100090002126000821260008212600082126000824
:1000A0002126000821260008212600082126000814
:1000B00021260008000000000000000021260008A2
:1000C00021260008212600082126000821260008F4
:1000D00021260008212600082126000821260008E4
:1000E0002126000821260008000000000000000072
:1000F0000000000000000000000000000000000000
:100100000000000021260008000000002126000851
:100110000000000000000000212600082126000841
:100120002126000821260008212600082126000893
:100130002126000800000000000000000000000070
:1001400021260008212600082126000800000000C2
:100150002126000821260008212600082126000863
:1001600021260008212600082126000800000000A2
:1001700021260008212600080000000000000000E1
:100180002126000821260008212600080000000082
:1001900010B5054C237833B9044B13B10448AFF3C1
:1001A00000800123237010BD10000020000000001B
:1001B0007C26000808B5034B1BB103490348AFF385
:1001C000008008BD00000000140000207C2600080C
:1001D00080B582B000AF0023FB71032000F038F936
:1001E000002000F00DF80346002B02D00123FB7124
:1001F00001E002F075F9FB7918460837BD4680BD6D
:1002000080B584B000AF78600023FB73164B1B6889
:10021000002B22D0154B1A68134B1B684FF47A71D0
:10022000B1FBF3F3B2FBF3F3184600F038F90346E1
:10023000002B0FD17B680F2B09D8002279684FF073
:10024000FF3000F010F90A4A7B68136007E00123D1
:10025000FB7304E00123FB7301E00123FB73FB7BD1
:1002600018461037BD4680BD04000020080000205D
:100270000000002080B400AF054B1A68054B1B68D6
:100280001344034A136000BFBD4680BC704700BFE3
:100290002C0000200400002080B400AF024B1B683B
:1002A0001846BD4680BC70472C00002080B584B045
:1002B00000AF7860FFF7F0FFB8607B68FB60FB6819
:1002C000B3F1FF3F04D0094B1B68FA681344FB608D
:1002D00000BFFFF7E1FF0246BB68D31AFA689A42F3
:1002E000F7D800BF00BF1037BD4680BD0400002016
:1002F00080B485B000AF78607B6803F00703FB60D3
:100300000C4BDB68BB60BA684FF6FF031340BB6061
:10031000FB681A02BB68134343F0BF6343F4003326
:10032000BB60044ABB68D36000BF1437BD4680BCC5
:10033000704700BF00ED00E080B400AF044BDB6805
:100340001B0A03F007031846BD4680BC704700BF78
:1003500000ED00E080B483B000AF03463960FB716C
:1003600097F90730002B0ADB3B68DAB20C4997F9A2
:1003700007301201D2B20B4483F800230AE03B6835
:10038000DAB20849FB7903F00F03043B1201D2B241
:100390000B441A7600BF0C37BD4680BC704700BFC7
:1003A00000E100E000ED00E080B489B000AFF8604B
:1003B000B9607A60FB6803F00703FB61FB69C3F176
:1003C0000703042B28BF0423BB61FB690433062BFE
:1003D00002D9FB69033B00E000237B614FF0FF3251
:1003E000BB6902FA03F3DA43BB681A407B699A409F
:1003F0004FF0FF317B6901FA03F3D9437B680B406F
:10040000134318462437BD4680BC704780B582B080
:1004100000AF78607B68013BB3F1807F01D301239B
:100420000FE00A4A7B68013B53600F214FF0FF3019
:10043000FFF790FF054B00229A60044B07221A60D9
:10044000002318460837BD4680BD00BF10E000E01D
:1004500080B582B000AF78607868FFF749FF00BFD1
:100460000837BD4680BD80B586B000AF0346B96091
:100470007A60FB7300237B61FFF75EFF78617A6827
:10048000B9687869FFF790FF024697F90F30114677
:100490001846FFF75FFF00BF1837BD4680BD80B527
:1004A00082B000AF78607868FFF7B0FF0346184667
:1004B0000837BD4680BD000080B487B000AF7860CB
:1004C000396000237B6154E13B681A6801217B6934
:1004D00001FA03F31340FB60FB68002B00F0468138
:1004E0003B685B68022B03D03B685B68122B23D10F
:1004F0007B69DA087B68083253F822303B617B69FC
:1005000003F007039B000F2202FA03F3DB433A696F
:1005100013403B613B681A697B6903F007039B004A
:1005200002FA03F33A6913433B617B69DA087B689B
:100530000832396943F822107B681B683B617B698C
:100540005B00032202FA03F3DB433A6913403B6189
:100550003B685B6803F003027B695B0002FA03F30C
:100560003A6913433B617B683A691A603B685B6890
:10057000012B0BD03B685B68022B07D03B685B68A4
:10058000112B03D03B685B68122B30D17B689B68D2
:100590003B617B695B00032202FA03F3DB433A69A8
:1005A00013403B613B68DA687B695B0002FA03F346
:1005B0003A6913433B617B683A699A607B685B6880
:1005C0003B6101227B6902FA03F3DB433A69134082
:1005D0003B613B685B681B0903F001027B6902FA1F
:1005E00003F33A6913433B617B683A695A607B685D
:1005F000DB683B617B695B00032202FA03F3DB43A8
:100600003A6913403B613B689A687B695B0002FA78
:1006100003F33A6913433B617B683A69DA603B68EC
:100620005B6803F08053002B00F0A080584B1B6EDA
:10063000574A43F001031366554B1B6E03F0010349
:10064000BB60BB68534A7B699B08023352F8233076
:100650003B617B6903F003039B000F2202FA03F363
:10066000DB433A6913403B617B68B3F1904F19D08B
:100670007B68494A934213D07B68484A93420DD025
:100680007B68474A934207D07B68464A934201D130
:10069000042308E0072306E0032304E0022302E02A
:1006A000012300E000237A6902F0030292009340E4
:1006B0003A6913433B6137497B699B0802333A69C6
:1006C00041F82320384B1B683B61FB68DB433A69E8
:1006D00013403B613B685B6803F48033002B03D01D
:1006E0003A69FB6813433B612F4A3B6913602E4B09
:1006F0005B683B61FB68DB433A6913403B613B68E5
:100700005B6803F40033002B03D03A69FB681343A2
:100710003B61254A3B695360234B9B683B61FB6807
:10072000DB433A6913403B613B685B6803F4801329
:10073000002B03D03A69FB6813433B611A4A3B69BB
:100740009360194BDB683B61FB68DB433A691340FC
:100750003B613B685B6803F40013002B03D03A69EC
:10076000FB6813433B61104A3B69D3607B690133EB
:100770007B613B681A687B6922FA03F3002B7FF4E4
:10078000A3AE00BF00BF1C37BD4680BC704700BF92
:10079000001002400000014000040048000800482A
:1007A000000C0048001000480004014080B483B0F1
:1007B00000AF78600B467B8013467B707B78002B04
:1007C00003D07A887B689A6102E07A887B689A62B3
:1007D00000BF0C37BD4680BC7047000080B400AF3E
:1007E000034B1B6803F4C0631846BD4680BC7047CA
:1007F0000070004080B485B000AF78607B68B3F5CE
:10080000007F30D1224B1B6803F4C063B3F5007F37
:1008100038D01F4B1B6823F4C0631D4A43F4007398
:1008200013601C4B1B68322202FB03F31A4AA2FB23
:1008300003239B0C0133FB6002E0FB68013BFB6080
:10084000134B5B6903F48063B3F5806F02D1FB68DF
:10085000002BF2D10E4B5B6903F48063B3F5806F1C
:1008600010D103230FE00A4B1B6803F4C063B3F5F8
:10087000806F07D0064B1B6823F4C063044A43F41F
:1008800080631360002318461437BD4680BC704750
:10089000007000400800002083DE1B4380B588B054
:1008A00000AF78607B68002B01D10123DBE3A44B10
:1008B0009B6803F00C03BB61A14BDB6803F00303EF
:1008C0007B617B681B6803F01003002B00F0E18064
:1008D000BB69002B07D0BB690C2B40F088807B697B
:1008E000012B40F08480964B1B6803F00203002B21
:1008F00005D07B689B69002B01D10123B3E37B68A2
:100900001A6A8F4B1B6803F00803002B04D08C4B32
:100910001B6803F0F00305E0894BD3F894301B0902
:1009200003F0F003934223D27B681B6A184600F061
:100930000FFD0346002B01D0012394E3804B1B687D
:100940007F4A43F0080313607D4B1B6823F0F002DD
:100950007B681B6A7A4913430B60794B5B6823F40D
:100960007F427B68DB691B02754913434B6022E0C1
:10097000734B1B68724A43F008031360704B1B688B
:1009800023F0F0027B681B6A6D4913430B606C4BCC
:100990005B6823F47F427B68DB691B026849134371
:1009A0004B607B681B6A184600F0D2FC0346002BA4
:1009B00001D0012357E300F041FC0246604B9B68E5
:1009C0001B0903F00F035F49CB5C03F01F0322FAFE
:1009D00003F35D4A13605D4B1B681846FFF710FC7C
:1009E0000346FB73FB7B002B52D0FB7B3BE37B6816
:1009F0009B69002B32D0524B1B68514A43F00103D4
:100A00001360FFF749FC386108E0FFF745FC024638
:100A10003B69D31A022B01D9032324E3484B1B68FB
:100A200003F00203002BF0D0454B1B68444A43F00F
:100A300008031360424B1B6823F0F0027B681B6ABB
:100A40003F4913430B603E4B5B6823F47F427B6856
:100A5000DB691B023A4913434B601AE0384B1B68B1
:100A6000374A23F001031360FFF716FC386108E0F2
:100A7000FFF712FC02463B69D31A022B01D903236C
:100A8000F1E22F4B1B6803F00203002BF0D100E0D2
:100A900000BF7B681B6803F00103002B74D0BB69A7
:100AA000082B05D0BB690C2B0ED17B69032B0BD116
:100AB000234B1B6803F40033002B64D07B685B6816
:100AC000002B60D10123CEE27B685B68B3F5803FE9
:100AD00006D11B4B1B681A4A43F4803313601DE098
:100AE0007B685B68B3F5A02F0CD1154B1B68144ACB
:100AF00043F480231360124B1B68114A43F4803384
:100B000013600BE00E4B1B680D4A23F48033136017
:100B10000B4B1B680A4A23F4802313607B685B68D5
:100B2000002B1CD0FFF7B8FB386111E0FFF7B4FBD6
:100B300002463B69D31A642B0AD9032393E200BF10
:100B40000010024054340208080000200000002079
:100B5000AE4B1B6803F40033002BE7D014E0FFF723
:100B60009BFB386108E0FFF797FB02463B69D31A0D
:100B7000642B01D9032376E2A44B1B6803F40033F2
:100B8000002BF0D100E000BF7B681B6803F002037C
:100B9000002B60D0BB69042B05D0BB690C2B19D18D
:100BA0007B69022B16D1994B1B6803F48063002BE1
:100BB00005D07B68DB68002B01D1012353E2934B06
:100BC0005B6823F0F8527B681B691B068F4913434F
:100BD0004B6040E07B68DB68002B23D08B4B1B68AD
:100BE0008A4A43F480731360FFF756FB386108E0CC
:100BF000FFF752FB02463B69D31A022B01D90323AC
:100C000031E2824B1B6803F48063002BF0D07F4BF2
:100C10005B6823F0F8527B681B691B067B49134312
:100C20004B6018E0794B1B68784A23F4807313609B
:100C3000FFF732FB386108E0FFF72EFB02463B6905
:100C4000D31A022B01D903230DE2704B1B6803F466
:100C50008063002BF0D17B681B6803F00803002B36
:100C60003CD07B685B69002B1CD0684BD3F8943078
:100C7000664A43F00103C2F89430FFF70DFB386178
:100C800008E0FFF709FB02463B69D31A022B01D9A2
:100C90000323E8E15D4BD3F8943003F00203002B0B
:100CA000EFD01BE0594BD3F89430584A23F001039E
:100CB000C2F89430FFF7F0FA386108E0FFF7ECFA79
:100CC00002463B69D31A022B01D90323CBE14F4BD8
:100CD000D3F8943003F00203002BEFD17B681B683C
:100CE00003F00403002B00F0A5800023FB77474BA3
:100CF0009B6D03F08053002B0DD1444B9B6D434AF9
:100D000043F080539365414B9B6D03F08053BB6070
:100D1000BB680123FB773E4B1B6803F48073002BF9
:100D200018D13B4B1B683A4A43F480731360FFF7BA
:100D3000B3FA386108E0FFF7AFFA02463B69D31A0D
:100D4000022B01D903238EE1314B1B6803F480731E
:100D5000002BF0D07B689B68012B08D12B4BD3F87C
:100D600090302A4A43F00103C2F8903024E07B68B7
:100D70009B68052B10D1254BD3F89030234A43F0C4
:100D80000403C2F89030214BD3F890301F4A43F04F
:100D90000103C2F890300FE01C4BD3F890301B4A8F
:100DA00023F00103C2F89030184BD3F89030174A63
:100DB00023F00403C2F890307B689B68002B16D0A8
:100DC000FFF76AFA38610AE0FFF766FA02463B6904
:100DD000D31A41F28832934201D9032343E10B4BEA
:100DE000D3F8903003F00203002BEDD019E0FFF7A9
:100DF00053FA38610EE0FFF74FFA02463B69D31A07
:100E000041F28832934205D903232CE100100240BD
:100E100000700040964BD3F8903003F00203002B93
:100E2000E9D1FB7F012B05D1914B9B6D904A23F0BB
:100E3000805393657B681B6803F02003002B3CD034
:100E40007B685B6A002B1CD0894BD3F89830884AAA
:100E500043F00103C2F89830FFF71EFA386108E04A
:100E6000FFF71AFA02463B69D31A022B01D9032372
:100E7000F9E07F4BD3F8983003F00203002BEFD05A
:100E80001BE07B4BD3F89830794A23F00103C2F87A
:100E90009830FFF701FA386108E0FFF7FDF90246E4
:100EA0003B69D31A022B01D90323DCE0704BD3F842
:100EB000983003F00203002BEFD17B689B6A002B74
:100EC00000F0D080BB690C2B00F08D807B689B6AA2
:100ED000022B5AD1664B1B68654A23F0807313605E
:100EE000FFF7DAF9386108E0FFF7D6F902463B6907
:100EF000D31A022B01D90323B5E05D4B1B6803F025
:100F00000073002BF0D15A4BDA685A4B13407A68C1
:100F1000D16A7A68126B013A120111437A68526BF6
:100F2000120211437A68D26B5208013A52051143FA
:100F30007A68126C5208013A520611437A68926B31
:100F4000D2060A434A491343CB60494B1B68484ABF
:100F500043F080731360464BDB68454A43F080736F
:100F6000D360FFF799F9386108E0FFF795F9024679
:100F70003B69D31A022B01D9032374E03C4B1B6855
:100F800003F00073002BF0D06CE0394B1B68384A3B
:100F900023F080731360364B1B6803F00063002B53
:100FA00005D1334BDB68324A23F00303D360304B67
:100FB000DB682F4A23F0887323F48033D360FFF774
:100FC0006BF9386108E0FFF767F902463B69D31A0D
:100FD000022B01D9032346E0254B1B6803F0007365
:100FE000002BF0D13EE07B689B6A012B01D10123ED
:100FF00039E01F4BDB687B617B6903F003027B6890
:10100000DB6A9A422CD17B6903F070027B681B6B10
:10101000013B1B019A4223D17B6903F4FE427B68AA
:101020005B6B1B029A421BD17B6903F078427B68A1
:101030009B6BDB069A4213D17B6903F4C0027B6889
:10104000DB6B5B08013B5B059A4209D17B6903F0CE
:10105000C0627B681B6C5B08013B5B069A4201D057
:10106000012300E0002318462037BD4680BD00BFA5
:10107000001002408C809D0180B584B000AF786084
:1010800039607B68002B01D10123C8E0664B1B68E7
:1010900003F007033A689A4210D9634B1B6823F0A8
:1010A000070261493B6813430B605F4B1B6803F009
:1010B00007033A689A4201D00123B0E07B681B68BD
:1010C00003F00103002B4CD07B685B68032B07D136
:1010D000564B1B6803F00073002B21D101239EE0C7
:1010E0007B685B68022B07D1504B1B6803F400330D
:1010F000002B15D1012392E07B685B68002B07D1A0
:101100004A4B1B6803F00203002B09D1012386E040
:10111000464B1B6803F48063002B01D101237EE062
:10112000424B9B6823F003027B685B683F49134393
:101130008B60FFF7B1F8F8600AE0FFF7ADF8024600
:10114000FB68D31A41F28832934201D9032366E047
:10115000364B9B6803F00C027B685B689B009A42ED
:10116000EBD17B681B6803F00203002B08D02F4BE8
:101170009B6823F0F0027B689B682C4913438B60CB
:10118000294B1B6803F007033A689A4210D2264B9A
:101190001B6823F0070224493B6813430B60224B72
:1011A0001B6803F007033A689A4201D0012336E036
:1011B0007B681B6803F00403002B08D01B4B9B6863
:1011C00023F4E0627B68DB68184913438B607B681B
:1011D0001B6803F00803002B09D0144B9B6823F411
:1011E00060527B681B69DB00104913438B6000F081
:1011F00025F802460D4B9B681B0903F00F030C49B1
:10120000CB5C03F01F0322FA03F30A4A13600A4B74
:101210001B681846FEF7F4FF0346FB72FB7A18467C
:101220001037BD4680BD00BF0020024000100240C4
:1012300054340208080000200000002080B489B067
:1012400000AF0023FB610023BB613D4B9B6803F0B3
:101250000C033B613A4BDB6803F00303FB603B6923
:10126000002B05D03B690C2B21D1FB68012B1ED133
:10127000334B1B6803F00803002B07D1304BD3F826
:1012800094301B0A03F00F03FB6105E02C4B1B6835
:101290001B0903F00F03FB612A4AFB6952F8233054
:1012A000FB613B69002B0DD1FB69BB610AE03B6927
:1012B000042B02D1244BBB6104E03B69082B01D114
:1012C000224BBB613B690C2B34D11D4BDB6803F017
:1012D0000303BB60BB68022B03D0BB68032B03D0A6
:1012E00005E0194B7B6105E0184B7B6102E0FB696F
:1012F0007B6100BF124BDB681B0903F0070301335E
:101300007B600F4BDB681B0A03F07F037A6902FBEB
:1013100003F27B68B2FBF3F37B61094BDB685B0E86
:1013200003F0030301335B003B607A693B68B2FB67
:10133000F3F3BB61BB6918462437BD4680BC7047D8
:1013400000100240643402080024F40000127A0005
:1013500080B586B000AF786000233B612A4B9B6D5F
:1013600003F08053002B03D0FFF738FA786114E0C4
:10137000254B9B6D244A43F080539365224B9B6D14
:1013800003F08053FB60FB68FFF728FA78611E4B7F
:101390009B6D1D4A23F0805393657B69B3F5007FF5
:1013A0000BD17B68802B19D97B68A02B02D9022333
:1013B0003B6113E001233B6110E07B68802B02D985
:1013C00003233B610AE07B68802B02D102233B614F
:1013D00004E07B68702B01D101233B610B4B1B6840
:1013E00023F0070209493B6913430B60074B1B6855
:1013F00003F007033A699A4201D0012300E0002379
:1014000018461837BD4680BD00100240002002403B
:1014100080B584B000AF78607B68002B01D10123D8
:101420007CE07B6800229A627B6893F85D30DBB2D7
:10143000002B06D17B68002283F85C20786800F0DE
:10144000D9FF7B68022283F85D207B681B681A68DD
:101450007B681B6822F040021A607B68DB68B3F58A
:10146000E06F02D90023FB6002E04FF48053FB6081
:101470007B68DB68B3F5706F07D07B68DB68B3F51A
:10148000E06F02D07B6800229A627B681B6B002BA6
:101490000BD17B68DB68B3F5E06F03D97B68022270
:1014A0001A6302E07B6801221A637B685A687B68D2
:1014B0009B681A437B681B691A437B685B691A4304
:1014C0007B689B6903F400731A437B68DB691A43EA
:1014D0007B681B6A42EA03017B689A6A7B681B6827
:1014E0000A431A607B689B691B0C03F004027B684B
:1014F0005B6A1A437B685B6B1A437B68DB6842EA72
:1015000003017B681B68FA680A435A607B68002203
:101510001A667B68012283F85D2000231846103785
:10152000BD4680BD80B588B000AFF860B9603B6053
:101530001346FB800023FB77FB6893F85C30012B9C
:1015400001D1022350E1FB68012283F85C20FEF701
:10155000A3FEB861FB88FB82FB6893F85D30DBB2C9
:10156000012B02D00223FB7735E1BB68002B02D0B0
:10157000FB88002B02D10123FB772CE1FB680322BF
:1015800083F85D20FB6800221A66FB68BA689A63DC
:10159000FB68FA889A87FB68FA88DA87FB6800227A
:1015A0001A64FB680022A3F84420FB680022A3F819
:1015B0004620FB6800221A65FB680022DA64FB689B
:1015C0009B68B3F5004F07D1FB681B681A68FB687E
:1015D0001B6842F480421A60FB681B681B6803F0BA
:1015E0004003402B07D0FB681B681A68FB681B6828
:1015F00042F040021A60FB68DB68B3F5E06F4BD93C
:10160000FB685B68002B02D0FB8A012B3ED1FB6894
:101610009B6B1A88FB681B68DA60FB689B6B9A1CE3
:10162000FB689A63FB68DB8F9BB2013B9AB2FB6855
:10163000DA872BE0FB681B689B6803F00203022B30
:1016400012D1FB689B6B1A88FB681B68DA60FB6829
:101650009B6B9A1CFB689A63FB68DB8F9BB2013B18
:101660009AB2FB68DA8711E0FEF716FE0246BB6904
:10167000D31A3A689A4203D83B68B3F1FF3F02D1CC
:101680003B68002B02D10323FB77A4E0FB68DB8FD0
:101690009BB2002BCED17CE0FB685B68002B02D0B4
:1016A000FB8A012B70D1FB68DB8F9BB2012B12D917
:1016B000FB689B6B1A88FB681B68DA60FB689B6B96
:1016C0009A1CFB689A63FB68DB8F9BB2023B9AB261
:1016D000FB68DA8758E0FB689A6BFB681B680C3381
:1016E00012781A70FB689B6B5A1CFB689A63FB6844
:1016F000DB8F9BB2013B9AB2FB68DA8744E0FB6860
:101700001B689B6803F00203022B2BD1FB68DB8F65
:101710009BB2012B12D9FB689B6B1A88FB681B6874
:10172000DA60FB689B6B9A1CFB689A63FB68DB8F33
:101730009BB2023B9AB2FB68DA8725E0FB689A6BA2
:10174000FB681B680C3312781A70FB689B6B5A1C81
:10175000FB689A63FB68DB8F9BB2013B9AB2FB6824
:10176000DA8711E0FEF798FD0246BB69D31A3A68A2
:101770009A4203D83B68B3F1FF3F02D13B68002B8C
:1017800002D10323FB7726E0FB68DB8F9BB2002BA3
:10179000B5D1BA693968F86800F001F90346002B41
:1017A00002D0FB6820221A66FB689B68002B0AD1D6
:1017B00000233B61FB681B68DB683B61FB681B68BF
:1017C0009B683B613B69FB681B6E002B02D00123C9
:1017D000FB7700E000BFFB68012283F85D20FB6817
:1017E000002283F85C20FB7F18462037BD4680BD71
:1017F00080B584B000AFF860B9603B601346FB7100
:101800004CE03B68B3F1FF3F48D0FEF745FD024690
:10181000BB69D31A3A689A4202D93B68002B3DD182
:10182000FB681B685A68FB681B6822F0E0025A607C
:10183000FB685B68B3F5827F11D1FB689B68B3F5E9
:10184000004F04D0FB689B68B3F5806F07D1FB683D
:101850001B681A68FB681B6822F040021A60FB686C
:101860009B6AB3F5005F0FD1FB681B681A68FB68C1
:101870001B6822F400521A60FB681B681A68FB6838
:101880001B6842F400521A60FB68012283F85D2055
:10189000FB68002283F85C2003230FE0FB681B68D1
:1018A0009A68BB681340BA689A420CBF01230023B0
:1018B000DBB21A46FB799A42A3D1002318461037AF
:1018C000BD4680BD80B584B000AFF860B9607A6075
:1018D0003B6057E0BB68B3F5C06F06D17B68002B57
:1018E00003D1FB681B680C331B783B68B3F1FF3FE7
:1018F00048D0FEF7D1FC0246BB69D31A3A689A4237
:1019000002D93B68002B3DD1FB681B685A68FB6815
:101910001B6822F0E0025A60FB685B68B3F5827FC7
:1019200011D1FB689B68B3F5004F04D0FB689B683E
:10193000B3F5806F07D1FB681B681A68FB681B68EA
:1019400022F040021A60FB689B6AB3F5005F0FD17A
:10195000FB681B681A68FB681B6822F400521A6057
:10196000FB681B681A68FB681B6842F400521A6027
:10197000FB68012283F85D20FB68002283F85C206D
:10198000032308E0FB681B689A68BB6813407A6809
:101990009A429FD1002318461037BD4680BD80B5BE
:1019A00086B002AFF860B9607A607B680093BB686C
:1019B00000224FF4C051F868FFF784FF0346002B64
:1019C00007D0FB681B6E43F02002FB681A660323F6
:1019D00027E07B680093BB6800228021F868FFF74E
:1019E00007FF0346002B07D0FB681B6E43F0200265
:1019F000FB681A66032314E07B680093BB6800222F
:101A00004FF4C061F868FFF75DFF0346002B07D075
:101A1000FB681B6E43F02002FB681A66032300E09C
:101A2000002318461037BD4680BD000080B588B041
:101A300000AF07F10C0300221A605A609A60DA6066
:101A40001A61284BDB6C274A43F00403D364254B0F
:101A5000DB6C03F00403BB60BB68224BDB6C214AE8
:101A600043F08003D3641F4BDB6C03F080037B6087
:101A70007B681C4BDB6C1B4A43F00203D364194B9D
:101A8000DB6C03F002033B603B6800224FF4004133
:101A90001548FEF78BFE0022C0211448FEF786FE93
:101AA0004FF40043FB6001233B6100237B61002373
:101AB000BB6107F10C0319460B48FEF7FDFCC02380
:101AC000FB6001233B6100237B610023BB6107F1C5
:101AD0000C0319460548FEF7EFFC00BF2037BD4652
:101AE00080BD00BF0010024000040048000800480C
:101AF00080B500AFFFF79AFF00224FF400410A487B
:101B0000FEF754FE002280210848FEF74FFE6420B5
:101B1000FEF7CCFB012280210448FEF747FE00F0CF
:101B20002BFC00BF80BD00BF000400480008004837
:101B300080B582B000AF78600B467B807B88194609
:101B4000786800F0B9FC00BF0837BD4680BD0000D2
:101B500080B582B000AF0346FB71002240210648E9
:101B6000FEF724FEFB1D0121184600F0A5FC00BF76
:101B70000837BD4680BD00BF0008004880B582B070
:101B800000AF0346FB71012240210648FEF70EFE1E
:101B9000FB1D0121184600F08FFC00BF0837BD4631
:101BA00080BD00BF0008004880B584B000AF034688
:101BB000FB800023BB81FB881B0A9BB2DBB23B731B
:101BC000FB88DBB27B73012240210648FEF7EEFD65
:101BD00007F10C0302211846FFF7AAFF00BF1037D8
:101BE000BD4680BD0008004890B583B000AF0446F4
:101BF000084611461A462346FB800346BB800B4627
:101C00007B8013463B802A20FFF7A2FFFB881B0A3C
:101C10009BB2DBB21846FFF7B1FFFB88DBB2184678
:101C2000FFF7ACFF7B881B0A9BB2DBB21846FFF7BD
:101C3000A5FF7B88DBB21846FFF7A0FF2B20FFF73C
:101C400087FFBB881B0A9BB2DBB21846FFF796FFE3
:101C5000BB88DBB21846FFF791FF3B881B0A9BB29B
:101C6000DBB21846FFF78AFF3B88DBB21846FFF766
:101C700085FF2C20FFF76CFF00BF0C37BD4690BDE1
:101C800080B584B000AF0346FB8000233B81FB8816
:101C90001B0A9BB2DBB23B72FB88DBB27B72002378
:101CA000BB810DE0BB895B00397A164AD154BB89F0
:101CB0005B000133797A134AD154BB890133BB816C
:101CC000BB89B3F5107FEDD3EF23EF220021002075
:101CD000FFF78AFF012240210B48FEF767FD002332
:101CE000FB8107E04FF49061064800F0E5FBFB89BB
:101CF0000133FB81FB89632BF4D900BF00BF103790
:101D0000BD4680BD300000200008004880B500AF0F
:101D1000FFF7EEFE7820FEF7C9FA1120FFF718FF53
:101D20007820FEF7C3FA3620FFF712FF0020FFF7F6
:101D300025FF3A20FFF70CFF6520FFF71FFFB220B9
:101D4000FFF706FF0C20FFF719FF0C20FFF716FF27
:101D50000020FFF713FF3320FFF710FF3320FFF7BA
:101D60000DFFB720FFF7F4FE7220FFF707FFBB203F
:101D7000FFF7EEFE3D20FFF701FFC020FFF7E8FE72
:101D80002C20FFF7FBFEC220FFF7E2FE0120FFF749
:101D9000F5FEC320FFF7DCFE1920FFF7EFFEC4209D
:101DA000FFF7D6FE2020FFF7E9FEC620FFF7D0FEA2
:101DB0000F20FFF7E3FED020FFF7CAFEA420FFF7B5
:101DC000DDFEA120FFF7DAFEE020FFF7C1FED02004
:101DD000FFF7D4FE0420FFF7D1FE0D20FFF7CEFE63
:101DE0001120FFF7CBFE1320FFF7C8FE2B20FFF7D3
:101DF000C5FE3F20FFF7C2FE5420FFF7BFFE4C2078
:101E0000FFF7BCFE1820FFF7B9FE0D20FFF7B6FE66
:101E10000B20FFF7B3FE1F20FFF7B0FE2320FFF7D4
:101E2000ADFEE120FFF794FED020FFF7A7FE0420CF
:101E3000FFF7A4FE0C20FFF7A1FE1120FFF79EFE86
:101E40001320FFF79BFE2C20FFF798FE3F20FFF7A3
:101E500095FE4420FFF792FE5120FFF78FFE2F20C2
:101E6000FFF78CFE1F20FFF789FE1F20FFF786FE7D
:101E70002020FFF783FE2320FFF780FE2120FFF7BD
:101E800067FE2920FFF764FE4FF6FF70FFF7F8FEAC
:101E900001224FF400410248FEF788FC00BF80BDDC
:101EA0000004004890B587B000AF044608461146CC
:101EB0001A462346FB800346BB800B46FB70134645
:101EC0003B8000237B6100233B610023FB730023E5
:101ED0007B730023BB73FA8897F82C305B08DBB266
:101EE000C3F1F0039A4200F30D81BA8897F82C30C1
:101EF000C3F1F0039A4200F3058197F82C305B0898
:101F0000DBB29AB2FB8813449BB2013B9CB297F8B8
:101F10002C309AB2BB8813449BB2013B9BB2B98868
:101F2000F8882246FFF760FEFB78203BFB7097F8AD
:101F30002C30102B03D097F82C30202B55D197F84C
:101F40002C30DB08DBB21A4697F82C3003F007037D
:101F5000DBB2002B14BF01230023DBB21344DAB23F
:101F600097F82C305B08DBB212FB03F37B73002382
:101F70007B6135E097F82C30102B08D1FB78654A4F
:101F80001B011A447B6913441B78FB730CE097F820
:101F90002C30202B40F0B880FB785F4ADB011A44DC
:101FA0007B6913441B78FB7300233B6112E097F9B4
:101FB0000F30002B04DA3B8D1846FFF7F5FD03E0E8
:101FC0003B881846FFF7F0FDFB7B5B00FB733B692A
:101FD00001333B613B69072BE9DD7B6901337B61A1
:101FE0007B7B7A699A42C5DB91E097F82C300C2B09
:101FF00046D197F82C30DB08DBB21A4697F82C3024
:1020000003F00703DBB2002B14BF01230023DBB274
:102010001344DAB297F82C305B08DBB212FB03F3FF
:102020007B7300237B6126E0FA783C4913465B0012
:1020300013449B00CA187B6913441B78FB7300236D
:102040003B6112E097F90F30002B04DA3B8D184604
:10205000FFF7AAFD03E03B881846FFF7A5FDFB7BD1
:102060005B00FB733B6901333B613B69052BE9DD99
:102070007B6901337B617B7B7A699A42D4DB46E0E2
:1020800097F82C30182B41D197F82C305B007B73DC
:1020900000237B6131E0FA78214913465B00134449
:1020A0001B01CA187B6913441B78FB737B6903F01F
:1020B0000103002B02D10823BB7301E00423BB738F
:1020C00000233B6112E097F90F30002B04DA3B8DBF
:1020D0001846FFF769FD03E03B881846FFF764FDEB
:1020E000FB7B5B00FB733B6901333B61BB7B3A6964
:1020F0009A42E8DB7B6901337B617B7B7A699A4298
:10210000C9DB04E000BF02E000BF00E000BF1C37F5
:10211000BD4690BD142B0008D4420008A02600083C
:102120000431000890B587B002AF7B600346FB81A5
:102130000B46BB811346FB72FB89DAB2FB7A134470
:10214000FB721CE0FB7A9BB2FA899A4220D27B6830
:102150001A783C8CB989F88997F828300193BB8CA0
:1021600000932346FFF79EFE97F828305B08DBB20A
:102170009AB2FB891344FB817B6801337B607B68E7
:102180001B787E2B05D87B681B781F2BDAD800E0E4
:1021900000BF00BF1437BD4690BD000090B587B0AA
:1021A00000AF0446084611461A462346FB80034604
:1021B000BB800B467B8013463B807B883A8802FBC2
:1021C00003F35B00FB60FB687B610023FB74FA8810
:1021D0007B881344F02B48DCBA883B881344F02BEF
:1021E00043DCFA887B8813449BB2013B9CB2BA88DB
:1021F0003B8813449BB2013B9BB2B988F8882246C6
:10220000FFF7F2FC012240211A48FEF7CFFA002323
:10221000FB7424E07B69B3F5803F0FD34FF6FF7169
:10222000B86AFFF785FCBB6A03F57F43FF33BB62E7
:102230007B69A3F57F43FF3B7B610DE079690E4B22
:10224000A3FB0123DA0B13461B049B1ACA1A93B291
:102250001946B86AFFF76CFCFB7C0133FB74FA7C0F
:10226000FB681B0C9A42D5D900E000BF1C37BD4665
:1022700090BD00BF000800480180008080B584B098
:1022800004AFFDF7A5FF00F021F8FFF7CFFB00F04A
:1022900073F8FFF73BFD0B4B0093F023F022002176
:1022A0000020FFF77BFF182302931F2301934FF6B3
:1022B000FF730093044B8C22D8215020FFF732FF8C
:1022C000FEE700BF547200089826000880B596B05B
:1022D00000AF07F1140344220021184600F0C6F9AC
:1022E0003B4600221A605A609A60DA601A61012344
:1022F0007B614FF48033BB610223FB6303233B64A8
:1023000001237B641423BB640723FB6402233B6526
:1023100002237B6507F114031846FEF7BFFA034654
:10232000002B01D000F021F80F233B6003237B60DA
:102330000023BB600023FB6000233B613B4604217C
:102340001846FEF799FE0346002B01D000F00DF869
:102350004FF40070FEF74EFA0346002B01D000F058
:1023600004F800BF5837BD4680BD80B400AF00BF41
:10237000BD4680BC7047000080B500AF1B4B1C4AB7
:102380001A601A4B4FF482725A60184B00229A60FE
:10239000164B4FF4E062DA60144B02221A61134BC1
:1023A00001225A61114B4FF400729A610F4B0022C7
:1023B000DA610E4B00221A620C4B00225A620B4B60
:1023C00000229A62094B0722DA62084B00221A6344
:1023D000064B00225A630548FFF71AF80346002B04
:1023E00001D0FFF7C2FF00BF80BD00BFB0040020D6
:1023F0000038004080B58AB000AF786007F1140360
:1024000000221A605A609A60DA601A617B681B6861
:10241000254A934244D1254B9B6D244A43F4804383
:102420009365224B9B6D03F480433B613B691F4BDB
:10243000DB6C1E4A43F00403D3641C4BDB6C03F0DB
:102440000403FB60FB68194BDB6C184A43F0020382
:10245000D364164BDB6C03F00203BB60BB6808233C
:102460007B610223BB610023FB6103233B620523E5
:102470007B6207F1140319460D48FEF71DF84FF46F
:1024800000537B610223BB610023FB6103233B629A
:1024900005237B6207F1140319460648FEF70CF882
:1024A00000BF2837BD4680BD003800400010024004
:1024B000000800480004004880B582B000AF786092
:1024C0000B467B807A884FF47A7379680348FFF76C
:1024D00029F8034618460837BD4680BDB0040020E1
:1024E00080B483B000AF0E4B1B6E0D4A43F0010366
:1024F00013660B4B1B6E03F001037B607B68084B7C
:102500009B6D074A43F080539365054B9B6D03F029
:1025100080533B603B6800BF0C37BD4680BC7047B2
:102520000010024080B400AF00BFBD4680BC7047C1
:1025300080B400AFFEE780B400AFFEE780B400AF28
:10254000FEE780B400AFFEE780B400AF00BFBD4639
:1025500080BC704780B400AF00BFBD4680BC7047F0
:1025600080B400AF00BFBD4680BC704780B500AFEF
:10257000FDF780FE00BF80BD80B400AF124B1B682A
:10258000114A43F0010313600F4B00229A600E4B77
:102590001B680D4A23F0A85323F4102313600A4B41
:1025A0004FF48052DA60084B1B68074A23F48023FB
:1025B0001360054B00229A61044B4FF000629A6051
:1025C00000BFBD4680BC70470010024000ED00E037
:1025D000DFF834D0002103E00C4B5B58435004314A
:1025E0000B480C4B42189A42F6D30B4A02E00023E8
:1025F00042F8043B094B9A42F9D3FFF7BDFF00F0C4
:1026000011F8FFF73BFEFEE700000120A8340208A6
:102610000000002010000020100000201405002001
:10262000FEE7000070B50D4D0D4C641BA410002694
:10263000A64209D10B4D0C4C00F020F8641BA410ED
:102640000026A64205D170BD55F8043B98470136D7
:10265000EEE755F8043B98470136F2E79834020854
:1026600098340208983402089C3402080244034655
:10267000934200D1704703F8011BF9E7F8B500BF9A
:10268000F8BC08BC9E467047F8B500BFF8BC08BC53
:082690009E46704700000000A7
:10269800416C6578205775000000000000000000BC
:1026A8000000000000002020202020000020000062
:1026B80028285000000000000000000000005050D2
:1026C800F85050F850500000002070A8A060302842
:1026D800A8702000000048A8B0A87434544800002E
:1026E80000002050506CA8A894680000404080006A
:1026F800000000000000000008101020202020200A
:102708001010080040202010101010102020400049
:1027180000000020A87070A8200000000000001031
:10272800107C1010000000000000000000000000F5
:10273800404080000000000000FC00000000000095
:10274800000000000000000000400000000408082D
:1027580010102020404080000000708888888888F9
:1027680088700000000020602020202020700000D9
:10277800000070888810204080F8000000007088F1
:10278800083008088870000000001030305090F8B9
:10279800103800000000F88080F088088870000079
:1027A8000000304880B0C8888870000000007808B1
:1027B8001010202020200000000070888870888871
:1027C8008870000000007088889868089060000091
:1027D80000000000200000000020000000000000B1
:1027E80000200000002020000000081020404020A9
:1027F8001008000000000000FC00FC0000000000C1
:1028080000004020100808102040000000007088D8
:1028180088102020002000000000384494B4B4B888
:1028280044380000000020203050507848CC000088
:102838000000F0484870484848F0000000007888D8
:1028480080808080887000000000F0484848484830
:1028580048F000000000F8485070504048F8000068
:102868000000F8485070504040E000000000384830
:1028780080809C88483000000000CC484878484850
:1028880048CC00000000F8202020202020F800007C
:1028980000007C1010101010101090E00000EC48A0
:1028A8005060504848EC00000000E0404040404084
:1028B80044FC00000000DCD8D8D8A8A8A8AC0000C8
:1028C8000000DC486868585848E800000000708834
:1028D80088888888887000000000F0484870404068
:1028E80040E0000000007088888888E89870180028
:1028F8000000F0484870504848EC00000000788814
:102908008060100888F000000000F8A8202020202F
:10291800207000000000CC48484848484830000073
:102928000000CC4848505030202000000000A8A8E3
:10293800A8A87050505000000000D85050202050D7
:1029480050D800000000D8505050202020700000BF
:102958000000F8901020204048F80000382020207F
:102968002020202020203800004040202020101067
:1029780010080800701010101010101010107000BF
:1029880020500000000000000000000000000000CF
:1029980000000000000000FC4020000000000000D3
:1029A800000000000000000000304838483C0000EB
:1029B80000C04040407048484870000000000000D7
:1029C80000384840483000000018080808384848CF
:1029D800483C000000000000003048784038000003
:1029E8000018242020782020207800000000000013
:1029F800003C48304038443800C0404040704848A7
:102A080048EC00000020200000602020207000001A
:102A18000010100000301010101010E000C04040EE
:102A28004058506050C8000000E02020202020209E
:102A380020F800000000000000F0A8A8A8A80000E6
:102A48000000000000F0484848EC000000000000CA
:102A580000304848483000000000000000F04848B6
:102A6800487040E000000000003848484838081C1A
:102A78000000000000D8604040E0000000000000B6
:102A880000784030087800000000002020782020DE
:102A9800203800000000000000D84848483C0000EA
:102AA8000000000000D85050202000000000000066
:102AB80000A8A870505000000000000000D8502066
:102AC80050D800000000000000CC4848301020C05A
:102AD8000000000000781020207800001810101066
:102AE80010301010101018001010101010101010C6
:102AF80010101010602020202010202020206000BE
:102B080068900000000000000000000000000000C5
:102B1800000000000000000000000000000000109D
:102B280010101010101000001010000000122424C3
:102B38004800000000000000000000000000001233
:102B480012127E2424247E24242400000000083C41
:102B58004A4A48380C0A0A4A4A3C08080000004415
:102B6800A4A8A8B0541A2A2A4A4400000000003039
:102B7800484848506EA49498897600000060202048
:102B880040000000000000000000000000020408EF
:102B9800081010101010100808040200004020103F
:102BA800100808080808081010204000000000005D
:102BB8001010D63838D610100000000000000000B1
:102BC800000808087F08080800000000000000004E
:102BD800000000000000000060202040000000000D
:102BE800000000007E00000000000000000000005F
:102BF8000000000000000000606000000000020407
:102C0800040408081010102020404000000000189C
:102C18002442424242424242241800000000000876
:102C28003808080808080808083E00000000003CAA
:102C38004242420204081020427E00000000003C8C
:102C48004242020418040242423C00000000000410
:102C58000C0C142424447F04041F00000000007E90
:102C68004040407844020242443800000000001806
:102C78002440405C62424242221C00000000007E68
:102C88004204040808101010101000000000003C56
:102C98004242422418244242423C000000000038CC
:102CA80044424242463A0202241800000000000052
:102CB80000001818000000001818000000000000AC
:102CC80000000010000000000010101000000002BA
:102CD8000408102040201008040200000000000032
:102CE80000007E00007E00000000000000000040A0
:102CF8002010080402040810204000000000003CD6
:102D08004242620408080800181800000000003851
:102D1800445AAAAAAAAAAA5C423C000000000010D1
:102D280010182828243C444242E70000000000F81C
:102D3800444444784442424244F800000000003EC3
:102D4800424280808080804244380000000000F8C1
:102D5800444242424242424244F80000000000FC21
:102D6800424848784848404242FC0000000000FCC5
:102D7800424848784848404040E000000000003C95
:102D880044448080808E844444380000000000E77A
:102D9800424242427E42424242E700000000007C3A
:102DA8001010101010101010107C00000000003ED1
:102DB8000808080808080808080888F0000000EE55
:102DC800444850705048484444EE0000000000E079
:102DD800404040404040404042FE0000000000EEBD
:102DE8006C6C6C6C6C54545454D60000000000C7D2
:102DF800626252524A4A4A4646E2000000000038DF
:102E0800448282828282828244380000000000FC70
:102E1800424242427C40404040E00000000000380E
:102E280044828282828282B24C380600000000FC12
:102E38004242427C4848444442E300000000003ECD
:102E48004242402018040242427C0000000000FE7A
:102E5800921010101010101010380000000000E739
:102E68004242424242424242423C0000000000E7E5
:102E7800424244242428281810100000000000D6DC
:102E880054545454546C282828280000000000E7A3
:102E9800422424181818242442E70000000000EEF9
:102EA8004444282810101010103800000000007E3C
:102EB800840408081020204242FC0000001E101064
:102EC800101010101010101010101E0000004020DC
:102ED80020201010100808040404020200780808D2
:102EE80008080808080808080808780000182400D6
:102EF80000000000000000000000000000000000CA
:102F08000000000000000000000000FF006010004A
:102F180000000000000000000000000000000000A9
:102F280000000038440C34444C3600000000000017
:102F3800C04040586442424264580000000000000B
:102F48000000001C22404040221C0000000000003D
:102F58000602023E42424242463B00000000000098
:102F68000000003C42427E40423C0000000000005D
:102F78000C12107C10101010107C000000000000D3
:102F88000000003E444438403C42423C00000000FF
:102F9800C040405C6242424242E70000000000300C
:102FA8003000007010101010107C00000000000CA1
:102FB8000C00001C0404040404044478000000000D
:102FC800C040404E4850704844EE000000000010D9
:102FD8007010101010101010107C0000000000007D
:102FE800000000FE4949494949ED00000000000081
:102FF800000000DC6242424242E70000000000009C
:103008000000003C42424242423C000000000000F6
:10301800000000D864424242645840E000000000CA
:103028000000001A26424242261A02070000000049
:10303800000000EE3220202020F8000000000000F0
:103048000000003E42403C02427C000000000000BC
:103058000010107C10101010120C0000000000006E
:10306800000000C642424242463B00000000000009
:10307800000000EE44442828101000000000000062
:10308800000000DB894A5A54242400000000000094
:103098000000007624181818246E000000000000B4
:1030A800000000E7422424181810106000000000F7
:1030B8000000007E44081010227E00000003040473
:1030C80004040404080404040404030008080808A9
:1030D80008080808080808080808080800C0202088
:1030E80020202020102020202020C000205A04006A
:1030F80000000000000000000000000000000000C8
:1031080000000000000000000000000000000000B7
:1031180000000000000000000000000000000000A7
:103128000000000000000000000000000000000097
:103138000000000006000600060006000600060063
:103148000600020004000400040000000000000063
:103158000600060006000000000000000000000055
:10316800066006600CC019801100220000000000F3
:103178000000000000000000000000000000000047
:103188000000000000000000000000000000000037
:103198000000000008400840084008407FE07FE049
:1031A800104010801080108010807FE07FE0208029
:1031B8002080208020800000000000000000000027
:1031C8000000020002000F801AC032C033C0320073
:1031D8001A000E0007000380038002C032C03AC004
:1031E80032C012800F000200020000000000000040
:1031F80000000000708050808900890089008A00E2
:103208008A005C0075C005400A200A20122012209E
:103218001220214021C00000000000000000000032
:10322800000000001C00360036003600360036006C
:10323800340019E038805880CC80CC80C680C70024
:10324800C31063903CE00000000000000000000094
:1032580030003800080008001000200000000000BE
:103268000000000000000000000000000000000056
:103278000000000000000000000000000000000046
:10328800002000400080010001000200020004004C
:10329800040004000400040004000400020002000A
:1032A8000100010000800040002000000000000034
:1032B800400020001000080008000400040002007C
:1032C80002000200020002000200020004000400E2
:1032D8000800080010002000400000000000000066
:1032E800000000000000000002000300020062303D
:1032F80072F00B800F807AF0623002000200020048
:1033080000000000000000000000000000000000B5
:10331800000000000000000000000200020002009F
:10332800020002007FF00200020002000200020018
:103338000000000000000000000000000000000085
:103348000000000000000000000000000000000075
:103358000000000000000000000000000000000065
:1033680030003800080008001000200000000000AD
:103378000000000000000000000000000000000045
:10338800000000007FE000000000000000000000D6
:103398000000000000000000000000000000000025
:1033A8000000000000000000000000000000000015
:1033B8000000000000000000000000000000000005
:1033C800380038003800000000000000000000004D
:1033D80000200060004000C0008000800100010063
:1033E80002000200060004000400080008001000A3
:1033F80010003000200060004000000000000000C5
:103408000000000000000F00198030C030C060606C
:10341800606060606060606060606060606030C074
:1034280030C019800F0000000000000000000000FC
:1034380000000000000002003E0006000600060032
:103448000600060006000600060006000600060044
:10345800060006003FC00000000000000000000059
:103468000000000000001F00218040C060C060C054
:1034780000C000800180030006000400080010401E
:10348800204060407FC000000000000000000000F5
:103498000000000000001E00630061806180018060
:1034A800018003000E000180008000C000C060C0E1
:1034B80060C061801F0000000000000000000000E4
:1034C8000000000000000180018003800580058065
:1034D800098011801180218041807FF00180018066
:1034E8000180018007E000000000000000000000EB
:1034F8000000000000003FC0200020002000200045
:1035080020002F00318020C000C000C060C060C013
:10351800418021801F000000000000000000000022
:10352800000000000000078018C030C030002000F4
:103538006000678068C07060606060606060206084
:10354800304018C00F00000000000000000000001C
:103558000000000000001FE0306020402080008054
:1035680000800100010002000200020006000600BF
:103578000600060006000000000000000000000031
:103588000000000000001F8030C060606060606064
:10359800304038C00F00138030C0606060606060E9
:1035A800606030C00F8000000000000000000000D4
:1035B8000000000000000F00308030C060406060F4
:1035C8006060606060E031601E60006000C000C044
:1035D800308031801E000000000000000000000064
:1035E80000000000000000000000000000000000D3
:1035F80007000700070000000000000000000000AE
:10360800070007000700000000000000000000009D
:1036180000000000000000000000000000000000A2
:103628000600060000000000000000000000000086
:10363800000006000600020004000400000000006C
:10364800000000000020004000800100020004008B
:10365800080010002000100008000400020001000B
:103668000080004000200000000000000000000072
:103678000000000000000000000000000000000042
:103688007FE00000000000007FE000000000000074
:103698000000000000000000000000000000000022
:1036A80000000000200010000800040002000100D3
:1036B800008000400020004000800100020004005B
:1036C80008001000200000000000000000000000BA
:1036D80000000000000007C01860203020303030A3
:1036E800303000E00180020002000200000000000B
:1036F80007000700070000000000000000000000AD
:1037080000000000070018C0304033A026A066A0C3
:1037180065A06D206D206D206D206D4027803020C4
:10372800304018C00F00000000000000000000003A
:10373800000000000000060006000A000B00090057
:1037480009001100118010801F8020C020C0204077
:1037580040404060F0F00000000000000000000061
:103768000000000000007F0031C030C030C030C011
:1037780030C031803F0030C0304030603060306051
:10378800306030C07F8000000000000000000000B2
:1037980000000000000007C018C030603020202062
:1037A8006000600060006000600060006020302001
:1037B800304018C00F0000000000000000000000AA
:1037C800000000000000FE00318030C030C03060D2
:1037D800306030603060306030603060306030C001
:1037E80030C03180FE000000000000000000000032
:1037F800000000000000FFC060C060206020600082
:10380800610061007F00610061006100600060206C
:1038180060206040FFC000000000000000000000C1
:10382800000000000000FFC060C060206020600051
:10383800610061007F00610061006100600060005C
:1038480060006000F80000000000000000000000B8
:103858000000000000000F00188030403040204079
:10386800600060006000600063F060C060C030C04D
:1038780030C018C00F000000000000000000000069
:10388800000000000000F0F0606060606060606050
:10389800606060607FE06060606060606060606081
:1038A80060606060F0F000000000000000000000B0
:1038B8000000000000003FC00600060006000600E9
:1038C80006000600060006000600060006000600C0
:1038D800060006003FC000000000000000000000D5
:1038E8000000000000001FE00300030003000300C5
:1038F80003000300030003000300030003000300A8
:10390800030003000300630066003C0000000000A1
:10391800000000000000F3C06180630062006400E2
:1039280068006C00740076006200630061006180CA
:10393800608060C0F1E000000000000000000000AE
:10394800000000000000F8006000600060006000F7
:10395800600060006000600060006000600060203F
:1039680060206040FFC00000000000000000000070
:10397800000000000000E0E061C061C071C071C0DB
:1039880072C072C052C05AC05AC05CC04CC04CC051
:103998004CC048C0E1E0000000000000000000004A
:1039A80000000000000071F03040384038402C40E2
:1039B8002C402640264022402340214021C021C0DF
:1039C80020C020C0F84000000000000000000000F7
:1039D8000000000000000F00198030C03040606017
:1039E800606060606060606060606060606030401F
:1039F80030C019800F000000000000000000000027
:103A0800000000000000FF0060C06060606060604F
:103A18006060606061C07F006000600060006000FE
:103A280060006000F80000000000000000000000D6
:103A38000000000000000F00198030C030406060B6
:103A48006060606060606060606060606E603240AE
:103A580033C019800F0001E000C000000000000022
:103A6800000000000000FF8060C06060606060606F
:103A7800606060C07F00620063006100618060C0B8
:103A880060C06060F07000000000000000000000EE
:103A98000000000000001F4030C06040604060002F
:103AA80070003C001F0007C001C000E0406040609B
:103AB800606030C00F8000000000000000000000BF
:103AC8000000000000007FE04620861086100600F7
:103AD80006000600060006000600060006000600AE
:103AE800060006001F800000000000000000000023
:103AF80000000000000078E03040304030403040A6
:103B0800304030403040304030403040304030402D
:103B1800304018800F000000000000000000000086
:103B2800000000000000F0E060402080208030802D
:103B3800308011001100190019000A000A000E0057
:103B48000C00040004000000000000000000000059
:103B5800000000000000EF70462042206220622032
:103B6800264026402740274039403980198019804F
:103B7800118011001100000000000000000000008A
:103B880000000000000079E03080108018800900F3
:103B98000D0006000400060006000B000900118055
:103BA800108020C071E0000000000000000000004C
:103BB800000000000000F0F060202040304010803D
:103BC80018801D000D000E00060006000600060005
:103BD800060006001F800000000000000000000032
:103BE8000000000000003FE0304060C040800180DD
:103BF8000100020002000400040008001800102060
:103C0800302020407FC000000000000000000000BD
:103C180007C00400040004000400040004000400B9
:103C2800040004000400040004000400040004006C
:103C3800040004000400040007C0000000000000A5
:103C480000000000200020001000100008000800FC
:103C58000800040004000200020003000100010043
:103C6800008000800040004000400020000000006C
:103C78003E000200020002000200020002000200F0
:103C8800020002000200020002000200020002001C
:103C980002000200020002003E00000000000600D0
:103CA8000900108000000000000000000000000073
:103CB80000000000000000000000000000000000FC
:103CC80000000000000000000000000000000000EC
:103CD80000000000000000000000000000000000DC
:103CE80000000000000000000000000000000000CC
:103CF80000000000000000000000FFF000000000CD
:103D0800180006000000000000000000000000008D
:103D1800000000000000000000000000000000009B
:103D2800000000000000000000000000000000008B
:103D3800000000000000000000000000000000007B
:103D48000F8030C030C000C007C038C070C060C02D
:103D580060C071D03E70000000000000000000004C
:103D6800000000001000700030003000300030000B
:103D780033803CC038603060306030603060306024
:103D8800304038C02780000000000000000000001C
:103D9800000000000000000000000000000000001B
:103DA8000F003180318061806000600060006040F9
:103DB800304030800F0000000000000000000000CC
:103DC80000000000004003C000C000C000C000C0E8
:103DD8001EC031C030C060C060C060C060C060C07C
:103DE80020C031E01E80000000000000000000003C
:103DF80000000000000000000000000000000000BB
:103E0800078018C01040306030603FE0300030005C
:103E18001820184007800000000000000000000083
:103E280000000000000003C006600C600C000C00DD
:103E38007F800C000C000C000C000C000C000C0027
:103E48000C000C003F800000000000000000000093
:103E5800000000000000000000000000000000005A
:103E68000FE01B6031803180318019801F003000E5
:103E78003F0033C060C060C071C01F000000000078
:103E880000000000100070003000300030003000EA
:103E9800378038C030C030C030C030C030C030C0CB
:103EA80030C030C079E000000000000000000000D1
:103EB80000000000000006000600000000000200EC
:103EC8003E00060006000600060006000600060082
:103ED800060006003FC000000000000000000000CF
:103EE8000000000000000380038000000000008044
:103EF8000F800180018001800180018001800180A4
:103F0800018001800180018033003E000000000034
:103F18000000000010007000300030003000300059
:103F280031C031003100320036003A0031003180B2
:103F3800308030C079E00000000000000000000080
:103F48000000000002003E00060006000600060011
:103F58000600060006000600060006000600060029
:103F6800060006003FC0000000000000000000003E
:103F78000000000000000000000000000000000039
:103F8800ECE07760666066606660666066606660E2
:103F980066606660FFF0000000000000000000009E
:103FA8000000000000000000000000000000000009
:103FB800778038C030C030C030C030C030C030C06A
:103FC80030C030C079E000000000000000000000B0
:103FD80000000000000000000000000000000000D9
:103FE8000F00198030C06060606060606060606071
:103FF80030C030C00F0000000000000000000000CA
:1040080000000000000000000000000000000000A8
:10401800778038C030603060306030603060306049
:1040280030C038C03780300030007C00000000000D
:104038000000000000000000000000000000000078
:104048001E4031C030C060C060C060C060C060C089
:1040580020C031C01EC000C000C003E00000000046
:104068000000000000000000000000000000000048
:10407800F9C01A601C601800180018001800180011
:1040880018001800FF0000000000000000000000F9
:104098000000000000000000000000000000000018
:1040A8000FC038C0304030401C000F0003C020C093
:1040B80020C031C03F800000000000000000000068
:1040C8000000000000000000040004000C000C00C8
:1040D8007F800C000C000C000C000C000C000C0085
:1040E8000C400C40078000000000000000000000A9
:1040F8000000000000000000000000000000104068
:1041080071C030C030C030C030C030C030C030C0E6
:1041180030C039E01E8000000000000000000000F0
:104128000000000000000000000000000000000087
:1041380078E0304010801080188009000D000D00D4
:104148000600060004000000000000000000000057
:104158000000000000000000000000000000000057
:10416800EF7046206220264026403740398019806B
:1041780019801980100000000000000000000000F5
:104188000000000000000000000000000000000027
:104198003DE0188008800D000600060007000900B1
:1041A800108010C079E0000000000000000000004E
:1041B80000000000000000000000000000000000F7
:1041C80079E0108010801080090009000D000600B9
:1041D8000600060004000400240038000000000067
:1041E80000000000000000000000000000000000C7
:1041F8003F80218023002200060004000C001840A4
:10420800104030C03F8000000000000000000000A7
:1042180000C00100010001000100010001000100CF
:104228000100020004000200010001000100010079
:10423800010001000100010000C0000002000200AE
:104248000200020002000200020002000200020056
:104258000200020002000200020002000200020046
:10426800020002000200020002000200000000003A
:1042780030000800080008000800080008000800CE
:1042880008000400020004000800080008000800F4
:10429800080008000800080030000000000038008E
:1042A8004420432001C0000000000000000000007E
:1042B80000000000000000000000000000000000F6
:1042C80000000000000000000000000000000000E6
:1042D80000000000000000000000000000000000D6
:1042E80000000000000000000000000000000000C6
:1042F80000000000000000000000000000000000B6
:1043080000000000000000000000000000000000A5
:104318000000000000000000000000000000000095
:104328000000000000000000000000000000000085
:104338000000000000000000000000000000000075
:104348000000000000000000000000000000000065
:10435800000000000000000003C003C003C003C049
:1043680003C003C001C00180018001800180018079
:10437800018001800180000000000000018003C06E
:1043880003C00180000000000000000000000000E1
:104398000000000000000000000000000000000015
:1043A8000000000000000000000000000000000005
:1043B80000000000000000000000000000000000F5
:1043C80000000000000000000000000000000000E5
:1043D8000318073807380E700C6018C031802100A8
:1043E80000000000000000000000000000000000C5
:1043F80000000000000000000000000000000000B5
:1044080000000000000000000000000000000000A4
:104418000000000000000000000000000000000094
:104428000000000000000000000000000000000084
:104438000000000000000000000000000000000074
:104448000000000000000000000000000000000064
:104458000000000000000000040804080408040824
:1044680004087FFE7FFE7FFE081008100810081061
:10447800081008107FFE7FFE7FFE183010201020E5
:1044880010201020000000000000000000000000C4
:104498000000000000000000000000000000000014
:1044A8000000000000000000000000000000000004
:1044B80000000000000000000000000000000000F4
:1044C80000000000000000000000000000000000E4
:1044D800000000000100010003C00D300918191880
:1044E800193819381D000D000F00070003C001E03E
:1044F80001F00130013801183918391831183130F4
:10450800196007C001000100010000000000000060
:104518000000000000000000000000000000000093
:104528000000000000000000000000000000000083
:104538000000000000000000000000000000000073
:104548000000000000000000000000000000000063
:10455800000000000000000038106C104420C62045
:10456800C640C640C640C680C68044806D38396C97
:10457800024402C602C604C604C608C608C60844E1
:10458800106C10380000000000000000000000005F
:104598000000000000000000000000000000000013
:1045A8000000000000000000000000000000000003
:1045B80000000000000000000000000000000000F3
:1045C80000000000000000000000000000000000E3
:1045D80000000000000000000F0019003180318049
:1045E80031803180310033003A001C00387C3C10A7
:1045F8004C10CE10C620C720C320C1C0C1C260E67F
:10460800317C1E380000000000000000000000009F
:104618000000000000000000000000000000000092
:104628000000000000000000000000000000000082
:104638000000000000000000000000000000000072
:104648000000000000000000000000000000000062
:1046580038003C003C000C000C00080030006000F2
:104668000000000000000000000000000000000042
:104678000000000000000000000000000000000032
:104688000000000000000000000000000000000022
:104698000000000000000000000000000000000012
:1046A8000000000000000000000000000000000002
:1046B80000000000000000000000000000000000F2
:1046C80000000000000000000000000000000000E2
:1046D80000020004000800180030002000600040BC
:1046E80000C000C00180018001800180018001803C
:1046F80001800180018000C000C0004000600020EF
:10470800003000180008000400020000000000004B
:104718000000000000000000000000000000000091
:104728000000000000000000000000000000000081
:104738000000000000000000000000000000000071
:104748000000000000000000000000000000000061
:1047580040002000100018000C00040006000200B1
:104768000300030001800180018001800180018035
:10477800018001800180030003000300060004009B
:104788000C0018001000200040000000000000008D
:104798000000000000000000000000000000000011
:1047A8000000000000000000000000000000000001
:1047B80000000000000000000000000000000000F1
:1047C80000000000000000000000000000000000E1
:1047D80000000000000000000000000000C001C050
:1047E80001C030C6388E1C9C06B001C001C006B09E
:1047F8001C9C388E318601C001C001C00000000039
:1048080000000000000000000000000000000000A0
:104818000000000000000000000000000000000090
:104828000000000000000000000000000000000080
:104838000000000000000000000000000000000070
:104848000000000000000000000000000000000060
:1048580000000000000000000000000000000080D0
:104868000080008000800080008000803FFE008083
:104878000080008000800080008000800000000030
:104888000000000000000000000000000000000020
:104898000000000000000000000000000000000010
:1048A8000000000000000000000000000000000000
:1048B80000000000000000000000000000000000F0
:1048C80000000000000000000000000000000000E0
:1048D80000000000000000000000000000000000D0
:1048E80000000000000000000000000000000000C0
:1048F80000000000000000000000000038003C003C
:104908003C000C000C0008003000600000000000B3
:10491800000000000000000000000000000000008F
:10492800000000000000000000000000000000007F
:10493800000000000000000000000000000000006F
:10494800000000000000000000000000000000005F
:10495800000000000000000000000000000000004F
:104968000000000000000000000000007FFE0000C2
:10497800000000000000000000000000000000002F
:10498800000000000000000000000000000000001F
:10499800000000000000000000000000000000000F
:1049A80000000000000000000000000000000000FF
:1049B80000000000000000000000000000000000EF
:1049C80000000000000000000000000000000000DF
:1049D80000000000000000000000000000000000CF
:1049E80000000000000000000000000000000000BF
:1049F80000000000000000000000000018003C005B
:104A08003C0018000000000000000000000000004A
:104A1800000000000000000000000000000000008E
:104A2800000000000000000000000000000000007E
:104A3800000000000000000000000000000000006E
:104A4800000000000000000000000000000000005E
:104A58000000000200060004000C00080018001006
:104A6800003000200060004000C00080018001008C
:104A780003000200060004000C00080018001000E3
:104A8800300020006000400000000000000000002E
:104A9800000000000000000000000000000000000E
:104AA80000000000000000000000000000000000FE
:104AB80000000000000000000000000000000000EE
:104AC80000000000000000000000000000000000DE
:104AD800000000000000000003C006200C30181879
:104AE80018181808300C300C300C300C300C300C06
:104AF800300C300C300C300C1808181818180C3002
:104B0800062003C0000000000000000000000000B4
:104B1800000000000000000000000000000000008D
:104B2800000000000000000000000000000000007D
:104B3800000000000000000000000000000000006D
:104B4800000000000000000000000000000000005D
:104B58000000000000000000008001801F8001802C
:104B68000180018001800180018001800180018035
:104B78000180018001800180018001800180018025
:104B880003C01FF800000000000000000000000043
:104B9800000000000000000000000000000000000D
:104BA80000000000000000000000000000000000FD
:104BB80000000000000000000000000000000000ED
:104BC80000000000000000000000000000000000DD
:104BD800000000000000000007E008381018200C52
:104BE800200C300C300C000C00180018003000604D
:104BF80000C0018003000200040408041004200C13
:104C08003FF83FF80000000000000000000000002E
:104C1800000000000000000000000000000000008C
:104C2800000000000000000000000000000000007C
:104C3800000000000000000000000000000000006C
:104C4800000000000000000000000000000000005C
:104C5800000000000000000007C018603030301865
:104C680030183018001800180030006003C00070B9
:104C780000180008000C000C300C300C30083018FC
:104C8800183007C00000000000000000000000000D
:104C9800000000000000000000000000000000000C
:104CA80000000000000000000000000000000000FC
:104CB80000000000000000000000000000000000EC
:104CC80000000000000000000000000000000000DC
:104CD80000000000000000000060006000E000E04C
:104CE8000160016002600460046008600860106090
:104CF8003060206040607FFC006000600060006001
:104D0800006003FC0000000000000000000000003C
:104D1800000000000000000000000000000000008B
:104D2800000000000000000000000000000000007B
:104D3800000000000000000000000000000000006B
:104D4800000000000000000000000000000000005B
:104D580000000000000000000FFC0FFC1000100015
:104D6800100010001000100013E01430181810087C
:104D7800000C000C000C000C300C300C2018201813
:104D8800183007C00000000000000000000000000C
:104D9800000000000000000000000000000000000B
:104DA80000000000000000000000000000000000FB
:104DB80000000000000000000000000000000000EB
:104DC80000000000000000000000000000000000DB
:104DD800000000000000000001E006180C18081888
:104DE800180010001000300033E03630381838084A
:104DF800300C300C300C300C300C180C18080C1817
:104E08000E3003E000000000000000000000000079
:104E1800000000000000000000000000000000008A
:104E2800000000000000000000000000000000007A
:104E3800000000000000000000000000000000006A
:104E4800000000000000000000000000000000005A
:104E580000000000000000001FFC1FFC10083010BC
:104E680020102020002000400040004000800080EA
:104E7800010001000100010003000300030003001A
:104E88000300030000000000000000000000000014
:104E9800000000000000000000000000000000000A
:104EA80000000000000000000000000000000000FA
:104EB80000000000000000000000000000000000EA
:104EC80000000000000000000000000000000000DA
:104ED800000000000000000007E00C301818300C3B
:104EE800300C300C380C38081E180F2007C018F08A
:104EF80030783038601C600C600C600C600C301826
:104F0800183007C00000000000000000000000008A
:104F18000000000000000000000000000000000089
:104F28000000000000000000000000000000000079
:104F38000000000000000000000000000000000069
:104F48000000000000000000000000000000000059
:104F5800000000000000000007C0182030103018C2
:104F68006008600C600C600C600C600C701C302CCD
:104F7800186C0F8C000C00180018001030303060CE
:104F880030C00F800000000000000000000000009A
:104F98000000000000000000000000000000000009
:104FA80000000000000000000000000000000000F9
:104FB80000000000000000000000000000000000E9
:104FC80000000000000000000000000000000000D9
:104FD80000000000000000000000000000000000C9
:104FE800000000000000018003C003C00180000031
:104FF800000000000000000000000000018003C065
:1050080003C0018000000000000000000000000054
:105018000000000000000000000000000000000088
:105028000000000000000000000000000000000078
:105038000000000000000000000000000000000068
:105048000000000000000000000000000000000058
:105058000000000000000000000000000000000048
:1050680000000000000000000380038003800000AF
:1050780000000000000000000000000000000380A5
:10508800038003800180030003000000000000008B
:105098000000000000000000000000000000000008
:1050A80000000000000000000000000000000000F8
:1050B80000000000000000000000000000000000E8
:1050C80000000000000000000000000000000000D8
:1050D800000000000000000000040008001000208C
:1050E80000400080010002000400080010001000C9
:1050F80008000400020001000080004000200010A9
:10510800000800040000000000000000000000008B
:105118000000000000000000000000000000000087
:105128000000000000000000000000000000000077
:105138000000000000000000000000000000000067
:105148000000000000000000000000000000000057
:105158000000000000000000000000000000000047
:105168000000000000007FFE0000000000000000BA
:1051780000007FFE000000000000000000000000AA
:105188000000000000000000000000000000000017
:105198000000000000000000000000000000000007
:1051A80000000000000000000000000000000000F7
:1051B80000000000000000000000000000000000E7
:1051C80000000000000000000000000000000000D7
:1051D800000000000000000020001000080004008B
:1051E80002000100008000400020001000080008B4
:1051F80000100020004000800100020004000800A8
:105208001000200000000000000000000000000066
:105218000000000000000000000000000000000086
:105228000000000000000000000000000000000076
:105238000000000000000000000000000000000066
:105248000000000000000000000000000000000056
:10525800000000000000000003E00C18180C100605
:105268003006380638063806000C0018007000C0F2
:10527800008000800080008000000000018003C0E2
:1052880003C00180000000000000000000000000D2
:105298000000000000000000000000000000000006
:1052A80000000000000000000000000000000000F6
:1052B80000000000000000000000000000000000E6
:1052C80000000000000000000000000000000000D6
:1052D800000000000000000003E006100C0818049D
:1052E80030D431B2213263326322662266226622CA
:1052F80066626664666426E8333030021004180C6F
:105308000C1803E00000000000000000000000008E
:105318000000000000000000000000000000000085
:105328000000000000000000000000000000000075
:105338000000000000000000000000000000000065
:105348000000000000000000000000000000000055
:105358000000000000000000038003800380038039
:1053680004C004C004C004C00C40086008600860A1
:1053780008201FF010301030103020182018201886
:10538800601CF83E00000000000000000000000063
:105398000000000000000000000000000000000005
:1053A80000000000000000000000000000000000F5
:1053B80000000000000000000000000000000000E5
:1053C80000000000000000000000000000000000D5
:1053D80000000000000000007FE018381818180CC2
:1053E800180C180C180C180C181818301FE018187E
:1053F800180C180418061806180618061806180CAB
:1054080018187FF0000000000000000000000000F5
:105418000000000000000000000000000000000084
:105428000000000000000000000000000000000074
:105438000000000000000000000000000000000064
:105448000000000000000000000000000000000054
:10545800000000000000000003E0061C080C18060D
:1054680030023002300060006000600060006000C0
:10547800600060006000600030023002100418080C
:105488000C1003E000000000000000000000000015
:105498000000000000000000000000000000000004
:1054A80000000000000000000000000000000000F4
:1054B80000000000000000000000000000000000E4
:1054C80000000000000000000000000000000000D4
:1054D80000000000000000007FC0187018181808AD
:1054E800180C180C180618061806180618061806B8
:1054F8001806180618061804180C180C1818181886
:1055080018607FC0000000000000000000000000DC
:105518000000000000000000000000000000000083
:105528000000000000000000000000000000000073
:105538000000000000000000000000000000000063
:105548000000000000000000000000000000000053
:1055580000000000000000007FFC180C180418026E
:105568001802180018001810181018301FF01830FA
:10557800181018101800180018001802180218043B
:10558800180C7FFC00000000000000000000000074
:105598000000000000000000000000000000000003
:1055A80000000000000000000000000000000000F3
:1055B80000000000000000000000000000000000E3
:1055C80000000000000000000000000000000000D3
:1055D80000000000000000007FFC181C18041802DE
:1055E8001802180018001810181018301FF018307A
:1055F80018101810181018001800180018001800B3
:1056080018007E00000000000000000000000000FC
:105618000000000000000000000000000000000082
:105628000000000000000000000000000000000072
:105638000000000000000000000000000000000062
:105648000000000000000000000000000000000052
:10565800000000000000000003C00C3008101818FB
:1056680030083008200060006000600060006000C2
:10567800607E601860182018301830181018181834
:105688000C2007C00000000000000000000000001F
:105698000000000000000000000000000000000002
:1056A80000000000000000000000000000000000F2
:1056B80000000000000000000000000000000000E2
:1056C80000000000000000000000000000000000D2
:1056D8000000000000000000FC3F300C300C300CD3
:1056E800300C300C300C300C300C300C3FFC300CD3
:1056F800300C300C300C300C300C300C300C300CC2
:10570800300CFC3F0000000000000000000000001A
:105718000000000000000000000000000000000081
:105728000000000000000000000000000000000071
:105738000000000000000000000000000000000061
:105748000000000000000000000000000000000051
:1057580000000000000000001FF8018001800180A7
:105768000180018001800180018001800180018029
:105778000180018001800180018001800180018019
:1057880001801FF800000000000000000000000079
:105798000000000000000000000000000000000001
:1057A80000000000000000000000000000000000F1
:1057B80000000000000000000000000000000000E1
:1057C80000000000000000000000000000000000D1
:1057D800000000000000000007FE0060006000609C
:1057E80000600060006000600060006000600060B1
:1057F80000600060006000600060006000600060A1
:1058080000600060706070C071803F0000000000A0
:105818000000000000000000000000000000000080
:105828000000000000000000000000000000000070
:105838000000000000000000000000000000000060
:105848000000000000000000000000000000000050
:1058580000000000000000007E7C1830182018604E
:10586800184018801880190019001B001D801D8021
:1058780018C018C018601860183018301830181878
:1058880018187E3E00000000000000000000000024
:105898000000000000000000000000000000000000
:1058A80000000000000000000000000000000000F0
:1058B80000000000000000000000000000000000E0
:1058C80000000000000000000000000000000000D0
:1058D80000000000000000007E00180018001800FA
:1058E80018001800180018001800180018001800F0
:1058F80018001800180018001800180218021804D8
:10590800180C7FFC000000000000000000000000F0
:10591800000000000000000000000000000000007F
:10592800000000000000000000000000000000006F
:10593800000000000000000000000000000000005F
:10594800000000000000000000000000000000004F
:105958000000000000000000F00F381C381C381C44
:10596800381C382C2C2C2C2C2C2C2C4C2C4C264C0D
:10597800264C264C268C228C238C238C230C230C1F
:10598800210CF13F000000000000000000000000B2
:1059980000000000000000000000000000000000FF
:1059A80000000000000000000000000000000000EF
:1059B80000000000000000000000000000000000DF
:1059C80000000000000000000000000000000000CF
:1059D8000000000000000000F01F380438042C0408
:1059E8002C0426042604230423042184218420C4AF
:1059F80020C42064206420342034201C201C200C67
:105A0800200CF80400000000000000000000000066
:105A1800000000000000000000000000000000007E
:105A2800000000000000000000000000000000006E
:105A3800000000000000000000000000000000005E
:105A4800000000000000000000000000000000004E
:105A5800000000000000000003C00C3018181008F7
:105A6800300C300C60046006600660066006600654
:105A78006006600660062006300C300C1008181806
:105A88000C3003C00000000000000000000000000F
:105A980000000000000000000000000000000000FE
:105AA80000000000000000000000000000000000EE
:105AB80000000000000000000000000000000000DE
:105AC80000000000000000000000000000000000CE
