:020000040800F2
:1000000000000120C9560008315400083F54000880
:10001000455400084B5400085154000800000000EB
:10002000000000000000000000000000D12F0008C8
:1000300057540008000000002132000889320008EF
:1000400019570008195700081957000819570008D0
:1000500019570008195700081957000819570008C0
:1000600019570008195700081957000819570008B0
:1000700019570008195700081957000819570008A0
:100080001957000819570008195700081957000890
:100090001957000819570008195700081957000880
:1000A0001957000865540008195700081957000827
:1000B0001957000800000000000000001957000850
:1000C0001957000819570008195700081957000850
:1000D0001957000819570008195700081957000840
:1000E0001957000819570008000000000000000020
:1000F0000000000000000000000000000000000000
:1001000000000000195700080000000019570008FF
:1001100000000000000000001957000819570008EF
:1001200019570008195700081957000819570008EF
:100130001957000800000000000000000000000047
:100140001957000819570008195700080000000047
:1001500019570008195700081957000819570008BF
:100160001957000819570008195700080000000027
:10017000195700081957000800000000000000008F
:100180001957000819570008195700080000000007
:1001900010B5054C237833B9044B13B10448AFF3C1
:1001A00000800123237010BD7800002000000000B3
:1001B0002861000808B5034B1BB103490348AFF39E
:1001C000008008BD000000007C00002028610008BD
:1001D00053B94AB9002908BF00281CBF4FF0FF31AE
:1001E0004FF0FF3000F06EB9ADF1080C6DE904CEB0
:1001F00000F006F8DDF804E0DDE9022304B0704702
:100200002DE9F047089D04468C46002B40F0838082
:100210008A42174647D9B2FA82F242B1C2F12000AF
:1002200024FA00F09140974040EA010C94404FEAD4
:100230001748230CBCFBF8F61FFA87FE08FB16C113
:1002400043EA014306FB0EF1994209D9FB1806F176
:10025000FF3080F01981994240F21681023E3B4402
:100260005B1AA4B2B3FBF8F008FB103344EA034472
:1002700000FB0EFEA64509D93C1900F1FF3380F0C2
:100280000581A64540F2028102383C4440EA06401E
:10029000A4EB0E0400261DB1D4400023C5E90043A1
:1002A0003146BDE8F08702B9FFDEB2FA82F2002AD9
:1002B00050D1CB1B4FEA174E1FFA87F80126B3FB2C
:1002C000FEFC210C0EFB1C3341EA034108FB0CF33E
:1002D0008B4207D979180CF1FF3002D28B4200F221
:1002E000E9808446C91AA3B2B1FBFEF00EFB1011DF
:1002F00043EA014408FB00F8A04507D93C1900F186
:10030000FF3302D2A04500F2D9801846A4EB0804BE
:1003100040EA0C40BFE78B4209D9002D00F0B180C4
:100320000026C5E9000130463146BDE8F087B3FA42
:1003300083F6002E4AD18B4202D3824200F2B8806B
:10034000841A61EB030101208C46002DA8D0C5E979
:10035000004CA5E7C2F1200320FA03F6974001FA0A
:1003600002F04FEA174ED9403043030CB1FBFEF6C2
:100370001FFA87F80EFB161143EA014306FB08F14A
:10038000994204FA02F409D9FB1806F1FF3C80F007
:100390008D80994240F28A80023E3B445B1A81B2D2
:1003A000B3FBFEF00EFB103341EA034100FB08F300
:1003B0008B4207D9791800F1FF3C73D28B4271D977
:1003C00002383944CB1A40EA064678E7C6F1200CD9
:1003D00003FA06F422FA0CF31C4320FA0CF701FA94
:1003E00006F34FEA144E21FA0CF11F433B0CB1FB0C
:1003F000FEF91FFA84F80EFB191143EA014109FBCB
:1004000008FA8A4502FA06F200FA06F308D96118DA
:1004100009F1FF3048D28A4546D9A9F102092144A1
:10042000A1EB0A01BFB2B1FBFEF00EFB101147EACF
:10043000014700FB08F8B84507D9E71900F1FF317B
:100440002ED2B8452CD90238274440EA0940A7EB00
:100450000807A0FB02894F45C64649461AD317D064
:100460005DB1B3EB0E0267EB010707FA0CFCF2403B
:100470004CEA0202F740C5E9002700263146BDE8F4
:10048000F0872E4628460BE70646E9E61846FDE6C5
:100490004345E5D2B8EB020E69EB04010138DFE712
:1004A0000846D2E760468DE78146B9E7664675E7BC
:1004B00030464AE7ACF1020C394413E702383C44B9
:1004C00024E700BF704700BF80B582B000AF0023B3
:1004D000FB71032000F0DBF8002004F053FF03461B
:1004E000002B02D00123FB7101E004F023FFFB7914
:1004F00018460837BD4680BD80B400AF054B1A686A
:10050000054B1B681344034A136000BFBD465DF8EA
:10051000047B7047940000200400002080B400AFEA
:10052000034B1B681846BD465DF8047B704700BF4F
:100530009400002080B485B000AF78607B6803F041
:100540000703FB600C4BDB68BB60BA684FF6FF0328
:100550001340BB60FB681A02BB68134343F0BF63E0
:1005600043F40033BB60044ABB68D36000BF143758
:10057000BD465DF8047B704700ED00E080B400AF3D
:10058000044BDB681B0A03F007031846BD465DF801
:10059000047B704700ED00E080B483B000AF0346F9
:1005A000FB7197F90730002B0BDBFB7903F01F027F
:1005B000074997F907305B09012000FA02F241F878
:1005C000232000BF0C37BD465DF8047B704700BF99
:1005D00000E100E080B483B000AF03463960FB71F6
:1005E00097F90730002B0ADB3B68DAB20C4997F920
:1005F00007301201D2B20B4483F800230AE03B68B3
:10060000DAB20849FB7903F00F03043B1201D2B2BE
:100610000B441A7600BF0C37BD465DF8047B70476B
:1006200000E100E000ED00E080B489B000AFF860C8
:10063000B9607A60FB6803F00703FB61FB69C3F1F3
:100640000703042B28BF0423BB61FB690433062B7B
:1006500002D9FB69033B00E000237B614FF0FF32CE
:10066000BB6902FA03F3DA43BB681A407B699A401C
:100670004FF0FF317B6901FA03F3D9437B680B40EC
:10068000134318462437BD465DF8047B704780B598
:1006900082B000AF78607868FFF74CFF00BF083782
:1006A000BD4680BD80B586B000AF0346B9607A60B4
:1006B000FB7300237B61FFF761FF78617A68B9689B
:1006C0007869FFF7B1FF024697F90F3011461846D7
:1006D000FFF780FF00BF1837BD4680BD80B582B0F0
:1006E00000AF0346FB7197F907301846FFF754FF38
:1006F00000BF0837BD4680BD80B487B000AF7860CA
:10070000396000237B6154E13B681A6801217B69F1
:1007100001FA03F31340FB60FB68002B00F04681F5
:100720003B685B68022B03D03B685B68122B23D1CC
:100730007B69DA087B68083253F822303B617B69B9
:1007400003F007039B000F2202FA03F3DB433A692D
:1007500013403B613B681A697B6903F007039B0008
:1007600002FA03F33A6913433B617B69DA087B6859
:100770000832396943F822107B681B683B617B694A
:100780005B00032202FA03F3DB433A6913403B6147
:100790003B685B6803F003027B695B0002FA03F3CA
:1007A0003A6913433B617B683A691A603B685B684E
:1007B000012B0BD03B685B68022B07D03B685B6862
:1007C000112B03D03B685B68122B30D17B689B6890
:1007D0003B617B695B00032202FA03F3DB433A6966
:1007E00013403B613B68DA687B695B0002FA03F304
:1007F0003A6913433B617B683A699A607B685B683E
:100800003B6101227B6902FA03F3DB433A6913403F
:100810003B613B685B681B0903F001027B6902FADC
:1008200003F33A6913433B617B683A695A607B681A
:10083000DB683B617B695B00032202FA03F3DB4365
:100840003A6913403B613B689A687B695B0002FA36
:1008500003F33A6913433B617B683A69DA603B68AA
:100860005B6803F08053002B00F0A080584B1B6E98
:10087000574A43F001031366554B1B6E03F0010307
:10088000BB60BB68534A7B699B08023352F8233034
:100890003B617B6903F003039B000F2202FA03F321
:1008A000DB433A6913403B617B68B3F1904F19D049
:1008B0007B68494A934213D07B68484A93420DD0E3
:1008C0007B68474A934207D07B68464A934201D1EE
:1008D000042308E0072306E0032304E0022302E0E8
:1008E000012300E000237A6902F0030292009340A2
:1008F0003A6913433B6137497B699B0802333A6984
:1009000041F82320384B1B683B61FB68DB433A69A5
:1009100013403B613B685B6803F48033002B03D0DA
:100920003A69FB6813433B612F4A3B6913602E4BC6
:100930005B683B61FB68DB433A6913403B613B68A2
:100940005B6803F40033002B03D03A69FB68134360
:100950003B61254A3B695360234B9B683B61FB68C5
:10096000DB433A6913403B613B685B6803F48013E7
:10097000002B03D03A69FB6813433B611A4A3B6979
:100980009360194BDB683B61FB68DB433A691340BA
:100990003B613B685B6803F40013002B03D03A69AA
:1009A000FB6813433B61104A3B69D3607B690133A9
:1009B0007B613B681A687B6922FA03F3002B7FF4A2
:1009C000A3AE00BF00BF1C37BD465DF8047B704777
:1009D00000100240000001400004004800080048E8
:1009E000000C0048001000480004014080B485B0AD
:1009F00000AF78600B467B807B681A697B88134068
:100A0000002B02D00123FB7301E00023FB73FB7B6F
:100A100018461437BD465DF8047B704780B483B038
:100A200000AF78600B467B8013467B707B78002B91
:100A300003D07A887B689A6102E07A887B689A6240
:100A400000BF0C37BD465DF8047B704780B483B0AF
:100A500000AF78600B467B807B685A697B881340C7
:100A6000002B03D07A887B689A6202E07A887B68E0
:100A70009A6100BF0C37BD465DF8047B70470000EB
:100A800080B400AF044B1B6803F4C0631846BD4636
:100A90005DF8047B704700BF0070004080B485B0F3
:100AA00000AF78607B68B3F5007F30D1234B1B68C3
:100AB00003F4C063B3F5007F38D0204B1B6823F4E8
:100AC000C0631E4A43F4007313601D4B1B6832223F
:100AD00002FB03F31B4AA2FB03239B0C0133FB60C5
:100AE00002E0FB68013BFB60144B5B6903F480632D
:100AF000B3F5806F02D1FB68002BF2D10F4B5B691D
:100B000003F48063B3F5806F10D103230FE00B4B28
:100B10001B6803F4C063B3F5806F07D0074B1B68F5
:100B200023F4C063054A43F480631360002318462E
:100B30001437BD465DF8047B704700BF007000406D
:100B40000C00002083DE1B4380B588B000AF7860C6
:100B50007B68002B01D10123DBE3A44B9B6803F0EE
:100B60000C03BB61A14BDB6803F003037B617B6873
:100B70001B6803F01003002B00F0E180BB69002B21
:100B800007D0BB690C2B40F088807B69012B40F0BB
:100B90008480964B1B6803F00203002B05D07B6812
:100BA0009B69002B01D10123B3E37B681A6A8F4B49
:100BB0001B6803F00803002B04D08C4B1B6803F068
:100BC000F00305E0894BD3F894301B0903F0F003E0
:100BD000934223D27B681B6A184600F07BFD0346D4
:100BE000002B01D0012394E3804B1B687F4A43F024
:100BF000080313607D4B1B6823F0F0027B681B6ABF
:100C00007A4913430B60794B5B6823F47F427B681E
:100C1000DB691B02754913434B6022E0734B1B6871
:100C2000724A43F008031360704B1B6823F0F00214
:100C30007B681B6A6D4913430B606C4B5B6823F444
:100C40007F427B68DB691B02684913434B607B680A
:100C50001B6A184600F03EFD0346002B01D001231D
:100C600057E300F041FC0246604B9B681B0903F010
:100C70000F035F49CB5C03F01F0322FA03F35D4AC5
:100C800013605D4B1B68184604F07CFB0346FB7346
:100C9000FB7B002B52D0FB7B3BE37B689B69002BEB
:100CA00032D0524B1B68514A43F001031360FFF7E7
:100CB00035FC386108E0FFF731FC02463B69D31A86
:100CC000022B01D9032324E3484B1B6803F00203E2
:100CD000002BF0D0454B1B68444A43F008031360D7
:100CE000424B1B6823F0F0027B681B6A3F491343A9
:100CF0000B603E4B5B6823F47F427B68DB691B0221
:100D00003A4913434B601AE0384B1B68374A23F0CB
:100D100001031360FFF702FC386108E0FFF7FEFBF8
:100D200002463B69D31A022B01D90323F1E22F4B70
:100D30001B6803F00203002BF0D100E000BF7B68CA
:100D40001B6803F00103002B74D0BB69082B05D08E
:100D5000BB690C2B0ED17B69032B0BD1234B1B687A
:100D600003F40033002B64D07B685B68002B60D1F8
:100D70000123CEE27B685B68B3F5803F06D11B4B55
:100D80001B681A4A43F4803313601DE07B685B687C
:100D9000B3F5A02F0CD1154B1B68144A43F48023E4
:100DA0001360124B1B68114A43F4803313600BE04D
:100DB0000E4B1B680D4A23F4803313600B4B1B68EA
:100DC0000A4A23F4802313607B685B68002B1CD0E5
:100DD000FFF7A4FB386111E0FFF7A0FB02463B6977
:100DE000D31A642B0AD9032393E200BF00100240F8
:100DF000306200080C00002000000020AE4B1B6891
:100E000003F40033002BE7D014E0FFF787FB3861D1
:100E100008E0FFF783FB02463B69D31A642B01D934
:100E2000032376E2A44B1B6803F40033002BF0D1BC
:100E300000E000BF7B681B6803F00203002B60D05A
:100E4000BB69042B05D0BB690C2B19D17B69022B24
:100E500016D1994B1B6803F48063002B05D07B6887
:100E6000DB68002B01D1012353E2934B5B6823F035
:100E7000F8527B681B691B068F4913434B6040E0A7
:100E80007B68DB68002B23D08B4B1B688A4A43F4BA
:100E900080731360FFF742FB386108E0FFF73EFB09
:100EA00002463B69D31A022B01D9032331E2824B5C
:100EB0001B6803F48063002BF0D07F4B5B6823F04A
:100EC000F8527B681B691B067B4913434B6018E093
:100ED000794B1B68784A23F480731360FFF71EFB7D
:100EE000386108E0FFF71AFB02463B69D31A022B70
:100EF00001D903230DE2704B1B6803F48063002BC0
:100F0000F0D17B681B6803F00803002B3CD07B68A2
:100F10005B69002B1CD0684BD3F89430664A43F0D1
:100F20000103C2F89430FFF7F9FA386108E0FFF7DF
:100F3000F5FA02463B69D31A022B01D90323E8E1F3
:100F40005D4BD3F8943003F00203002BEFD01BE08D
:100F5000594BD3F89430584A23F00103C2F8943027
:100F6000FFF7DCFA386108E0FFF7D8FA02463B6980
:100F7000D31A022B01D90323CBE14F4BD3F8943082
:100F800003F00203002BEFD17B681B6803F004031E
:100F9000002B00F0A5800023FB77474B9B6D03F0EF
:100FA0008053002B0DD1444B9B6D434A43F080533B
:100FB0009365414B9B6D03F08053BB60BB6801237D
:100FC000FB773E4B1B6803F48073002B18D13B4B1F
:100FD0001B683A4A43F480731360FFF79FFA386145
:100FE00008E0FFF79BFA02463B69D31A022B01D9AE
:100FF00003238EE1314B1B6803F48073002BF0D088
:101000007B689B68012B08D12B4BD3F890302A4A80
:1010100043F00103C2F8903024E07B689B68052B05
:1010200010D1254BD3F89030234A43F00403C2F883
:101030009030214BD3F890301F4A43F00103C2F89F
:1010400090300FE01C4BD3F890301B4A23F0010383
:10105000C2F89030184BD3F89030174A23F00403AD
:10106000C2F890307B689B68002B16D0FFF756FAC9
:1010700038610AE0FFF752FA02463B69D31A41F29F
:101080008832934201D9032343E10B4BD3F89030CC
:1010900003F00203002BEDD019E0FFF73FFA3861AF
:1010A0000EE0FFF73BFA02463B69D31A41F2883261
:1010B000934205D903232CE1001002400070004048
:1010C000964BD3F8903003F00203002BE9D1FB7F5D
:1010D000012B05D1914B9B6D904A23F08053936572
:1010E0007B681B6803F02003002B3CD07B685B6AA5
:1010F000002B1CD0894BD3F89830884A43F0010369
:10110000C2F89830FFF70AFA386108E0FFF706FAEC
:1011100002463B69D31A022B01D90323F9E07F4B26
:10112000D3F8983003F00203002BEFD01BE07B4B89
:10113000D3F89830794A23F00103C2F89830FFF7CA
:10114000EDF9386108E0FFF7E9F902463B69D31A87
:10115000022B01D90323DCE0704BD3F8983003F065
:101160000203002BEFD17B689B6A002B00F0D0803C
:10117000BB690C2B00F08D807B689B6A022B5AD1D7
:10118000664B1B68654A23F080731360FFF7C6F94E
:10119000386108E0FFF7C2F902463B69D31A022B17
:1011A00001D90323B5E05D4B1B6803F00073002BEE
:1011B000F0D15A4BDA685A4B13407A68D16A7A6890
:1011C000126B013A120111437A68526B12021143F9
:1011D0007A68D26B5208013A520511437A68126C50
:1011E0005208013A520611437A68926BD2060A43BA
:1011F0004A491343CB60494B1B68484A43F080730C
:101200001360464BDB68454A43F08073D360FFF7B9
:1012100085F9386108E0FFF781F902463B69D31A86
:10122000022B01D9032374E03C4B1B6803F00073CD
:10123000002BF0D06CE0394B1B68384A23F08073E8
:101240001360364B1B6803F00063002B05D1334B52
:10125000DB68324A23F00303D360304BDB682F4A4C
:1012600023F0887323F48033D360FFF757F9386194
:1012700008E0FFF753F902463B69D31A022B01D964
:10128000032346E0254B1B6803F00073002BF0D1CD
:101290003EE07B689B6A012B01D1012339E01F4BA3
:1012A000DB687B617B6903F003027B68DB6A9A423F
:1012B0002CD17B6903F070027B681B6B013B1B0127
:1012C0009A4223D17B6903F4FE427B685B6B1B026D
:1012D0009A421BD17B6903F078427B689B6BDB06EB
:1012E0009A4213D17B6903F4C0027B68DB6B5B0815
:1012F000013B5B059A4209D17B6903F0C0627B68C0
:101300001B6C5B08013B5B069A4201D0012300E0A5
:10131000002318462037BD4680BD00BF00100240A4
:101320008C809D0180B584B000AF786039607B68A7
:10133000002B01D10123C8E0664B1B6803F00703B3
:101340003A689A4210D9634B1B6823F0070261493F
:101350003B6813430B605F4B1B6803F007033A685D
:101360009A4201D00123B0E07B681B6803F00103BF
:10137000002B4CD07B685B68032B07D1564B1B6856
:1013800003F00073002B21D101239EE07B685B6892
:10139000022B07D1504B1B6803F40033002B15D1EF
:1013A000012392E07B685B68002B07D14A4B1B68E6
:1013B00003F00203002B09D1012386E0464B1B6892
:1013C00003F48063002B01D101237EE0424B9B6834
:1013D00023F003027B685B683F4913438B60FFF790
:1013E0009DF8F8600AE0FFF799F80246FB68D31A07
:1013F00041F28832934201D9032366E0364B9B6861
:1014000003F00C027B685B689B009A42EBD17B681F
:101410001B6803F00203002B08D02F4B9B6823F0BE
:10142000F0027B689B682C4913438B60294B1B6837
:1014300003F007033A689A4210D2264B1B6823F048
:10144000070224493B6813430B60224B1B6803F0DF
:1014500007033A689A4201D0012336E07B681B6893
:1014600003F00403002B08D01B4B9B6823F4E062BD
:101470007B68DB68184913438B607B681B6803F04B
:101480000803002B09D0144B9B6823F460527B683F
:101490001B69DB00104913438B6000F025F80246FE
:1014A0000D4B9B681B0903F00F030C49CB5C03F049
:1014B0001F0322FA03F30A4A13600A4B1B681846FB
:1014C00003F060FF0346FB72FB7A18461037BD46F7
:1014D00080BD00BF002002400010024030620008C2
:1014E0000C0000200000002080B489B000AF002371
:1014F000FB610023BB613E4B9B6803F00C033B6127
:101500003B4BDB6803F00303FB603B69002B05D01A
:101510003B690C2B21D1FB68012B1ED1344B1B687E
:1015200003F00803002B07D1314BD3F894301B0A8A
:1015300003F00F03FB6105E02D4B1B681B0903F053
:101540000F03FB612B4AFB6952F82330FB613B69B7
:10155000002B0DD1FB69BB610AE03B69042B02D172
:10156000254BBB6104E03B69082B01D1234BBB61D8
:101570003B690C2B34D11E4BDB6803F00303BB60CB
:10158000BB68022B03D0BB68032B03D005E01A4BCA
:101590007B6105E0194B7B6102E0FB697B6100BF69
:1015A000134BDB681B0903F0070301337B60104B0F
:1015B000DB681B0A03F07F037A6902FB03F27B6896
:1015C000B2FBF3F37B610A4BDB685B0E03F00303B2
:1015D00001335B003B607A693B68B2FBF3F3BB61AC
:1015E000BB6918462437BD465DF8047B704700BFD1
:1015F00000100240486200080024F40000127A0043
:1016000080B400AF034B1B681846BD465DF8047BF1
:10161000704700BF0C00002080B500AFFFF7F0FF5F
:101620000246064B9B681B0A03F007030449CB5C88
:1016300003F01F0322FA03F3184680BD0010024096
:101640004062000880B500AFFFF7DAFF0246064BA4
:101650009B68DB0A03F007030449CB5C03F01F031C
:1016600022FA03F3184680BD0010024040620008D1
:1016700080B483B000AF786039607B680F221A6055
:10168000124B9B6803F003027B685A600F4B9B6808
:1016900003F0F0027B689A600C4B9B6803F4E062F5
:1016A0007B68DA60094B9B68DB0803F4E0627B68C7
:1016B0001A61074B1B6803F007023B681A6000BF02
:1016C0000C37BD465DF8047B704700BF0010024038
:1016D0000020024080B586B000AF786000233B61F7
:1016E0002A4B9B6D03F08053002B03D0FFF7C8F902
:1016F000786114E0254B9B6D244A43F08053936539
:10170000224B9B6D03F08053FB60FB68FFF7B8F939
:1017100078611E4B9B6D1D4A23F0805393657B6956
:10172000B3F5007F0BD17B68802B19D97B68A02B88
:1017300002D902233B6113E001233B6110E07B6887
:10174000802B02D903233B610AE07B68802B02D106
:1017500002233B6104E07B68702B01D101233B61D4
:101760000B4B1B6823F0070209493B6913430B60CD
:10177000074B1B6803F007033A699A4201D0012323
:1017800000E0002318461837BD4680BD0010024017
:101790000020024080B586B000AF78600023FB7463
:1017A0000023BB747B681B6803F40063002B31D0FB
:1017B0007B685B6CB3F5400F1AD0B3F5400F14D8BB
:1017C000002B09D0B3F5000F0FD15D4BDB685C4AED
:1017D00043F48033D3600CE07B6804330021184667
:1017E00000F0F0F90346FB7403E00123FB7400E012
:1017F00000BFFB7C002B0BD1514BD3F8883023F476
:1018000040027B685B6C4E491343C1F8883001E0AD
:10181000FB7CBB747B681B6803F40033002B00F077
:101820009E8000237B74464B9B6D03F08053002BFE
:1018300001D1012300E00023002B0DD0404B9B6D14
:101840003F4A43F0805393653D4B9B6D03F08053BB
:10185000BB60BB6801237B743A4B1B68394A43F475
:1018600080731360FEF75AFEF86009E0FEF756FE3B
:101870000246FB68D31A022B02D90323FB7405E04E
:10188000304B1B6803F48073002BEFD0FB7C002BE4
:101890005AD12B4BD3F8903003F440737B617B69B2
:1018A000002B1ED07B689B6D7A699A4219D0244B1D
:1018B000D3F8903023F440737B61214BD3F8903000
:1018C0001F4A43F48033C2F890301D4BD3F8903058
:1018D0001B4A23F48033C2F89030194A7B69C2F85E
:1018E00090307B6903F00103002B16D0FEF716FE43
:1018F000F8600BE0FEF712FE0246FB68D31A41F2D5
:101900008832934202D90323FB7406E00C4BD3F8D0
:10191000903003F00203002BECD0FB7C002B0BD1AA
:10192000074BD3F8903023F440727B689B6D0449D9
:101930001343C1F8903009E0FB7CBB7406E000BFA4
:101940000010024000700040FB7CBB747B7C012BCC
:1019500005D19B4B9B6D9A4A23F0805393657B681E
:101960001B6803F00103002B0AD0954BD3F8883095
:1019700023F003027B681B6A91491343C1F8883046
:101980007B681B6803F00203002B0AD08C4BD3F852
:10199000883023F00C027B685B6A89491343C1F8E5
:1019A00088307B681B6803F00403002B0AD0844B4B
:1019B000D3F8883023F030027B689B6A8049134358
:1019C000C1F888307B681B6803F02003002B0AD025
:1019D0007B4BD3F8883023F440627B68DB6A78491C
:1019E0001343C1F888307B681B6803F40073002B35
:1019F0000AD0734BD3F8883023F440227B68DB6B2A
:101A00006F491343C1F888307B681B6803F4806317
:101A1000002B0AD06A4BD3F8883023F440127B683D
:101A20001B6C67491343C1F888307B681B6803F05F
:101A30004003002B0AD0624BD3F8883023F4405285
:101A40007B681B6B5E491343C1F888307B681B6859
:101A500003F08003002B0AD0594BD3F8883023F4CD
:101A600040427B685B6B56491343C1F888307B6802
:101A70001B6803F48073002B0AD0514BD3F88830D5
:101A800023F440327B689B6B4D491343C1F8883087
:101A90007B681B6803F40023002B28D0484BD3F845
:101AA000883023F040627B689B6C45491343C1F842
:101AB00088307B689B6CB3F1006F06D1404BDB68CC
:101AC0003F4A43F48013D36011E07B689B6CB3F111
:101AD000806F0CD17B6804330121184600F072F846
:101AE0000346FB74FB7C002B01D0FB7CBB747B6842
:101AF0001B6803F48023002B28D0314BD3F88830A7
:101B000023F040627B68DB6C2D491343C1F88830B9
:101B10007B68DB6CB3F1006F06D1294BDB68284A88
:101B200043F48013D36011E07B68DB6CB3F1806F0A
:101B30000CD17B6804330121184600F043F80346BA
:101B4000FB74FB7C002B01D0FB7CBB747B681B68A7
:101B500003F48043002B1CD0194BD3F8883023F0BA
:101B600040527B681B6D16491343C1F888307B686F
:101B70001B6DB3F1805F0CD17B68043302211846E2
:101B800000F020F80346FB74FB7C002B01D0FB7CAB
:101B9000BB747B681B6803F40043002B0AD0084B1E
:101BA000D3F8883023F080427B685B6D044913438F
:101BB000C1F88830BB7C18461837BD4680BD00BFD1
:101BC0000010024080B584B000AF78603960002317
:101BD000FB73744BDB6803F00303002B18D0714BCD
:101BE000DB6803F003027B681B689A420DD17B68B7
:101BF0001B68002B09D06B4BDB681B0903F0070344
:101C00005A1C7B685B689A4247D00123FB7344E00F
:101C10007B681B68032B18D0032B25D8012B02D01F
:101C2000022B09D020E05F4B1B6803F00203002B5E
:101C30001DD10123FB731AE05A4B1B6803F4806328
:101C4000002B16D10123FB7313E0564B1B6803F4E2
:101C50000033002B0FD1534B1B6803F48023002B60
:101C600009D10123FB7306E00123FB7304E000BFED
:101C700002E000BF00E000BFFB7B002B0DD1494B11
:101C8000DB6823F073027B6819687B685B68013B43
:101C90001B010B4343491343CB60FB7B002B7CD1DF
:101CA000404B1B683F4A23F080631360FEF736FC0D
:101CB000B86009E0FEF732FC0246BB68D31A022B7B
:101CC00002D90323FB7305E0364B1B6803F0006366
:101CD000002BEFD1FB7B002B5FD13B68002B10D199
:101CE000304B1B6923F0784323F4FE437A689268F3
:101CF00011027A68D268D2060A432A4913430B615B
:101D000027E03B68012B12D1264B1B6923F4C0034B
:101D100023F4FE437A68926811027A6812695208C5
:101D2000013A52050A431F4913430B6111E01D4B51
:101D30001B6923F0C06323F4FE437A6892681102A2
:101D40007A6852695208013A52060A431549134308
:101D50000B61144B1B68134A43F080631360FEF75A
:101D6000DDFBB86009E0FEF7D9FB0246BB68D31A79
:101D7000022B02D90323FB7305E00A4B1B6803F017
:101D80000063002BEFD0FB7B002B06D1054B1A69BB
:101D90007B689B69034913430B61FB7B1846103733
:101DA000BD4680BD0010024080B582B000AF7860B3
:101DB0007B68002B01D101231DE07B6893F83D3047
:101DC000DBB2002B06D17B68002283F83C207868C8
:101DD00000F015F87B68022283F83D207B681A68C2
:101DE0007B6804331946104600F086F97B680122AF
:101DF00083F83D20002318460837BD4680BD80B4D7
:101E000083B000AF786000BF0C37BD465DF8047B3F
:101E10007047000080B485B000AF78607B681B68B5
:101E2000DA687B681B6842F00102DA607B681B6835
:101E30009A680C4B1340FB60FB68062B0BD0FB68C9
:101E4000B3F5803F07D07B681B681A687B681B6806
:101E500042F001021A60002318461437BD465DF8AF
:101E6000047B70470700010080B582B000AF786046
:101E70007B681B681B6903F00203022B22D17B687D
:101E80001B68DB6803F00203022B1BD17B681B6815
:101E90006FF002021A617B6801221A777B681B6867
:101EA0009B6903F00303002B03D0786800F005F969
:101EB00005E0786800F0F7F8786800F008F97B68CA
:101EC00000221A777B681B681B6903F00403042B4C
:101ED00022D17B681B68DB6803F00403042B1BD151
:101EE0007B681B686FF004021A617B6802221A7714
:101EF0007B681B689B6903F44073002B03D07868F0
:101F000000F0DBF805E0786800F0CDF8786800F0C4
:101F1000DEF87B6800221A777B681B681B6903F078
:101F20000803082B22D17B681B68DB6803F00803D9
:101F3000082B1BD17B681B686FF008021A617B6855
:101F400004221A777B681B68DB6903F00303002B0C
:101F500003D0786800F0B1F805E0786800F0A3F8E5
:101F6000786800F0B4F87B6800221A777B681B68F9
:101F70001B6903F01003102B22D17B681B68DB6800
:101F800003F01003102B1BD17B681B686FF010024D
:101F90001A617B6808221A777B681B68DB6903F487
:101FA0004073002B03D0786800F087F805E078686C
:101FB00000F079F8786800F08AF87B6800221A77D8
:101FC0007B681B681B6903F00103012B0ED17B6842
:101FD0001B68DB6803F00103012B07D17B681B68DA
:101FE0006FF001021A61786803F08AF97B681B6858
:101FF0001B6903F08003802B0ED17B681B68DB68B4
:1020000003F08003802B07D17B681B686FF0800290
:102010001A61786800F0DEF87B681B681B6903F4BE
:102020008073B3F5807F0ED17B681B68DB6803F09B
:102030008003802B07D17B681B686FF480721A6164
:10204000786800F0D1F87B681B681B6903F04003D7
:10205000402B0ED17B681B68DB6803F04003402BEC
:1020600007D17B681B686FF040021A61786800F046
:1020700038F87B681B681B6903F02003202B0ED106
:102080007B681B68DB6803F02003202B07D17B688B
:102090001B686FF020021A61786800F091F800BFA9
:1020A0000837BD4680BD80B483B000AF786000BF04
:1020B0000C37BD465DF8047B704780B483B000AF39
:1020C000786000BF0C37BD465DF8047B704780B474
:1020D00083B000AF786000BF0C37BD465DF8047B6D
:1020E000704780B483B000AF786000BF0C37BD4646
:1020F0005DF8047B7047000080B485B000AF786065
:1021000039607B681B68FB607B682A4A934203D076
:102110007B68B3F1804F08D1FB6823F07003FB604C
:102120003B685B68FA681343FB607B68214A934213
:102130000BD07B68B3F1804F07D07B681E4A934277
:1021400003D07B681D4A934208D1FB6823F4407397
:10215000FB603B68DB68FA681343FB60FB6823F0B5
:1021600080023B685B691343FB607B68FA681A6016
:102170003B689A687B68DA623B681A687B689A6297
:102180007B680C4A934207D07B680B4A934203D08A
:102190007B680A4A934203D13B681A697B681A63D9
:1021A0007B6801225A6100BF1437BD465DF8047B8D
:1021B000704700BF002C0140004001400044014036
:1021C00080B483B000AF786000BF0C37BD465DF8C7
:1021D000047B704780B483B000AF786000BF0C37D9
:1021E000BD465DF8047B704780B483B000AF786073
:1021F00000BF0C37BD465DF8047B704780B582B0E8
:1022000000AF78607B68002B01D1012340E07B6840
:102210005B6F002B06D17B68002283F87020786802
:1022200003F00EFA7B6824225A677B681B681A68E1
:102230007B681B6822F001021A60786800F0C0F821
:102240000346012B01D1012322E07B685B6A002B4E
:1022500002D0786800F0C2FB7B681B685A687B6814
:102260001B6822F490425A607B681B689A687B68FE
:102270001B6822F02A029A607B681B681A687B68D8
:102280001B6842F001021A60786800F049FC0346BE
:1022900018460837BD4680BD80B58AB002AFF860E9
:1022A000B9603B601346FB80FB685B6F202B40F0FE
:1022B0008180BB68002B02D0FB88002B01D1012359
:1022C00079E0FB6893F87030012B01D1022372E0B2
:1022D000FB68012283F87020FB680022DA67FB6844
:1022E00021225A67FEF71AF97861FB68FA88A3F889
:1022F0005020FB68FA88A3F85220FB689B68B3F56E
:10230000805F08D1FB681B69002B04D10023FB61AF
:10231000BB68BB6103E0BB68FB610023BB612DE0D0
:102320003B6800937B6900228021F86800F03DFC47
:102330000346002B01D003233DE0FB69002B0BD1AA
:10234000BB691A88FB681B68C2F3080292B21A853F
:10235000BB690233BB6108E0FB691A78FB681B6844
:1023600092B21A85FB690133FB61FB68B3F8523006
:102370009BB2013B9AB2FB68A3F85220FB68B3F80A
:1023800052309BB2002BCBD13B6800937B6900227B
:102390004021F86800F009FC0346002B01D003231C
:1023A00009E0FB6820225A67FB68002283F870204E
:1023B000002300E0022318462037BD4680BD000000
:1023C0002DE9B04F8AB000AFF8600023FB61002315
:1023D000FB7600237B61FB689A68FB681B691A43E4
:1023E000FB685B691A43FB68DB6913437B62FB682C
:1023F0001B681A68BB4B1340FA681268796A0B4372
:102400001360FB681B685B6823F44051FB68DA6863
:10241000FB681B680A435A60FB689B697B62FB6828
:102420001B68B14A934204D0FB681B6A7A6A134363
:102430007B62FB681B689B6823F43061FB681B6848
:102440007A6A0A439A60FB681B68A84A934225D1BE
:10245000A74BD3F8883003F00303032B1AD801A24B
:1024600052F823F075240008852400087D24000814
:102470008D240008012387F82330ABE0022387F87E
:102480002330A7E0042387F82330A3E0082387F84C
:1024900023309FE0102387F823309BE0FB681B6804
:1024A000944A934238D1924BD3F8883003F00C030E
:1024B0000C2B2DD801A252F823F000BFF124000804
:1024C0001125000811250008112500080125000824
:1024D000112500081125000811250008F92400081D
:1024E00011250008112500081125000809250008FC
:1024F000002387F823306DE0022387F8233069E05A
:10250000042387F8233065E0082387F8233061E04F
:10251000102387F823305DE0FB681B68764A9342FE
:1025200025D1734BD3F8883003F03003302B16D00D
:10253000302B18D8202B0AD0202B14D8002B02D0F7
:10254000102B08D00FE0002387F8233042E002234D
:1025500087F823303EE0042387F823303AE008234D
:1025600087F8233036E0102387F8233032E0FB6809
:102570001B685D4A93422AD15D4BD3F8883003F43F
:102580004063B3F5406F1AD0B3F5406F1BD8B3F575
:10259000006F0CD0B3F5006F15D8002B03D0B3F546
:1025A000806F08D00FE0002387F8233012E0022369
:1025B00087F823300EE0042387F823300AE008234D
:1025C00087F8233006E0102387F8233002E0102339
:1025D00087F82330FB681B68434A934240F0FC8035
:1025E00097F82330082B24D801A252F823F000BF1B
:1025F00015260008332600081D260008332600088B
:102600002326000833260008332600083326000856
:102610002B260008FFF700F878610DE0374B7B614F
:102620000AE0FEF761FF786106E04FF400437B614A
:1026300002E00123FB7600BF7B69002B00F0BF8125
:10264000FB685A6813465B0013447A699A4205D3C3
:10265000FB685B681B037A699A4202D90123FB7607
:10266000ADE197F82330082B00F2A38001A252F8C5
:1026700023F000BF99260008B327000801270008AF
:10268000B327000837270008B3270008B32700083E
:10269000B327000883270008FEF7BEFF034618464D
:1026A0004FF000014FF000024FF000030B0243EA2D
:1026B00010630202F9684968490808464FF00001B2
:1026C00014183C604B417B60FB685B681A464FF016
:1026D0000003D7E90001FDF77BFD02460B461346D8
:1026E000FB6169E0F369FFEF0080004000380140C2
:1026F0000010024000440040004800400024F40064
:10270000FB685B685B081A464FF00003B2484FF065
:10271000000112EB000A43EB010BFB685B681A46F1
:102720004FF0000350465946FDF752FD02460B4656
:102730001346FB6140E0FEF7D7FE034618464FF014
:1027400000014FF000024FF000030B0243EA106358
:102750000202F9684968490808464FF0000112EB87
:10276000000843EB0109FB685B681A464FF0000361
:1027700040464946FDF72CFD02460B461346FB61D9
:102780001AE0FB685B685B081A464FF0000312F51D
:10279000000443F10005FB685B681A464FF0000334
:1027A00020462946FDF714FD02460B461346FB6101
:1027B00002E00123FB7600BFFB69B3F5407F08D33D
:1027C000FB69B3F5801F04D2FB681B68FA69DA6005
:1027D000F5E00123FB76F2E0FB68DB69B3F5004F1F
:1027E0007FD197F82330082B5BD801A252F823F051
:1027F000152800083328000851280008A3280008DD
:102800006D280008A3280008A3280008A3280008B2
:102810008B280008FEF700FF03465A00FB685B6840
:102820005B081A44FB685B68B2FBF3F39BB2FB6185
:102830003AE0FEF707FF03465A00FB685B685B0857
:102840001A44FB685B68B2FBF3F39BB2FB612BE0BD
:10285000FB685B685B0803F1F47303F59043FA6867
:102860005268B3FBF2F39BB2FB611DE0FEF73CFE46
:1028700003465A00FB685B685B081A44FB685B68A8
:10288000B2FBF3F39BB2FB610EE0FB685B685B0895
:1028900003F58032FB685B68B2FBF3F39BB2FB612C
:1028A00002E00123FB7600BFFB690F2B16D9FB6901
:1028B000B3F5803F12D2FB699BB223F00F037B82FA
:1028C000FB695B089BB203F007039AB27B8A134350
:1028D0007B82FB681B687A8ADA6070E00123FB76F2
:1028E0006DE097F82330082B58D801A252F823F056
:1028F00015290008312900084D2900089D290008E4
:10290000692900089D2900089D2900089D290008C3
:1029100085290008FEF780FE0246FB685B685B08BD
:102920001A44FB685B68B2FBF3F39BB2FB6138E0CF
:10293000FEF788FE0246FB685B685B081A44FB688A
:102940005B68B2FBF3F39BB2FB612AE0FB685B6858
:102950005B0803F5740303F51053FA685268B3FB80
:10296000F2F39BB2FB611CE0FEF7BEFD0246FB6882
:102970005B685B081A44FB685B68B2FBF3F39BB2CD
:10298000FB610EE0FB685B685B0803F50042FB68D7
:102990005B68B2FBF3F39BB2FB6102E00123FB76C1
:1029A00000BFFB690F2B08D9FB69B3F5803F04D248
:1029B000FB681B68FA69DA6001E00123FB76FB68BB
:1029C00000221A66FB6800225A66FB7E18462837EA
:1029D000BD46BDE8B08F00BF000024F480B483B0D2
:1029E00000AF78607B685B6A03F00103002B0AD0BC
:1029F0007B681B685B6823F400317B689A6A7B689C
:102A00001B680A435A607B685B6A03F00203002B71
:102A10000AD07B681B685B6823F480317B68DA6AC4
:102A20007B681B680A435A607B685B6A03F0040397
:102A3000002B0AD07B681B685B6823F480217B68CD
:102A40001A6B7B681B680A435A607B685B6A03F0F9
:102A50000803002B0AD07B681B685B6823F40041E5
:102A60007B685A6B7B681B680A435A607B685B6AA9
:102A700003F01003002B0AD07B681B689B6823F4CB
:102A800080517B689A6B7B681B680A439A607B68FD
:102A90005B6A03F02003002B0AD07B681B689B68ED
:102AA00023F400517B68DA6B7B681B680A439A60E9
:102AB0007B685B6A03F04003002B1AD07B681B68BD
:102AC0005B6823F480117B681A6C7B681B680A437F
:102AD0005A607B681B6CB3F5801F0AD17B681B684A
:102AE0005B6823F4C0017B685A6C7B681B680A43EF
:102AF0005A607B685B6A03F08003002B0AD07B6816
:102B00001B685B6823F400217B689A6C7B681B68F8
:102B10000A435A6000BF0C37BD465DF8047B70471E
:102B200080B586B002AF78607B680022DA67FDF777
:102B3000F5FCF8607B681B681B6803F00803082B32
:102B40000ED16FF07E430093FB6800224FF400111A
:102B5000786800F02AF80346002B01D0032320E018
:102B60007B681B681B6803F00403042B0ED16FF015
:102B70007E430093FB6800224FF48001786800F0E8
:102B800014F80346002B01D003230AE07B682022BF
:102B90005A677B6820229A677B68002283F870203E
:102BA000002318461037BD4680BD80B584B000AF05
:102BB000F860B9603B601346FB712AE0BB69B3F172
:102BC000FF3F26D0FDF7AAFC02463B68D31ABA693C
:102BD0009A4202D3BB69002B1BD1FB681B681A68A1
:102BE000FB681B6822F4D0721A60FB681B689A6845
:102BF000FB681B6822F001029A60FB6820225A677A
:102C0000FB6820229A67FB68002283F87020032368
:102C10000FE0FB681B68DA69BB681340BA689A4228
:102C20000CBF01230023DBB21A46FB799A42C5D0C0
:102C3000002318461037BD4680BD80B485B000AF74
:102C40000346FB800023FB60B7F90630842B05D0D8
:102C5000B7F90620FB6813440333FB60FB68184692
:102C60001437BD465DF8047B704780B500AF01F0B6
:102C70003BFB0023184680BDF0B589B004AF7860F7
:102C800039607B685B69002B20D07B689B69002BD7
:102C90001CD07B685C687B681D687B681E697B68EC
:102CA000B3F908301846FFF7C8FF01467B685B6937
:102CB0007A6892690292019300913B6832462946F4
:102CC000204601F053F90346FB601CE07B685C681A
:102CD0007B681D687B681B699EB27B68B3F908300E
:102CE0001846FFF7AAFF024607F10C030193009272
:102CF0003B6832462946204601F094F90346012BF1
:102D000001D0002300E0FB6818461437BD46F0BD33
:102D100080B584B000AF78607B68FB60FB68002BF7
:102D200001D0FB6800E00123184601F0A9FA002356
:102D300018461037BD4680BD80B586B002AF7860BA
:102D400039607B685B68002B0FD03B68012B0AD190
:102D50007B685B680322009200220021012000F0C2
:102D600025FD034616E0002314E03B68012B10D13B
:102D700003220021012000F090FDF860FB68002B89
:102D800005D0002300220021F86800F0E3FDFB6875
:102D900000E0002318461037BD4680BD80B483B0E4
:102DA00000AF78607B6803F108027B685A607B683B
:102DB0004FF0FF329A607B6803F108027B68DA60AB
:102DC0007B6803F108027B681A617B6800221A6045
:102DD00000BF0C37BD465DF8047B704780B483B0FC
:102DE00000AF78607B6800221A6100BF0C37BD46D7
:102DF0005DF8047B704780B485B000AF78603960BF
:102E00007B685B68FB603B68FA685A60FB689A689D
:102E10003B689A60FB689B683A685A60FB683A684E
:102E20009A603B687A681A617B681B685A1C7B68E9
:102E30001A6000BF1437BD465DF8047B704780B44C
:102E400085B000AF786039603B681B68BB60BB68C9
:102E5000B3F1FF3F03D17B681B69FB600CE07B682B
:102E60000833FB6002E0FB685B68FB60FB685B6843
:102E70001B68BA689A42F6D2FB685A683B685A6087
:102E80003B685B683A689A603B68FA689A60FB68DE
:102E90003A685A603B687A681A617B681B685A1CFA
:102EA0007B681A6000BF1437BD465DF8047B70472D
:102EB00080B485B000AF78607B681B69FB607B687D
:102EC0005B687A6892689A607B689B687A685268E7
:102ED0005A60FB685B687A689A4203D17B689A689B
:102EE000FB685A607B6800221A61FB681B685A1EE7
:102EF000FB681A60FB681B6818461437BD465DF80E
:102F0000047B704780B485B000AFF860B9607A6028
:102F1000FB68043BFB60FB684FF080721A60FB6843
:102F2000043BFB60BB6823F00102FB681A60FB688E
:102F3000043BFB600C4AFB681A60FB68143BFB60B7
:102F40007A68FB681A60FB68043BFB60FB686FF003
:102F500002021A60FB68203BFB60FB6818461437CE
:102F6000BD465DF8047B70476D2F000880B485B0C6
:102F700000AF00237B60124B1B68B3F1FF3F0AD008
:102F80004FF0500383F31188BFF36F8FBFF34F8F60
:102F9000FB6000BFFEE74FF0500383F31188BFF3DF
:102FA0006F8FBFF34F8FBB6000BF00BF7B68002BEC
:102FB000FCD000BF00BF1437BD465DF8047B7047EE
:102FC00008000020000000000000000000000000D9
:102FD000074B19680868B0E8F04F80F30988BFF321
:102FE0006F8F4FF0000080F311887047AFF30080BF
:102FF000700C002000BF00BF08480068006880F324
:1030000008884FF0000080F3148862B661B6BFF301
:103010004F8FBFF36F8F00DF00BF00BF08ED00E0F0
:1030200080B586B000AF464B1B68464A93420AD132
:103030004FF0500383F31188BFF36F8FBFF34F8FAF
:103040003B6100BFFEE73E4B1B683F4A93420AD1FB
:103050004FF0500383F31188BFF36F8FBFF34F8F8F
:10306000FB6000BFFEE7394B7B617B691B78DBB2FD
:103070007B607B69FF221A707B691B78DBB2FB7077
:10308000FB78DBB203F05003DAB2314B1A70314BEC
:1030900007221A6009E02F4B1B68013B2D4A136081
:1030A000FB78DBB25B00DBB2FB70FB78DBB203F0DA
:1030B0008003802BEFD0274B1B68C3F10703042B41
:1030C0000AD04FF0500383F31188BFF36F8FBFF323
:1030D0004F8FBB6000BFFEE71E4B1B681B021D4AE3
:1030E00013601C4B1B6803F4E0631A4A13607B688F
:1030F000DAB27B691A70184B1B68174A43F47003E5
:103100001360154B1B68144A43F07043136000F0C2
:10311000DDF8124B00221A6000F0FCF8104B1B681F
:103120000F4A43F040431360FFF766FF01F0A4FA33
:10313000FFF71CFF002318461837BD4680BD00BFAF
:1031400000ED00E071C20F4170C20F4100E400E0E9
:10315000980000209C00002020ED00E008000020E6
:1031600034EF00E080B483B000AF4FF0500383F33E
:103170001188BFF36F8FBFF34F8F7B6000BF0F4B82
:103180001B6801330D4A13600C4B1B68012B0FD1D8
:103190000B4B1B68DBB2002B0AD04FF0500383F3BC
:1031A0001188BFF36F8FBFF34F8F3B6000BFFEE707
:1031B00000BF0C37BD465DF8047B70470800002057
:1031C00004ED00E080B483B000AF124B1B68002B0D
:1031D0000AD14FF0500383F31188BFF36F8FBFF311
:1031E0004F8F7B6000BFFEE70A4B1B68013B094A1B
:1031F0001360084B1B68002B05D100233B603B6824
:1032000083F3118800BF00BF0C37BD465DF8047B17
:10321000704700BF08000020000000000000000010
:10322000EFF30980BFF36F8F154B1A681EF0100F74
:1032300008BF20ED108A20E9F04F10602DE9090049
:103240004FF0500080F31188BFF34F8FBFF36F8FA3
:1032500001F012FA4FF0000080F3118809BC1968E0
:103260000868B0E8F04F1EF0100F08BFB0EC108AED
:1032700080F30988BFF36F8F704700BFAFF3008002
:10328000700C002000BF00BF80B582B000AF4FF0CF
:10329000500383F31188BFF36F8FBFF34F8F7B60B1
:1032A00000BF01F02BF90346002B03D0064B4FF073
:1032B00080521A6000233B603B6883F3118800BF93
:1032C00000BF0837BD4680BD04ED00E080B400AF0C
:1032D0000B4B00221A600B4B00221A600A4B1B6832
:1032E0000A4AA2FB03239B09094A013B1360044BD2
:1032F00007221A6000BFBD465DF8047B704700BF1F
:1033000010E000E018E000E00C000020D34D621057
:1033100014E000E0DFF80C00016841F47001016086
:10332000704700BF88ED00E080B58AB000AF7860DC
:103330000023FB6101F038F8584B1B68002B01D1CA
:1033400000F010F9564B1A687B681340002B40F0D0
:103350008E807B68002B1DD008227B6813447B6025
:103360007B6803F00703002B14D07B6823F007036E
:1033700008337B607B6803F00703002B0AD04FF013
:10338000500383F31188BFF36F8FBFF34F8F7B61BF
:1033900000BFFEE77B68002B69D0424B1B687A6850
:1033A0009A4264D8404B3B623F4B1B687B6204E00F
:1033B0007B6A3B627B6A1B687B627B6A5B687A68BC
:1033C0009A4203D97B6A1B68002BF1D1334B1B68EF
:1033D0007A6A9A424BD03B6A1B6808221344FB610D
:1033E0007B6A1A683B6A1A607B6A5A687B68D21AE1
:1033F00008235B009A421FD97A6A7B681344BB6139
:10340000BB6903F00703002B0AD04FF0500383F38E
:103410001188BFF36F8FBFF34F8F3B6100BFFEE793
:103420007B6A5A687B68D21ABB695A607B6A7A6881
:103430005A60B86900F0F8F81A4B1A687B6A5B6842
:10344000D31A184A1360174B1A68184B1B689A4214
:1034500003D2144B1B68154A13607B6A5A68104BE1
:103460001B681A437B6A5A607B6A00221A6000F06C
:10347000A9FFFB6903F00703002B0AD04FF05003AC
:1034800083F31188BFF36F8FBFF34F8FFB6000BFD3
:10349000FEE7FB6918462837BD4680BD600C00205A
:1034A0006C0C0020640C0020580C0020680C0020DC
:1034B00080B586B000AF78607B687B617B68002B4D
:1034C00048D008235B427A6913447B617B693B6186
:1034D0003B695A68214B1B681340002B0AD14FF0FF
:1034E000500383F31188BFF36F8FBFF34F8FFB60DF
:1034F00000BFFEE73B691B68002B0AD04FF050036A
:1035000083F31188BFF36F8FBFF34F8FBB6000BF92
:10351000FEE73B695A68114B1B681340002B19D01A
:103520003B691B68002B15D13B695A680B4B1B6824
:10353000DB431A403B695A6000F036FF3B695A682A
:10354000074B1B681344064A1360386900F06CF897
:1035500000F038FF00BF1837BD4680BD6C0C00205E
:10356000640C002080B485B000AF40F6B833BB6077
:10357000274BFB60FB6803F00703002B0CD0FB68B4
:103580000733FB60FB6823F00703FB60BA68FB6846
:10359000D31A1F4A1344BB60FB687B601D4A7B68DB
:1035A00013601C4B00225A607B68BA681344FB60AE
:1035B0000822FB689B1AFB60FB6823F00703FB6093
:1035C000FB68154A1360144B1B6800225A60124BAB
:1035D0001B6800221A607B683B603B68FA68D21A5D
:1035E0003B685A600C4B1A683B681A603B685B6822
:1035F0000A4A13603B685B68094A1360094B4FF045
:1036000000421A6000BF1437BD465DF8047B704766
:10361000A0000020580C0020600C0020680C002046
:10362000640C00206C0C002080B485B000AF786082
:10363000284BFB6002E0FB681B68FB60FB681B68B3
:103640007A689A42F7D8FB68BB60FB685B68BA6827
:1036500013447A689A4208D1FB685A687B685B68B1
:103660001A44FB685A60FB687B607B68BB607B68C0
:103670005B68BA681A44FB681B689A4218D1FB68F9
:103680001A68154B1B689A420DD07B685A68FB6814
:103690001B685B681A447B685A60FB681B681A6881
:1036A0007B681A6008E00C4B1A687B681A6003E0BC
:1036B000FB681A687B681A60FA687B689A4202D0D5
:1036C000FB687A681A6000BF1437BD465DF8047B5A
:1036D000704700BF580C0020600C002080B584B0FB
:1036E00000AF786039607B68FB60FB68002B0AD113
:1036F0004FF0500383F31188BFF36F8FBFF34F8FE9
:10370000BB6000BFFEE7FFF72DFDFB681A68FB6892
:10371000DB6BF968096C01FB03F31A44FB685A6020
:10372000FB6800229A63FB681A68FB689A60FB6872
:103730001A68FB68DB6B013BF968096C01FB03F35A
:103740001A44FB68DA60FB68FF2283F84420FB68B8
:10375000FF2283F845203B68002B14D1FB681B69CE
:10376000002B1AD0FB681033184601F005F8034609
:10377000002B12D00C4B4FF080521A60BFF34F8FCA
:10378000BFF36F8F09E0FB6810331846FFF706FBA5
:10379000FB6824331846FFF701FBFFF713FD0123F5
:1037A00018461037BD4680BD04ED00E080B58EB0F0
:1037B00002AFF860B9607A603B60FB68002B0AD109
:1037C0004FF0500383F31188BFF36F8FBFF34F8F18
:1037D000BB6200BFFEE73B68002B0AD14FF05003ED
:1037E00083F31188BFF36F8FBFF34F8F7B6200BFEE
:1037F000FEE77B68002B02D0BB68002B01D00123C1
:1038000000E00023002B0AD14FF0500383F311880E
:10381000BFF36F8FBFF34F8F3B6200BFFEE77B6844
:10382000002B02D1BB68002B01D1012300E0002353
:10383000002B0AD14FF0500383F31188BFF36F8F31
:10384000BFF34F8FFB6100BFFEE748237B617B69BD
:10385000482B0AD04FF0500383F31188BFF36F8FCA
:10386000BFF34F8FBB6100BFFEE73B68FB62FB6AA3
:10387000002B0DD0FB6A012283F8462097F83820F0
:10388000FB6A009313467A68B968F86800F043F859
:10389000FB6A18463037BD4680BD80B58AB002AF9E
:1038A000F860B9601346FB71FB68002B0AD14FF03A
:1038B000500383F31188BFF36F8FBFF34F8F3B61CA
:1038C00000BFFEE7BB68002B02D10023FB6104E0D0
:1038D000FB68BA6802FB03F3FB61FB6948331846D7
:1038E000FFF722FDB861BB69002B0FD0BB694833DD
:1038F0007B61BB69002283F84620FA79BB6900939B
:1039000013467A69B968F86800F005F8BB6918468B
:103910002037BD4680BD80B584B000AFF860B96087
:103920007A60FB70BB68002B03D1BB69BA691A606F
:1039300002E0BB697A681A60BB69FA68DA63BB693E
:10394000BA681A640121B869FFF7C8FE00BF1037D2
:10395000BD4680BD80B58EB000AFF860B9607A60BA
:103960003B6000237B63FB683B633B6B002B0AD10E
:103970004FF0500383F31188BFF36F8FBFF34F8F66
:10398000BB6200BFFEE7BB68002B03D13B6B1B6C27
:10399000002B01D1012300E00023002B0AD14FF0BE
:1039A000500383F31188BFF36F8FBFF34F8F7B6298
:1039B00000BFFEE73B68022B03D13B6BDB6B012BA7
:1039C00001D1012300E00023002B0AD14FF0500366
:1039D00083F31188BFF36F8FBFF34F8F3B6200BF3C
:1039E000FEE701F08BF80346002B02D17B68002B29
:1039F00001D1012300E00023002B0AD14FF0500336
:103A000083F31188BFF36F8FBFF34F8FFB6100BF4C
:103A1000FEE7FFF7A7FB3B6B9A6B3B6BDB6B9A42B6
:103A200002D33B68022B29D13A68B968386B00F0A1
:103A3000B3F9F8623B6B5B6A002B10D03B6B24330D
:103A4000184600F099FE0346002B13D03F4B4FF071
:103A500080521A60BFF34F8FBFF36F8F0AE0FB6A8B
:103A6000002B07D0394B4FF080521A60BFF34F8FB5
:103A7000BFF36F8FFFF7A6FB012363E07B68002B8A
:103A800003D1FFF79FFB00235CE07B6B002B06D18B
:103A900007F11403184600F0D1FE01237B63FFF702
:103AA00091FB00F081FCFFF75DFB3B6B93F844302A
:103AB0005BB2B3F1FF3F03D13B6B002283F844209C
:103AC0003B6B93F845305BB2B3F1FF3F03D13B6BE7
:103AD000002283F84520FFF775FB3A1D07F1140318
:103AE0001146184600F0C0FE0346002B24D1386B67
:103AF00000F024FA0346002B18D03B6B10337A6891
:103B00001146184600F014FE386B00F0AFF900F0D3
:103B100059FC0346002B7FF47CAF0C4B4FF08052D6
:103B20001A60BFF34F8FBFF36F8F72E7386B00F0EF
:103B30009DF900F047FC6CE7386B00F097F900F056
:103B400041FC002318463837BD4680BD04ED00E037
:103B500080B58EB000AF7860396000237B637B68EE
:103B6000FB6200233B63FB6A002B0AD14FF050033A
:103B700083F31188BFF36F8FBFF34F8F3B6200BF9A
:103B8000FEE7FB6A1B6C002B0AD04FF0500383F357
:103B90001188BFF36F8FBFF34F8FFB6100BFFEE74C
:103BA00000F0ACFF0346002B02D13B68002B01D193
:103BB000012300E00023002B0AD14FF0500383F3D0
:103BC0001188BFF36F8FBFF34F8FBB6100BFFEE75C
:103BD000FFF7C8FAFB6A9B6BBB62BB6A002B24D061
:103BE000BB6A5A1EFB6A9A63FB6A1B68002B04D1EE
:103BF00001F04EF90246FB6A5A60FB6A1B69002B12
:103C00000FD0FB6A1033184600F0B6FD0346002BB8
:103C100007D0544B4FF080521A60BFF34F8FBFF361
:103C20006F8FFFF7CFFA012397E03B68002B11D18C
:103C30003B6B002B0AD04FF0500383F31188BFF386
:103C40006F8FBFF34F8F7B6100BFFEE7FFF7BAFABC
:103C5000002382E07B6B002B06D107F10C03184692
:103C600000F0ECFD01237B63FFF7ACFA00F09CFB56
:103C7000FFF778FAFB6A93F844305BB2B3F1FF3F89
:103C800003D1FB6A002283F84420FB6A93F8453095
:103C90005BB2B3F1FF3F03D1FB6A002283F84520FA
:103CA000FFF790FA3A4607F10C031146184600F068
:103CB000DBFD0346002B32D1F86A00F029F90346F8
:103CC000002B26D0FB6A1B68002B09D1FFF74AFAAC
:103CD000FB6A5B68184600F02FFF3863FFF772FA43
:103CE000FB6A24333A681146184600F021FDF86A51
:103CF00000F0BCF800F066FB0346002B7FF468AFD1
:103D0000184B4FF080521A60BFF34F8FBFF36F8F85
:103D10005EE7F86A00F0AAF800F054FB58E7F86A8A
:103D200000F0A4F800F04EFBF86A00F0F1F803464A
:103D3000002B3FF44DAF3B6B002B0DD0FFF712FA79
:103D4000F86A00F011F87862FB6A5B68796A1846D5
:103D500000F0FEFFFFF736FA002318463837BD465D
:103D600080BD00BF04ED00E080B485B000AF786096
:103D70007B685B6A002B06D07B681B6B1B68C3F1FA
:103D80000703FB6001E00023FB60FB681846143763
:103D9000BD465DF8047B704780B586B000AFF86023
:103DA000B9607A6000237B61FB689B6B3B61FB68B9
:103DB0001B6C002B0DD1FB681B68002B4DD1FB68E1
:103DC0005B68184600F03EFF7861FB6800225A608D
:103DD00043E07B68002B19D1FB689868FB681B6C7B
:103DE0001A46B96801F0C4FCFB689A68FB681B6C52
:103DF0001A44FB689A60FB689A68FB685B689A42A1
:103E00002BD3FB681A68FB689A6026E0FB68D868C9
:103E1000FB681B6C1A46B96801F0AAFCFB68DA68FB
:103E2000FB681B6C5B421A44FB68DA60FB68DA686B
:103E3000FB681B689A4207D2FB685A68FB681B6CD8
:103E40005B421A44FB68DA607B68022B05D13B6950
:103E5000002B02D03B69013B3B613B695A1CFB686C
:103E60009A637B6918461837BD4680BD80B584B01B
:103E700000AF7860FFF776F97B6893F84530FB7305
:103E800011E07B685B6A002B12D07B6824331846F4
:103E900000F072FC0346002B01D000F047FDFB7BD5
:103EA000013BDBB2FB7397F90F30002BE9DC00E03C
:103EB00000BF7B68FF2283F84520FFF783F9FFF7F7
:103EC00051F97B6893F84430BB7311E07B681B6940
:103ED000002B12D07B681033184600F04DFC0346CF
:103EE000002B01D000F022FDBB7B013BDBB2BB739A
:103EF00097F90E30002BE9DC00E000BF7B68FF2261
:103F000083F84420FFF75EF900BF1037BD4680BD3F
:103F100080B584B000AF7860FFF724F97B689B6BB5
:103F2000002B02D10123FB6001E00023FB60FFF7BF
:103F300049F9FB6818461037BD4680BD80B584B08E
:103F400000AF7860FFF70EF97B689A6B7B68DB6BDC
:103F50009A4202D10123FB6001E00023FB60FFF7DE
:103F600031F9FB6818461037BD4680BD80B58EB06C
:103F700004AFF860B9607A603B607B6B002B0AD1BC
:103F80004FF0500383F31188BFF36F8FBFF34F8F50
:103F90003B6200BFFEE7BB6B002B0AD14FF0500322
:103FA00083F31188BFF36F8FBFF34F8FFB6100BFA7
:103FB000FEE754233B613B69542B0AD04FF050037A
:103FC00083F31188BFF36F8FBFF34F8FBB6100BFC7
:103FD000FEE7BB6B002B1ED07B6B002B1BD0BB6B9B
:103FE0007B627B6A7A6B1A637B6A022283F85120B8
:103FF000002303937B6A029307F1140301933B6B45
:1040000000933B687A68B968F86800F050F8786AFD
:1040100000F0CCF801E000237B617B69184628376B
:10402000BD4680BD80B58CB004AFF860B9603B6020
:104030001346FB80FB889B001846FFF775F97861F3
:104040007B69002B0ED05420FFF76EF9F861FB69F5
:10405000002B03D0FB697A691A6305E07869FFF7E2
:1040600027FA01E00023FB61FB69002B17D0FB69F5
:10407000002283F85120FA8800230393FB690293FE
:10408000FB6A0193BB6A00933B68B968F86800F06B
:104090000EF8F86900F08AF80123BB6102E04FF0E6
:1040A000FF33BB61BB6918462037BD4680BD80B574
:1040B00088B000AFF860B9607A603B603B6B1A6B08
:1040C0007B6803F18043013B9B001344BB61BB69E8
:1040D00023F00703BB61BB6903F00703002B0AD081
:1040E0004FF0500383F31188BFF36F8FBFF34F8FEF
:1040F0007B6100BFFEE70023FB6112E0BA68FB6949
:10410000134419783A6BFB69134434330A461A7026
:10411000BA68FB6913441B78002B06D0FB69013396
:10412000FB61FB690F2BE9D900E000BF3B6B00226C
:1041300083F84320BB6A062B01D90623BB623B6B85
:10414000BA6ADA623B6BBA6A5A643B6B00229A64C1
:104150003B6B04331846FEF741FE3B6B18331846A1
:10416000FEF73CFE3B6B3A6B1A61BB6AC3F1070278
:104170003B6B9A613B6B3A6B5A623B6B0022DA6491
:104180003B6B002283F850203A68F968B869FEF763
:10419000B9FE02463B6B1A60FB6A002B02D0FB6A39
:1041A0003A6B1A6000BF2037BD4680BD80B582B033
:1041B00000AF7860FEF7D6FF2A4B1B680133294A0F
:1041C0001360294B1B68002B09D1274A7B681360B9
:1041D000244B1B68012B10D100F0CCFB0DE0234BCE
:1041E0001B68002B09D1204B1B68DA6A7B68DB6AED
:1041F0009A4202D81C4A7B6813601D4B1B6801332E
:104200001B4A13607B68DB6A01229A40194B1B68CA
:104210001343184A13607B68DA6A13469B00134401
:104220009B00154A1A447B68043319461046FEF772
:10423000E2FDFEF7C7FF0D4B1B68002B0ED00A4BAB
:104240001B68DA6A7B68DB6A9A4207D20B4B4FF035
:1042500080521A60BFF34F8FBFF36F8F00BF0837D4
:10426000BD4680BD700D0020700C00207C0D00202C
:104270008C0D0020780D0020740C002004ED00E06F
:1042800080B584B000AF78600023FB607B68002BB2
:1042900017D0134B1B68002B0AD04FF0500383F349
:1042A0001188BFF36F8FBFF34F8FBB6000BFFEE776
:1042B00000F07AF80021786800F0FEFD00F082F846
:1042C000F860FB68002B07D1064B4FF080521A6054
:1042D000BFF34F8FBFF36F8F00BF1037BD4680BD58
:1042E000980D002004ED00E080B58AB004AF0023F3
:1042F000BB6000237B603A46391D07F1080318466E
:1043000000F040FE39687B68BA680292019300238E
:10431000009300230A461E491E48FFF727FE034666
:104320001D4A13601C4B1B68002B02D001237B61CC
:1043300001E000237B617B69012B16D14FF0500314
:1043400083F31188BFF36F8FBFF34F8F3B6100BFC3
:10435000124B4FF0FF321A60114B01221A60114BC1
:1043600000221A60FEF75CFE0EE07B69B3F1FF3FAE
:104370000AD14FF0500383F31188BFF36F8FBFF35F
:104380004F8FFB6000BFFEE700BF1837BD4680BD02
:104390004061000845490008940D0020900D002060
:1043A0007C0D0020740D002080B400AF044B1B680E
:1043B0000133034A136000BFBD465DF8047B7047BC
:1043C000980D002080B584B000AF0023FB6000236F
:1043D000BB60414B1B68002B0AD14FF0500383F3A5
:1043E0001188BFF36F8FBFF34F8F3B6000BFFEE7B5
:1043F000FEF7B8FE384B1B68013B374A1360364B5B
:104400001B68002B61D1354B1B68002B5DD02EE063
:10441000334BDB68DB68FB60FB6818331846FEF73C
:1044200047FDFB6804331846FEF742FDFB68DB6A74
:1044300001229A402B4B1B6813432A4A1360FB68E6
:10444000DA6A13469B0013449B00274A1A44FB6810
:10445000043319461046FEF7CEFCFB68DA6A234B9C
:104460001B68DB6A9A4202D3214B01221A601C4B63
:104470001B68002BCCD1FB68002B01D000F018FB8F
:104480001C4B1B687B607B68002B10D000F036F85B
:104490000346002B02D0164B01221A607B68013BB9
:1044A0007B607B68002BF1D1124B00221A60104B0D
:1044B0001B68002B09D00123BB600F4B4FF08052CB
:1044C0001A60BFF34F8FBFF36F8FFEF77BFEBB68A1
:1044D00018461037BD4680BD980D0020700D002095
:1044E000300D0020780D0020740C0020700C00208E
:1044F000840D0020800D002004ED00E080B586B022
:1045000000AF00237B61514B1B68002B40F08D8076
:104510004F4B1B6801333B614D4A3B6913603B695C
:10452000002B20D14B4B1B681B68002B0AD04FF08F
:10453000500383F31188BFF36F8FBFF34F8F3B603E
:1045400000BFFEE7434B1B68FB60434B1B68414ABF
:104550001360414AFB681360404B1B6801333F4ABC
:10456000136000F0A5FA3E4B1B683A699A424DD39E
:10457000384B1B681B68002B01D1012300E000238E
:10458000002B04D0364B4FF0FF321A603EE0314B27
:104590001B68DB68DB68BB60BB685B687B603A6993
:1045A0007B689A4203D22E4A7B6813602EE0BB6878
:1045B00004331846FEF77CFCBB689B6A002B04D0D2
:1045C000BB6818331846FEF773FCBB68DB6A012230
:1045D0009A40244B1B681343224A1360BB68DA6A73
:1045E00013469B0013449B001F4A1A44BB680433C4
:1045F00019461046FEF7FFFBBB68DA6A1B4B1B68C7
:10460000DB6A9A42B4D301237B61B1E7174B1B6885
:10461000DA6A154913469B0013449B000B441B6840
:10462000012B07D901237B6104E0114B1B68013387
:104630000F4A13600F4B1B68002B01D001237B61D5
:104640007B6918461837BD4680BD00BF980D002015
:10465000740D0020280D00202C0D0020880D002056
:10466000900D0020780D0020740C0020700C0020AC
:10467000800D0020840D002080B487B000AF274B50
:104680001B68002B03D0264B01221A603FE0244B0D
:1046900000221A60234B1B68FB60FB68B3FA83F3AC
:1046A000FB72FB7AC3F11F037B611F497A691346D2
:1046B0009B0013449B000B441B68002B0AD14FF056
:1046C000500383F31188BFF36F8FBFF34F8F7B606D
:1046D00000BFFEE77A6913469B0013449B00124A11
:1046E00013443B613B695B685A683B695A603B69AC
:1046F0005A683B6908339A4204D13B695B685A683F
:104700003B695A603B695B68DB68084A136000BF1D
:104710001C37BD465DF8047B704700BF980D002034
:10472000840D0020780D0020740C0020700C0020F7
:1047300080B584B000AF786039607B68002B0AD107
:104740004FF0500383F31188BFF36F8FBFF34F8F88
:10475000FB6000BFFEE7074B1B68183319467868FB
:10476000FEF76DFB0121386800F0A6FB00BF103793
:10477000BD4680BD700C002080B586B000AF78606B
:104780007B68DB68DB683B613B69002B0AD14FF03B
:10479000500383F31188BFF36F8FBFF34F8FFB601C
:1047A00000BFFEE73B6918331846FEF781FB1D4B3F
:1047B0001B68002B1CD13B6904331846FEF778FBBD
:1047C0003B69DB6A01229A40174B1B681343164A68
:1047D00013603B69DA6A13469B0013449B00134A3B
:1047E0001A443B69043319461046FEF704FB05E002
:1047F0003B69183319460E48FEF7FDFA3B69DA6A41
:104800000C4B1B68DB6A9A4205D901237B610A4B7A
:1048100001221A6001E000237B617B69184618378A
:10482000BD4680BD980D0020780D0020740C00203E
:10483000300D0020700C0020840D002080B483B067
:1048400000AF7860064B1A687B681A60054B1A68DF
:104850007B685A6000BF0C37BD465DF8047B70472B
:10486000880D0020740D002080B588B000AF7860FE
:1048700039607B68002B0AD14FF0500383F3118815
:10488000BFF36F8FBFF34F8F3B6100BFFEE73B6805
:10489000002B0AD14FF0500383F31188BFF36F8FC1
:1048A000BFF34F8FFB6000BFFEE7FEF75BFC1D4BC5
:1048B0001B68BB617B685B68BA69D31A7B613B6824
:1048C0001B68B3F1FF3F02D10023FB6123E07B684B
:1048D0001A68154B1B689A4207D07B685B68BA69F7
:1048E0009A4202D30123FB6115E03B681B687A6999
:1048F0009A420BD23B681A687B69D21A3B681A60ED
:104900007868FFF79BFF0023FB6104E03B6800220F
:104910001A600123FB61FEF755FCFB69184620373E
:10492000BD4680BD740D0020880D002080B400AF0E
:10493000034B01221A6000BFBD465DF8047B70473F
:10494000840D002080B582B000AF786000F052F88E
:10495000064B1B68012BF9D9054B4FF080521A60AA
:10496000BFF34F8FBFF36F8FF0E700BF740C0020D1
:1049700004ED00E080B582B000AF00237B600CE066
:104980007A6813469B0013449B00124A134418464E
:10499000FEF704FA7B6801337B607B68062BEFD956
:1049A0000D48FEF7FBF90D48FEF7F8F90C48FEF745
:1049B000F5F90C48FEF7F2F90B48FEF7EFF90B4B4F
:1049C000054A1A600A4B054A1A6000BF0837BD46FF
:1049D00080BD00BF740C0020000D0020140D0020CD
:1049E000300D0020440D00205C0D0020280D00201B
:1049F0002C0D002080B582B000AF19E0FEF7B2FBAD
:104A0000104BDB68DB687B607B6804331846FEF77D
:104A10004FFA0D4B1B68013B0B4A13600B4B1B6895
:104A2000013B0A4A1360FEF7CDFB786800F010F8EE
:104A3000064B1B68002BE1D100BF00BF0837BD4605
:104A400080BD00BF440D0020700D0020580D0020D7
:104A500080B584B000AF78607B6893F85130002B4C
:104A600008D17B681B6B1846FEF722FD7868FEF7BD
:104A70001FFD18E07B6893F85130012B03D1786853
:104A8000FEF716FD0FE07B6893F85130022B0AD039
:104A90004FF0500383F31188BFF36F8FBFF34F8F35
:104AA000FB6000BFFEE700BF1037BD4680BD0000C1
:104AB00080B483B000AF0F4B1B681B68002B01D183
:104AC000012300E00023002B04D00B4B4FF0FF32FA
:104AD0001A6008E0074B1B68DB68DB687B607B685B
:104AE0005B68054A136000BF0C37BD465DF8047B68
:104AF000704700BF280D0020900D002080B483B0C7
:104B000000AF0B4B1B68002B02D101237B6008E038
:104B1000084B1B68002B02D102237B6001E00023BD
:104B20007B607B6818460C37BD465DF8047B704798
:104B30007C0D0020980D002080B584B000AF786017
:104B40007B68BB600023FB607B68002B6ED0BB687A
:104B5000DA6A394B1B68DB6A9A425ED2BB689B6992
:104B6000002B06DB344B1B68DB6AC3F10702BB6812
:104B70009A61BB685969BB68DA6A13469B001344A3
:104B80009B002E4A1344994201D1012300E00023E7
:104B9000002B3AD0BB6804331846FEF789F9034668
:104BA000002B15D1BB68DA6A244913469B001344D5
:104BB0009B000B441B68002B0AD1BB68DB6A0122F7
:104BC00002FA03F3DA431E4B1B6813401C4A1360BE
:104BD000194B1B68DA6ABB68DA62BB68DB6A0122C0
:104BE0009A40174B1B681343154A1360BB68DA6A77
:104BF00013469B0013449B00104A1A44BB680433BD
:104C000019461046FEF7F7F804E00B4B1B68DA6A0A
:104C1000BB68DA620123FB6008E0BB685A6C064B94
:104C20001B68DB6A9A4201D20123FB60FB681846CD
:104C30001037BD4680BD00BF700C0020740C0020F2
:104C4000780D002080B586B000AF78607B683B614E
:104C500000237B617B68002B6ED03A4B1B683A695E
:104C60009A420AD04FF0500383F31188BFF36F8F3D
:104C7000BFF34F8FFB6000BFFEE73B699B6C002BCF
:104C80000AD14FF0500383F31188BFF36F8FBFF346
:104C90004F8FBB6000BFFEE73B699B6C5A1E3B69B0
:104CA0009A643B69DA6A3B695B6C9A4244D03B691F
:104CB0009B6C002B40D13B6904331846FEF7F8F893
:104CC0000346002B15D13B69DA6A1F4913469B0046
:104CD00013449B000B441B68002B0AD13B69DB6A21
:104CE000012202FA03F3DA43184B1B681340174AF8
:104CF00013603B695A6C3B69DA623B69DB6AC3F15A
:104D000007023B699A613B69DB6A01229A400F4BBB
:104D10001B6813430D4A13603B69DA6A13469B0014
:104D200013449B00084A1A443B6904331946104651
:104D3000FEF761F801237B617B6918461837BD4691
:104D400080BD00BF700C0020740C0020780D002086
:104D500080B588B000AF786039607B68BB610123A3
:104D60007B617B68002B00F08880BB699B6C002B0B
:104D70000AD14FF0500383F31188BFF36F8FBFF355
:104D80004F8FFB6000BFFEE7BB695B6C3A689A42DD
:104D900002D93B68FB6102E0BB695B6CFB61BB69EC
:104DA000DB6AFA699A4268D0BB699B6C7A699A425D
:104DB00063D1344B1B68BA699A420AD14FF0500351
:104DC00083F31188BFF36F8FBFF34F8FBB6000BFBA
:104DD000FEE7BB69DB6A3B61BB69FA69DA62BB6902
:104DE0009B69002B04DBFB69C3F10702BB699A6175
:104DF000BB6959693A6913469B0013449B00224AD8
:104E00001344994201D1012300E00023002B34D048
:104E1000BB6904331846FEF74BF80346002B15D147
:104E2000BB69DA6A184913469B0013449B000B4484
:104E30001B68002B0AD1BB69DB6A012202FA03F36B
:104E4000DA43124B1B681340104A1360BB69DB6ADC
:104E500001229A400D4B1B6813430C4A1360BB6937
:104E6000DA6A13469B0013449B00074A1A44BB6945
:104E7000043319461046FDF7BEFF00BF2037BD467C
:104E800080BD00BF700C0020740C0020780D002045
:104E900080B400AF074B1B68002B04D0054B1B6888
:104EA0009A6C01329A64034B1B681846BD465DF844
:104EB000047B7047700C002080B584B000AF786030
:104EC0003960294B1B68FB60284B1B68043318466C
:104ED000FDF7EEFF0346002B0BD1244B1B68DB6A6A
:104EE000012202FA03F3DA43214B1B681340204AE4
:104EF00013607B68B3F1FF3F0AD13B68002B07D0FA
:104F00001A4B1B68043319461A48FDF774FF26E054
:104F1000FA687B681344BB60144B1B68BA685A601C
:104F2000BA68FB689A4209D2134B1A680F4B1B6888
:104F3000043319461046FDF782FF10E00F4B1A6844
:104F40000A4B1B68043319461046FDF778FF0C4BDB
:104F50001B68BA689A4202D2094ABB68136000BF54
:104F60001037BD4680BD00BF740D0020700C0020BE
:104F7000780D00205C0D00202C0D0020280D002055
:104F8000900D002080B485B000AFF860B9607A6001
:104F9000FB68074A1A60BB68064A1A607B68802271
:104FA0001A6000BF1437BD465DF8047B704700BF30
:104FB000A80D0020FC0D0020B0B590B000AF00237C
:104FC000BB630023FB6307F1380301211846FDF79B
:104FD000B3FE0346144A1360144B07F11C041D462C
:104FE0000FCD0FC495E8070084E8070007F11C0304
:104FF00000211846FDF740FE03460D4A13600D4B95
:105000003C461D460FCD0FC495E8070084E8070015
:105010003B4600211846FDF72FFE0346064A136063
:1050200000BF4037BD46B0BDA40D0020646100083C
:105030009C0D002080610008A00D002080B584B088
:1050400000AF78600123FB60094B1B684FF0FF3114
:105050001846FEF77DFDF860FB68012BF4D105488A
:1050600000F00AFC4FF400510348FBF7EFFCEBE7BC
:10507000A40D00209C6100080008004880B584B0A1
:1050800000AF78600123FB6004211B48FBF7AEFCF6
:105090000346002B11D1194B186800230022002170
:1050A000FEF758FCF860FB68012B03D1144800F0B0
:1050B000E3FB02E0134800F0DFFB08210E48FBF79A
:1050C00095FC0346002B11D10C4B186800230022DD
:1050D0000021FEF73FFCF860FB68012B03D1084874
:1050E00000F0CAFB02E0074800F0C6FB4FF4FA707C
:1050F000FDF70EFEC8E700BF00040048A40D002025
:10510000C8610008F461000880B58AB000AF07F1FB
:10511000140300221A605A609A60DA601A612A4BFE
:10512000DB6C294A43F00403D364274BDB6C03F0A8
:1051300004033B613B69244BDB6C234A43F080034F
:10514000D364214BDB6C03F08003FB60FB681E4BD8
:10515000DB6C1D4A43F00203D3641B4BDB6C03F092
:105160000203BB60BB68184BDB6C174A43F00103BA
:10517000D364154BDB6C03F001037B607B6800227A
:105180004FF400511148FBF749FC4FF400537B6189
:105190000123BB610023FB6100233B6207F1140381
:1051A00019460A48FBF7A8FA0C237B610023BB6170
:1051B0000123FB6107F1140319460548FBF79CFA2C
:1051C00000BF2837BD4680BD0010024000080048DF
:1051D0000004004880B584B000AFF860B9607A6020
:1051E0007B689AB24FF6FF73B9680448FDF754F82C
:1051F0007B6818461037BD4680BD00BF40100020B8
:1052000080B500AFFBF760F900F00EF8FFF77CFF08
:1052100000F0E6F9034800F02FFBFFF7CDFEFDF7A5
:1052200024FDFEE72062000880B5AEB000AF07F1B4
:10523000740344220021184600F0A8FA07F1600325
:1052400000221A605A609A60DA601A613B1D5C2283
:105250000021184600F09AFA01237B674FF480334F
:10526000BB670223C7F89C300323C7F8A030012393
:10527000C7F8A4301423C7F8A8300723C7F8AC3008
:105280000223C7F8B0300223C7F8B43007F1740323
:105290001846FBF759FC0346002B01D000F042F8FA
:1052A0000F233B6603237B660023BB660023FB665C
:1052B00000233B6707F1600304211846FCF732F82E
:1052C0000346002B01D000F02DF801237B60002362
:1052D0007B623B1D1846FCF75DFA0346002B01D0AC
:1052E00000F020F84FF40070FBF7D8FB0346002BCA
:1052F00001D000F017F800BFB837BD4680BD0000F0
:1053000080B582B000AF78607B681B68044A934226
:1053100001D1FBF7F1F800BF0837BD4680BD00BFE3
:10532000002C014080B400AF00BFBD465DF8047B97
:105330007047000080B582B000AF114B1B6E104A61
:1053400043F0010313660E4B1B6E03F001037B60F9
:105350007B680B4B9B6D0A4A43F080539365084B67
:105360009B6D03F080533B603B6800220F216FF080
:105370000100FBF797F900BF0837BD4680BD00BFAD
:105380000010024080B58CB000AF78600023FB6253
:105390000023BB62002279681920FBF783F91920EA
:1053A000FBF79CF91E4B1B6E1D4A43F4006313660A
:1053B0001B4B1B6E03F40063FB60FB6807F11002DC
:1053C00007F1140311461846FCF752F9FCF73AF9B5
:1053D000F862FB6A134AA2FB03239B0C013BBB62EE
:1053E000114B124A1A60104B40F2E732DA600E4A53
:1053F000BB6A53600C4B00221A610B4B00229A606F
:105400000948FCF7D1FC0346002B04D10648FCF701
:1054100001FD034600E0012318463037BD4680BD3C
:105420000010024083DE1B43FC0F0020002C0140D3
:1054300080B400AF00BFBD465DF8047B704780B408
:1054400000AFFEE780B400AFFEE780B400AFFEE738
:1054500080B400AFFEE780B400AF00BFBD465DF88A
:10546000047B704780B500AF0248FCF7FDFC00BF2D
:1054700080BD00BFFC0F002080B586B000AFF86093
:10548000B9607A6000237B610AE0AFF300800146D7
:10549000BB685A1CBA60CAB21A707B6901337B615F
:1054A0007A697B689A42F0DB7B6818461837BD46FC
:1054B00080BD000080B584B000AF7860114B1B68E0
:1054C000002B02D10F4B104A1A600E4B1B68FB6079
:1054D0000C4B1A687B6813446A46934207D900F064
:1054E0001DF903460C221A604FF0FF3306E0054B0E
:1054F0001A687B681344034A1360FB681846103728
:10550000BD4680BD3C100020D810002080B483B080
:1055100000AF78604FF0FF3318460C37BD465DF89A
:10552000047B704780B483B000AF786039603B681B
:105530004FF400525A60002318460C37BD465DF800
:10554000047B704780B483B000AF786001231846B5
:105550000C37BD465DF8047B704780B485B000AF62
:10556000F860B9607A60002318461437BD465DF8CC
:10557000047B704780B400AF174BD3F88830164ACD
:1055800043F47003C2F88830144B1B68134A43F08D
:1055900001031360114B00229A60104B1B680F4AE5
:1055A00023F0A85323F4102313600C4B4FF48052C4
:1055B000DA600A4B1B68094A23F480231360074B07
:1055C00000229A61044B4FF000629A6000BFBD4612
:1055D0005DF8047B704700BF00ED00E00010024062
:1055E00080B500AF144B154A1A60134B4FF4E132EB
:1055F0005A60114B00229A600F4B0022DA600E4B6A
:1056000000221A610C4B0C225A610B4B00229A614A
:10561000094B0022DA61084B00221A62064B002275
:105620005A620548FCF7EAFD0346002B01D0FFF75C
:1056300079FE00BF80BD00BF40100020003801404F
:1056400080B58AB000AF786007F1140300221A60B9
:105650005A609A60DA601A617B681B68184A934244
:1056600029D1184B1B6E174A43F480431366154B20
:105670001B6E03F480433B613B69124BDB6C114AA8
:1056800043F00103D3640F4BDB6C03F00103FB60B9
:10569000FB684FF4C0637B610223BB610023FB61A5
:1056A00003233B6207237B6207F1140319464FF083
:1056B0009040FBF721F800BF2837BD4680BD00BFF2
:1056C0000038014000100240DFF834D0002103E030
:1056D0000C4B5B58435004310B480C4B42189A4218
:1056E000F6D30B4A02E0002342F8043B094B9A42EE
:1056F000F9D3FFF73FFF00F017F8FFF781FDFEE752
:1057000000000120F862000800000020780000205E
:1057100078000020D8100020FEE70000014B186838
:10572000704700BF1000002070B50D4D0D4C641B7C
:10573000A4100026A64209D10B4D0C4C00F0F4FC3D
:10574000641BA4100026A64205D170BD55F8043B89
:1057500098470136EEE755F8043B98470136F2E7E3
:10576000E8620008E8620008E8620008EC620008ED
:105770000A44914200F1FF3300D1704710B511F88F
:10578000014B03F8014F9142F9D110BD0244034689
:10579000934200D1704703F8011BF9E770B50E463C
:1057A000054618B183690BB900F048FAAB69AC68DB
:1057B00013B9284600F042FA2C4B9C4220D16C6869
:1057C000636EDB0705D4A389980502D4A06D00F0B1
:1057D000D3FAA38919071DD52369DBB1013EA3685C
:1057E00016F8011F013BA36039BB002B38DA2246B3
:1057F0000A21284600F048F8013011D00A2511E0AE
:105800001B4B9C4201D1AC68DAE71A4B9C4208BFA3
:10581000EC68D5E72146284600F088F80028DDD05E
:105820004FF0FF35636EDA0705D4A3899B0502D4D8
:10583000A06D00F0A2FA284670BD002B04DAA26920
:105840009A4206DC0A2904D023685A1C2260197087
:10585000C5E72246284600F017F80130BFD1DFE740
:1058600023680A255A1C22601D70DBE79C62000831
:10587000BC6200087C620008024B01461868FFF712
:105880008DBF00BF10000020F8B50E461446054637
:1058900018B183690BB900F0D1F9214B9C422BD18F
:1058A0006C68A369A360A3891A072FD523696BB31A
:1058B00023692068C01A6369F6B28342374604DC64
:1058C0002146284600F026F930BBA368013BA360BF
:1058D00023685A1C22601E7063690130834204D021
:1058E000A389DB0706D50A2E04D12146284600F0FD
:1058F00011F988B93846F8BD0A4B9C4201D1AC6811
:10590000CFE7094B9C4208BFEC68CAE7214628460E
:1059100000F00CF80028CBD04FF0FF37EAE700BFCB
:105920009C620008BC6200087C620008324B70B5C3
:105930001D6806460C4625B1AB6913B9284600F030
:105940007DF92E4B9C420FD16C68A389B4F90C20D1
:1059500019072CD4DD0611D40923336042F040032B
:10596000A3814FF0FF303EE0254B9C4201D1AC6853
:10597000EBE7244B9C4208BFEC68E6E7580712D5DA
:10598000616B41B104F14403994202D0304600F00A
:1059900059FA00236363A38923F02403A38100231E
:1059A000636023692360A38943F00803A38123690B
:1059B0004BB9A38903F42073B3F5007F03D02146CC
:1059C000304600F0FFF9A089B4F90C2010F0010373
:1059D0000AD00023A36063695B42A361236943B9D2
:1059E00010F08000BAD170BD810758BF6369A36011
:1059F000F4E70020F7E700BF100000209C620008D9
:105A0000BC6200087C6200088A892DE9F0410546E5
:105A100010070C4658D44B68002B05DC0B6C002B90
:105A200002DC0020BDE8F081E66A002EF9D00023F8
:105A300012F480522F682B6032D0606DA3895A0710
:105A400005D56368C01A636B0BB1236CC01A0023C1
:105A50000246E66A216A2846B047431CA38906D15C
:105A600029681D292CD82A4ACA40D60728D50022E1
:105A70006260D9042269226004D5421C01D12B68DE
:105A800003B96065616B2F600029CAD004F144033B
:105A9000994202D0284600F0D5F900206063C1E7A2
:105AA000216A01232846B047411CC7D12B68002B2F
:105AB000C4D01D2B01D0162B01D12F60B1E7A389D3
:105AC00043F04003A381ADE70F69002FA9D09307EE
:105AD0000E6808BF4B690F6018BF0023A6EB0708CC
