:020000040800F2
:100000000000012011530008895000089550000895
:100010009B500008A1500008A750000800000000F5
:10002000000000000000000000000000AD500008CB
:10003000B950000800000000C5500008D150000869
:1000400061530008615300086153000861530008C0
:1000500061530008615300086153000861530008B0
:1000600061530008615300086153000861530008A0
:100070006153000861530008615300086153000890
:100080006153000861530008615300086153000880
:100090006153000861530008615300086153000870
:1000A0006153000861530008615300086153000860
:1000B00061530008000000000000000061530008C8
:1000C0006153000861530008615300086153000840
:1000D0006153000861530008615300086153000830
:1000E0006153000861530008000000000000000098
:1000F0000000000000000000000000000000000000
:100100000000000061530008000000006153000877
:100110000000000000000000615300086153000867
:1001200061530008615300086153000861530008DF
:100130006153000800000000000000000000000003
:10014000615300086153000861530008000000007B
:1001500061530008615300086153000861530008AF
:10016000615300086153000861530008000000005B
:100170006153000861530008000000000000000007
:10018000615300086153000861530008000000003B
:1001900010B5054C237833B9044B13B10448AFF3C1
:1001A00000800123237010BD7000002000000000BB
:1001B0001064000808B5034B1BB103490348AFF3B3
:1001C000008008BD000000007400002010640008DA
:1001D00080F0004002E000BF81F0004142001FBFFC
:1001E0005FEA410392EA030F7FEA226C7FEA236C05
:1001F0006AD04FEA1262D2EB1363C1BFD2184140FA
:1002000048404140B8BF5B42192B88BF704710F08F
:10021000004F40F4000020F07F4018BF404211F032
:10022000004F41F4000121F07F4118BF494292EA9A
:10023000030F3FD0A2F1010241FA03FC10EB0C00C6
:10024000C3F1200301FA03F100F0004302D5494253
:1002500060EB4000B0F5000F13D3B0F1807F06D300
:1002600040084FEA310102F10102FE2A51D2B1F1F8
:10027000004F40EBC25008BF20F0010040EA0300ED
:100280007047490040EB0000013A28BFB0F5000F6D
:10029000EDD2B0FA80FCACF1080CB2EB0C0200FA23
:1002A0000CF0AABF00EBC25052421843BCBFD04072
:1002B0001843704792F0000F81F4000106BF80F4EC
:1002C00000000132013BB5E74FEA41037FEA226CAF
:1002D00018BF7FEA236C21D092EA030F04D092F07A
:1002E000000F08BF0846704790EA010F1CBF0020AE
:1002F000704712F07F4F04D1400028BF40F000400B
:10030000704712F100723CBF00F50000704700F02A
:10031000004343F0FE4040F4000070477FEA226251
:1003200016BF08467FEA23630146420206BF5FEA22
:10033000412390EA010F40F4800070474FF0000322
:1003400004E000BF10F0004348BF40425FEA000CE9
:1003500008BF704743F0964301464FF000001CE091
:1003600050EA010208BF70474FF000030AE000BFE7
:1003700050EA010208BF704711F0004302D5404225
:1003800061EB41015FEA010C02BF84460146002097
:1003900043F0B64308BFA3F18053A3F50003BCFAB2
:1003A0008CF2083AA3EBC25310DB01FA02FC63445F
:1003B00000FA02FCC2F12002BCF1004F20FA02F266
:1003C00043EB020008BF20F00100704702F1200259
:1003D00001FA02FCC2F1200250EA4C0021FA02F2BA
:1003E00043EB020008BF20EADC7070474FF0FF0CBF
:1003F0001CEAD0521EBF1CEAD15392EA0C0F93EABA
:100400000C0F6FD01A4480EA010C400218BF5FEA5B
:1004100041211ED04FF0006343EA501043EA5111CE
:10042000A0FB01310CF00040B1F5000F3EBF4900C8
:1004300041EAD3715B0040EA010062F17F02FD2ACC
:100440001DD8B3F1004F40EBC25008BF20F00100AF
:10045000704790F0000F0CF0004C08BF49024CEAC6
:10046000502040EA51207F3AC2BFD2F1FF0340EA58
:10047000C250704740F400004FF00003013A5DDCC9
:1004800012F1190FDCBF00F000407047C2F100020A
:10049000410021FA02F1C2F1200200FA02FC5FEAF7
:1004A000310040F1000053EA4C0308BF20EADC7041
:1004B000704792F0000F00F0004C02BF400010F4B3
:1004C000000F013AF9D040EA0C0093F0000F01F060
:1004D000004C02BF490011F4000F013BF9D041EA82
:1004E0000C018FE70CEAD15392EA0C0F18BF93EA84
:1004F0000C0F0AD030F0004C18BF31F0004CD8D1AE
:1005000080EA010000F00040704790F0000F17BF34
:1005100090F0004F084691F0000F91F0004F14D07A
:1005200092EA0C0F01D142020FD193EA0C0F03D1D2
:100530004B0218BF084608D180EA010000F00040D5
:1005400040F0FE4040F40000704740F0FE4040F4B0
:10055000400070474FF0FF0C1CEAD0521EBF1CEA4F
:10056000D15392EA0C0F93EA0C0F69D0A2EB03026D
:1005700080EA010C49024FEA402037D04FF0805307
:1005800043EA111143EA10130CF000408B4238BFCC
:100590005B0042F17D024FF4000C8B4224BF5B1ADA
:1005A00040EA0C00B3EB510F24BFA3EB510340EA28
:1005B0005C00B3EB910F24BFA3EB910340EA9C00D6
:1005C000B3EBD10F24BFA3EBD10340EADC001B0146
:1005D00018BF5FEA1C1CE0D1FD2A3FF650AF8B42EA
:1005E00040EBC25008BF20F0010070470CF0004CF7
:1005F0004CEA50207F32C2BFD2F1FF0340EAC25022
:10060000704740F400004FF00003013A37E792F0E2
:10061000000F00F0004C02BF400010F4000F013A40
:10062000F9D040EA0C0093F0000F01F0004C02BF3B
:10063000490011F4000F013BF9D041EA0C0195E7A4
:100640000CEAD15392EA0C0F08D142027FF47DAF3D
:1006500093EA0C0F7FF470AF084676E793EA0C0F2D
:1006600004D14B023FF44CAF08466EE730F0004C2B
:1006700018BF31F0004CCAD130F000427FF45CAFBB
:1006800031F000437FF43CAF5FE700BF4FF0FF3C29
:1006900006E000BF4FF0010C02E000BF4FF0010C7C
:1006A0004DF804CD4FEA40024FEA41037FEA226C45
:1006B00018BF7FEA236C11D001B052EA530C18BF67
:1006C00090EA010F58BFB2EB030088BFC81738BFCC
:1006D0006FEAE17018BF40F0010070477FEA226CBA
:1006E00002D15FEA402C05D17FEA236CE4D15FEAB6
:1006F000412CE1D05DF8040B704700BF84460846EA
:100700006146FFE70FB5FFF7C9FF002848BF10F1AA
:10071000000F0FBD4DF808EDFFF7F4FF0CBF0120EF
:1007200000205DF808FB00BF4DF808EDFFF7EAFF79
:1007300034BF012000205DF808FB00BF4DF808ED34
:10074000FFF7E0FF94BF012000205DF808FB00BF29
:100750004DF808EDFFF7D2FF94BF012000205DF8AF
:1007600008FB00BF4DF808EDFFF7C8FF34BF0120BC
:1007700000205DF808FB00BF4FEA4002B2F1FE4FD7
:100780000FD34FF09E03B3EB12620DD94FEA002353
:1007900043F0004310F0004F23FA02F018BF40422C
:1007A00070474FF00000704712F1610F01D1420213
:1007B00005D110F0004008BF6FF0004070474FF0C7
:1007C0000000704753B94AB9002908BF00281CBF70
:1007D0004FF0FF314FF0FF3000F06CB9ADF1080C75
:1007E0006DE904CE00F006F8DDF804E0DDE902234F
:1007F00004B070472DE9F047089E0D4604468E462A
:10080000002B40F082808A42174646D9B2FA82F223
:100810004AB1C2F1200105FA02F320FA01F1974032
:1008200041EA030E94404FEA1748230CBEFBF8FC44
:10083000B9B208FB1CEE43EA0E430CFB01F09842F0
:100840000AD9FB180CF1FF3580F01681984240F26E
:100850001381ACF1020C3B441B1AA4B2B3FBF8F0B9
:1008600008FB103344EA034400FB01F1A14209D91B
:100870003C1900F1FF3380F00181A14240F2FE807B
:1008800002383C44641A40EA0C4000211EB1D440B6
:100890000023C6E90043BDE8F08702B9FFDEB2FAE3
:1008A00082F2002A4FD1CB1B4FEA174E1FFA87F86E
:1008B0000121B3FBFEFC250C0EFB1C3345EA03456E
:1008C00008FB0CF3AB4207D97D190CF1FF3002D2C3
:1008D000AB4200F2E7808446ED1AA3B2B5FBFEF00E
:1008E0000EFB105543EA054408FB00F8A04507D964
:1008F0003C1900F1FF3302D2A04500F2D780184620
:10090000A4EB080440EA0C40C0E78B4208D9002E53
:1009100000F0AF800021C6E900050846BDE8F08779
:10092000B3FA83F100294BD1AB4202D3824200F2E9
:10093000B780841A65EB030301209E46002EAAD0DF
:10094000C6E9004EA7E7C2F1200C01FA02F3974076
:1009500020FA0CF04FEA174E21FA0CFC1843BCFBAE
:10096000FEF1050C0EFB11CC1FFA87F845EA0C4589
:1009700001FB08F3AB4204FA02F409D97D1901F135
:10098000FF3C80F08B80AB4240F2888002393D44CE
:10099000EB1A85B2B3FBFEF00EFB103345EA0345BC
:1009A00000FB08F3AB4207D97D1900F1FF3C71D27F
:1009B000AB426FD902383D44EB1A40EA014178E777
:1009C000C1F1200C8B4022FA0CF71F4320FA0CF4E3
:1009D00005FA01F34FEA174E25FA0CF51C43230CD8
:1009E000B5FBFEF91FFA87F80EFB195543EA0545DA
:1009F00009FB08FAAA4502FA01F200FA01F308D944
:100A00007D1909F1FF3047D2AA4545D9A9F102095C
:100A10003D44A5EB0A05A4B2B5FBFEF00EFB105554
:100A200044EA054400FB08F8A04507D93C1900F149
:100A3000FF352DD2A0452BD902383C4440EA09406D
:100A4000A4EB0804A0FB02894C45C6464D4619D3C9
:100A500016D05EB1B3EB0E0264EB050404FA0CFC95
:100A6000CA404CEA0202CC40C6E900240021BDE89D
:100A7000F087314630460EE7AC46EDE6184601E712
:100A80004345E6D2B8EB020E69EB07050138E0E713
:100A90002846D3E760468FE78146BAE7614677E7A5
:100AA00008464BE7ACF1020C3D4415E702383C44E4
:100AB00026E700BF704700BF0000000000000000F4
:100AC00001F0FF01102A2BDB10F0070F08D010F8FF
:100AD000013B013A8B422DD010F0070F42B3F6D103
:100AE000F0B441EA012141EA014122F007047FF01C
:100AF00000070023F0E80256083C85EA010586EA73
:100B0000010685FA47F5A3FA87F586FA47F6A5FAAE
:100B100087F68EB9EED1F0BC01F0FF0102F00702BA
:100B200032B110F8013B013A83EA010313B1F8D165
:100B30000020704701387047002D06BF3546033846
:100B4000073815F0010F07D1013015F4807F02BF7F
:100B5000013015F4C03F0130F0BC0138704700BFD0
:100B600080B582B000AF0023FB71032000F038F99C
:100B7000002000F00DF80346002B02D00123FB718A
:100B800001E004F05FFAFB7918460837BD4680BDE6
:100B900080B584B000AF78600023FB73164B1B68F0
:100BA000002B22D0154B1A68134B1B684FF47A7137
:100BB000B1FBF3F3B2FBF3F3184600F038F9034648
:100BC000002B0FD17B680F2B09D8002279684FF0DA
:100BD000FF3000F010F90A4A7B68136007E0012338
:100BE000FB7304E00123FB7301E00123FB73FB7B38
:100BF00018461037BD4680BD0400002008000020C4
:100C00000000002080B400AF054B1A68054B1B683C
:100C10001344034A136000BFBD4680BC704700BF49
:100C20008C0000200400002080B400AF024B1B6841
:100C30001846BD4680BC70478C00002080B584B04B
:100C400000AF7860FFF7F0FFB8607B68FB60FB687F
:100C5000B3F1FF3F04D0094B1B68FA681344FB60F3
:100C600000BFFFF7E1FF0246BB68D31AFA689A4259
:100C7000F7D800BF00BF1037BD4680BD040000207C
:100C800080B485B000AF78607B6803F00703FB6039
:100C90000C4BDB68BB60BA684FF6FF031340BB60C8
:100CA000FB681A02BB68134343F0BF6343F400338D
:100CB000BB60044ABB68D36000BF1437BD4680BC2C
:100CC000704700BF00ED00E080B400AF044BDB686C
:100CD0001B0A03F007031846BD4680BC704700BFDF
:100CE00000ED00E080B483B000AF03463960FB71D3
:100CF00097F90730002B0ADB3B68DAB20C4997F909
:100D000007301201D2B20B4483F800230AE03B689B
:100D1000DAB20849FB7903F00F03043B1201D2B2A7
:100D20000B441A7600BF0C37BD4680BC704700BF2D
:100D300000E100E000ED00E080B489B000AFF860B1
:100D4000B9607A60FB6803F00703FB61FB69C3F1DC
:100D50000703042B28BF0423BB61FB690433062B64
:100D600002D9FB69033B00E000237B614FF0FF32B7
:100D7000BB6902FA03F3DA43BB681A407B699A4005
:100D80004FF0FF317B6901FA03F3D9437B680B40D5
:100D9000134318462437BD4680BC704780B582B0E7
:100DA00000AF78607B68013BB3F1807F01D3012302
:100DB0000FE00A4A7B68013B53600F214FF0FF3080
:100DC000FFF790FF054B00229A60044B07221A6040
:100DD000002318460837BD4680BD00BF10E000E084
:100DE00080B582B000AF78607868FFF749FF00BF38
:100DF0000837BD4680BD80B586B000AF0346B960F8
:100E00007A60FB7300237B61FFF75EFF78617A688D
:100E1000B9687869FFF790FF024697F90F301146DD
:100E20001846FFF75FFF00BF1837BD4680BD80B58D
:100E300082B000AF78607868FFF7B0FF03461846CD
:100E40000837BD4680BD000080B487B000AF786031
:100E5000396000237B6154E13B681A6801217B699A
:100E600001FA03F31340FB60FB68002B00F046819E
:100E70003B685B68022B03D03B685B68122B23D175
:100E80007B69DA087B68083253F822303B617B6962
:100E900003F007039B000F2202FA03F3DB433A69D6
:100EA00013403B613B681A697B6903F007039B00B1
:100EB00002FA03F33A6913433B617B69DA087B6802
:100EC0000832396943F822107B681B683B617B69F3
:100ED0005B00032202FA03F3DB433A6913403B61F0
:100EE0003B685B6803F003027B695B0002FA03F373
:100EF0003A6913433B617B683A691A603B685B68F7
:100F0000012B0BD03B685B68022B07D03B685B680A
:100F1000112B03D03B685B68122B30D17B689B6838
:100F20003B617B695B00032202FA03F3DB433A690E
:100F300013403B613B68DA687B695B0002FA03F3AC
:100F40003A6913433B617B683A699A607B685B68E6
:100F50003B6101227B6902FA03F3DB433A691340E8
:100F60003B613B685B681B0903F001027B6902FA85
:100F700003F33A6913433B617B683A695A607B68C3
:100F8000DB683B617B695B00032202FA03F3DB430E
:100F90003A6913403B613B689A687B695B0002FADF
:100FA00003F33A6913433B617B683A69DA603B6853
:100FB0005B6803F08053002B00F0A080584B1B6E41
:100FC000574A43F001031366554B1B6E03F00103B0
:100FD000BB60BB68534A7B699B08023352F82330DD
:100FE0003B617B6903F003039B000F2202FA03F3CA
:100FF000DB433A6913403B617B68B3F1904F19D0F2
:101000007B68494A934213D07B68484A93420DD08B
:101010007B68474A934207D07B68464A934201D196
:10102000042308E0072306E0032304E0022302E090
:10103000012300E000237A6902F00302920093404A
:101040003A6913433B6137497B699B0802333A692C
:1010500041F82320384B1B683B61FB68DB433A694E
:1010600013403B613B685B6803F48033002B03D083
:101070003A69FB6813433B612F4A3B6913602E4B6F
:101080005B683B61FB68DB433A6913403B613B684B
:101090005B6803F40033002B03D03A69FB68134309
:1010A0003B61254A3B695360234B9B683B61FB686E
:1010B000DB433A6913403B613B685B6803F4801390
:1010C000002B03D03A69FB6813433B611A4A3B6922
:1010D0009360194BDB683B61FB68DB433A69134063
:1010E0003B613B685B6803F40013002B03D03A6953
:1010F000FB6813433B61104A3B69D3607B69013352
:101100007B613B681A687B6922FA03F3002B7FF44A
:10111000A3AE00BF00BF1C37BD4680BC704700BFF8
:101120000010024000000140000400480008004890
:10113000000C0048001000480004014080B483B057
:1011400000AF78600B467B8013467B707B78002B6A
:1011500003D07A887B689A6102E07A887B689A6219
:1011600000BF0C37BD4680BC704780B582B000AF71
:1011700078607B68002B01D1012381E07B6893F8C4
:101180004130DBB2002B06D17B68002283F840207F
:10119000786802F009FF7B68242283F841207B688D
:1011A0001B681A687B681B6822F001021A607B6862
:1011B0005A687B681B6822F070621A617B681B6842
:1011C0009A687B681B6822F400429A607B68DB683F
:1011D000012B07D17B689A687B681B6842F4004248
:1011E0009A6006E07B689A687B681B6842F4044258
:1011F0009A607B68DB68022B04D17B681B684FF424
:1012000000625A607B681B685B687A68126843F00A
:10121000007343F4004353607B681B68DA687B68A3
:101220001B6822F40042DA607B681A697B685B699C
:1012300042EA03017B689B691A027B681B680A43C8
:10124000DA607B68D9697B681A6A7B681B680A4325
:101250001A607B681B681A687B681B6842F0010291
:101260001A607B6800225A647B68202283F8412040
:101270007B6800221A637B68002283F842200023E7
:1012800018460837BD4680BD80B588B002AFF8600B
:101290007A601A460B467B8113463B81FB6893F8C4
:1012A0004130DBB2202B40F0DA80FB6893F840300D
:1012B000012B01D10223D3E0FB68012283F84020F7
:1012C000FFF7B2FC78617B690093192301224FF488
:1012D0000041F86800F0E5F90346002B01D0012336
:1012E000BEE0FB68212283F84120FB68102283F8CE
:1012F0004220FB6800225A64FB687A685A62FB68E5
:101300003A895A85FB6800225A63FB685B8D9BB261
:10131000FF2B0ED9FB68FF221A85FB681B8DDAB202
:101320007989514B00934FF08073F86800F048FBC7
:101330006CE0FB685B8D9AB2FB681A85FB681B8DBD
:10134000DAB27989484B00934FF00073F86800F0E7
:1013500037FB5BE07A69396AF86800F0E2F9034626
:10136000002B01D001237BE0FB685B6A1A78FB68E5
:101370001B689A62FB685B6A5A1CFB685A62FB68CE
:101380005B8D9BB2013B9AB2FB685A85FB681B8D53
:10139000013B9AB2FB681A85FB685B8D9BB2002B00
:1013A00034D0FB681B8D002B30D17B6900933B6AE6
:1013B00000228021F86800F074F90346002B01D068
:1013C00001234DE0FB685B8D9BB2FF2B0ED9FB68C0
:1013D000FF221A85FB681B8DDAB2798900230093FE
:1013E0004FF08073F86800F0EBFA0FE0FB685B8D5C
:1013F0009AB2FB681A85FB681B8DDAB279890023E3
:1014000000934FF00073F86800F0DAFAFB685B8D28
:101410009BB2002B9ED17A69396AF86800F0C1F955
:101420000346002B01D001231AE0FB681B68202231
:10143000DA61FB681B685968FB681A680B4B0B4044
:101440005360FB68202283F84120FB68002283F868
:101450004220FB68002283F84020002300E00223A2
:1014600018461837BD4680BD0020008000E800FE09
:1014700080B588B002AFF8607A601A460B467B816F
:1014800013463B81FB6893F84130DBB2202B40F0E0
:10149000DB80FB6893F84030012B01D10223D4E0BC
:1014A000FB68012283F84020FFF7BEFB78617B696F
:1014B0000093192301224FF40041F86800F0F1F87D
:1014C0000346002B01D00123BFE0FB68222283F8F2
:1014D0004120FB68102283F84220FB6800225A64F6
:1014E000FB687A685A62FB683A895A85FB68002271
:1014F0005A63FB685B8D9BB2FF2B0ED9FB68FF2202
:101500001A85FB681B8DDAB27989524B00934FF034
:101510008073F86800F054FA6DE0FB685B8D9AB256
:10152000FB681A85FB681B8DDAB27989494B0093F9
:101530004FF00073F86800F043FA5CE07A69396AAA
:10154000F86800F06BF90346002B01D001237CE022
:10155000FB681B685A6AFB685B6AD2B21A70FB6848
:101560005B6A5A1CFB685A62FB681B8D013B9AB28E
:10157000FB681A85FB685B8D9BB2013B9AB2FB68E6
:101580005A85FB685B8D9BB2002B34D0FB681B8DAA
:10159000002B30D17B6900933B6A00228021F868E0
:1015A00000F07FF80346002B01D001234DE0FB68DB
:1015B0005B8D9BB2FF2B0ED9FB68FF221A85FB685F
:1015C0001B8DDAB27989002300934FF08073F8689D
:1015D00000F0F6F90FE0FB685B8D9AB2FB681A85A4
:1015E000FB681B8DDAB27989002300934FF00073FA
:1015F000F86800F0E5F9FB685B8D9BB2002B9DD18C
:101600007A69396AF86800F0CCF80346002B01D0FB
:1016100001231AE0FB681B682022DA61FB681B6863
:101620005968FB681A680C4B0B405360FB6820221A
:1016300083F84120FB68002283F84220FB680022E7
:1016400083F84020002300E0022318461837BD46E7
:1016500080BD00BF0024008000E800FE80B483B09D
:1016600000AF78607B681B689B6903F00203022B64
:1016700003D17B681B6800229A627B681B689B69A8
:1016800003F00103012B07D07B681B689A697B6814
:101690001B6842F001029A6100BF0C37BD4680BC56
:1016A000704780B584B000AFF860B9603B60134606
:1016B000FB7122E03B68B3F1FF3F1ED0FFF7B4FAA5
:1016C0000246BB69D31A3A689A4202D33B68002BA0
:1016D00013D1FB685B6C43F02002FB685A64FB6823
:1016E000202283F84120FB68002283F84220FB6817
:1016F000002283F8402001230FE0FB681B689A69F1
:10170000BB681340BA689A420CBF01230023DBB2C6
:101710001A46FB799A42CDD0002318461037BD46B1
:1017200080BD80B584B000AFF860B9607A602CE00D
:101730007A68B968F86800F0DDF80346002B01D03C
:1017400001232AE0BB68B3F1FF3F1ED0FFF76CFA1C
:1017500002467B68D31ABA689A4202D3BB68002B50
:1017600013D1FB685B6C43F02002FB685A64FB6892
:10177000202283F84120FB68002283F84220FB6886
:10178000002283F84020012307E0FB681B689B6967
:1017900003F00203022BCBD1002318461037BD46BD
:1017A00080BD80B584B000AFF860B9607A6028E091
:1017B0007A68B968F86800F09DF80346002B01D0FC
:1017C000012326E0FFF730FA02467B68D31ABA6895
:1017D0009A4202D3BB68002B13D1FB685B6C43F0C9
:1017E0002002FB685A64FB68202283F84120FB68D2
:1017F000002283F84220FB68002283F84020012366
:1018000007E0FB681B689B6903F02003202BCFD106
:10181000002318461037BD4680BD000080B584B057
:1018200000AFF860B9607A6055E07A68B968F86826
:1018300000F060F80346002B01D0012353E0FB6861
:101840001B689B6903F02003202B29D1FB681B68D0
:101850009B6903F00403042B05D1FB681B8D002B4F
:1018600001D000233FE0FB681B682022DA61FB689F
:101870001B685968FB681A681D4B0B405360FB6876
:1018800000225A64FB68202283F84120FB68002272
:1018900083F84220FB68002283F84020012322E0E5
:1018A000FFF7C2F902467B68D31ABA689A4202D39C
:1018B000BB68002B0FD1FB685B6C43F02002FB6818
:1018C0005A64FB68202283F84120FB68002283F8D9
:1018D0004020012307E0FB681B689B6903F00403B9
:1018E000042BA2D1002318461037BD4680BD00BF8F
:1018F00000E800FE80B584B000AFF860B9607A609F
:10190000FB681B689B6903F01003102B51D122E088
:10191000BB68B3F1FF3F1ED0FFF786F902467B6834
:10192000D31ABA689A4202D3BB68002B13D1FB6862
:101930005B6C43F02002FB685A64FB68202283F84A
:101940004120FB68002283F84220FB68002283F8D4
:10195000402001232EE0FB681B689B6903F02003F5
:10196000202BD5D1FB681B681022DA61FB681B684D
:101970002022DA61F868FFF771FEFB681B6859687E
:10198000FB681A680D4B0B405360FB685B6C43F0BF
:101990000402FB685A64FB68202283F84120FB683C
:1019A000002283F84220FB68002283F840200123B4
:1019B00000E0002318461037BD4680BD00E800FE59
:1019C00080B485B000AFF8607B600B467B81134626
:1019D0007B72FB681B685A68BB695B0D03F480610E
:1019E0000C4B0B43DB4302EA03017B89C3F309027F
:1019F0007B7A1B0403F47F031A437B681A43BB6999
:101A00001A43FB681B680A435A6000BF1437BD467F
:101A100080BC7047FF63FF0380B483B000AF786081
:101A200039607B6893F84130DBB2202B38D17B687A
:101A300093F84030012B01D1022332E07B68012270
:101A400083F840207B68242283F841207B681B6850
:101A50001A687B681B6822F001021A607B681B68A9
:101A60001A687B681B6822F480521A607B681B68C6
:101A700019687B681B683A680A431A607B681B68B0
:101A80001A687B681B6842F001021A607B6820229A
:101A900083F841207B68002283F84020002300E087
:101AA000022318460C37BD4680BC704780B485B011
:101AB00000AF786039607B6893F84130DBB2202B4F
:101AC00039D17B6893F84030012B01D1022333E0F8
:101AD0007B68012283F840207B68242283F8412020
:101AE0007B681B681A687B681B6822F001021A6019
:101AF0007B681B681B68FB60FB6823F47063FB60FA
:101B00003B681B02FA681343FB607B681B68FA683A
:101B10001A607B681B681A687B681B6842F00102C8
:101B20001A607B68202283F841207B68002283F8BA
:101B30004020002300E0022318461437BD4680BC35
:101B40007047000080B400AF034B1B6803F4C06310
:101B50001846BD4680BC70470070004080B485B018
:101B600000AF78607B68B3F5007F30D1224B1B68F3
:101B700003F4C063B3F5007F38D01F4B1B6823F418
:101B8000C0631D4A43F4007313601C4B1B68322270
:101B900002FB03F31A4AA2FB03239B0C0133FB60F5
:101BA00002E0FB68013BFB60134B5B6903F480635D
:101BB000B3F5806F02D1FB68002BF2D10E4B5B694D
:101BC00003F48063B3F5806F10D103230FE00A4B59
:101BD0001B6803F4C063B3F5806F07D0064B1B6826
:101BE00023F4C063044A43F480631360002318465F
:101BF0001437BD4680BC70470070004008000020CC
:101C000083DE1B4380B588B000AF78607B68002B13
:101C100001D10123DBE3A44B9B6803F00C03BB6100
:101C2000A14BDB6803F003037B617B681B6803F057
:101C30001003002B00F0E180BB69002B07D0BB69CB
:101C40000C2B40F088807B69012B40F08480964B00
:101C50001B6803F00203002B05D07B689B69002BF7
:101C600001D10123B3E37B681A6A8F4B1B6803F031
:101C70000803002B04D08C4B1B6803F0F00305E035
:101C8000894BD3F894301B0903F0F003934223D21D
:101C90007B681B6A184600F045FD0346002B01D007
:101CA000012394E3804B1B687F4A43F008031360D1
:101CB0007D4B1B6823F0F0027B681B6A7A49134353
:101CC0000B60794B5B6823F47F427B68DB691B0206
:101CD000754913434B6022E0734B1B68724A43F013
:101CE00008031360704B1B6823F0F0027B681B6ACB
:101CF0006D4913430B606C4B5B6823F47F427B6838
:101D0000DB691B02684913434B607B681B6A1846FA
:101D100000F008FD0346002B01D0012357E300F03B
:101D200041FC0246604B9B681B0903F00F035F49AF
:101D3000CB5C03F01F0322FA03F35D4A13605D4B93
:101D40001B681846FEF724FF0346FB73FB7B002B42
:101D500052D0FB7B3BE37B689B69002B32D0524B1C
:101D60001B68514A43F001031360FEF75DFF3861C1
:101D700008E0FEF759FF02463B69D31A022B01D94E
:101D8000032324E3484B1B6803F00203002BF0D02D
:101D9000454B1B68444A43F008031360424B1B68E1
:101DA00023F0F0027B681B6A3F4913430B603E4BF4
:101DB0005B6823F47F427B68DB691B023A4913436B
:101DC0004B601AE0384B1B68374A23F0010313605D
:101DD000FEF72AFF386108E0FEF726FF02463B695E
:101DE000D31A022B01D90323F1E22F4B1B6803F016
:101DF0000203002BF0D100E000BF7B681B6803F0FA
:101E00000103002B74D0BB69082B05D0BB690C2BD8
:101E10000ED17B69032B0BD1234B1B6803F40033DA
:101E2000002B64D07B685B68002B60D10123CEE27D
:101E30007B685B68B3F5803F06D11B4B1B681A4A71
:101E400043F4803313601DE07B685B68B3F5A02F1B
:101E50000CD1154B1B68144A43F480231360124BBA
:101E60001B68114A43F4803313600BE00E4B1B6870
:101E70000D4A23F4803313600B4B1B680A4A23F48A
:101E8000802313607B685B68002B1CD0FEF7CCFEC0
:101E9000386111E0FEF7C8FE02463B69D31A642B95
:101EA0000AD9032393E200BF0010024078B0000873
:101EB0000800002000000020AE4B1B6803F4003334
:101EC000002BE7D014E0FEF7AFFE386108E0FEF724
:101ED000ABFE02463B69D31A642B01D9032376E299
:101EE000A44B1B6803F40033002BF0D100E000BFCB
:101EF0007B681B6803F00203002B60D0BB69042BD6
:101F000005D0BB690C2B19D17B69022B16D1994BDB
:101F10001B6803F48063002B05D07B68DB68002B13
:101F200001D1012353E2934B5B6823F0F8527B68A5
:101F30001B691B068F4913434B6040E07B68DB68DD
:101F4000002B23D08B4B1B688A4A43F480731360A9
:101F5000FEF76AFE386108E0FEF766FE02463B695E
:101F6000D31A022B01D9032331E2824B1B6803F4FD
:101F70008063002BF0D07F4B5B6823F0F8527B68C6
:101F80001B691B067B4913434B6018E0794B1B68A8
:101F9000784A23F480731360FEF746FE386108E048
:101FA000FEF742FE02463B69D31A022B01D90323F6
:101FB0000DE2704B1B6803F48063002BF0D17B684B
:101FC0001B6803F00803002B3CD07B685B69002B87
:101FD0001CD0684BD3F89430664A43F00103C2F832
:101FE0009430FEF721FE386108E0FEF71DFE024640
:101FF0003B69D31A022B01D90323E8E15D4BD3F8E7
:10200000943003F00203002BEFD01BE0594BD3F8C0
:102010009430584A23F00103C2F89430FEF704FECE
:10202000386108E0FEF700FE02463B69D31A022B36
:1020300001D90323CBE14F4BD3F8943003F00203D3
:10204000002BEFD17B681B6803F00403002B00F02A
:10205000A5800023FB77474B9B6D03F08053002B3B
:102060000DD1444B9B6D434A43F080539365414BE4
:102070009B6D03F08053BB60BB680123FB773E4B35
:102080001B6803F48073002B18D13B4B1B683A4A42
:1020900043F480731360FEF7C7FD386108E0FEF774
:1020A000C3FD02463B69D31A022B01D903238EE1FB
:1020B000314B1B6803F48073002BF0D07B689B6866
:1020C000012B08D12B4BD3F890302A4A43F001035F
:1020D000C2F8903024E07B689B68052B10D1254B1B
:1020E000D3F89030234A43F00403C2F89030214BD8
:1020F000D3F890301F4A43F00103C2F890300FE04C
:102100001C4BD3F890301B4A23F00103C2F89030E7
:10211000184BD3F89030174A23F00403C2F89030DC
:102120007B689B68002B16D0FEF77EFD38610AE0C5
:10213000FEF77AFD02463B69D31A41F28832934298
:1021400001D9032343E10B4BD3F8903003F0020392
:10215000002BEDD019E0FEF767FD38610EE0FEF7C9
:1021600063FD02463B69D31A41F28832934205D996
:1021700003232CE10010024000700040964BD3F87E
:10218000903003F00203002BE9D1FB7F012B05D136
:10219000914B9B6D904A23F0805393657B681B683D
:1021A00003F02003002B3CD07B685B6A002B1CD023
:1021B000894BD3F89830884A43F00103C2F898302D
:1021C000FEF732FD386108E0FEF72EFD02463B695E
:1021D000D31A022B01D90323F9E07F4BD3F89830AF
:1021E00003F00203002BEFD01BE07B4BD3F89830B9
:1021F000794A23F00103C2F89830FEF715FD3861E3
:1022000008E0FEF711FD02463B69D31A022B01D903
:102210000323DCE0704BD3F8983003F00203002B6B
:10222000EFD17B689B6A002B00F0D080BB690C2B40
:1022300000F08D807B689B6A022B5AD1664B1B682D
:10224000654A23F080731360FEF7EEFC386108E006
:10225000FEF7EAFC02463B69D31A022B01D903239D
:10226000B5E05D4B1B6803F00073002BF0D15A4BB7
:10227000DA685A4B13407A68D16A7A68126B013A6D
:10228000120111437A68526B120211437A68D26BC1
:102290005208013A520511437A68126C5208013A09
:1022A000520611437A68926BD2060A434A49134395
:1022B000CB60494B1B68484A43F080731360464B20
:1022C000DB68454A43F08073D360FEF7ADFC3861AC
:1022D00008E0FEF7A9FC02463B69D31A022B01D99C
:1022E000032374E03C4B1B6803F00073002BF0D019
:1022F0006CE0394B1B68384A23F080731360364B0F
:102300001B6803F00063002B05D1334BDB68324AB6
:1023100023F00303D360304BDB682F4A23F088732C
:1023200023F48033D360FEF77FFC386108E0FEF7CA
:102330007BFC02463B69D31A022B01D9032346E0FA
:10234000254B1B6803F00073002BF0D13EE07B6847
:102350009B6A012B01D1012339E01F4BDB687B61B4
:102360007B6903F003027B68DB6A9A422CD17B69AC
:1023700003F070027B681B6B013B1B019A4223D167
:102380007B6903F4FE427B685B6B1B029A421BD1A4
:102390007B6903F078427B689B6BDB069A4213D122
:1023A0007B6903F4C0027B68DB6B5B08013B5B0568
:1023B0009A4209D17B6903F0C0627B681B6C5B08A1
:1023C000013B5B069A4201D0012300E0002318463E
:1023D0002037BD4680BD00BF001002408C809D01AB
:1023E00080B584B000AF786039607B68002B01D184
:1023F0000123C8E0664B1B6803F007033A689A4262
:1024000010D9634B1B6823F0070261493B681343F3
:102410000B605F4B1B6803F007033A689A4201D0D8
:102420000123B0E07B681B6803F00103002B4CD054
:102430007B685B68032B07D1564B1B6803F0007366
:10244000002B21D101239EE07B685B68022B07D122
:10245000504B1B6803F40033002B15D1012392E08D
:102460007B685B68002B07D14A4B1B6803F00203B3
:10247000002B09D1012386E0464B1B6803F48063DF
:10248000002B01D101237EE0424B9B6823F0030225
:102490007B685B683F4913438B60FEF7C5FBF860C0
:1024A0000AE0FEF7C1FB0246FB68D31A41F288320C
:1024B000934201D9032366E0364B9B6803F00C027C
:1024C0007B685B689B009A42EBD17B681B6803F0DA
:1024D0000203002B08D02F4B9B6823F0F0027B688F
:1024E0009B682C4913438B60294B1B6803F007033F
:1024F0003A689A4210D2264B1B6823F007022449FF
:102500003B6813430B60224B1B6803F007033A68D8
:102510009A4201D0012336E07B681B6803F0040374
:10252000002B08D01B4B9B6823F4E0627B68DB68C0
:10253000184913438B607B681B6803F00803002B6A
:1025400009D0144B9B6823F460527B681B69DB0045
:10255000104913438B6000F025F802460D4B9B6831
:102560001B0903F00F030C49CB5C03F01F0322FA95
:1025700003F30A4A13600A4B1B681846FEF708FB70
:102580000346FB72FB7A18461037BD4680BD00BF7C
:10259000002002400010024078B00008080000202F
:1025A0000000002080B489B000AF0023FB6100234D
:1025B000BB613D4B9B6803F00C033B613A4BDB680E
:1025C00003F00303FB603B69002B05D03B690C2B38
:1025D00021D1FB68012B1ED1334B1B6803F008038C
:1025E000002B07D1304BD3F894301B0A03F00F03B4
:1025F000FB6105E02C4B1B681B0903F00F03FB611B
:102600002A4AFB6952F82330FB613B69002B0DD14C
:10261000FB69BB610AE03B69042B02D1244BBB611F
:1026200004E03B69082B01D1224BBB613B690C2BB9
:1026300034D11D4BDB6803F00303BB60BB68022B86
:1026400003D0BB68032B03D005E0194B7B6105E089
:10265000184B7B6102E0FB697B6100BF124BDB68BA
:102660001B0903F0070301337B600F4BDB681B0A78
:1026700003F07F037A6902FB03F27B68B2FBF3F39A
:102680007B61094BDB685B0E03F0030301335B00E6
:102690003B607A693B68B2FBF3F3BB61BB691846E8
:1026A0002437BD4680BC70470010024090B000083F
:1026B0000024F40000127A0080B400AF024B1B68C3
:1026C0001846BD4680BC70470800002080B500AFAA
:1026D000FFF7F2FF0246064B9B681B0A03F0070355
:1026E0000449CB5C03F01F0322FA03F3184680BDB4
:1026F0000010024088B0000880B500AFFFF7DCFF93
:102700000246064B9B68DB0A03F007030449CB5CD7
:1027100003F01F0322FA03F3184680BD00100240A5
:1027200088B0000880B586B000AF786000233B61B8
:102730002A4B9B6D03F08053002B03D0FFF702FA66
:10274000786114E0254B9B6D244A43F080539365D8
:10275000224B9B6D03F08053FB60FB68FFF7F2F99F
:1027600078611E4B9B6D1D4A23F0805393657B69F6
:10277000B3F5007F0BD17B68802B19D97B68A02B28
:1027800002D902233B6113E001233B6110E07B6827
:10279000802B02D903233B610AE07B68802B02D1A6
:1027A00002233B6104E07B68702B01D101233B6174
:1027B0000B4B1B6823F0070209493B6913430B606D
:1027C000074B1B6803F007033A699A4201D00123C3
:1027D00000E0002318461837BD4680BD00100240B7
:1027E0000020024080B586B000AF78600023FB7403
:1027F0000023BB747B681B6803F40063002B31D09B
:102800007B685B6CB3F5400F1AD0B3F5400F14D85A
:10281000002B09D0B3F5000F0FD15D4BDB685C4A8C
:1028200043F48033D3600CE07B6804330021184606
:1028300000F0F0F90346FB7403E00123FB7400E0B1
:1028400000BFFB7C002B0BD1514BD3F8883023F415
:1028500040027B685B6C4E491343C1F8883001E04D
:10286000FB7CBB747B681B6803F40033002B00F017
:102870009E8000237B74464B9B6D03F08053002B9E
:1028800001D1012300E00023002B0DD0404B9B6DB4
:102890003F4A43F0805393653D4B9B6D03F080535B
:1028A000BB60BB6801237B743A4B1B68394A43F415
:1028B00080731360FEF7B8F9F86009E0FEF7B4F929
:1028C0000246FB68D31A022B02D90323FB7405E0EE
:1028D000304B1B6803F48073002BEFD0FB7C002B84
:1028E0005AD12B4BD3F8903003F440737B617B6952
:1028F000002B1ED07B689B6D7A699A4219D0244BBD
:10290000D3F8903023F440737B61214BD3F890309F
:102910001F4A43F48033C2F890301D4BD3F89030F7
:102920001B4A23F48033C2F89030194A7B69C2F8FD
:1029300090307B6903F00103002B16D0FEF774F989
:10294000F8600BE0FEF770F90246FB68D31A41F21B
:102950008832934202D90323FB7406E00C4BD3F870
:10296000903003F00203002BECD0FB7C002B0BD14A
:10297000074BD3F8903023F440727B689B6D044979
:102980001343C1F8903009E0FB7CBB7406E000BF44
:102990000010024000700040FB7CBB747B7C012B6C
:1029A00005D19B4B9B6D9A4A23F0805393657B68BE
:1029B0001B6803F00103002B0AD0954BD3F8883035
:1029C00023F003027B681B6A91491343C1F88830E6
:1029D0007B681B6803F00203002B0AD08C4BD3F8F2
:1029E000883023F00C027B685B6A89491343C1F885
:1029F00088307B681B6803F00403002B0AD0844BEB
:102A0000D3F8883023F030027B689B6A80491343F7
:102A1000C1F888307B681B6803F02003002B0AD0C4
:102A20007B4BD3F8883023F440627B68DB6A7849BB
:102A30001343C1F888307B681B6803F40073002BD4
:102A40000AD0734BD3F8883023F440227B68DB6BC9
:102A50006F491343C1F888307B681B6803F48063B7
:102A6000002B0AD06A4BD3F8883023F440127B68DD
:102A70001B6C67491343C1F888307B681B6803F0FF
:102A80004003002B0AD0624BD3F8883023F4405225
:102A90007B681B6B5E491343C1F888307B681B68F9
:102AA00003F08003002B0AD0594BD3F8883023F46D
:102AB00040427B685B6B56491343C1F888307B68A2
:102AC0001B6803F48073002B0AD0514BD3F8883075
:102AD00023F440327B689B6B4D491343C1F8883027
:102AE0007B681B6803F40023002B28D0484BD3F8E5
:102AF000883023F040627B689B6C45491343C1F8E2
:102B000088307B689B6CB3F1006F06D1404BDB686B
:102B10003F4A43F48013D36011E07B689B6CB3F1B0
:102B2000806F0CD17B6804330121184600F072F8E5
:102B30000346FB74FB7C002B01D0FB7CBB747B68E1
:102B40001B6803F48023002B28D0314BD3F8883046
:102B500023F040627B68DB6C2D491343C1F8883059
:102B60007B68DB6CB3F1006F06D1294BDB68284A28
:102B700043F48013D36011E07B68DB6CB3F1806FAA
:102B80000CD17B6804330121184600F043F803465A
:102B9000FB74FB7C002B01D0FB7CBB747B681B6847
:102BA00003F48043002B1CD0194BD3F8883023F05A
:102BB00040527B681B6D16491343C1F888307B680F
:102BC0001B6DB3F1805F0CD17B6804330221184682
:102BD00000F020F80346FB74FB7C002B01D0FB7C4B
:102BE000BB747B681B6803F40043002B0AD0084BBE
:102BF000D3F8883023F080427B685B6D044913432F
:102C0000C1F88830BB7C18461837BD4680BD00BF70
:102C10000010024080B584B000AF786039600023B6
:102C2000FB73744BDB6803F00303002B18D0714B6C
:102C3000DB6803F003027B681B689A420DD17B6856
:102C40001B68002B09D06B4BDB681B0903F00703E3
:102C50005A1C7B685B689A4247D00123FB7344E0AF
:102C60007B681B68032B18D0032B25D8012B02D0BF
:102C7000022B09D020E05F4B1B6803F00203002BFE
:102C80001DD10123FB731AE05A4B1B6803F48063C8
:102C9000002B16D10123FB7313E0564B1B6803F482
:102CA0000033002B0FD1534B1B6803F48023002B00
:102CB00009D10123FB7306E00123FB7304E000BF8D
:102CC00002E000BF00E000BFFB7B002B0DD1494BB1
:102CD000DB6823F073027B6819687B685B68013BE3
:102CE0001B010B4343491343CB60FB7B002B7CD17F
:102CF000404B1B683F4A23F080631360FDF794FF4D
:102D0000B86009E0FDF790FF0246BB68D31A022BBA
:102D100002D90323FB7305E0364B1B6803F0006305
:102D2000002BEFD1FB7B002B5FD13B68002B10D138
:102D3000304B1B6923F0784323F4FE437A68926892
:102D400011027A68D268D2060A432A4913430B61FA
:102D500027E03B68012B12D1264B1B6923F4C003EB
:102D600023F4FE437A68926811027A681269520865
:102D7000013A52050A431F4913430B6111E01D4BF1
:102D80001B6923F0C06323F4FE437A689268110242
:102D90007A6852695208013A52060A4315491343A8
:102DA0000B61144B1B68134A43F080631360FDF7FB
:102DB0003BFFB86009E0FDF737FF0246BB68D31A56
:102DC000022B02D90323FB7305E00A4B1B6803F0B7
:102DD0000063002BEFD0FB7B002B06D1054B1A695B
:102DE0007B689B69034913430B61FB7B18461037D3
:102DF000BD4680BD0010024080B584B000AF786051
:102E00007B68002B01D101237CE07B6800229A6261
:102E10007B6893F85D30DBB2002B06D17B68002223
:102E200083F85C20786802F097F87B68022283F8C8
:102E30005D207B681B681A687B681B6822F0400273
:102E40001A607B68DB68B3F5E06F02D90023FB6092
:102E500002E04FF48053FB607B68DB68B3F5706F72
:102E600007D07B68DB68B3F5E06F02D07B68002297
:102E70009A627B681B6B002B0BD17B68DB68B3F518
:102E8000E06F03D97B6802221A6302E07B680122AB
:102E90001A637B685A687B689B681A437B681B6966
:102EA0001A437B685B691A437B689B6903F4007370
:102EB0001A437B68DB691A437B681B6A42EA030199
:102EC0007B689A6A7B681B680A431A607B689B6907
:102ED0001B0C03F004027B685B6A1A437B685B6B24
:102EE0001A437B68DB6842EA03017B681B68FA6867
:102EF0000A435A607B6800221A667B68012283F8C5
:102F00005D20002318461037BD4680BD80B588B0CF
:102F100000AFF860B9603B601346FB800023FB778D
:102F2000FB6893F85C30012B01D1022350E1FB6870
:102F3000012283F85C20FDF777FEB861FB88FB82F5
:102F4000FB6893F85D30DBB2012B02D00223FB77E4
:102F500035E1BB68002B02D0FB88002B02D1012396
:102F6000FB772CE1FB68032283F85D20FB680022DD
:102F70001A66FB68BA689A63FB68FA889A87FB68E6
:102F8000FA88DA87FB6800221A64FB680022A3F83B
:102F90004420FB680022A3F84620FB6800221A6543
:102FA000FB680022DA64FB689B68B3F5004F07D129
:102FB000FB681B681A68FB681B6842F480421A6051
:102FC000FB681B681B6803F04003402B07D0FB68BD
:102FD0001B681A68FB681B6842F040021A60FB68B5
:102FE000DB68B3F5E06F4BD9FB685B68002B02D060
:102FF000FB8A012B3ED1FB689B6B1A88FB681B6820
:10300000DA60FB689B6B9A1CFB689A63FB68DB8F3A
:103010009BB2013B9AB2FB68DA872BE0FB681B6826
:103020009B6803F00203022B12D1FB689B6B1A888A
:10303000FB681B68DA60FB689B6B9A1CFB689A63F1
:10304000FB68DB8F9BB2013B9AB2FB68DA8711E029
:10305000FDF7EAFD0246BB69D31A3A689A4203D8E3
:103060003B68B3F1FF3F02D13B68002B02D1032341
:10307000FB77A4E0FB68DB8F9BB2002BCED17CE01A
:10308000FB685B68002B02D0FB8A012B70D1FB68C8
:10309000DB8F9BB2012B12D9FB689B6B1A88FB68F4
:1030A0001B68DA60FB689B6B9A1CFB689A63FB6881
:1030B000DB8F9BB2023B9AB2FB68DA8758E0FB6871
:1030C0009A6BFB681B680C3312781A70FB689B6B59
:1030D0005A1CFB689A63FB68DB8F9BB2013B9AB278
:1030E000FB68DA8744E0FB681B689B6803F0020317
:1030F000022B2BD1FB68DB8F9BB2012B12D9FB6813
:103100009B6B1A88FB681B68DA60FB689B6B9A1CD8
:10311000FB689A63FB68DB8F9BB2023B9AB2FB6849
:10312000DA8725E0FB689A6BFB681B680C33127822
:103130001A70FB689B6B5A1CFB689A63FB68DB8FF9
:103140009BB2013B9AB2FB68DA8711E0FDF76CFD98
:103150000246BB69D31A3A689A4203D83B68B3F176
:10316000FF3F02D13B68002B02D10323FB7726E00F
:10317000FB68DB8F9BB2002BB5D1BA693968F86860
:1031800000F001F90346002B02D0FB6820221A66EA
:10319000FB689B68002B0AD100233B61FB681B681E
:1031A000DB683B61FB681B689B683B613B69FB68B4
:1031B0001B6E002B02D00123FB7700E000BFFB68F1
:1031C000012283F85D20FB68002283F85C20FB7FEE
:1031D00018462037BD4680BD80B584B000AFF8608A
:1031E000B9603B601346FB714CE03B68B3F1FF3FB5
:1031F00048D0FDF719FD0246BB69D31A3A689A42D6
:1032000002D93B68002B3DD1FB681B685A68FB68FC
:103210001B6822F0E0025A60FB685B68B3F5827FAE
:1032200011D1FB689B68B3F5004F04D0FB689B6825
:10323000B3F5806F07D1FB681B681A68FB681B68D1
:1032400022F040021A60FB689B6AB3F5005F0FD161
:10325000FB681B681A68FB681B6822F400521A603E
:10326000FB681B681A68FB681B6842F400521A600E
:10327000FB68012283F85D20FB68002283F85C2054
:1032800003230FE0FB681B689A68BB681340BA68A9
:103290009A420CBF01230023DBB21A46FB799A4203
:1032A000A3D1002318461037BD4680BD80B584B039
:1032B00000AFF860B9607A603B6057E0BB68B3F577
:1032C000C06F06D17B68002B03D1FB681B680C33F1
:1032D0001B783B68B3F1FF3F48D0FDF7A5FC0246E1
:1032E000BB69D31A3A689A4202D93B68002B3DD198
:1032F000FB681B685A68FB681B6822F0E0025A6092
:10330000FB685B68B3F5827F11D1FB689B68B3F5FE
:10331000004F04D0FB689B68B3F5806F07D1FB6852
:103320001B681A68FB681B6822F040021A60FB6881
:103330009B6AB3F5005F0FD1FB681B681A68FB68D6
:103340001B6822F400521A60FB681B681A68FB684D
:103350001B6842F400521A60FB68012283F85D206A
:10336000FB68002283F85C20032308E0FB681B68ED
:103370009A68BB6813407A689A429FD10023184626
:103380001037BD4680BD80B586B002AFF860B96029
:103390007A607B680093BB6800224FF4C051F868E4
:1033A000FFF784FF0346002B07D0FB681B6E43F03A
:1033B0002002FB681A66032327E07B680093BB6842
:1033C00000228021F868FFF707FF0346002B07D093
:1033D000FB681B6E43F02002FB681A66032314E0AF
:1033E0007B680093BB6800224FF4C061F868FFF768
:1033F0005DFF0346002B07D0FB681B6E43F02002E5
:10340000FB681A66032300E0002318461037BD4608
:1034100080BD80B582B000AF78607B68002B01D1A1
:10342000012340E07B685B6F002B06D17B680022A4
:1034300083F87020786801F027FF7B6824225A67A0
:103440007B681B681A687B681B6822F001021A609F
:10345000786800F0BFF80346012B01D1012322E078
:103460007B685B6A002B02D0786800F0C1FB7B6848
:103470001B685A687B681B6822F490425A607B681C
:103480001B689A687B681B6822F02A029A607B6836
:103490001B681A687B681B6842F001021A60786832
:1034A00000F047FC034618460837BD4680BD80B58E
:1034B0008AB002AFF860B9603B601346FB80FB68DE
:1034C0005B6F202B40F08180BB68002B02D0FB8813
:1034D000002B01D1012379E0FB6893F87030012BB8
:1034E00001D1022372E0FB68012283F87020FB689F
:1034F0000022DA67FB6821225A67FDF795FB7861A5
:10350000FB68FA88A3F85020FB68FA88A3F85220D9
:10351000FB689B68B3F5805F08D1FB681B69002BD3
:1035200004D10023FB61BB68BB6103E0BB68FB61A6
:103530000023BB612DE03B6800937B690022802162
:10354000F86800F03BFC0346002B01D003233DE06C
:10355000FB69002B0BD1BB691A88FB681B68C2F39F
:10356000080292B21A85BB690233BB6108E0FB69AD
:103570001A78FB681B6892B21A85FB690133FB61FC
:10358000FB68B3F852309BB2013B9AB2FB68A3F8D8
:103590005220FB68B3F852309BB2002BCBD13B6872
:1035A00000937B6900224021F86800F007FC034685
:1035B000002B01D0032309E0FB6820225A67FB6837
:1035C000002283F87020002300E0022318462037F1
:1035D000BD4680BD2DE9B04F8AB000AFF860002332
:1035E000FB610023FB7600237B61FB689A68FB6824
:1035F0001B691A43FB685B691A43FB68DB69134369
:103600007B62FB681B681A68BB4B1340FA68126840
:10361000796A0B431360FB681B685B6823F44051B5
:10362000FB68DA68FB681B680A435A60FB689B69A1
:103630007B62FB681B68B14A934204D0FB681B6A3B
:103640007A6A13437B62FB681B689B6823F43061D2
:10365000FB681B687A6A0A439A60FB681B68A84A81
:10366000934225D1A74BD3F8883003F00303032BF3
:103670001AD801A252F823F08936000899360008BA
:1036800091360008A1360008012387F82330ABE00B
:10369000022387F82330A7E0042387F82330A3E030
:1036A000082387F823309FE0102387F823309BE01E
:1036B000FB681B68944A934238D1924BD3F8883008
:1036C00003F00C030C2B2DD801A252F823F000BFFD
:1036D000053700082537000825370008253700087A
:1036E000153700082537000825370008253700085A
:1036F0000D37000825370008253700082537000852
:103700001D370008002387F823306DE0022387F877
:10371000233069E0042387F8233065E0082387F825
:10372000233061E0102387F823305DE0FB681B68DD
:10373000764A934225D1734BD3F8883003F0300397
:10374000302B16D0302B18D8202B0AD0202B14D891
:10375000002B02D0102B08D00FE0002387F8233075
:1037600042E0022387F823303EE0042387F8233029
:103770003AE0082387F8233036E0102387F8233017
:1037800032E0FB681B685D4A93422AD15D4BD3F857
:10379000883003F44063B3F5406F1AD0B3F5406F3F
:1037A0001BD8B3F5006F0CD0B3F5006F15D8002B04
:1037B00003D0B3F5806F08D00FE0002387F82330E3
:1037C00012E0022387F823300EE0042387F8233029
:1037D0000AE0082387F8233006E0102387F8233017
:1037E00002E0102387F82330FB681B68434A9342AA
:1037F00040F0FC8097F82330082B24D801A252F81F
:1038000023F000BF29380008473800083138000885
:10381000473800083738000847380008473800089C
:10382000473800083F380008FEF750FF78610DE088
:10383000374B7B610AE0FEF7B5FE786106E04FF496
:1038400000437B6102E00123FB7600BF7B69002B14
:1038500000F0BF81FB685A6813465B0013447A6925
:103860009A4205D3FB685B681B037A699A4202D9C6
:103870000123FB76ADE197F82330082B00F2A380FB
:1038800001A252F823F000BFAD380008C739000884
:1038900015390008C73900084B390008C739000836
:1038A000C7390008C739000897390008FEF70EFF2E
:1038B000034618464FF000014FF000024FF000039E
:1038C0000B0243EA10630202F96849684908084696
:1038D0004FF0000114183C604B417B60FB685B6853
:1038E0001A464FF00003D7E90001FCF76BFF0246D0
:1038F0000B461346FB6169E0F369FFEF008000406F
:1039000000380140001002400044004000480040E0
:103910000024F400FB685B685B081A464FF0000364
:10392000B2484FF0000112EB000A43EB010BFB68B9
:103930005B681A464FF0000350465946FCF742FFB9
:1039400002460B461346FB6140E0FEF72BFE0346A2
:1039500018464FF000014FF000024FF000030B0239
:1039600043EA10630202F9684968490808464FF0C3
:10397000000112EB000843EB0109FB685B681A4683
:103980004FF0000340464946FCF71CFF02460B4639
:103990001346FB611AE0FB685B685B081A464FF050
:1039A000000312F5000443F10005FB685B681A464A
:1039B0004FF0000320462946FCF704FF02460B4661
:1039C0001346FB6102E00123FB7600BFFB69B3F500
:1039D000407F08D3FB69B3F5801F04D2FB681B68E6
:1039E000FA69DA60F5E00123FB76F2E0FB68DB6957
:1039F000B3F5004F7FD197F82330082B5BD801A295
:103A000052F823F0293A0008473A0008653A0008BE
:103A1000B73A0008813A0008B73A0008B73A0008F8
:103A2000B73A00089F3A0008FEF750FE03465A00D6
:103A3000FB685B685B081A44FB685B68B2FBF3F3E6
:103A40009BB2FB613AE0FEF757FE03465A00FB6863
:103A50005B685B081A44FB685B68B2FBF3F39BB2DC
:103A6000FB612BE0FB685B685B0803F1F47303F513
:103A70009043FA685268B3FBF2F39BB2FB611DE01E
:103A8000FEF790FD03465A00FB685B685B081A442A
:103A9000FB685B68B2FBF3F39BB2FB610EE0FB6873
:103AA0005B685B0803F58032FB685B68B2FBF3F38D
:103AB0009BB2FB6102E00123FB7600BFFB690F2B89
:103AC00016D9FB69B3F5803F12D2FB699BB223F094
:103AD0000F037B82FB695B089BB203F007039AB27A
:103AE0007B8A13437B82FB681B687A8ADA6070E00A
:103AF0000123FB766DE097F82330082B58D801A2FC
:103B000052F823F0293B0008453B0008613B0008C0
:103B1000B13B00087D3B0008B13B0008B13B000809
:103B2000B13B0008993B0008FEF7D0FD0246FB6858
:103B30005B685B081A44FB685B68B2FBF3F39BB2FB
:103B4000FB6138E0FEF7D8FD0246FB685B685B0866
:103B50001A44FB685B68B2FBF3F39BB2FB612AE09B
:103B6000FB685B685B0803F5740303F51053FA68A0
:103B70005268B3FBF2F39BB2FB611CE0FEF712FD4F
:103B80000246FB685B685B081A44FB685B68B2FB33
:103B9000F3F39BB2FB610EE0FB685B685B0803F527
:103BA0000042FB685B68B2FBF3F39BB2FB6102E08F
:103BB0000123FB7600BFFB690F2B08D9FB69B3F526
:103BC000803F04D2FB681B68FA69DA6001E00123D8
:103BD000FB76FB6800221A66FB6800225A66FB7EB1
:103BE00018462837BD46BDE8B08F00BF000024F45A
:103BF00080B483B000AF78607B685B6A03F0010338
:103C0000002B0AD07B681B685B6823F400317B685B
:103C10009A6A7B681B680A435A607B685B6A03F098
:103C20000203002B0AD07B681B685B6823F4803199
:103C30007B68DA6A7B681B680A435A607B685B6A48
:103C400003F00403002B0AD07B681B685B6823F435
:103C500080217B681A6B7B681B680A435A607B680B
:103C60005B6A03F00803002B0AD07B681B685B6863
:103C700023F400417B685A6B7B681B680A435A60D7
:103C80007B685B6A03F01003002B0AD07B681B681B
:103C90009B6823F480517B689A6B7B681B680A439E
:103CA0009A607B685B6A03F02003002B0AD07B6874
:103CB0001B689B6823F400517B68DA6B7B681B6888
:103CC0000A439A607B685B6A03F04003002B1AD0BA
:103CD0007B681B685B6823F480117B681A6C7B68C7
:103CE0001B680A435A607B681B6CB3F5801F0AD1BE
:103CF0007B681B685B6823F4C0017B685A6C7B6837
:103D00001B680A435A607B685B6A03F08003002BE0
:103D10000AD07B681B685B6823F400217B689A6C7F
:103D20007B681B680A435A6000BF0C37BD4680BCE5
:103D3000704780B586B002AF78607B680022DA6792
:103D4000FCF772FFF8607B681B681B6803F00803D0
:103D5000082B0ED16FF07E430093FB6800224FF4D6
:103D60000011786800F02AF80346002B01D00323E5
:103D700020E07B681B681B6803F00403042B0ED152
:103D80006FF07E430093FB6800224FF48001786857
:103D900000F014F80346002B01D003230AE07B68EF
:103DA00020225A677B6820229A677B68002283F86A
:103DB0007020002318461037BD4680BD80B584B002
:103DC00000AFF860B9603B601346FB712AE0BB6945
:103DD000B3F1FF3F26D0FCF727FF02463B68D31A1A
:103DE000BA699A4202D3BB69002B1BD1FB681B68DE
:103DF0001A68FB681B6822F4D0721A60FB681B68A3
:103E00009A68FB681B6822F001029A60FB68202216
:103E10005A67FB6820229A67FB68002283F87020AB
:103E200003230FE0FB681B68DA69BB681340BA68BC
:103E30009A420CBF01230023DBB21A46FB799A4257
:103E4000C5D0002318461037BD4680BD80B58AB066
:103E500000AF07F1140300221A605A609A60DA601A
:103E60001A612E4BDB6C2D4A43F00403D3642B4BB9
:103E7000DB6C03F004033B613B69284BDB6C274A96
:103E800043F08003D364254BDB6C03F08003FB60BD
:103E9000FB68224BDB6C214A43F00203D3641F4BC7
:103EA000DB6C03F00203BB60BB681C4BDB6C1B4A82
:103EB00043F00103D364194BDB6C03F001037B6017
:103EC0007B6800224FF400411548FDF737F90022C6
:103ED000C0211448FDF732F94FF400437B61012300
:103EE000BB610023FB6100233B6207F11403194609
:103EF0000B48FCF7A9FFC0237B610123BB610023B2
:103F0000FB6100233B6207F1140319460548FCF7E7
:103F10009BFF00BF2837BD4680BD00BF0010024098
:103F2000000400480008004880B500AF1B4B1C4A45
:103F30001A601A4B1B4A5A60184B00229A60174BA2
:103F40000122DA60154B00221A61144B00225A61DB
:103F5000124B00229A61114B0022DA610F4B0022B2
:103F60001A620E48FDF701F90346002B01D000F05C
:103F7000B8FE00210948FDF74FFD0346002B01D094
:103F800000F0AFFE00210548FDF790FD0346002B31
:103F900001D000F0A6FE00BF80BD00BF9000002051
:103FA00000540040EC9C901080B58AB000AF78605F
:103FB00007F1140300221A605A609A60DA601A61ED
:103FC0007B681B68174A934227D1174BDB6C164A54
:103FD00043F00203D364144BDB6C03F002033B6138
:103FE0003B69114B9B6D104A43F4001393650E4BD4
:103FF0009B6D03F40013FB60FB68C0237B611223FD
:10400000BB610123FB6103233B6204237B6207F155
:10401000140319460548FCF717FF00BF2837BD46B3
:1040200080BD00BF00540040001002400004004862
:1040300080B500AFFFF70AFF00224FF400410A48A5
:10404000FDF77CF8002280210848FDF777F864200E
:10405000FCF7F4FD012280210448FDF76FF800F021
:104060003DFF00BF80BD00BF0004004800080048BD
:1040700080B582B000AF78600B467B807B881946A4
:10408000786800F0CBFF00BF0837BD4680BD000058
:1040900080B582B000AF0346FB7100224021064884
:1040A000FDF74CF8FB1D0121184600F0B7FF00BFDB
:1040B0000837BD4680BD00BF0008004880B582B00B
:1040C00000AF0346FB71012240210648FDF736F898
:1040D000FB1D0121184600F0A1FF00BF0837BD46B7
:1040E00080BD00BF0008004880B584B000AF034623
:1040F000FB800023BB81FB881B0A9BB2DBB23B73B6
:10410000FB88DBB27B73012240210648FDF716F8DD
:1041100007F10C0302211846FFF7AAFF00BF103772
:10412000BD4680BD0008004890B583B000AF04468E
:10413000084611461A462346FB800346BB800B46C1
:104140007B8013463B802A20FFF7A2FFFB881B0AD7
:104150009BB2DBB21846FFF7B1FFFB88DBB2184613
:10416000FFF7ACFF7B881B0A9BB2DBB21846FFF758
:10417000A5FF7B88DBB21846FFF7A0FF2B20FFF7D7
:1041800087FFBB881B0A9BB2DBB21846FFF796FF7E
:10419000BB88DBB21846FFF791FF3B881B0A9BB236
:1041A000DBB21846FFF78AFF3B88DBB21846FFF701
:1041B00085FF2C20FFF76CFF00BF0C37BD4690BD7C
:1041C00080B584B000AF0346FB8000233B81FB88B1
:1041D0001B0A9BB2DBB23B72FB88DBB27B72002313
:1041E000BB810DE0BB895B00397A164AD154BB898B
:1041F0005B000133797A134AD154BB890133BB8107
:10420000BB89B3F5107FEDD3EF23EF22002100200F
:10421000FFF78AFF012240210B48FCF78FFF0023A4
:10422000FB8107E04FF49061064800F0F7FEFB8940
:104230000133FB81FB89632BF4D900BF00BF10372A
:10424000BD4680BDDC0000200008004880B500AFFE
:10425000FFF7EEFE7820FCF7F1FC1120FFF718FFC6
:104260007820FCF7EBFC3620FFF712FF0020FFF769
:1042700025FF3A20FFF70CFF6520FFF71FFFB22054
:10428000FFF706FF0C20FFF719FF0C20FFF716FFC2
:104290000020FFF713FF3320FFF710FF3320FFF755
:1042A0000DFFB720FFF7F4FE7220FFF707FFBB20DA
:1042B000FFF7EEFE3D20FFF701FFC020FFF7E8FE0D
:1042C0002C20FFF7FBFEC220FFF7E2FE0120FFF7E4
:1042D000F5FEC320FFF7DCFE1920FFF7EFFEC42038
:1042E000FFF7D6FE2020FFF7E9FEC620FFF7D0FE3D
:1042F0000F20FFF7E3FED020FFF7CAFEA420FFF750
:10430000DDFEA120FFF7DAFEE020FFF7C1FED0209E
:10431000FFF7D4FE0420FFF7D1FE0D20FFF7CEFEFD
:104320001120FFF7CBFE1320FFF7C8FE2B20FFF76D
:10433000C5FE3F20FFF7C2FE5420FFF7BFFE4C2012
:10434000FFF7BCFE1820FFF7B9FE0D20FFF7B6FE01
:104350000B20FFF7B3FE1F20FFF7B0FE2320FFF76F
:10436000ADFEE120FFF794FED020FFF7A7FE04206A
:10437000FFF7A4FE0C20FFF7A1FE1120FFF79EFE21
:104380001320FFF79BFE2C20FFF798FE3F20FFF73E
:1043900095FE4420FFF792FE5120FFF78FFE2F205D
:1043A000FFF78CFE1F20FFF789FE1F20FFF786FE18
:1043B0002020FFF783FE2320FFF780FE2120FFF758
:1043C00067FE2920FFF764FE4FF6FF70FFF7F8FE47
:1043D00001224FF400410248FCF7B0FE00BF80BD4F
:1043E0000004004890B587B000AF04460846114667
:1043F0001A462346FB800346BB800B46FB701346E0
:104400003B8000237B6100233B610023FB7300237F
:104410007B730023BB73FA8897F82C305B08DBB200
:10442000C3F1F0039A4200F30D81BA8897F82C305B
:10443000C3F1F0039A4200F3058197F82C305B0832
:10444000DBB29AB2FB8813449BB2013B9CB297F853
:104450002C309AB2BB8813449BB2013B9BB2B98803
:10446000F8882246FFF760FEFB78203BFB7097F848
:104470002C30102B03D097F82C30202B55D197F8E7
:104480002C30DB08DBB21A4697F82C3003F0070318
:10449000DBB2002B14BF01230023DBB21344DAB2DA
:1044A00097F82C305B08DBB212FB03F37B7300231D
:1044B0007B6135E097F82C30102B08D1FB78654AEA
:1044C0001B011A447B6913441B78FB730CE097F8BB
:1044D0002C30202B40F0B880FB785F4ADB011A4477
:1044E0007B6913441B78FB7300233B6112E097F94F
:1044F0000F30002B04DA3B8D1846FFF7F5FD03E083
:104500003B881846FFF7F0FDFB7B5B00FB733B69C4
:1045100001333B613B69072BE9DD7B6901337B613B
:104520007B7B7A699A42C5DB91E097F82C300C2BA3
:1045300046D197F82C30DB08DBB21A4697F82C30BE
:1045400003F00703DBB2002B14BF01230023DBB20F
:104550001344DAB297F82C305B08DBB212FB03F39A
:104560007B7300237B6126E0FA783C4913465B00AD
:1045700013449B00CA187B6913441B78FB73002308
:104580003B6112E097F90F30002B04DA3B8D18469F
:10459000FFF7AAFD03E03B881846FFF7A5FDFB7B6C
:1045A0005B00FB733B6901333B613B69052BE9DD34
:1045B0007B6901337B617B7B7A699A42D4DB46E07D
:1045C00097F82C30182B41D197F82C305B007B7377
:1045D00000237B6131E0FA78214913465B001344E4
:1045E0001B01CA187B6913441B78FB737B6903F0BA
:1045F0000103002B02D10823BB7301E00423BB732A
:1046000000233B6112E097F90F30002B04DA3B8D59
:104610001846FFF769FD03E03B881846FFF764FD85
:10462000FB7B5B00FB733B6901333B61BB7B3A69FE
:104630009A42E8DB7B6901337B617B7B7A699A4232
:10464000C9DB04E000BF02E000BF00E000BF1C3790
:10465000BD4690BD38690008F8800008C4640008B1
:10466000286F000890B587B002AF7B600346FB81DE
:104670000B46BB811346FB72FB89DAB2FB7A13440B
:10468000FB721CE0FB7A9BB2FA899A4220D27B68CB
:104690001A783C8CB989F88997F828300193BB8C3B
:1046A00000932346FFF79EFE97F828305B08DBB2A5
:1046B0009AB2FB891344FB817B6801337B607B6882
:1046C0001B787E2B05D87B681B781F2BDAD800E07F
:1046D00000BF00BF1437BD4690BD000080B584B058
:1046E00000AFF860B9607A607B689AB24FF6FF73EA
:1046F000B9680448FEF7DBFE7B6818461037BD46F4
:1047000080BD00BFC405002080B58EB004AF7860C6
:104710007868FCF731F803467B62786AFBF712FE93
:10472000034619467868FBF757FD03465E4918466D
:10473000FBF75CFE03461846FCF71EF802465B4B8F
:1047400083FB02139910D317C91A0B469B000B4425
:104750005B00D31A3B62786AFBF7F4FD0346194607
:104760007868FBF739FD034651491846FBF73EFED2
:1047700003461846FCF700F802464C4B83FB021335
:104780009910D317C91A0B469B000B445B00D31A30
:10479000FB61786AFBF7D6FD034619467868FBF79C
:1047A0001BFD034643491846FBF720FE0346184607
:1047B000FBF7E2FF02463D4B83FB02139910D31730
:1047C000C91A0B469B000B445B00D31ABB61786A85
:1047D000FBF7B8FD034619467868FBF7FDFC034676
:1047E00035491846FBF702FE03461846FBF7C4FF9F
:1047F00002462E4B83FB02139910D317C91A0B469E
:104800009B000B445B00D31A7B61786AFBF79AFD2F
:10481000034619467868FBF7DFFC0346274918462C
:10482000FBF7E4FD03461846FBF7A6FF02461F4BC5
:1048300083FB02139910D317C91A0B469B000B4434
:104840005B00D31A3B61786AFBF77CFD034619468F
:104850007868FBF7C1FC034619491846FBF7C6FD0B
:1048600003461846FBF788FF0246104B83FB0213F2
:104870009910D317C91A0B469B000B445B00D31A3F
:10488000FB60FB6803933B6902937B690193BB69FF
:104890000093FB693A6A796A0A4800F095FD00BF07
:1048A0002837BD4680BD00BF0000204167666666B0
:1048B0000000C84200007A4400401C460050C34734
:1048C000002474492864000880B584B000AFF86003
:1048D000B9607A60FB68092B15DC7B681B68012BCB
:1048E0003DD9FB68DAB2BB681B683032D2B21A70AD
:1048F000BB681B685A1CBB681A607B681B685A1E21
:104900007B681A602BE0FB68174A82FB0312921047
:10491000DB17D31A7A68B9681846FFF7D5FF7B68AA
:104920001B68012B1BD9FA680F4B83FB02139910EC
:10493000D317C91A0B469B000B445B00D11ACAB2AD
:10494000BB681B683032D2B21A70BB681B685A1C35
:10495000BB681A607B681B685A1E7B681A6000BFC0
:104960001037BD4680BD00BF6766666680B588B0FB
:1049700000AFF860B9607A603B60BB687B617B69BF
:10498000002B01D1002380E07868FBF7F5FE034699
:10499000FB61F869FBF7D6FC034619467868FBF71C
:1049A0001BFC0346BB614FF000017868FBF7BCFEBF
:1049B0000346002B13D07B69012B0DD9FB69002B1B
:1049C00002D13B68002B07D0FB685A1CFA602D22ED
:1049D0001A707B69013B7B61FB695B42FB614FF0B5
:1049E0000001B869FBF7A0FE0346002B03D0BB69AA
:1049F00083F00043BB6107F1140207F10C03194671
:104A0000F869FFF761FF3B68002B31D07B69012B10
:104A10002ED9FB685A1CFA602E221A707B69013B62
:104A20007B6125E01B49B869FBF7E0FC0346BB61ED
:104A3000B869FBF7A1FE0346FB61F869FBF782FC4E
:104A400003461946B869FBF7C7FB0346BB617B69A0
:104A5000012B11D9FB69DAB2FB68591CF9603032BD
:104A6000D2B21A707B69013B7B613B68013B3B60C2
:104A70003B68002BD6D100E000BFFB685A1CFA60EF
:104A800000221A707B69BA68D31A18462037BD46CF
:104A900080BD00BF0000204180B58AB004AF002374
:104AA0003B610023BB824FF00003FB604FF000032B
:104AB000BB6000233B6000237B60FCF751F800F0F3
:104AC000A3F8FFF7C3F9FFF72FFA00F007FA00F099
:104AD000ABFBFFF7BBFB0020FFF772FB00F026F9F2
:104AE00000F02FF90346002B03D13E4800F006FDED
:104AF00002E03D4800F002FD4FF47A70FCF79EF8AA
:104B000007F11003184600F025F90346002B64D185
:104B100007F1080207F10C0107F11003184600F035
:104B20006BF90346002B54D1304800F04DFCFB6874
:104B30001846FFF7E9FD2E4800F046FC2D4800F02E
:104B400043FCBB681846FFF7DFFD0A2000F054FC69
:104B5000182302934FF47843019300230093264BCC
:104B6000B42258210020FFF77DFDFA683846022361
:104B70000821FFF7FBFE3B46182202924FF47842D1
:104B80000192002200923C225821A020FFF76AFDEA
:104B9000182302934FF47843019300230093174B9B
:104BA000B42278210020FFF75DFDBA683846022361
:104BB0000821FFF7DBFE3B46182202924FF47842B1
:104BC0000192002200923C227821A020FFF74AFDAA
:104BD00092E70B4800F092FC8EE70A4800F08EFC4A
:104BE0008AE700BF38640008486400085C64000875
:104BF0006C640008706400087C6400088C64000821
:104C000098640008A864000880B5AEB000AF07F152
:104C1000740344220021184600F0CEFB07F1600324
:104C200000221A605A609A60DA601A613B1D5C22A9
:104C30000021184600F0C0FB01237B674FF480334E
:104C4000BB670223C7F89C300323C7F8A0300123B9
:104C5000C7F8A4301423C7F8A8300723C7F8AC302E
:104C60000223C7F8B0300223C7F8B43007F1740349
:104C70001846FCF7C7FF0346002B01D000F031F8BF
:104C80000F233B6603237B660023BB660023FB6682
:104C900000233B6707F1600304211846FDF7A0FBE2
:104CA0000346002B01D000F01CF841237B60002359
:104CB0007B6200237B633B1D1846FDF793FD034693
:104CC000002B01D000F00DF84FF40070FCF746FF08
:104CD0000346002B01D000F004F800BFB837BD46F2
:104CE00080BD80B400AF00BFBD4680BC70470000EF
:104CF00080B586B002AF0346FB80FB881B0A9BB2DF
:104D0000DBB23B73FB88DBB27B7307F10C024FF61F
:104D1000FF730093022388210348FCF7B5FA03468A
:104D200018461037BD4680BD9000002080B500AF0A
:104D300043F2A200FFF7DCFF1420FBF77FFF00BF68
:104D400080BD80B500AF42F22020FFF7D1FF0346BF
:104D5000184680BD80B584B002AF78604FF46040E3
:104D6000FFF7C6FF4FF6FF73009306237A68892189
:104D70000348FCF77DFB034618460837BD4680BD57
:104D80009000002080B485B000AF78600B46FB70C7
:104D90000023BB7300237B73FB78FB7300237B73BF
:104DA00021E07B7B7A6813441A78FB7B5340FB73CA
:104DB0000023BB7311E097F90F30002B07DAFB7B60
:104DC0005B005BB283F031035BB2FB7302E0FB7B01
:104DD0005B00FB73BB7B0133BB73BB7B072BEAD947
:104DE0007B7B01337B737B7B012BDAD9FB7B184602
:104DF0001437BD4680BC704780B586B000AFF86000
:104E0000B9607A600023FB820023BB82FF21F8682F
:104E1000FFF7B8FF03461A46FB6802331B789A4235
:104E20000CD1FB680333FF211846FFF7ABFF0346A5
:104E30001A46FB6805331B789A4201D0012340E0F3
:104E4000FB681B781B021AB2FB6801331B781BB28C
:104E500013431BB2FB82FB8A1846FBF76FFA03462B
:104E60001A491846FBF776FB034619491846FBF723
:104E7000BDFA034617491846FBF7AEF903461A4632
:104E8000BB681A60FB6803331B781B021AB2FB680D
:104E900004331B781BB213431BB2BB82BB8A184678
:104EA000FBF74CFA034609491846FBF753FB034648
:104EB00009491846FBF79AFA03461A467B681A60B6
:104EC000002318461837BD4680BD00BF00FF7F474E
:104ED00000002F43000034420000C84280B500AFFC
:104EE0001B4B1C4A1A601A4B4FF482725A60184BC3
:104EF00000229A60164B4FF4E062DA60144B0222F3
:104F00001A61134B01225A61114B4FF400729A61DE
:104F10000F4B0022DA610E4B00221A620C4B00226A
:104F20005A620B4B00229A62094B0722DA62084B45
:104F300000221A63064B00225A630548FDF75CFF06
:104F40000346002B01D0FFF7CCFE00BF80BD00BFA1
:104F50005C0500200038004080B58AB000AF786062
:104F600007F1140300221A605A609A60DA601A612D
:104F70007B681B68254A934244D1254B9B6D244A8C
:104F800043F480439365224B9B6D03F480433B6164
:104F90003B691F4BDB6C1E4A43F00403D3641C4B7C
:104FA000DB6C03F00403FB60FB68194BDB6C184AF5
:104FB00043F00203D364164BDB6C03F00203BB60C7
:104FC000BB6808237B610223BB610023FB610323D1
:104FD0003B6205237B6207F1140319460D48FBF77A
:104FE00033FF4FF400537B610223BB610023FB615D
:104FF00003233B6205237B6207F11403194606482D
:10500000FBF722FF00BF2837BD4680BD00380040B7
:1050100000100240000800480004004880B582B03B
:1050200000AF78600B467B807A884FF47A7379689A
:105030000348FDF76BFF034618460837BD4680BDA1
:105040005C05002080B483B000AF0E4B1B6E0D4A90
:1050500043F0010313660B4B1B6E03F001037B60EF
:105060007B68084B9B6D074A43F080539365054B63
:105070009B6D03F080533B603B6800BF0C37BD461F
:1050800080BC70470010024080B400AF00BFBD4636
:1050900080BC704780B400AFFEE780B400AFFEE78D
:1050A00080B400AFFEE780B400AFFEE780B400AF8D
:1050B00000BFBD4680BC704780B400AF00BFBD4696
:1050C00080BC704780B400AF00BFBD4680BC704755
:1050D00080B500AFFBF796FD00BF80BD80B586B000
:1050E00000AFF860B9607A6000237B610AE0AFF33B
:1050F00000800146BB685A1CBA60CAB21A707B694C
:1051000001337B617A697B689A42F0DB7B681846E1
:105110001837BD4680BD000080B584B000AF786010
:10512000114B1B68002B02D10F4B104A1A600E4B1B
:105130001B68FB600C4B1A687B6813446A469342F9
:1051400007D900F00FF903460C221A604FF0FF3325
:1051500006E0054B1A687B681344034A1360FB683A
:1051600018461037BD4680BDC005002060060020EF
:1051700080B483B000AF78604FF0FF3318460C372F
:10518000BD4680BC704780B483B000AF78603960A2
:105190003B684FF400525A60002318460C37BD4656
:1051A00080BC704780B483B000AF7860012318469C
:1051B0000C37BD4680BC704780B485B000AFF86046
:1051C000B9607A60002318461437BD4680BC70472A
:1051D00080B400AF124B1B68114A43F00103136007
:1051E0000F4B00229A600E4B1B680D4A23F0A85308
:1051F00023F4102313600A4B4FF48052DA60084BFB
:105200001B68074A23F480231360054B00229A6130
:10521000044B4FF000629A6000BFBD4680BC7047EF
:105220000010024000ED00E080B500AF144B154ABD
:105230001A60134B4FF4E1325A60114B00229A600E
:105240000F4B0022DA600E4B00221A610C4B0C222D
:105250005A610B4B00229A61094B0022DA61084B1C
:1052600000221A62064B00225A620548FEF7D1F866
:105270000346002B01D0FFF734FD00BF80BD00BF07
:10528000C40500200038014080B58AB000AF7860C6
:1052900007F1140300221A605A609A60DA601A61FA
:1052A0007B681B68184A934229D1184B1B6E174A1A
:1052B00043F480431366154B1B6E03F480433B613C
:1052C0003B69124BDB6C114A43F00103D3640F4B73
:1052D000DB6C03F00103FB60FB684FF4C0637B6190
:1052E0000223BB610023FB6103233B6207237B6234
:1052F00007F1140319464FF09040FBF7A5FD00BFDE
:105300002837BD4680BD00BF003801400010024074
:10531000DFF834D0002103E00C4B5B5843500431DC
:105320000B480C4B42189A42F6D30B4A02E000237A
:1053300042F8043B094B9A42F9D3FFF749FF00F0CA
:1053400017F8FFF7A9FBFEE70000012070B1000885
:105350000000002070000020700000205C0600208B
:10536000FEE70000014B1868704700BF0C000020EA
:1053700070B50D4D0D4C641BA4100026A64209D13A
:105380000B4D0C4C01F044F8641BA4100026A642FF
:1053900005D170BD55F8043B98470136EEE755F846
:1053A000043B98470136F2E760B1000860B100089D
:1053B00060B1000864B1000802440346934200D182
:1053C000704703F8011BF9E70FB40A4B13B51C68CB
:1053D00024B1A36913B9204600F072FA05AB049A10
:1053E000A1680193204600F03FFC02B0BDE81040E8
:1053F00004B070470C00002038B5084B1C68054607
:1054000024B1A36913B9204600F05AFAA2682946CC
:105410002046BDE8384000F0EBBE00BF0C00002085
:1054200070B50E46054618B183690BB900F048FA0D
:10543000AB69AC6813B9284600F042FA2C4B9C4289
:1054400020D16C68636EDB0705D4A389980502D46C
:10545000A06D00F0D3FAA38919071DD52369DBB12C
:10546000013EA36816F8011F013BA36039BB002B66
:1054700038DA22460A21284600F048F8013011D0D7
:105480000A2511E01B4B9C4201D1AC68DAE71A4BAC
:105490009C4208BFEC68D5E72146284600F088F812
:1054A0000028DDD04FF0FF35636EDA0705D4A389FD
:1054B0009B0502D4A06D00F0A2FA284670BD002B17
:1054C00004DAA2699A4206DC0A2904D023685A1C2D
:1054D00022601970C5E72246284600F017F801300F
:1054E000BFD1DFE723680A255A1C22601D70DBE765
:1054F000E4B0000804B10008C4B00008024B014643
:105500001868FFF78DBF00BF0C000020F8B50E46ED
:105510001446054618B183690BB900F0D1F9214B47
:105520009C422BD16C68A369A360A3891A072FD56D
:1055300023696BB323692068C01A6369F6B283429A
:10554000374604DC2146284600F026F930BBA36824
:10555000013BA36023685A1C22601E7063690130FE
:10556000834204D0A389DB0706D50A2E04D1214645
:10557000284600F011F988B93846F8BD0A4B9C421C
:1055800001D1AC68CFE7094B9C4208BFEC68CAE781
:105590002146284600F00CF80028CBD04FF0FF370A
:1055A000EAE700BFE4B0000804B10008C4B0000896
:1055B000324B70B51D6806460C4625B1AB6913B970
:1055C000284600F07DF92E4B9C420FD16C68A389D0
:1055D000B4F90C2019072CD4DD0611D4092333604B
:1055E00042F04003A3814FF0FF303EE0254B9C4248
:1055F00001D1AC68EBE7244B9C4208BFEC68E6E7BE
:10560000580712D5616B41B104F14403994202D0AD
:10561000304600F059FA00236363A38923F0240382
:10562000A3810023636023692360A38943F00803F7
:10563000A38123694BB9A38903F42073B3F5007FD9
:1056400003D02146304600F0FFF9A089B4F90C20C0
:1056500010F001030AD00023A36063695B42A361D9
:10566000236943B910F08000BAD170BD810758BFDB
:105670006369A360F4E70020F7E700BF0C00002097
:10568000E4B0000804B10008C4B000088A892DE91C
:10569000F041054610070C4658D44B68002B05DC3A
:1056A0000B6C002B02DC0020BDE8F081E66A002EC6
:1056B000F9D0002312F480522F682B6032D0606D35
:1056C000A3895A0705D56368C01A636B0BB1236CB5
:1056D000C01A00230246E66A216A2846B047431CE6
:1056E000A38906D129681D292CD82A4ACA40D60781
:1056F00028D500226260D9042269226004D5421CA8
:1057000001D12B6803B96065616B2F600029CAD095
:1057100004F14403994202D0284600F0D5F9002054
:105720006063C1E7216A01232846B047411CC7D105
:105730002B68002BC4D01D2B01D0162B01D12F605C
:10574000B1E7A38943F04003A381ADE70F69002FC0
:10575000A9D093070E6808BF4B690F6018BF0023DC
:10576000A6EB07088B60B8F1000F9CDD216AA66AE2
:1057700043463A462846B047002806DCA38943F052
:105780004003A3814FF0FF308EE70744A8EB0008E9
:10579000E9E700BF0100402038B50B6905460C461B
:1057A00013B90025284638BD18B183690BB900F03C
:1057B00087F8144B9C421BD16C68B4F90C30002B59
:1057C000EFD0626ED00704D4990502D4A06D00F02A
:1057D00015F928462146FFF759FF636EDA0705469B
:1057E000E0D4A3899B05DDD4A06D00F008F9D9E7CA
:1057F000054B9C4201D1AC68DFE7044B9C4208BFDB
:10580000EC68DAE7E4B0000804B10008C4B00008AE
:10581000002310B50446C0E90033C0E904338360B7
:1058200081814366C2818361194608225C30FFF79B
:10583000C3FD054B6362054BA362054BE362054B59
:105840002462236310BD00BFA1620008C362000888
:10585000FB6200081F630008014900F0AFB800BFF9
:105860009957000870B54A1E682555430E4605F144
:10587000740100F077F9044640B10021C0E9001638
:105880000C30A06005F16802FFF796FD204670BD60
:10589000014800F0B3B800BF54060020014800F0F2
:1058A000AEB800BF54060020014800F0A7B800BF02
:1058B0004F060020014800F0A2B800BF4F060020AC
:1058C00010B50446FFF7F0FFA3691BB1BDE8104017
:1058D000FFF7F0BFC4E912332365134B134A1B686B
:1058E000A262A34204BF0123A361204600F020F876
:1058F0006060204600F01CF8A060204600F018F818
:105900000022E06004216068FFF782FFA0680122A6
:105910000921FFF77DFFE06802221221FFF778FFDF
:105920000123A361D2E700BFC0B0000859580008A6
:10593000F8B50746FFF7ACFF1E4B1E68B36913B9F5
:105940003046FFF7BDFF4836D6E90134013B03D5A9
:1059500033680BB33668F7E7B4F90C50D5B9164B7A
:10596000E36004F15800656600F047F8FFF796FF22
:10597000C4E90155C4E904552560A56108222946FA
:1059800004F15C00FFF718FDC4E90D55C4E9125598
:105990002046F8BD6834D9E704213846FFF762FF96
:1059A000044630600028D5D1FFF778FF0C233B6018
:1059B000EEE700BFC0B000080100FFFF2DE9F8438B
:1059C0000646884600F148040027D4E90195B9F15C
:1059D000010905D52468002CF7D13846BDE8F883C5
:1059E000AB89012B07D9B5F90E30013303D0294615
:1059F0003046C04707436835E9E77047704770474E
:105A000070B50E46B1F90E10002996B014461D4629
:105A100007DA00232B60B3891A0610D44FF4806391
:105A20000EE06A4600F0A2FC0028F2DB019A02F4C4
:105A30007042A2F500535A425A412A60EEE74023D1
:105A40000020236016B070BD8B8973B59D07064694
:105A50000C4607D504F147032360236101236361EA
:105A600002B070BD01AB6A46FFF7CAFF0099054658
:105A7000304600F077F848B9B4F90C309A05EFD405
:105A800023F0030343F00203A381E3E70D4BB3626A
:105A9000A389206043F08003A381009B6361019B85
:105AA00020615BB1B4F90E10304600F071FC28B1F2
:105AB000A38923F0030343F00103A381A0890543D5
:105AC000A581CDE75958000838B50546002945D0CD
:105AD00051F8043C0C1F002BB8BFE41800F07AFC0E
